S00B00006164632E73726563F1
S31500000000B020FE1F954D000005480000914D0000F0
S31500000010914D0000914D0000914D00000000000040
S31500000020000000000000000000000000914D0000EC
S31500000030914D000000000000C1690000756A0000D3
S3150000004021450000FFFFFFFFFFFFFFFFFFFFFFFF50
S31500000050FFFFFFFFFFFFFFFFFFFFFFFFFFFFFFFFAA
S31500000060FFFFFFFFFFFFFFFFFFFFFFFFFFFFFFFF9A
S31500000070FFFFFFFFFFFFFFFFFFFFFFFFFFFFFFFF8A
S31500000080FFFFFFFFFFFFFFFFFFFFFFFFFFFFFFFF7A
S31500000400FFFFFFFFFFFBFFFFFCFFFFFFFFFFFFFFFD
S31500000410FCFFFFFFFFFFFFFFFCFFFF00FFFFFF00EA
S31500000420FCFF0F20FFFF0F20FCFF7F40FFFF7F40F8
S31500000430FCFF0D40FFFF0D40FFFFFFFFFFFFFFFF2B
S31500000440FFFFFFFFFFFFFFFFFFFFFFFFFFFFFFFFB6
S31500000450FFFFFFFFFFFFFFFFFFFFFFFFFFFFFFFFA6
S31500000460FFFFFFFFFFFFFFFFFFFFFFFFFFFFFFFF96
S31500000470FFFFFFFFFFFFFFFFFFFFFFFFFFFFFFFF86
S31500000480FFFFFFFFFFFFFFFFFFFFFFFFFFFFFFFF76
S31500000490FFFFFFFFFFFFFFFFFFFFFFFFFFFFFFFF66
S315000004A0FFFFFFFFFFFFFFFFFFFFFFFFFFFFFFFF56
S315000004B0FFFFFFFFFFFFFFFFFFFFFFFFFFFFFFFF46
S315000004C0FFFFFFFFFFFFFFFFFFFFFFFFFFFFFFFF36
S315000004D0FFFFFFFFFFFFFFFFFFFFFFFFFFFFFFFF26
S315000004E0FFFFFFFFFFFFFFFFFFFFFFFFFFFFFFFF16
S315000004F0FFFFFFFFFFFFFFFFFFFFFFFFFFFFFFFF06
S31500000500DC03FE1F4B00201020000000200001002D
S315000005102F0000002F0001000C0001001100000058
S31500000520300000003000010024000000240001001B
S315000005302400020024000300240004002400050017
S315000005401300000017000000230000002100000037
S31500000550210001000700000007000100070002005B
S315000005600700030007000400070005000700060057
S315000005700700070012000000440000000800000009
S315000005800B00000041000000400000004000010098
S3150000059004000000430000002B0000002B000A00AE
S315000005A02B000B002B000C002B000D002B00010074
S315000005B02B0002002B0003002B0004002B0005007B
S315000005C02B0006002B0007002B0008002B0009005B
S315000005D00600000006000A0006000B0006000C00DC
S315000005E006000D0006000E0006000F0006000100C2
S315000005F006000200060003000600040006000500CF
S3150000060006000600060007000600080006000900AE
S315000006101500000015000100150002003100000061
S315000006202A00000045000000100000000301000041
S3150000063003000000030001000F0000000D00000091
S315000006402D000000420000002C0000002C000100DC
S315000006502C0002002C0003003200000028000000DD
S31500000660180000001400000014000100140002002D
S315000006701400030014000400140005001400060012
S3150000068014000700140008001400090034000000DC
S3150000069034000100160000001600010035000000BD
S315000006A03600000036000100220000003300000082
S315000006B0330100002900000010B5054C237833B93A
S315000006C0044B13B10448AFF300800123237010BD1F
S315000006D03003FE1F000000001880000008B5034B21
S315000006E01BB103490348AFF3008008BD00000000BA
S315000006F03403FE1F1880000020B1034B1B68036003
S3150000070000207047012070475C74000058B1F0B5B6
S31500000710446887B02CB183781BB9344A216891426A
S3150000072002D007B0F0BD704794F86610276D256EAD
S31500000730002936D0B4F86420616C05FB02F605FB8F
S3150000074007F086B100F10042A06C013A00EB4200CE
S3150000075031F8022B20F8022FB4F86420013305FB90
S3150000076002F69E42F4D8A36D1744013B2765A365A4
S31500000770002BD6D1616DE06C029701FB02F21744A3
S31500000780A16C8742CDE9041288BF23650022E36E7F
S3150000079003938DF80420A36E01A89847636DA365A3
S315000007A0BFE7E36D226C03EB070C966810680593B0
S315000007B002976344E76CA26C049205FB03F3BB4209
S315000007C09CBF6D000CFB0522C4F850C0B4F8543031
S315000007D088BF21657568616CA847E36E03930022A4
S315000007E08DF80420A36E01A898479AE74743444131
S315000007F02DE9F04FA7B0002800F0BD80934B0268AA
S315000008009A4200F0CA80002900F0B5800B6A002BDE
S3150000081000F0B1800B68002B00F0AD804A68002A1A
S3150000082000F0A9800C7C1CB98C68002C00F0A38019
S315000008308C69002C00F0B6800D468968836300F150
S315000008400408C0E90F210446342340460122002152
S3150000085004F04EFE0646002840F09A806B68A26BB4
S31500000860D3F804C0E36BD2F80CA0D3F808B01B6829
S31500000870D2F800900093ADF82A00BCE80F0015AF3F
S315000008800FC79CE80F000B9687E80F000C96CDE982
S315000008901A66CDE90D660F962B685E680DF1740C2D
S315000008A006F1200E30687168B268F36867460FC7B4
S315000008B010367645BC46F5D130683860644ADAF8B9
S315000008C0003022941DA921924846984706460028E2
S315000008D05AD12A68DAF8043091684846984706469D
S315000008E000284DD1009FDBF8003015A938469847FF
S315000008F00646002844D1D5E90523E968287CA16489
S31500000900E264296A6A6A2665C4E9153384F86600D2
S31500000910C4E91A12DBF81C3007A938469847064680
S31500000920002841D12B68BDF82A20DB6801920BA96B
S31500000930DB6A48469847064600287DD10C9A94F80B
S3150000094066300B999DF8346003921FFA82FE02917D
S315000009506164A4F864E026667BB33E4B9DF83500DF
S315000009609B6801999847064670B9384B2360304614
S3150000097027B0BDE8F08F0126304627B0BDE8F08FDE
S31500000980DAF8283048469847404604F007FEF3E771
S315000009906426304627B0BDE8F08F0826304627B0DB
S315000009A0BDE8F08F0326E7E7DBF8203038469847A6
S315000009B0DAF8283048469847E6E7AB6805931A46C2
S315000009C0236CD2F804C01B680493BCE80F0010AF78
S315000009D00FC70346BDF83620DCF80000D97838602A
S315000009E0ADF84420606D039AD4F84CC0029F66F3BC
S315000009F0051100FB02F27600D97002FB06F6E868E4
S31500000A00298BA3F80EE066455F6088BFCD26986007
S31500000A109981E26510D8059B049F9B6810A91B6805
S31500000A2038469847064638B9AB689B6838469B688F
S31500000A3098470646002890D0DBF820300098984763
S31500000A40DAF82830484698479EE700BF47434441B6
S31500000A500D0700007475000020B338B50268124B0C
S31500000A609A4201D0072038BD0446051D00212846BC
S31500000A7004F0AAFDE36B9A681868136A9847A36B9B
S31500000A80DA681868936A984794F8663023B9236C35
S31500000A909A681868D3699847284604F07FFD0020B5
S31500000AA0206038BD01207047474344412DE9F0419D
S31500000AB018B3174B02689A4203D007252846BDE8AB
S31500000AC0F081D0E90E23041D20460021D668156862
S31500000AD09F68D3F8008004F077FDB0B92846B36864
S31500000AE09847054668B9BB6840469847054620467C
S31500000AF004F094FD2846BDE8F08101252846BDE8AE
S31500000B00F081204604F08AFDD8E70825D6E700BF25
S31500000B104743444170B5C0B10E4B02689A4202D0B9
S31500000B200725284670BDC36B041D204600219E681C
S31500000B301D6804F049FD58B973682846984705466C
S31500000B40204604F06BFD284670BD0125284670BD81
S31500000B500825E6E747434441114A136870B4040A7E
S31500000B609C4216D25668C0B200F11005012356F811
S31500000B70246003FA05F535420BD069B100EB041089
S31500000B80936853F82030C3F3400300200B7070BC09
S31500000B907047032070BC7047184670BC704700BF92
S31500000BA0F002FE1F084B1A68000A904207D241B1B4
S31500000BB0DA684301043200209B580B8070470320FB
S31500000BC070470120704700BFF002FE1F084B1A68ED
S31500000BD0000A904208D249B1DA6843010432002083
S31500000BE09B581B0C0B8070470320704701207047F1
S31500000BF0F002FE1F70B4134C2268030A93421BD204
S31500000C006668C0B200F11005012256F8236002FAA8
S31500000C1005F5354210D091B1E4685B01043402FA5F
S31500000C2000F01C5983B233EA144313BF002000209E
S31500000C300A70087070BC7047032070BC704710467D
S31500000C4070BC7047F002FE1F0C4B10B41C68000A03
S31500000C50A0420ED26AB1DB685DF8044B083303EBA1
S31500000C60401022EA01030A4042EA034242600020A1
S31500000C70704703205DF8044B704700BFF002FE1F6B
S31500000C80144A70B41468030AA3421DD25668C0B24F
S31500000C9000F11004012556F8236005FA04F43442E5
S31500000CA012D0A94210D8D26802F1080202EB43130F
S31500000CB005FA00F05D680AD045EA0040000C000421
S31500000CC0586070BC00207047032070BC70472843F2
S31500000CD080B2F5E7F002FE1F18B1034B0360002057
S31500000CE070470120704700BF07010301012920D882
S31500000CF070B4124C2368020A9A4217D26668C0B2D0
S31500000D0000F11005012356F8226003FA05F5354275
S31500000D100CD003FA00F083B269B10020E1685201F9
S31500000D2008311843505070BC00207047032070BC37
S31500000D3070470320704700040B46EFE7F002FE1FE2
S31500000D40012957D82E4BF0B41C68020AA2424ED293
S31500000D505D68C0B200F11006012455F82250B44077
S31500000D602C4244D000EB02109C681D6954F82030D8
S31500000D70002941D043F00401224E0E40EFF31087C4
S31500000D80012383F31088204B1A8892B222B94FF0C0
S31500000D90400CEA7085F803C01A88013292B21A80B4
S31500000DA087F31088CF0354F8202007D5174F22F475
S31500000DB080320F4044F8202044F8207044F8206028
S31500000DC0EFF31081012282F310881A8892B21AB1C9
S31500000DD01A88013A92B21A801B889BB213B98022F4
S31500000DE0EB70EA7081F310880020F0BC7047032096
S31500000DF0F0BC70470320704723F00401BCE700BF36
S31500000E00F002FE1FD5FC011F4C03FE1FD5FC001F80
S31500000E10B2B10C4B10B41C68000AA0420CD2DB68BD
S31500000E2022EA0104400108330A4042EA0442C25061
S31500000E305DF8044B0020704703205DF8044B7047B3
S31500000E4003207047F002FE1FD2B10E4B70B41C682F
S31500000E50000AA04211D2DD68400102EA01032E58C1
S31500000E602C58334361EA02029BB2210C1A40090452
S31500000E700A432A50002070BC7047032070BC70479C
S31500000E8003207047F002FE1FF8B500283BD0096822
S31500000E901E4F4FF0000C01EBC00066464FF0010EEE
S31500000EA08D8840F2024295424FF000030BD10C6848
S31500000EB00EFA03F204F0B854D2B2B4F1807F0CBF3C
S31500000EC0164342EA0C0C0133032B06D037F81320E5
S31500000ED09542ECD00133032BF8D108318142DFD1A2
S31500000EE06FEA0C0C5FFA8CF4012003F003FF084B49
S31500000EF093F8BB241643264083F8BB640120BDE863
S31500000F00F84003F0C7BE0646FF24EDE79C740000D8
S31500000F1000E0014070B582B002AB002403F8044D36
S31500000F20054618460E4603F04DFC9DF80430DB07D7
S31500000F3015D5202D10D8012E0ED80A4B1B691A780C
S31500000F4013BF154302F0300222EA050505F030050D
S31500000F5020461D7002B070BD032002B070BD062091
S31500000F6002B070BDF002FE1F2DE9F0470746011DD5
S31500000F700088FFF789FF3B88002B4ED0DFF8A4E0FE
S31500000F80274900224FF0010C4FF0400A4FF080092C
S31500000F907B68DEF8106053F83250DEF8084003EB49
S31500000FA0C2039B88180ADBB203EB0013EFF3108829
S31500000FB08CF31088088880B210B9F07086F803A008
S31500000FC00888013080B2088088F3108815F4803FC5
S31500000FD054F8230007D020F4803025F4803844F8F4
S31500000FE0230044F8238044F82350EFF310808CF359
S31500000FF010880B889BB21BB10B88013B9BB20B8000
S315000010000B889BB213B9F37086F8039080F31088AF
S3150000101001323B8892B29342BAD80020BDE8F087ED
S315000010204C03FE1FF002FE1F18B143680BB1FFF719
S315000010309BBF0120704700BF00283AD04368002BB1
S3150000104037D02DE9F04186B006AD00230922019381
S3150000105005F8142D184A194CD2F80C80029306464E
S31500001060CDE90333059302A92846C047029BE360F6
S315000010700A22BDF80C308DF8042002A9059A626098
S31500001080284601272360C047029B8DF80570284635
S3150000109002A9A360C0477368029A22612BB1304649
S315000010A0FFF762FF06B0BDE8F081384606B0BDE83E
S315000010B0F0810120704700BF58750000F002FE1F46
S315000010C02DE9F0412F4C23684FEA1028984584B04B
S315000010D053D26268C5B205F11003012752F82820E1
S315000010E007FA03F3134248D00E4604A902AA0346A0
S315000010F041F80C2D3846ADF80C300296ADF800706C
S3150000110005EB0815FFF7C0FE2169A068EFF3108410
S3150000111087F310881C4B1A8892B212B94027CA70FE
S31500001120CF701A88013292B21A8084F31088F403C1
S3150000113050F8252007D522F4803226F4803440F872
S31500001140252040F8254040F82560EFF31080012265
S3150000115082F310881A8892B21AB11A88013A92B2AA
S315000011601A801B889BB213B98022CB70CA7080F399
S315000011701088002004B0BDE8F081032004B0BDE86B
S31500001180F08100BFF002FE1F4C03FE1F68B18368AA
S315000011905BB1C168064A914205D1DA6A6FF3000273
S315000011A0DA6200207047072070470120704700BFB1
S315000011B05450470068B183685BB1C168064A9142E2
S315000011C005D1DA6A42F00102DA6200207047072090
S315000011D070470120704700BF5450470020B1034BB1
S315000011E01B6803600020704701207047A47400004C
S315000011F02DE9F04782B002AC002544F8045D3C4D71
S315000012008946AF6982469046214603201E464C46D3
S315000012100025B847B8F1060F2AD8DFE808F00D48D0
S315000012200453575B2D000198324A0023A9FB0001A5
S3150000123005F098FE04460D469AF81530012B32D07B
S315000012404FF0FF300021A94208BFA0424FF0000333
S3150000125022D2A208AF0842EA8572B94203F101031D
S3150000126008BF904214463D46DBB215D2052BF0D19D
S31500001270032002B0BDE8F08700234FF47A7202FB28
S3150000128009F21946019805F06DFE04460D469AF8D6
S315000012901530012B07D000230A9A00201370346002
S315000012A002B0BDE8F0874FF6FF700021CBE701984A
S315000012B00DA3D3E90023A9FB000105F053FE044664
S315000012C00D46B9E701984FF47A72AEE7019CA9FB87
S315000012D00445B1E72B464A460198002105F042FE37
S315000012E004460D46D3E700BF00CA9A3B0000000043
S315000012F0C075000040420F00012A70B506461C4624
S315000013002FD02AD3022A26D11A4A0023A4FB010190
S31500001310002505F027FE012E0ED0A94208BFA042E7
S3150000132004D0002908BFB0F1FF3F10D14FF0FF30C5
S31500001330049B1860002070BD14F1FF3245F1FF33A5
S31500001340101A63EB0101A94208BFA042EED08D42FC
S3150000135008BF8442ECD2032070BD08460025002158
S31500001360D9E764220023A4FB0101002505F0FAFD5C
S31500001370D1E700BFA0860100002836D08368002B85
S3150000138033D0224AC16891422DD130B5DA6A6FF363
S315000013900002DA6290F91420002A83B027DADA8E86
S315000013A06FF30822DA869A8E04466FF3082202A8A3
S315000013B000252B219A86237CADF8045000F8041DE5
S315000013C0ADF8063003F00CFC94F91430657413F193
S315000013D0210F04D00E4A126852F833301D600020E7
S315000013E0E06003B030BD0720704701207047510907
S315000013F020310124074D02F01F0204FA02F245F8DB
S315000014002120BFF34F8FBFF36F8FC8E754504700BB
S315000014100C7B000000E100E050B149B183683BB1AC
S31500001420C068054A904205D19B6C0B60002070474E
S3150000143001207047072070475450470038B383682F
S315000014402BB3144BC2689A421FD130B4EFF310810C
S31500001450012282F310888368DD6ADC6A6FF3000478
S31500001460DC62047C9869A24040F000409861DA6032
S315000014709A696FF3DF729A61DA6A65F30002DA62DB
S3150000148081F31088002030BC704707207047012088
S31500001490704700BF5450470058B130B5856885B0D5
S315000014A065B141B1184CC568A5420AD0072005B000
S315000014B030BD01207047032005B030BD012005B0C6
S315000014C030BD0DF10B030025009303AB04460395D5
S315000014D08DF80B50FFF78CFE0028E8D1A368D96A77
S315000014E0DA6A60F30002DA62DA6A9DF80B4064F3A6
S315000014F01A62DA62039A013A5A669864DA6A61F302
S315000015000002DA62D3E700BF5450470078B1F0B565
S31500001510866885B02EB3012B06D8214CC568A54236
S3150000152007D0072005B0F0BD032005B0F0BD0120AF
S31500001530704704AF0446002047F8040D1D46736E3D
S31500001540A07D00970133FFF7D7FE0028EDD1039A5F
S31500001550A3684AB91A6B02217DB161F319621A6355
S31500001560E3E7012005B0F0BD511C0FD0196B45B95A
S3150000157060F3114119635A65D7E761F311421A63A3
S31500001580D3E760F3196119639A65CEE71A6B1DB14B
S3150000159042F040721A63C8E742F440321A63C4E765
S315000015A05450470000283DD000293BD02DE9F0419A
S315000015B0D0F8088082B0B8F1000F35D01D4BC26854
S315000015C09A4235D10C46D8F864301B4A02A9002647
S315000015D0013341F8046DA360D8F82C709369054671
S315000015E0C7F30267032098477F00012303FA07F732
S315000015F0019AB2FBF7F76760D8F83020C2F3000211
S315000016002270D8F82C2012F0010F18BF334623732E
S315000016102B7C03EB83035B00B633E381304602B0D9
S31500001620BDE8F08101207047012002B0BDE8F081DD
S315000016300720F4E754504700C07500002DE9F0413B
S315000016408AB0002963D0002861D04B7C934EADF858
S315000016501230044600232B20ADF810300F468DF8CB
S315000016601000F2688DF80B300393CDE90633CDE90F
S31500001670083306A904A890470546002848D10AAAB7
S31500001680069942F8140D3369A16004A80621BDF835
S315000016901E809847BDF81E309DF8142022755E07FF
S315000016A05CBF012363750DF10B0348BF65753A7A7C
S315000016B079680093204603ABFFF79AFD054638BBD1
S315000016C07B69002B00F0CE8094F91420213200F0C3
S315000016D05781BA69C4E900327B7C23743A78012ABF
S315000016E000F0D080FB69022A1D7899781879A075D8
S315000016F04FF00003A574E1746374069300F0A680AE
S3150000170004A803F039FA054630B1082500E00125A2
S3150000171028460AB0BDE8F081A66804A803F0B6F929
S31500001720F36A4FEAD80865F30003F3624FF42540E5
S315000017304FF0FF33012128F00102306035617561F9
S315000017407561F56135627562B562F562316375631F
S31500001750B563F5633564B564F36433657365B36582
S315000017607366B366C6F88850C6F88C308AB175645D
S31500001770F3663367F3677367C6F88030B367C6F8F6
S315000017808430C6F89030C6F89430C6F89830C6F85B
S31500001790A050A6689DF80B00F26A0699039B6FF3AA
S315000017A01242F262326B42F002023263326B42F054
S315000017B001023263326B6FF341023263F26A60F305
S315000017C01A62F262FA69013B00207366B06432B1B4
S315000017D01378002B40F09F809378002B64D17B69AF
S315000017E0002B00F0CF80BB7C94F914002C4A1B011F
S315000017F000281268DBB2C0F2CA8000F1604101F530
S31500001800614181F8003352F830301C6003F088F9EA
S3150000181094F91420002A0DDB53099B0003F1604361
S3150000182003F5614302F01F02012101FA02F2C3F837
S3150000183080211A60FB7C1BB1F36A43F00103F3625B
S31500001840184BE36028460AB0BDE8F08106AD3A7C45
S31500001850F968039B0095FFF74FFD054600283FF406
S315000018604FAF55E73A78012A02D07B7C237439E7DB
S3150000187094F91420213200F08380BA69C4E9003259
S315000018807B7C2374FB691A7898781979A2740023F3
S315000018900122E074A1756274069331E75875000061
S315000018A00C7B000054504700A368D0789A8E97F8B6
S315000018B000C060F304129A869A8E60F387129A86A5
S315000018C09A8EBCF1010F42F00C029A8665D0BCF1EB
S315000018D0000F00F09880A27D002A40F0A5809A8E25
S315000018E0012060F301029A869A8E022060F3830239
S315000018F09A861A6C012060F393421A641A6B0029C7
S3150000190040F08B80022161F319621A639A8E42F4C9
S3150000191080729A8663E7F38E92F801C097F800E02A
S315000019206CF30413F386F38E6CF38713F386F38E4E
S31500001930BEF1010F43F00C03F38649D0BEF1000F50
S3150000194066D0A37D002B40F08180F38E012060F3EA
S315000019500103F386F38E022060F38303F386336C70
S31500001960012060F311433364336B002967D10220F1
S3150000197060F311433363F38E43F48073F3862BE7EE
S315000019800B25C5E63B78012B7FF454AF2BE7434983
S3150000199000F00F0C61440B7635E700221A651A6CCD
S315000019A06CF393421A64627D012A0CBF4FF6FF72F4
S315000019B04FF0FF329A659A8E00285CD1022161F3BE
S315000019C001029A869A8E012161F383029A869DE727
S315000019D0F064336C6EF311433364637D012B0CBFEB
S315000019E04FF6FF734FF0FF337365F38EBCF1000FB4
S315000019F037D1022060F30103F386F38E012060F3F2
S31500001A008303F386B7E79A8E6CF301029A867DE725
S31500001A10F38E6EF30103F386ADE7481C35D06FF302
S31500001A2019621A63996571E79A8E022060F30102C2
S31500001A309A869A8E012060F383029A8659E7481C9B
S31500001A4027D06FF311433363716594E7F38E022059
S31500001A5060F30103F386F38E012060F38303F386BC
S31500001A607DE7012060F30103F386F38E022060F325
S31500001A708303F3867FE7012161F301029A869A8E3A
S31500001A80022161F383029A8640E742F040721A63AC
S31500001A903CE743F4403333636DE700BFFCEC00E002
S31500001AA070B1084A084B12689A4207D1074B1B6867
S31500001AB05A6803EB820303600020704712207047C8
S31500001AC0012070470403FE1F494D46009CB17F402C
S31500001AD020B1034B1B68036000207047012070474C
S31500001AE07075000008B5154B196889B103F57F704C
S31500001AF0002201E053F8041F83420A44FAD13AB99E
S31500001B000F4B19680B0CB3F5807F04D000BEFDE7C0
S31500001B1000BE00BEFCE70B68013B033307D8243147
S31500001B200422084805F0A4FB20B100BEFDE700BE74
S31500001B3000BEFCE7044B054A1A6008BDB4760000F7
S31500001B409CB17F40D87600000403FE1F494D460035
S31500001B50A8B10C4A0C4B12689A420ED10B4B1B686B
S31500001B605A6800F1100103EB820353F8042F40F882
S31500001B70042B8142F9D100207047122070470120C2
S31500001B80704700BF0403FE1F494D46009CB17F40CD
S31500001B9040B13AB1F0B51B4C1B4B24689C4203D0B4
S31500001BA01220F0BD01207047184B1E681EB3184B5B
S31500001BB007781B68002404E00134B44203F10803EB
S31500001BC019D09D79BD42F7D193F805C04588B5EB8C
S31500001BD09C0FF1D1DD7990F801C005F0070EE645BE
S31500001BE0EAD1B1EBD50FE7D19B881470C3F3090393
S31500001BF053800020F0BDDF21FF23117053800B209E
S31500001C00F0BD00BF0403FE1F494D46009C03FE1FA6
S31500001C100C7B000038B131B18A4A8B4B12689A426C
S31500001C2003D012207047012070472DE9F041874DFF
S31500001C300278AC6805EB8404A3789A4264D24FEA32
S31500001C40121C04EB8C0702F00F06B7F8088028FA7E
S31500001C5006FE1EF0010F57D0072EBF7A0AD904EBF5
S31500001C608C0C02F007069CF80B2002F00F021744BA
S31500001C704FEA1828DFF8DCC1754A1CF8066006EA48
S31500001C8008061B09925D02333A449B0003EB4203AC
S31500001C90E618E25A96F90160C2F30902002E05EB36
S31500001CA0820308DB002B2FD04678002E4BD040F263
S31500001CB07950BDE8F08115F8222045785208DDB14B
S31500001CC04FF0020C012604271C78E40705F1FF35C6
S31500001CD0EDD5052A0CD8DFE802F0342D221C1A03B4
S31500001CE09A78D41C1CFB026202EB940203EB82037B
S31500001CF01A785208002DE7D1042A00F2A080DFE806
S31500001D0002F06262624F3B004FF4AF60D1E70833E6
S31500001D10EEE79A7817FB026203EB8203E8E71C7989
S31500001D209A7812FB04F20332033402EB940203EBBB
S31500001D308203DDE71A79033202F4FE720C32134491
S31500001D40D6E70C33D4E7DF784088D4F804C03E46A3
S31500001D50C6F30304C7F3031701264F728C728E80F5
S31500001D6000284FD135F822209B78CB800CEB02223D
S31500001D700A600872C8609CE7D8785C785D680D6078
S31500001D8000230246C2F30302C0F303108B800B72DA
S31500001D90CB60A307CC8048728A7288D5002088E77A
S31500001DA0D8785C789D78CC800246C0F30310C2F3E5
S31500001DB0030204330424487200208A728D80CB60AB
S31500001DC00C72086075E7DD781E7940882C46C5F3ED
S31500001DD003154D72B5B2C4F3030485428C728D802F
S31500001DE010D9DC889D68012A00FB04540C601DD0C4
S31500001DF0022A0AD0B3F80130CB8000220A72CA60E8
S31500001E00002BCBD140F27A5053E79C78033600FB87
S31500001E1004F202EB96061844F21C03EB8203027BE3
S31500001E20CA80CB600C72002AB8D1EBE718440023B5
S31500001E30027BCA800B72CB60002AAFD1E2E7642036
S31500001E4037E700BF0403FE1F494D4600B476000085
S31500001E50D074000050750000034B04301B6823F853
S31500001E6020100020704700BF5003FE1F034B021DC9
S31500001E701B68002023F82200704700BF5003FE1F96
S31500001E80034B1A68137843F08003137000207047E1
S31500001E905003FE1F034B1A6813786FF3C7131370B2
S31500001EA0002070475003FE1F20B1034B1B680360E0
S31500001EB000207047012070479075000060B101282E
S31500001EC008D1094B1B680020402141221871197165
S31500001ED01A71704701207047034B1B68402141224D
S31500001EE0987099709A7070475003FE1FF0B587B0CE
S31500001EF0002832D004461A4800230B22CDE90133CC
S31500001F00CDE90333059302A9C3688DF8042001A81F
S31500001F109847054610B1284607B0F0BD114F029B01
S31500001F203B6001A802F0B2FD606858B1A3683E6844
S31500001F3003EB8000598813F8042B0432834226F8F9
S31500001F402210F7D12378002BE5D03A68137828467B
S31500001F5043F08003137007B0F0BD0125DBE700BF37
S31500001F60587500005003FE1F062070470620704774
S31500001F7090B10A4B02689A420CD190F90630084A91
S31500001F80C033126852F823106FF3186142F8231019
S31500001F9000207047072070470120704700435444D3
S31500001FA05C03FE1F20B1034B1B68036000207047D3
S31500001FB0012070479475000010B31A4B02689A42CC
S31500001FC01CD1E9B1184B90F906201B68DB8900206B
S31500001FD09BB28871180415D4144B53F82230D87864
S31500001FE000F0C000802813D0DB8940289BB28B808C
S31500001FF015D078B94FF480330B60704707207047CF
S31500002000012070475BB2934204BF01238B71E3E763
S315000020109B898B804FF480730B6000207047DBB286
S315000020208B80F7E7004354445803FE1F0000FE1F51
S31500002030F0B1114A01689142034617D190F9062082
S3150000204012F1210F16D00D4902F1C000096830B413
S3150000205051F820400A4D6FF3186441F820400021E2
S3150000206045F822100846196030BC704707207047B3
S31500002070012070470B207047004354445C03FE1F49
S315000020800000FE1F68B31D4B02689A422BD190F9DF
S31500002090063013F1210F28D0194A52F823209168EF
S315000020A0F9B15168E9B1D17801F0300110291ED09B
S315000020B0202910D0134AC033126852F823106FF348
S315000020C0104142F8231052F8231041F0807142F873
S315000020D02310002070479168890702D15268920741
S315000020E0E8D001207047072070470B2070479168A1
S315000020F0C907F6D45268D007DCD5F2E7004354444A
S315000021000000FE1F5C03FE1FF0B583B00191009234
S3150000211000283ED0214990F9062051F82260F17836
S3150000212011F0C0012ED053B31D4C0568A5422DD128
S31500002130802902D1F489A4B25CB31A4C1A4D2468E2
S315000021402D68C03254F822706FF3186744F8227075
S315000021502A786FF304122A70019A0AB1019A726002
S31500002160009A0AB1009AB260802915D001B9F381AC
S31500002170FFF788FF2B7843F010032B7038B113203C
S3150000218003B0F0BD064C0568A542D6D0072003B0C3
S31500002190F0BD012003B0F0BDB381E9E70000FE1FEA
S315000021A0004354445C03FE1F5803FE1FF0B583B082
S315000021B001919DF820600092BDF8245000283BD084
S315000021C0214A90F9064052F82410CA7802F0C0025B
S315000021D0802A34D1002D2FD0002B2DD01B4A076822
S315000021E097422FD11A4A1B4F12683F68C03452F8E3
S315000021F024C06FF3186C42F824C03A786FF30412C7
S315000022003A70019A0AB1019A4A60009A0AB1009A94
S315000022108A60CA788D81CB818B7BCB7366F305127E
S31500002220CA70FFF72FFF3B7843F01003002814BF56
S31500002230132000203B7000E0012003B0F0BD062013
S3150000224003B0F0BD0720F8E70000FE1F004354442A
S315000022505C03FE1F5803FE1F40B339B30B682BB354
S31500002260DA7812F0C00F1DD1534B02689A422AD079
S315000022702DE9F047514E337886B00746884623BB92
S315000022804F4801930822C4688DF80420CDE9023333
S31500002290CDE904330DEB020101A8A04740B106B019
S315000022A0BDE8F087DB89B3F5807FDDD90120704773
S315000022B0444D029B2B6001A802F05EFC814600287B
S315000022C05CD00A20EBE7082070473F4B1D68B8F842
S315000022D00460002302E00133702B48D003F1C004F0
S315000022E059B255F82420C2F308029642F3D1374E6C
S315000022F055F8242056F82300C2F30802BA8030BBF2
S31500002300D8F800C0624600E01032D07810F0C00F56
S315000023101CBF907BD073907810F0C000F4D1294C8C
S3150000232098F806202468DFF890E0257860F3041515
S31500002330257046F823C0B971C7F800E05AB923786A
S31500002340104643F01003237006B0BDE8F08708205E
S3150000235006B0BDE8F0873846FFF794FE237843F0D1
S315000023601003002814BF13200020237097E7D5F828
S315000023707C32C3F30803BB800B2090E7DFF84CA048
S3150000238001A802F083FB49464FF4E072504604F080
S315000023907EFF2B68C3F804A01A7B062542F00102D3
S315000023A01A738DF8045002A901A8A047064B029D96
S315000023B01D60012333708AE7004354445403FE1F13
S315000023C0587500005803FE1F5C03FE1F0000FE1F29
S315000023D0062070470620704720B1034B1B68036038
S315000023E000207047012070472C760000324A13689F
S315000023F093F8281001F03003102B0CD0202B02D0BC
S3150000240000239361704790F82B302C499B0931F8D3
S31500002410131059B97047038D10B403F00303284C09
S3150000242034F8133003BB5DF8044B7047D2ED047AE1
S3150000243090F82B30B8EE676A07EE901AF8EE676AE6
S3150000244003F01F03C6EE267A07EE103AB8EE477A77
S31500002450F7EE006A37EE267A67EE877AFCEEE77AC1
S3150000246017EE903A9361704707EE903A4B06B8EE36
S31500002470677A19D4032102EB8101D1ED016A038D3C
S315000024805DF8044BF8EE666AC3F3052386EE876AA9
S31500002490013307EE903AFAEEEF7A67EE867AFCEEB3
S315000024A0E77AC2ED067A7047038D13F0100F0CBF62
S315000024B003210021DFE700BF0803FE1F3876000076
S315000024C048760000A9B1062810B430D0052812D0ED
S315000024D0042834D020B3012841D0022837D003285D
S315000024E045D1244C0023E0690B60026A02F0070222
S315000024F008E0012070471F4C0023E0690B60026A68
S31500002500C2F3027290F8263003F0070304EB83034C
S3150000251000205B6823FA02F20A605DF8044B7047FC
S31500002520144C0860E069026AC2F30232EAE7114C11
S315000025300023E0690B60026AC2F30262E2E70D4C17
S315000025400023E0690B60026AC2F30242DAE7094C33
S315000025500023E0690B60026AC2F30212D2E7054C5F
S315000025600023E0690B60026AC2F30222CAE7032075
S31500002570D3E700BF0803FE1F38B50D784B788A787D
S31500002580002465F30E3463F30A24CB780D7962F3E5
S31500002590061463F302044A798B7965F3124462F3F5
S315000025A01E74054663F31A64002002F0A3FB2C6236
S315000025B00020BDE8384002F06DBB00BF10B5174BD8
S315000025C0DC6994F84120D0070CD51A6894F82630B7
S315000025D092F82820510603F007030AD4052B0DD0E4
S315000025E0032B0BD094F84130DB074FF0000008D4E2
S315000025F010BD228DD206F3D4052BF1D140F29710EF
S3150000260010BD02F077FB94F841306FF3000384F8B5
S315000026104130002002F03EFB002010BD0803FE1FE3
S3150000262038B5084BDC690546002002F063FB94F8D8
S31500002630303065F3000384F83030002002F02AFBC6
S31500002640002038BD0803FE1F084B10B5DC690020CA
S3150000265002F050FB94F8523043F0010384F85230F4
S31500002660002002F017FB002010BD00BF0803FE1F6C
S31500002670084B10B5DC69002002F03CFB94F85230A0
S315000026806FF3000384F85230002002F003FB0020B1
S3150000269010BD00BF0803FE1F084B10B5DC69002003
S315000026A002F028FB94F83E3043F0800384F83E3075
S315000026B0002002F0EFFA002010BD00BF0803FE1F45
S315000026C0084B10B5DC69002002F014FB94F83E308C
S315000026D06FF3C71384F83E30002002F0DBFA0020C7
S315000026E010BD00BF0803FE1F084B10B5DC690020B3
S315000026F002F000FB94F8533043F0010384F85330A2
S31500002700002002F0C7FA002010BD00BF0803FE1F1C
S31500002710084B10B5DC69002002F0ECFA94F853304F
S315000027206FF3000384F85330002002F0B3FA002060
S3150000273010BD00BF0803FE1F38B5084BDC6905460F
S31500002740002002F0D7FA94F8243065F3061384F8D3
S315000027502430002002F09EFA002038BD0803FE1F38
S3150000276003788B4214D343788B4211D383788B4200
S315000027700ED3C3788B420BD343798B4208D30379AC
S31500002780994205D8807981428CBF05200020704788
S315000027900520704730B583B001F07CFF1A4B0190DD
S315000027A01D68186810F0020028D0DDED017A174C7C
S315000027B0F8EE677AF7EE006A86EEA77A00201860D0
S315000027C094F82320D1B2DFED127ADFED126A27EEFC
S315000027D0277AC6EE877AFCEEE77A17EE902A013A58
S315000027E0B2F1807F0CD25A6001F0F001F025072289
S315000027F084F8235098601A6084F8231003B030BD23
S3150000280012201D6003B030BD10E000E000ED00E0D6
S315000028100024744900401C4608B1FFF7BBBF0320E3
S31500002820704700BF052827D0144B042870B5DC6913
S3150000283003D194F88034DB071BD4054600200E46EE
S3150000284002F058FA94F83E306FF3C71384F83E301E
S3150000285094F83E3066F3061384F83E3094F83E3022
S3150000286065F3020384F83E30002002F013FA0020DC
S3150000287070BD4FF4C87070BD032070470803FE1F7B
S3150000288030B583B0002953D00246002870D0414CA1
S31500002890E36993F8AA0010F0010063D193F8A00051
S315000028A0196A2568C1F302318DF80010196AC1F35F
S315000028B002218DF80110196AC1F302118DF8021078
S315000028C0196AC1F302018DF80310196AC1F30241B6
S315000028D08DF80410196AC1F302718DF805101B6A90
S315000028E0A968C3F3026300F003008DF8063009B14E
S315000028F0032840D0EB680BB1022844D011460120D2
S3150000290001F078FFE469002002F0F4F994F8403011
S3150000291043F0800384F8403094F8403043F00103DC
S3150000292084F84030002002F0B5F9002003B030BD35
S31500002930184BDD6995F84130DB0715D408460C467F
S3150000294002F0D8F995F8403064F3000385F840307A
S3150000295095F8403064F3C713204685F8403002F0FE
S3150000296099F9204603B030BD4FF4CB7003B030BDAB
S31500002970012003B030BD29696846FFF7F1FE002843
S31500002980BCD00520EEE769696846FFF7E9FE002836
S31500002990F7D1B3E70803FE1F38B50B4B04461B6897
S315000029A0002093F8225002F0A5F994F88034DB0752
S315000029B005D594F8813423EA050384F88134002090
S315000029C0BDE8384002F066B90803FE1F06207047CE
S315000029D006207047062070470620704728B321B3AB
S315000029E0134BDB6993F82620C2F3020202701A6ABF
S315000029F0C2F302320A701A6AC2F302224A701A6AD3
S31500002A00C2F302128A701A6AC2F30202CA701A6A02
S31500002A10C2F302420A711A6AC2F302724A711B6A4F
S31500002A20C3F302638B71002070470120704700BF1B
S31500002A300803FE1F05292ED8DFE801F00A11181F2A
S31500002A40260390F82A0000F0010080F0010070478C
S31500002A5090F8360000F0010080F00100704790F811
S31500002A60380000F0010080F00100704790F89004F3
S31500002A7000F0010080F00100704790F8320000F08D
S31500002A80010080F00100704790F8800400F001001A
S31500002A9080F0010070470020704700BF30B5A1F1FB
S31500002AA0020483B04FF6FF73B4FA84F40546640952
S31500002AB001930A4A04E0019B43B1019B013B019348
S31500002AC02946D069FFF7B6FFA042F4D1019B002B3F
S31500002AD00CBF4FF4CD70002003B030BD0803FE1FBD
S31500002AE070B5344C86B0204601F072FE06A800236D
S31500002AF00322009300F8182D2F4ACDE90233CDE9C1
S31500002B00043302A9D3689847029DE5614FF6FF7327
S31500002B10019395F83630DA0705D50BE0019B33B102
S31500002B20019B013B019395F83C30DB07F6D5019BF1
S31500002B30002B39D0002002F0DDF895F8A5300622EA
S31500002B4062F3020385F8A530002002F0A3F823689B
S31500002B50E669D3E9061200254FF6FF732261174A8C
S31500002B60019328464FF40043C4E902236160A5613E
S31500002B70636102F0BFF896F8803443F001032846FB
S31500002B8086F8803402F086F801210420FFF786FFDC
S31500002B90054648B9E36918461A6A93F82630FFF7DE
S31500002BA0FBFE284606B070BD4FF4CD75284606B02C
S31500002BB070BD00BF0803FE1F5875000000127A00A2
S31500002BC0052828D838B5524DEA6992F8263003F020
S31500002BD0070398421CD0052B12D092F82A30DB0747
S31500002BE00ED50128044618D192F84030DB097DD174
S31500002BF010462146FFF71EFF00283BD1002038BDB6
S31500002C002B6893F828305C062DD403239842E8D12C
S31500002C1040F2911038BD0320704710462146FFF759
S31500002C2009FF0028EAD0032CED6935D0052C2CD0FD
S31500002C30002C49D195F83C30D9072AD5204602F018
S31500002C4059F895F8363043F0010385F83630002000
S31500002C5002F020F820460121FFF720FF0028CDD002
S31500002C604FF4CD7038BD138D13F0100F0CBF032336
S31500002C700023CBE70020ED6902F03CF895F83830E8
S31500002C8043F0010385F83830E1E795F83C309B06C0
S31500002C9010D440F2931038BD95F83C301A07F8D599
S31500002CA0002002F027F895F8323043F0010385F84A
S31500002CB03230CCE7002002F01DF895F82A3043F0B8
S31500002CC0010385F82A30C2E7002002F013F8042C2D
S31500002CD0BDD801A353F824F0432C00007D2C00003E
S31500002CE0012D0000A72C0000F32C000040F29510E7
S31500002CF038BD95F8803443F0010385F88034A6E7A3
S31500002D0095F8903443F0010385F890349FE700BFAF
S31500002D100803FE1F05281DD808B5431E012B0146D2
S31500002D2008D9042806D068B1032815D005281FD075
S31500002D30002008BD194BD869FFF77CFE38B140F278
S31500002D40911008BD154AD069FFF774FEF0B94FF42B
S31500002D50C87008BD03207047104AD069FFF76AFEA5
S31500002D600028F4D0D36993F83C301B0713D40AE04B
S31500002D700A4AD069FFF75EFE0028E8D0D36993F8C7
S31500002D803C30990607D440F2931008BDD36993F8F6
S31500002D903C30DA07F7D54FF4C97008BD0803FE1FAB
S31500002DA070B506464FF6FE7440F2931501E0013CFD
S31500002DB005D03046FFF7AEFFA842F8D000B970BD87
S31500002DC06FF4C873C318012B98BF002070BD00BFF5
S31500002DD030B583B04FF6FF730446012001930D46CC
S31500002DE001F088FF02A8002300F8053D01F0C4FBAE
S31500002DF094F8AA30D90604D494F8A030C3F300138B
S31500002E0053B1019B013B0193019B002BF0D10120A3
S31500002E1001F040FF03B030BD94F8AA2063F300022E
S31500002E204FF6FF7384F8AA20019302E0019B013B51
S31500002E30019394F8AA30DA0603D494F8A030DB069E
S31500002E4002D5019B002BF1D194F8A030042D0CBFC4
S31500002E5043F0030365F3010384F8A0304FF6FF73D4
S31500002E60019302E0019B013B019394F8AA30D80636
S31500002E7003D494F8A030D90602D5019B002BF1D1DA
S31500002E8094F8AA30042D0CBF43F001036FF300033E
S31500002E9084F8AA304FF6FF73019302E0019B013BD1
S31500002EA0019394F8AA30DA0603D494F8A030DB062E
S31500002EB002D5019B002BF1D19DF8030001F070FBB8
S31500002EC0012001F0E7FE03B030BD00BF0428124B1D
S31500002ED00BD0022809D01A6892688A4204D3D869AE
S31500002EE090F82A30DB0714D47047D86990F82A2066
S31500002EF0D207F0D590F83220D207ECD590F83620DC
S31500002F00D207E8D590F83820D207E4D50421FFF798
S31500002F105FBF0321FFF75CBF0803FE1F052837D8F4
S31500002F202DE9F843AE4E2DED028B0D4604460146C3
S31500002F30F069FFF77FFD0746002842D1042C57D0E1
S31500002F40012C44D034B3032C60D0052C00F0B8809B
S31500002F50F56901F0CFFE032C00F09C80042C4ED0C6
S31500002F60022C3ED195F890346FF3000385F8903427
S31500002F70002001F08FFE20460221FFF78FFD00287A
S31500002F8014BF4FF4CD700020BDEC028BBDE8F88372
S31500002F9003207047F56995F83C30DB0700F1818026
S31500002FA095F8AA30DF0700F1858095F8A03000205B
S31500002FB001F0A0FE95F836306FF3000385F8363041
S31500002FC0D6E7F069FFF712FA40F29110DCE7F569EF
S31500002FD095F8AA30DA0767D495F8A030002001F0FA
S31500002FE089FE95F838306FF3000385F83830BFE76F
S31500002FF0F069FFF7D1FC3846F56901F07BFE95F8DC
S3150000300080346FF3000385F88034B1E7F76997F8E9
S315000030103C30180745D497F8AA30D90700F1BD808F
S3150000302097F8A0303168002091F8275091F8208059
S3150000303091F8219001F05EFE97F8133405FA09F233
S315000030405BB25A4002EA08025340DBB287F81334F7
S31500003050002001F01FFEF569002001F04BFE95F8F7
S3150000306013346FF3861385F81334002001F012FE33
S31500003070F569002001F03EFE95F8A230052262F3C4
S31500003080030385F8A230002001F004FE0020F56954
S3150000309001F030FE95F832306FF3000385F83230D8
S315000030A066E740F293106FE728460321FFF790FE8C
S315000030B0F56993E728460321FFF78AFEF56976E767
S315000030C0002D70D03368697893F8242091425FD838
S315000030D093F8262095ED017A07EE902AF8EE677AA6
S315000030E0F4EEC77AF1EE10FA52D493F8253007EED3
S315000030F0903AF8EE677AB4EEE77AF1EE10FA47D432
S315000031002978032901D0002942D1F069FFF792FC02
S3150000311000284AD0F76997F83C309A06C1D497F848
S31500003120AA30DB0756D497F8A03095F80080002027
S3150000313001F0E0FD3B8DB8F1030F0CBF6FF30413F4
S3150000314043F010033B85002001F0A4FD3368F769C6
S3150000315093F8283095F8018003F03003102B41D006
S31500003160202B53D095ED018A202B21D0F069FFF753
S315000031703DF90021F069FFF72BFEF569002001F00B
S31500003180B9FD95F82A306FF3000385F82A30EFE68B
S31500003190BDEC028B0320BDE8F88338462146FFF7D5
S315000031A017FEF7693EE70120EEE64FF4CA70EBE63C
S315000031B0002001F09FFDFCEEC87A97F82B2017EE51
S315000031C0903A013B63F3040287F82B20002001F0BC
S315000031D061FDCBE738460321FFF7FAFDF769A4E75F
S315000031E00803FE1F214B002033F8189001F082FDE2
S315000031F03B8D69F301033B85002001F04BFD3368ED
S3150000320093F8283003F03003202B13D1184B0020FD
S3150000321033F8188001F06EFD97F82B3068F38713AA
S3150000322087F82B30002001F035FD336893F82830FD
S3150000323003F03003102BF76995ED018A94D1002035
S3150000324001F058FD78EE087A3A8DFCEEE77A002018
S3150000325017EE903A013B63F30D223A8501F01AFD11
S31500003260336893F8283003F030037DE7407600009A
S3150000327030760000012814D0022801D000207047C3
S31500003280052938B515460C460ED0291D2046FFF7F0
S3150000329045FE20B140F29113984200D038BD00207F
S315000032A038BD0846FFF78CBC11461079FFF736FE8D
S315000032B018B140F291139842F0D12879FFF770FDCA
S315000032C00028E2D0EAE700BF2DE9F047052884B0E0
S315000032D000F28D80002900F08F800B788A79934266
S315000032E0C0F085804C789C42C0F08180CC789C42AE
S315000032F07DD84B7993427AD30C79944277D30428BC
S315000033000C4605467DD05C4FF86990F8263003F0F0
S3150000331007039D4207D0002D40F0898090F83C308D
S31500003320D90740F18D80036A036A036A036A036A58
S31500003330036A036A0021C3F30268FFF749FD07EB3E
S315000033408502A0795368F969C340002201938DF87C
S3150000335000208DF80C200A6A91F8263003F0070346
S3150000336007EB8303C2F302625B686846D3400293AD
S3150000337001F0A0F9064600283AD1A379D7F81C90A7
S31500003380434505F0070A5ED921464846FFF7F4F89B
S31500003390FC69304601F0AEFC94F826306AF302036D
S315000033A0304684F8263001F075FCFB691A6A93F8FA
S315000033B0263003F0070307EB8307C2F302627B683C
S315000033C06846D340012202938DF8002001F072F97D
S315000033D0064668B901F05EF9284B1860002848D007
S315000033E001462846FFF772FDFFF7D4F900E00326F1
S315000033F0304604B0BDE8F0870126304604B0BDE88B
S31500003400F08792B98BB91C4FF86990F84030DB0908
S315000034100BD190F8263003F00703042B83D02946FE
S31500003420FFF708FB28B3F8697DE70526E0E7032DDB
S3150000343019D0052DF3D190F83C309B063FF573AFBC
S3150000344040F29316D4E701F055FC99F826306AF35A
S315000034500203304689F8263001F01CFC2146F86943
S31500003460FFF78AF8A1E790F83C301A073FF55BAF03
S31500003470E6E74FF4C876BBE70803FE1FB803FE1F56
S315000034802DE9F04F83B0002853D0DFF83C91077840
S31500003490D9F81C30467D93F826801A6A1A6A1A6A89
S315000034A01A6A1A6A1A6A1B6A027DC37DC17C8DF884
S315000034B001208DF80330827D037E8DF80060052F94
S315000034C008F007088DF802108DF804208DF80530F5
S315000034D02AD802AA3A4412F8082C012A24D0022B30
S315000034E008D10279052A1FD802A90A4412F8082C25
S315000034F0012A19D08246524618460521FFF7BAFE20
S315000035000446D8B9054640F2911BE9B23046524608
S31500003510FFF7B0FE0135044608B1584505D1052D23
S3150000352012D01DF80560F0E70324204603B0BDE87D
S31500003530F08F0124204603B0BDE8F08F40F29113CE
S315000035409842F2D10025DEE73846FFF729FC04460B
S315000035500028EAD1042F19D025460AF10C01384675
S31500003560FFF7B2FE04460028DFD1474505D002AB7F
S31500003570434413F8083C012B1DD0002DD5D001F093
S3150000358089F801463846FFF7A1FCCEE7D9F81C308A
S3150000359093F82A20D00715D593F83220D10711D5F4
S315000035A093F83620D2070DD593F8385005F001056B
S315000035B085F00105D1E74046FFF702FB0028DCD085
S315000035C00446B2E70125C8E70803FE1F20B1034BF6
S315000035D01B68036000207047012070478476000056
S315000035E00620704788B10F4B826A9A420BD1C36995
S315000035F05BB190F82420022A09D01A8842F400729E
S315000036001A800020704707207047012070471888ED
S31500003610C00B04D11A8842F400421A807047082071
S31500003620704700BF4344415298B10B4B826A9A429D
S315000036300DD1C3696BB190F82420022A1A8814BFF1
S315000036406FF349226FF3CF321A80002070470720AC
S3150000365070470120704700BF4344415268B1084B90
S31500003660826A9A4207D1C3693BB11B88DB0B0CBF48
S31500003670002008207047072070470120704700BFD0
S3150000368043444152E8B1CB1CDBB21E2B1BD80029A8
S3150000369010B407DB134B048853F8244001238B40F6
S315000036A0234216D0104B846A9C420ED1AAB1C3693C
S315000036B0ABB11031002033F8113013805DF8044BA4
S315000036C07047012070470320704707205DF8044BC0
S315000036D0704703205DF8044B70470220EEE7012097
S315000036E0ECE700BF6003FE1F4344415230B583B090
S315000036F00023ADF806308AB114460DF106020546E0
S31500003700FFF7C0FFBDF8063010B1236003B030BD2F
S31500003710EA88B2F5004FF8D11B04F6E7022003B0A1
S3150000372030BD00BF18B311B31A4B826A9A421CD13E
S3150000373091F90020D31CDBB2122B1DD8002A18DB0E
S31500003740154B10B4048853F82440012393402342B8
S3150000375014D04978062911D9C369CBB11A4400207F
S3150000376082F8E0105DF8044B70470720704701208F
S3150000377070474978062903D8032070470320F1E7EC
S31500003780C369002BF3D01A44002082F8E01070477A
S315000037900120E7E7434441526003FE1F88B381B32B
S315000037A0354B826A9A422AD10379012B5AD070B5D9
S315000037B0C56982B03DB3C46A44B34FF0FF330126F6
S315000037C0013306FA03F22242FAD01C2B4ED01D2BEF
S315000037D04AD010335A0015440D6020230126013BC0
S315000037E006FA03F52542FAD01C2B41D01D2B41D0F9
S315000037F010335B009B1A5B1001334B6007E0072018
S31500003800704701207047012002B070BD4C601B4A12
S3150000381003881669ADF806300C46002301212022E4
S315000038200546ADF8043021728DF8042000936A46EF
S31500003830022101A8B0470028E6D12B78BDF8022066
S31500003840628104335B004FF0FF326372E260EB7A11
S31500003850012B04D16B691B68C3F30B03E3606B8810
S315000038602382D1E7032070471C22B4E71A22B2E76D
S315000038701A23BFE71C23BDE7434441525875000095
S31500003880D0B110B584B0002304466846CDE90033B4
S31500003890CDE9023300F07CFF9DF80C309B070DD577
S315000038A0E3691A88D20B0CD11B8813F4007F14BF6E
S315000038B01B20002004B010BD01207047062004B074
S315000038C010BD1B2004B010BD30B5B0F880306FF3CA
S315000038D00003A0F880300388C3F34133012B038A29
S315000038E043F47C5383B00D46038203D1038A43F02D
S315000038F03F030382002404802B88448220226846EA
S31500003900ADF80040ADF802308DF8002001F0BAF8AD
S31500003910EB6ADB000AD52B6903B11C7002A80022F2
S315000039202223019200F8043D01F0ACF803B030BD4B
S3150000393070B4C3698E7FB3F8A221CD7F91F8204081
S3150000394066F30302A3F8A221B3F8A22165F30712D6
S31500003950A3F8A221B3F8A22164F30B22A3F8A221B3
S31500003960B3F8A02142F00802A3F8A021B3F8A021E1
S3150000397042F08002A3F8A021B3F8A02142F400622D
S31500003980A3F8A021FF2EB3F8A02100F0B7806FF3B3
S315000039900002A3F8A021B3F8A02142F00202A3F886
S315000039A0A021B3F8A02142F00402A3F8A021FF2D24
S315000039B0B3F8A02100F091806FF30412A3F8A021C0
S315000039C0B3F8A02142F02002A3F8A021B3F8A02169
S315000039D042F04002A3F8A021FF2CB3F8A0216BD03F
S315000039E06FF30822A3F8A021B3F8A02142F40072D5
S315000039F0A3F8A021B3F8A02142F48062A3F8A02185
S31500003A008C7FC369C87F91F8201004F17F02D2B27F
S31500003A103A2AB3F8B0212BD8C4F3011464F3010297
S31500003A20A3F8B021B3F8B02142F00802A3F8B02100
S31500003A3000F17F02D2B23A2AB3F8B02123D8C0F3FC
S31500003A40011060F30512A3F8B021B3F8B02142F0DB
S31500003A508002A3F8B02101F17F02D2B23A2AB3F86C
S31500003A60B0211BD96FF3CB22A3F8B02170BC7047ED
S31500003A706FF3C302A3F8B02100F17F02D2B23A2A53
S31500003A80B3F8B021DBD96FF3C712A3F8B02101F167
S31500003A907F02D2B23A2AB3F8B021E3D8C1F30111BA
S31500003AA061F30922A3F8B021B3F8B02142F4006211
S31500003AB0A3F8B02170BC704742F48072A3F8A0212D
S31500003AC0B3F8A0216FF34922A3F8A021B3F8A021EF
S31500003AD06FF38A22A3F8A02192E742F01002A3F81E
S31500003AE0A021B3F8A0216FF34512A3F8A021B3F8E3
S31500003AF0A0216FF38612A3F8A0216DE742F0010220
S31500003B00A3F8A021B3F8A0216FF34102A3F8A021E6
S31500003B10B3F8A0216FF38202A3F8A02147E700BF04
S31500003B20002842D03C4B826A9A423CD1C369002BA2
S31500003B303BD030B5044690F93000002310F1210F38
S31500003B4083B0A3620BD098424BDA00F0E9FF334B07
S31500003B5094F930201B6853F8323000221A6094F929
S31500003B60310010F1210F0BD0002820DA00F0D8FF29
S31500003B702A4B94F931201B6853F8323000221A6020
S31500003B802146E069FFF7A0FE02A800252023ADF834
S31500003B90045000F8043D2388ADF8063001F020F803
S31500003BA0284603B030BD0720704701207047420900
S31500003BB0203201231A4900F01F0003FA00F041F8F1
S31500003BC02200BFF34F8FBFF36F8F94F931000028A7
S31500003BD0CCDB4209603200F01F05AB4041F82230D1
S31500003BE0C4E74209203201230D4900F01F0003FA01
S31500003BF000F041F82200BFF34F8FBFF36F8F94F9A7
S31500003C0030000028A1DB4209603200F01F05AB40FE
S31500003C1041F8223099E700BF434441520C7B000033
S31500003C2000E100E02DE9F0438DB048B141B18B8849
S31500003C30C3F30E034BB1032528460DB0BDE8F08350
S31500003C40012528460DB0BDE8F0830C46064608A8B7
S31500003C50CDE90833CDE90A338D7800F099FDA379D3
S31500003C6033B19DF82C20D70740F1A081852BE2D0F7
S31500003C70E27912F0DF0FDED1227A022ADBD8A178B0
S31500003C800229D8D8E07808B1052BD4D0206908B12C
S31500003C900229D0D0012D00F09781BF4BB56A9D4215
S31500003CA000F0888125886369ADF80A503580BB4FDE
S31500003CB0A58894F81CE094F81DC0B3613062002317
S31500003CC0E07F3171F58094F82010A57F86F82420D6
S31500003CD02022ADF80830CDE90833CDE90A3386F85D
S31500003CE0345086F8350086F83610FB6886F832E0E0
S31500003CF086F833C08DF8082002A80DEB020198471C
S31500003D00054600289DD1BDF82620089BF361C2F325
S31500003D1082030433C2F340125B0072723372A0490D
S31500003D20208851F820204AB90B9A558841F820502E
S31500003D305268120C12042A4341F820200C2B00F082
S31500003D404A810E2B00F03881102B03D1E378042B27
S31500003D507FF471AF02A800F00FFF054600287FF43C
S31500003D6070AF0890D7F8108008AA022102A8C047B1
S31500003D7023699DF9200086F83000002B00F03D8174
S31500003D8010F1210F00F03481864AA37A12681B01D4
S31500003D90002852F830C0DBB2C2B2C0F23381DFF87D
S31500003DA008E24FEA501909F120097044012102F096
S31500003DB01F0201FA02F280F80033CCF800604EF8D8
S31500003DC02920BFF34F8FBFF36F8F96F9300000287D
S31500003DD006DB4309603300F01F0291404EF82310C2
S31500003DE000F09EFE08AA032102A8C047A3789DF909
S31500003DF0200086F83100012B00F0F28010F1210F2F
S31500003E002DD0684AE37A12681B01002852F830E088
S31500003E10DBB2C2B2C0F2FE80DFF88C814FEA501CE2
S31500003E200CF1200C4044012102F01F0201FA02F2BB
S31500003E3080F80033CEF8006048F82C20BFF34F8F8F
S31500003E40BFF36F8F96F93100002806DB4309603314
S31500003E5000F01F02914048F8231000F061FE002395
S31500003E607381C6E9043304A8CDE90433CDE90633EA
S31500003E70019300F08DFC9DF81020019B03932221F5
S31500003E808DF80C10D1060ED5CDE90833CDE90A33ED
S31500003E9008A9FB6803A89847E0B90122089BB272FB
S31500003EA09DF810203361120711D500234FF0010849
S31500003EB0FA688DF80D80CDE90833CDE90A3308A9F3
S31500003EC003A8904730B9089B86F80B807361BDF84C
S31500003ED0123073803146F069FFF7F6FC0027202286
S31500003EE02388ADF8107004A88DF81020ADF81230B4
S31500003EF0CDE90877CDE90A7700F0C8FDF369A17826
S31500003F001F805F821A8861F34E321A801A8867F31F
S31500003F10C7121A80227A012A00F084803AB91988D9
S31500003F2041F480711980198A62F30D211982D889AA
S31500003F3094F803C0A188E279A7796CF34200D8818E
S31500003F40A1F50041D889B1FA81F1490961F3CF3071
S31500003F50D881A2F12002D989B2FA82F2520962F31B
S31500003F604511D98108A81F7300F012FC9DF82C306A
S31500003F70C3F34002D1B2327319B1217B002900F09C
S31500003F8088805B0754D4737A012B00F09080024B33
S31500003F900022C6E90A3254E64344415258750000ED
S31500003FA06003FE1F0C7B000000E100E018063FF5F1
S31500003FB05FAE40E6082544E6E378032B3FF4CAAE3D
S31500003FC0002B3FF4C7AE36E6258940F201139D4229
S31500003FD03FF463AE2FE6E378022B7FF6BBAE2AE60C
S31500003FE02369002B3FF40AAF10F1210F7FF409AFCC
S31500003FF002A800F0F5FD0B2523E610F1210F3FF492
S31500004000F1AEC1E6374902F00F0211440B76CCF847
S315000040100060E5E6334902F00F0211440B76CEF854
S3150000402000601AE71A8A092161F30D221A827EE7D7
S31500004030F36996F8321093F8E12161F3420283F8AE
S31500004040E12193F8E12142F0100283F8E1210121F8
S31500004050962000F035FDF36996F8330093F8E121D8
S3150000406096F8321060F3000283F8E12193F8E1211B
S315000040706FF3C30283F8E12129B193F8E12142F0FD
S31500004080080283F8E121012140F2DC5000F018FD1E
S3150000409079E73046FFF7F4FB074668B102A800F05F
S315000040A09FFD3146F0693D46FFF70EFCC9E5214606
S315000040B03046FFF73DFC6AE796F9300000F030FD28
S315000040C096F93030002B09DB5A09603203F01F03E2
S315000040D00121054801FA03F340F822309DF82C30FF
S315000040E04FE700BFFCEC00E000E100E0002800F034
S315000040F00E81002900F00B81B74B826A9A4240F08C
S3150000410004812DE9F041C66986B0002E00F00181D8
S315000041100B6804460D46002B00F00081AF4A01886B
S3150000412052F8212042F04052D243134240F0F6802A
S3150000413031886868C1F34131012900F0F480002814
S3150000414040F0EC80002302A8CDE90233CDE9043328
S3150000415000F01EFB9DF80820970700F1EA80D5E9DC
S31500004160003111F0405F40F0D98013F040510BD080
S315000041703088000600F1D280520700F15D8196F882
S315000041807A20002A40F0CA80327BE968520700F0A4
S3150000419004816A681A4331EA020240F0BF800029AE
S315000041A000F0BC802A7C002A40F064816A689FB2D5
S315000041B090B2B780B082180C13438FB2120C090C60
S315000041C013F0405F3781F080F28271815DD00DF18E
S315000041D01808002302A848F8143DCDE90233CDE9BA
S315000041E0043300F0D5FA7E4B9DF810009B694146DA
S315000041F0984701997B4B994240F28F802B680028A3
S3150000420040F08C807848039AA0FB0101890C77481E
S3150000421002FB01F7A0FB0727BF09FA1FF82A7DD882
S31500004220D90000F1CA806A68D20015D5FAB286F8BC
S31500004230DE20A27A012A00F09E80728A6FF308229D
S315000042407282728A42F480627282EA68718AC2F36A
S31500004250007262F30001718213F0005340F0A180F6
S315000042606A68910011D5FFB286F8DF70728A63F32F
S3150000427049227282738A43F400637382EB68728AFE
S31500004280C3F3407363F3410272822B7C6A7C2989F3
S31500004290E76920795B0203F4C063134348F2010225
S315000042A09142A6F8663046D00228A6F880105FD064
S315000042B0B7F80080C8F34138B8F1010F00F09A80D2
S315000042C094F9300010F1210F13D000F029FC94F975
S315000042D03020002A0DDB53099B0003F1604303F5F0
S315000042E0614302F01F02012101FA02F2C3F88021A4
S315000042F01A6029892B6848F20102914236D148F2A8
S315000043000102A6F88020002009E00720704701205E
S315000043107047012006B0BDE8F0812B680320E362F8
S3150000432006B0BDE8F0810028F8D01A430242F5D164
S3150000433008E72B6819E7022800F0EE803B88C3F3F4
S315000043404133012BBCD13A8A94F9310042F03F0245
S3150000435010F1210F3A8204D0002880F2BD8000F0CF
S31500004360DFFB3B886FF386133B80A9E70020D6E787
S315000043702B680020D3E71E4800232222CDE9013313
S31500004380CDE90333059302A9C3688DF8042040469E
S31500004390984700285DD02B68C1E700293FF402AF9B
S315000043A0BCE7FFB286F8DF70738A43F4007373824A
S315000043B0738A6FF3CB23738260E7FAB286F8DE2046
S315000043C0A27A012AD7D0728A42F480727282728AE5
S315000043D06FF38A22728238E7434441526003FE1F1C
S315000043E0C07500003F420F0083DE1B43D34D6210B1
S315000043F05875000094F9310010F1210F12D000F029
S315000044008FFB94F93130002B0CDB5A09920002F134
S31500004410604202F5614203F01F0308FA03F3C2F893
S31500004420803113603B8843F040033B803B8A0A227D
S3150000443062F305033B8243E7B1F1405F3FF46EAFA1
S3150000444033F070427FF46AAF2279002A3FF49CAEC3
S3150000445064E7404600F01AFB22692B68117841F0A8
S31500004460800111701178D80041F0100111707FF5AC
S31500004470E4AEA8E7002302A8CDE90233CDE9043370
S3150000448000F086F99DF80830DB077FF546AF297CFA
S315000044902B6807293FF642AF6A7C032A7FF63EAFB8
S315000044A037886A68C7F34137012F01EA020C01EA2F
S315000044B003002CD081427FF431AF31880F0608D437
S315000044C0BCF1000F03D0298900297FF427AFE968E2
S315000044D06DE60028F4D021E74209203200F01F01E2
S315000044E0DFF838C003FA01F14CF82210BFF34F8F02
S315000044F0BFF36F8F94F931000028FFF630AF420901
S31500004500603200F01F018B404CF8223027E78142D1
S31500004510D3D06145D1D001E72B68F0E600E100E099
S3150000452010B584B0EFF3058001F09EFBEFF3038333
S31500004530104A103B12685BB252F833301C68EFF336
S315000045400383A3F1100040B2019300F0E9FA5CB1D5
S315000045502188236AA269ADF8041000218DF806109F
S3150000456002920BB101A89847EFF3058001F07AFBA0
S3150000457004B010BD0C7B000068B1084AB2F8001107
S3150000458092F80031C1F300016FF3000301700020BF
S3150000459082F8003170470120704700BF00C001401B
S315000045A0104991F8043143F0010381F80431B1F860
S315000045B00431DB070AD54FF0FF3300E07BB1B1F8D9
S315000045C00421D20703F1FF33F8D443B1054A92F828
S315000045D0003160F3000382F8003100207047142098
S315000045E0704700BF00C0014070B5274D82B02B68F0
S315000045F098470021AE680320B0470121234AEC69A1
S315000046008DF80110032301928DF800300320A04796
S31500004610B0F5C97FFAD169460520B04728B140F206
S315000046209113984201D000BEEC69194A92F8003104
S3150000463043F0010382F800310520A047B0F5C97F99
S31500004640FAD1012302228DF806308DF800308DF85C
S3150000465003308DF8043069468DF801208DF802206C
S315000046608DF805202B690520984700B100BE2B6EFA
S3150000467004209847AB6A01209847EB6A9847AB6DD0
S31500004680984702B070BD00BFC07500000000A04191
S3150000469000C0014000B583B002A9002341F8043DE3
S315000046A0034B06209B699847019803B05DF804FB0D
S315000046B0C0750000037803BB41682F4A914230B4AD
S315000046C02ED82E4A2E4CF1201071107A63F38200F8
S315000046D01072107A63F3C3001072107AF02563F338
S315000046E04100A1421072157141D82649264A0B7025
S315000046F092F81C31002030BC7047012B0ED1224AA3
S31500004700204992F81C31097803F00703994205D035
S3150000471092F81C3161F3020382F81C3100207047C5
S31500004720164B1A48F1221A711A7A42F004021A72CA
S315000047301A7A42F008021A721A7AF02442F0020239
S3150000474081421A721C7112D90E4A022313700E4945
S3150000475091F81C2102F007029A42CBD291F81C2153
S3150000476063F30202002081F81C2130BC7047054A21
S3150000477001231370EBE700BF00879303002000407E
S31500004780005A62026803FE1F00C0014000B4C40460
S31500004790037B027843F0010341F2360102F0F00296
S315000047A003F0FD0310B44160022442F01B024FF4F3
S315000047B07A616FF3820384600270418003735DF84F
S315000047C0044B7047037843F003030370704700BF40
S315000047D0014B0360704700BF88760000044B002140
S315000047E003F1300243F8041B9342FBD1704700BF2C
S315000047F06C03FE1F024B43F820100020704700BFD9
S315000048006C03FE1F08B56F4BB3F84031D90700F1B2
S31500004810CB806C4BB3F840319A0700F1B880694BF6
S31500004820B3F840315B0700F1A580664BB3F8403121
S31500004830180700F19280634BB3F84031D9067FD454
S31500004840604BB3F84001C0F3801000286CD15D4B7B
S31500004850B3F840311A065AD45A4BB3F84031DB0547
S3150000486048D4584BB3F84031980536D4554BB3F875
S315000048704031590524D4534BB3F840311A0512D4AC
S31500004880504BB3F84031DB0400D408BD4E4BDB6A15
S315000048900BB10B2098474B4AB2F8303143F48053A2
S315000048A0A2F8303108BD484B9B6A0BB10A209847E5
S315000048B0444AB2F8303143F40063A2F83031DFE7FE
S315000048C0414B5B6A0BB1092098473E4AB2F830313A
S315000048D043F48063A2F83031CDE73B4B1B6A0BB142
S315000048E008209847374AB2F8303143F40073A2F8EB
S315000048F03031BBE7344BDB690BB107209847314AAF
S31500004900B2F8303143F48073A2F83031A9E72E4B68
S315000049101B680BB1002098472A4AB2F8303143F0A1
S315000049208003A2F8303197E7274B5B6803B19847BD
S31500004930244AB2F8303143F04003A2F8303186E71A
S31500004940214B9B690BB1062098471E4AB2F83031BD
S3150000495043F01003A2F8303172E71B4B5B690BB1D1
S3150000496005209847174AB2F8303143F00803A2F8F9
S31500004970303160E7144B1B690BB104209847114A8C
S31500004980B2F8303143F00403A2F830314DE70E4B54
S315000049909B680BB1022098470A4AB2F8303143F0BF
S315000049A00203A2F830313AE7074BDB680BB103206C
S315000049B09847044AB2F8303143F00103A2F8303187
S315000049C027E700BF006000406C03FE1F114B017813
S315000049D05A5C02F01F03920630B4448845780DD520
S315000049E001222B2902FA03F00ED0332904D1012D1E
S315000049F004BF013305FA03F030BC70472C441B1B7F
S31500004A000120984030BC7047072CF5D9013302FAD3
S31500004A1003F0F1E7B47A00000378452B1CD870B593
S31500004A20164CE55CFF2D26D014460E46FFF7CEFF4A
S31500004A30134BAA0953F8223086B1AA0600D5D4B181
S31500004A40EFF31082012181F310881968084318607A
S31500004A5082F31088002070BD01207047EFF31082AA
S31500004A60012181F31088196821EA0000186082F399
S31500004A701088304670BD032070BD00BFB47A0000B8
S31500004A80FC7A000000220121FFF7C6BF0022114672
S31500004A90FFF7C2BF034638B1054A92E80300002279
S31500004AA083E803001046704701221046704700BF96
S31500004AB0247B0000A0F101000028FBD1704700BF55
S31500004AC02DE9D04301FB00F4FFF7E4FD4FF47A71C2
S31500004AD0A4FB018900274FF0FF364F4508BF464526
S31500004AE00E4BB3FBF0F007D3B8FBF0F0800890B1A3
S31500004AF0BDE8D043FFF7DEBF8000B4FBF0F0A0FBBB
S31500004B0001018F4208BF8642F1D24FF0FF30BDE867
S31500004B10D043FFF7CFBFBDE8D08300BF00CA9A3BA2
S31500004B20002808DB800000F1804000F5C6400368DD
S31500004B306FF31043036070470B4A0C4B10B49B1A7B
S31500004B400B4CDB08236063B10A4800219388C3F34A
S31500004B50090340F8043B236801318B4202F1080245
S31500004B60F4D85DF8044B7047000500000805000006
S31500004B709C03FE1F00630040164B10B41C687CB1FA
S31500004B80154B00681A681368984218BF002304D1B1
S31500004B900AE052F8041F814207D00133A342F8D13C
S31500004BA003205DF8044B704700230C4A126801216C
S31500004BB0134403E0C3E8401F0028F2D0D3E84F2F88
S31500004BC012F0FF0FF6D0BFF32F8F08205DF8044BCD
S31500004BD0704700BFA003FE1FA403FE1FA803FE1F0D
S31500004BE00F4B10B41C687CB10E4B00681A68136832
S31500004BF0984218BF002304D109E052F8041F8142ED
S31500004C0006D00133A342F8D15DF8044B7047002368
S31500004C10054A12680021D1545DF8044B704700BF65
S31500004C20A003FE1FA403FE1FA803FE1FF0B5134E2C
S31500004C30134C1449144A154BDFF854C00E60A41BDC
S31500004C40A4081460C3F800C08CB106EB840735468F
S31500004C504FF0000E55F8040B3246002352F8041BA1
S31500004C60884205D001339C42F8D1BD42F2D1F0BD55
S31500004C70BD420CF803E0EDD1F9E700BF08050000DE
S31500004C80B8060000A403FE1FA003FE1FA803FE1F14
S31500004C908002FE1FEFF31081012383F31088124B6D
S31500004CA033F8102092B22AB133F81020013A92B2AA
S31500004CB023F8102033F810309BB28BB90B4A10B48E
S31500004CC00B4CB2F8FE3334F8100043F4254323EAC4
S31500004CD00003A2F8FE3381F310885DF8044B704799
S31500004CE081F31088704700BFAC03FE1F00E001404F
S31500004CF0107B000030B4EFF31081012383F310889A
S31500004D000C4A32F810309BB253B90B4C0B4DB4F829
S31500004D10FE3335F8105043F425432B43A4F8FE33F5
S31500004D2032F8103001339BB222F8103081F310882C
S31500004D3030BC7047AC03FE1F00E00140107B000052
S31500004D40024B00221A805A809A807047AC03FE1FDD
S31500004D500C4A08B513684BB1033020F003000A492A
S31500004D601844884205D81060184608BD074B1360E2
S31500004D70F2E702F077FA0C2303604FF0FF33184690
S31500004D8008BD00BFB403FE1FB018FE1FB008FE1F0B
S31500004D9000BE704708B500F007F800F00FFBFEE70D
S31500004DA0704700BFFFFFFFFF434AD2F8883043F445
S31500004DB0700370B50020C2F88830FFF7F1FFFFF7E7
S31500004DC0BFFFFFF70BFD3D4B1B689847FFF70CFC39
S31500004DD03B4A3C4B3C481B680024148098473B499F
S31500004DE03B4B8B4204D0224603F8012D9942FBD15E
S31500004DF03848394B984206D0384A12F8011B03F856
S31500004E00011B8342F9D1364B36493748374A0024CD
S31500004E104FF425459C801D809860DA60B1F820210A
S31500004E20012542F48052A1F820219D80FFF732FC33
S31500004E302F4B18602846FFF7B3FF2E4D2E4B5B1BFA
S31500004E40A3424FEAA30605DD013455F8043B984713
S31500004E50A642F9DCFFF7EAFEFFF76EFE274B284C69
S31500004E601B6828489847D4E90001D4E90023584034
S31500004E7002F016FAD4E900560BA1D1E900012A186E
S31500004E8046EB0103C4E9002309A1D1E90001D4E9F5
S31500004E90005685EA000286EA0103C4E900230020E1
S31500004EA0BDE8704000F030B81654E7A1E34FE6F4D1
S31500004EB037B8929E2B52ADFD00ED00E0587500000C
S31500004EC04C03FE1F607400003C7B00003003FE1F95
S31500004ED0AC08FE1FEC02FE1FC001FE1F248000006E
S31500004EE0000D004000600040B018FE1FAF20FE1FFE
S31500004EF0B803FE1F7802FE1F7C02FE1F74750000B9
S31500004F002803FE1F187B000000F040B882B04FF067
S31500004F10C84300210091009A5A6961F300025A6160
S31500004F209A6AC8B1202161F30F229A629A6A4FF0F9
S31500004F30C04142F080029A620A68009240F6FF720F
S31500004F40019204E0019A013A0192019A12B19A6A19
S31500004F505106F7D502B0704742F47F429A629A6AC8
S31500004F604FF0C04160F3C7129A620A68009240F699
S31500004F70FF72019205E0019A013A0192019A002A14
S31500004F80E8D09A6A5206F6D402B07047F8B54A4A93
S31500004F9011684FF0C84400236FF38611102011608A
S31500004FA02063A36123626363C4F80438A26863F3D1
S31500004FB00402A2606369FF2243F001036361226178
S31500004FC06369662243F00103636122616369992282
S31500004FD043F0010363612261636943F00103636186
S31500004FE001212320FFF76CFD9F2323612269334BA8
S31500004FF0D2B21A702169C9B259702069C0B29870CC
S315000050006569EF2A45F00105656103D000221A8023
S315000050109A70F8BD4029F9D11728F7D105222261E7
S3150000502020696169264B41F00101352661612661DF
S3150000503021691970616941F001016161A56A042164
S3150000504061F30305A5626568502761F30305656092
S315000050502761656945F0010565611D7845F0020522
S315000050601D700127C0B22761206118782061606930
S31500005070384360612161616939436161216862F386
S31500005080020121602261226962693A4362612661F6
S3150000509022691A7063693B436361236843F04003E6
S315000050A02360A369DB07FCD40120FFF72FFF6369A8
S315000050B06FF300036361F8BD00700440BC03FE1F7C
S315000050C0C003FE1F704700BFFFF7FCBF08B500F026
S315000050D043F9BDE8084000F04DB800BF10B5164CC6
S315000050E016492368164888B001332422236000F04D
S315000050F079F9D8B90123B8204FF48061114A00929A
S31500005100CDE90530CDE90113CDE903330E4A0F4948
S315000051100F48002300F012FB08B908B010BD0C4878
S31500005120002108B0BDE8104000F0F4B800210448A2
S3150000513000F0F0F8DEE700BF1C07FE1FE47E00006B
S315000051405804FE1FB020FE1FCD500000EC7E00006C
S315000051508C05FE1F027852B943681BB10221044830
S3150000516000F0B0B91A460121014800F0ABB970470A
S315000051705804FE1F2DE9F04FDFF8E890354883B05C
S31500005180FFF788FCD9E90113D9F800001B68984796
S3150000519000B101BED9F80830D9F800005B6898471D
S315000051A000B101BE2C4DDFF8C0A02A4CDFF8BC8050
S315000051B02F464FF0FF363B4601220096032140461C
S315000051C000F05EF92B6813F001021FD19B07F2D5A0
S315000051D0D9F80430996909B909E01A46531CDBB2BB
S315000051E08B42FAD31D4B33F812301D4A1360DAF89E
S315000051F004B06268DBF820301088012198476268A5
S31500005200DBF82030508800219847D4E7D9F80430DD
S315000052109969E1B1002200E01A46531CDBB28B42C9
S31500005220FAD30E4B33F812300D4A13600A2BC2D94B
S31500005230DAF804B06268DBF820301088002198475D
S315000052406268DBF82030508801219847B3E7044BA9
S315000052501B68EBE7E403FE1FE003FE1F7C04FE1F52
S31500005260EC03FE1FC001FE1F347B00005804FE1F26
S3150000527080B50D4F0D4D0E4C00F06EF80A233846E2
S315000052802B60FFF707FC0B4B5E6823787968326A60
S315000052908888B3FA83F35B09194623709047286818
S315000052A001F0E6F8F1E700BFF403FE1FF003FE1F6E
S315000052B0FC03FE1F347B000030B5104D104B2A68EE
S315000052C089B0B8204FF4806100930123D418CDE94A
S315000052D00530CDE90113CDE903330A4A0A490B48E3
S315000052E02C60002300F02AFA08B909B030BD07483F
S315000052F0002109B0BDE8304000F00CB81C07FE1FC5
S31500005300B024FE1F71520000947F00004406FE1F69
S31500005310704700BF00BE7047F8B50B4F0B4E0C49E7
S31500005320002405461C2301220A483C60347000F024
S3150000533091F918B121460748FFF7ECFF00F044F851
S315000053402846FFF7E5FFF8BD1C07FE1FFC06FE1FFB
S31500005350A07F00000007FE1F38B54FF0FF3114484C
S3150000536000F0CAF9F0B9134B1A7802B138BD124CE5
S3150000537001221A70FFF7A8FE2368013B2360002B69
S31500005380F4D00B4D04E02368013B2360002BEDD0E5
S31500005390284600F0C7F90028F5D000212846FFF777
S315000053A0B9FFF0E700210248FFF7B4FFDBE700BFD3
S315000053B00007FE1FFC06FE1F1C07FE1F08B572B67F
S315000053C000F02CFC002008BD10B5054C236803B185
S315000053D09847636813B1BDE81040184710BD00BF79
S315000053E00802FE1F00283BD0242A39D1F8B5EFF376
S315000053F0108372B61E4E32680132326083F3108813
S315000054001C4A1D4B12681C684AB1A04207D00023F3
S3150000541001E0A0422AD001339342A469F9D105469E
S315000054200F46EFF3108372B63268013A326083F3A7
S31500005430108801F04DF8A54214D0EFF305830F4A0A
S3150000544011680B4306D0EFF3058312681343B3F1DB
S31500005450F03F09D339462846BDE8F84000F016BAB1
S31500005460062070470620F8BD1320F8BD0446D6E78F
S31500005470EC07FE1F4407FE1F2007FE1F1002FE1F3B
S3150000548070B4039C18B10D4D0668AE4202D00620DA
S3150000549070BC704763B12CB1EFF30585084E3668D2
S315000054A0354307D1032A07D8039470BC00F016BA17
S315000054B00320EDE70420EBE70820E9E74E445644D5
S315000054C01002FE1F68B130B4084B04689C4205D137
S315000054D032F0020307D130BC00F070BA062030BCAF
S315000054E0704706207047082030BC70474E4456442B
S315000054F008B1342B01D01C2070472DE9F041EFF3A1
S31500005500108372B6214E34680134346083F31088F8
S315000055101F4C204B25681C684DB1A04207D00023C4
S3150000552001E0A0422DD00133AB42246AF9D10546F1
S3150000553017468846EFF3108372B63068013830603C
S3150000554083F3108800F0C4FFA54203D0012F04D9CD
S315000055501F2000E01C20BDE8F081EFF305830E4A12
S3150000556011680B4306D0EFF3058312681343B3F1BA
S31500005570F03F08D33A4641462846BDE8F04100F0E0
S3150000558075BB0446D3E71320E5E700BFEC07FE1F13
S315000055902407FE1F2807FE1F1002FE1F58B10268CF
S315000055A0074B9A4207D1EFF30583064A1268134365
S315000055B003D100F08BBB1C2070471320704700BF3F
S315000055C04554554D1002FE1F18B1124B02689A42FF
S315000055D001D01C20704710B481B90F4AEFF3058340
S315000055E01468234306D0EFF3058312681343B3F11F
S315000055F0F03F0DD35DF8044B00F0C8BBEFF3058315
S31500005600054A14682343E9D004205DF8044B70472B
S315000056101320FAE74554554D1002FE1F90B10B4B6F
S3150000562002689A420ED1EFF30583094A11680B43CB
S3150000563006D0EFF3058312681343B3F1F03F03D3AB
S3150000564000F084BC1C207047132070474554554D0C
S315000056501002FE1F08B11C2B01D00C2070472DE94B
S31500005660F041EFF3108372B61F4E34680134346094
S3150000567083F310881D4C1E4B25681C684DB1A04253
S3150000568007D0002301E0A04229D00133AB42646970
S31500005690F9D1054690460F46EFF3108372B630688F
S315000056A00138306083F3108800F012FFA54213D052
S315000056B0EFF305830F4A11680B4306D0EFF305831A
S315000056C012681343B3F1F03F0BD3424639462846DE
S315000056D0BDE8F04100F044BD0C20BDE8F081044671
S315000056E0D7E71320F9E700BFEC07FE1F4007FE1FB0
S315000056F03007FE1F1002FE1F60B1084B02689A4277
S3150000570008D129B1EFF30583054A1268134303D183
S3150000571000F050BD0C20704704207047414D4553A2
S315000057201002FE1F18B10268034B9A4201D00C20EA
S31500005730704700F081BD00BF414D45532DE9F04F44
S3150000574085B0DDE910B40094129C0294139C019478
S31500005750DDE90E78149C002871D0B82C6FD1EFF3D8
S31500005760108472B6DFF82091D9F800500135C9F8D7
S31500005770005084F31088414D414CD5F800E0246870
S3150000578008F1FF3CBC44BEF1000F16D0A04214D075
S3150000579000268A46E168B9425FD82569BD425CD9D0
S315000057A001250027614506F101064CD821696145AE
S315000057B049D9D4F888405146002705461E469246E8
S315000057C00391EFF3108372B6D9F80020013AC9F8B5
S315000057D0002083F3108800F07BFEA5422FD0002F17
S315000057E03FD0BAF1000F3CD0B8F1C70F37D9BBF1A3
S315000057F01F0F3AD8009B9B453BD3019B012B36D804
S31500005800EFF305831F4A11680B4306D0EFF30583B8
S3150000581012681343B3F1F03F2DD3019B1393029B00
S315000058201293009B0399CDE910B35246334628469E
S31500005830CDE90E7805B0BDE8F04F00F027BD0E208B
S3150000584005B0BDE8F08F7645D4F8884003D0A04275
S3150000585001D0002D9ED05146AFE70025A2E70520D6
S31500005860EEE7032005B0BDE8F08F0F20E8E7102033
S31500005870E6E71820E4E71320E2E700BFE407FE1F8F
