S00B00006164632E73726563F1
S31500000000F01DFE1FB93B000029360000B53B00007D
S31500000010B53B0000B53B0000B53B0000000000000A
S31500000020000000000000000000000000B53B0000DA
S31500000030B53B000000000000D14C0000854D0000DB
S3150000004045330000FFFFFFFFFFFFFFFFFFFFFFFF3E
S31500000050FFFFFFFFFFFFFFFFFFFFFFFFFFFFFFFFAA
S31500000060FFFFFFFFFFFFFFFFFFFFFFFFFFFFFFFF9A
S31500000070FFFFFFFFFFFFFFFFFFFFFFFFFFFFFFFF8A
S31500000080FFFFFFFFFFFFFFFFFFFFFFFFFFFFFFFF7A
S31500000400FFFFFFFFFFFBFFFFFCFFFFFFFFFFFFFFFD
S31500000410FCFFFFFFFFFFFFFFFCFFFF00FFFFFF00EA
S31500000420FCFF0F20FFFF0F20FCFF7F40FFFF7F40F8
S31500000430FCFF0D40FFFF0D40FFFFFFFFFFFFFFFF2B
S31500000440FFFFFFFFFFFFFFFFFFFFFFFFFFFFFFFFB6
S31500000450FFFFFFFFFFFFFFFFFFFFFFFFFFFFFFFFA6
S31500000460FFFFFFFFFFFFFFFFFFFFFFFFFFFFFFFF96
S31500000470FFFFFFFFFFFFFFFFFFFFFFFFFFFFFFFF86
S31500000480FFFFFFFFFFFFFFFFFFFFFFFFFFFFFFFF76
S31500000490FFFFFFFFFFFFFFFFFFFFFFFFFFFFFFFF66
S315000004A0FFFFFFFFFFFFFFFFFFFFFFFFFFFFFFFF56
S315000004B0FFFFFFFFFFFFFFFFFFFFFFFFFFFFFFFF46
S315000004C0FFFFFFFFFFFFFFFFFFFFFFFFFFFFFFFF36
S315000004D0FFFFFFFFFFFFFFFFFFFFFFFFFFFFFFFF26
S315000004E0FFFFFFFFFFFFFFFFFFFFFFFFFFFFFFFF16
S315000004F0FFFFFFFFFFFFFFFFFFFFFFFFFFFFFFFF06
S31500000500B801FE1F4B002010200000002000010053
S315000005102F0000002F0001000C0001001100000058
S31500000520300000003000010024000000240001001B
S315000005302400020024000300240004002400050017
S315000005401300000017000000230000002100000037
S31500000550210001000700000007000100070002005B
S315000005600700030007000400070005000700060057
S315000005700700070012000000440000000800000009
S315000005800B00000041000000400000004000010098
S3150000059004000000430000002B0000002B000A00AE
S315000005A02B000B002B000C002B000D002B00010074
S315000005B02B0002002B0003002B0004002B0005007B
S315000005C02B0006002B0007002B0008002B0009005B
S315000005D00600000006000A0006000B0006000C00DC
S315000005E006000D0006000E0006000F0006000100C2
S315000005F006000200060003000600040006000500CF
S3150000060006000600060007000600080006000900AE
S315000006101500000015000100150002003100000061
S315000006202A00000045000000100000000301000041
S3150000063003000000030001000F0000000D00000091
S315000006402D000000420000002C0000002C000100DC
S315000006502C0002002C0003003200000028000000DD
S31500000660180000001400000014000100140002002D
S315000006701400030014000400140005001400060012
S3150000068014000700140008001400090034000000DC
S3150000069034000100160000001600010035000000BD
S315000006A03600000036000100220000003300000082
S315000006B0330100002900000010B5054C237833B93A
S315000006C0044B13B10448AFF300800123237010BD1F
S315000006D03001FE1F000000004467000008B5034B10
S315000006E01BB103490348AFF3008008BD00000000BA
S315000006F03401FE1F44670000114A136870B4040AEF
S315000007009C4216D25668C0B200F11005012356F875
S31500000710246003FA05F535420BD069B100EB0410ED
S31500000720936853F82030C3F3400300200B7070BC6D
S315000007307047032070BC7047184670BC704700BFF6
S31500000740F000FE1F084B1A68000A904207D241B11A
S31500000750DA684301043200209B580B80704703205F
S3150000076070470120704700BFF000FE1F084B1A6853
S31500000770000A904208D249B1DA68430104320020E7
S315000007809B581B0C0B807047032070470120704755
S31500000790F000FE1F70B4134C2268030A93421BD26A
S315000007A06668C0B200F11005012256F8236002FA0D
S315000007B005F5354210D091B1E4685B01043402FAC4
S315000007C000F01C5983B233EA144313BF0020002003
S315000007D00A70087070BC7047032070BC70471046E2
S315000007E070BC7047F000FE1F0C4B10B41C68000A6A
S315000007F0A0420ED26AB1DB685DF8044B083303EB06
S31500000800401022EA01030A4042EA03424260002005
S31500000810704703205DF8044B704700BFF000FE1FD1
S31500000820144A70B41468030AA3421DD25668C0B2B3
S3150000083000F11004012556F8236005FA04F4344249
S3150000084012D0A94210D8D26802F1080202EB431373
S3150000085005FA00F05D680AD045EA0040000C000485
S31500000860586070BC00207047032070BC7047284356
S3150000087080B2F5E7F000FE1F18B1034B03600020BD
S3150000088070470120704700BF07010301012920D8E6
S3150000089070B4124C2368020A9A4217D26668C0B234
S315000008A000F11005012356F8226003FA05F53542DA
S315000008B00CD003FA00F083B269B10020E16852015E
S315000008C008311843505070BC00207047032070BC9C
S315000008D070470320704700040B46EFE7F000FE1F49
S315000008E0012957D82E4BF0B41C68020AA2424ED2F8
S315000008F05D68C0B200F11006012455F82250B440DC
S315000009002C4244D000EB02109C681D6954F820303C
S31500000910002941D043F00401224E0E40EFF3108728
S31500000920012383F31088204B1A8892B222B94FF024
S31500000930400CEA7085F803C01A88013292B21A8018
S3150000094087F31088CF0354F8202007D5174F22F4D9
S3150000095080320F4044F8202044F8207044F820608C
S31500000960EFF31081012282F310881A8892B21AB12D
S315000009701A88013A92B21A801B889BB213B9802258
S31500000980EB70EA7081F310880020F0BC70470320FA
S31500000990F0BC70470320704723F00401BCE700BF9A
S315000009A0F000FE1FD5FC011F4C01FE1FD5FC001FE9
S315000009B0B2B10C4B10B41C68000AA0420CD2DB6822
S315000009C022EA0104400108330A4042EA0442C250C6
S315000009D05DF8044B0020704703205DF8044B704718
S315000009E003207047F000FE1FD2B10E4B70B41C6896
S315000009F0000AA04211D2DD68400102EA01032E5826
S31500000A002C58334361EA02029BB2210C1A400904B6
S31500000A100A432A50002070BC7047032070BC704700
S31500000A2003207047F000FE1FF8B500283BD0096888
S31500000A301E4F4FF0000C01EBC00066464FF0010E52
S31500000A408D8840F2024295424FF000030BD10C68AC
S31500000A500EFA03F204F0B854D2B2B4F1807F0CBFA0
S31500000A60164342EA0C0C0133032B06D037F8132049
S31500000A709542ECD00133032BF8D108318142DFD106
S31500000A806FEA0C0C5FFA8CF4012003F045F8084B72
S31500000A9093F8BB241643264083F8BB640120BDE8C7
S31500000AA0F84003F009B80646FF24EDE7585C00005D
S31500000AB000E0014070B582B002AB002403F8044D9B
S31500000AC0054618460E4602F08FFD9DF80430DB07FA
S31500000AD015D5202D10D8012E0ED80A4B1B691A7871
S31500000AE013BF154302F0300222EA050505F0300572
S31500000AF020461D7002B070BD032002B070BD0620F6
S31500000B0002B070BDF000FE1F2DE9F0470746011D3B
S31500000B100088FFF789FF3B88002B4ED0DFF8A4E062
S31500000B20274900224FF0010C4FF0400A4FF0800990
S31500000B307B68DEF8106053F83250DEF8084003EBAD
S31500000B40C2039B88180ADBB203EB0013EFF310888D
S31500000B508CF31088088880B210B9F07086F803A06C
S31500000B600888013080B2088088F3108815F4803F29
S31500000B7054F8230007D020F4803025F4803844F858
S31500000B80230044F8238044F82350EFF310808CF3BD
S31500000B9010880B889BB21BB10B88013B9BB20B8064
S31500000BA00B889BB213B9F37086F8039080F3108814
S31500000BB001323B8892B29342BAD80020BDE8F08752
S31500000BC04C01FE1FF000FE1F18B143680BB1FFF782
S31500000BD09BBF0120704700BF00283AD04368002B16
S31500000BE037D02DE9F04186B006AD002309220193E6
S31500000BF005F8142D184A194CD2F80C8002930646B3
S31500000C00CDE90333059302A92846C047029BE3605A
S31500000C100A22BDF80C308DF8042002A9059A6260FC
S31500000C20284601272360C047029B8DF80570284699
S31500000C3002A9A360C0477368029A22612BB13046AD
S31500000C40FFF762FF06B0BDE8F081384606B0BDE8A2
S31500000C50F0810120704700BFE85C0000F000FE1F35
S31500000C602DE9F0412F4C23684FEA1028984584B0AF
S31500000C7053D26268C5B205F11003012752F8282045
S31500000C8007FA03F3134248D00E4604A902AA034604
S31500000C9041F80C2D3846ADF80C300296ADF80070D0
S31500000CA005EB0815FFF7C0FE2169A068EFF3108475
S31500000CB087F310881C4B1A8892B212B94027CA7063
S31500000CC0CF701A88013292B21A8084F31088F40326
S31500000CD050F8252007D522F4803226F4803440F8D7
S31500000CE0252040F8254040F82560EFF310800122CA
S31500000CF082F310881A8892B21AB11A88013A92B20F
S31500000D001A801B889BB213B98022CB70CA7080F3FD
S31500000D101088002004B0BDE8F081032004B0BDE8CF
S31500000D20F08100BFF000FE1F4C01FE1F70B1084AA3
S31500000D30084B12689A4207D1074B1B685A6803EBA7
S31500000D40820303600020704712207047012070471D
S31500000D500401FE1F494D46009CB17F4020B1034B64
S31500000D601B6803600020704701207047005D00008B
S31500000D7008B5154B196889B103F57F70002201E0AB
S31500000D8053F8041F83420A44FAD13AB90F4B196843
S31500000D900B0CB3F5807F04D000BEFDE700BE00BE9D
S31500000DA0FCE70B68013B033307D8243104220848CB
S31500000DB004F070F920B100BEFDE700BE00BEFCE7FE
S31500000DC0044B054A1A6008BD185E00009CB17F40BE
S31500000DD03C5E00000401FE1F494D4600A8B10C4AC6
S31500000DE00C4B12689A420ED10B4B1B685A6800F1E5
S31500000DF0100103EB820353F8042F40F8042B8142C1
S31500000E00F9D100207047122070470120704700BFBB
S31500000E100401FE1F494D46009CB17F4040B13AB1E6
S31500000E20F0B51B4C1B4B24689C4203D01220F0BD2E
S31500000E3001207047184B1E681EB3184B07781B68B5
S31500000E40002404E00134B44203F1080319D09D796B
S31500000E50BD42F7D193F805C04588B5EB9C0FF1D19B
S31500000E60DD7990F801C005F0070EE645EAD1B1EB51
S31500000E70D50FE7D19B881470C3F309035380002074
S31500000E80F0BDDF21FF23117053800B20F0BD00BFA2
S31500000E900401FE1F494D46009001FE1F70620000CE
S31500000EA038B131B18A4A8B4B12689A4203D012206C
S31500000EB07047012070472DE9F041874D0278AC68F4
S31500000EC005EB8404A3789A4264D24FEA121C04EB21
S31500000ED08C0702F00F06B7F8088028FA06FE1EF007
S31500000EE0010F57D0072EBF7A0AD904EB8C0C02F0FB
S31500000EF007069CF80B2002F00F0217444FEA182849
S31500000F00DFF8DCC1754A1CF8066006EA08061B090C
S31500000F10925D02333A449B0003EB4203E618E25A21
S31500000F2096F90160C2F30902002E05EB820308DB85
S31500000F30002B2FD04678002E4BD040F27950BDE8DA
S31500000F40F08115F8222045785208DDB14FF0020CE9
S31500000F50012604271C78E40705F1FF35EDD5052A9F
S31500000F600CD8DFE802F0342D221C1A039A78D41C20
S31500000F701CFB026202EB940203EB82031A7852080E
S31500000F80002DE7D1042A00F2A080DFE802F06262B9
S31500000F90624F3B004FF4AF60D1E70833EEE79A7833
S31500000FA017FB026203EB8203E8E71C799A7812FBCF
S31500000FB004F20332033402EB940203EB8203DDE70F
S31500000FC01A79033202F4FE720C321344D6E70C335C
S31500000FD0D4E7DF784088D4F804C03E46C6F303045D
S31500000FE0C7F3031701264F728C728E8000284FD1EB
S31500000FF035F822209B78CB800CEB02220A6008721F
S31500001000C8609CE7D8785C785D680D60002302466E
S31500001010C2F30302C0F303108B800B72CB60A307ED
S31500001020CC8048728A7288D5002088E7D8785C78A8
S315000010309D78CC800246C0F30310C2F3030204334A
S315000010400424487200208A728D80CB600C7208607E
S3150000105075E7DD781E7940882C46C5F303154D7279
S31500001060B5B2C4F3030485428C728D8010D9DC8836
S315000010709D68012A00FB04540C601DD0022A0AD088
S31500001080B3F80130CB8000220A72CA60002BCBD1A4
S3150000109040F27A5053E79C78033600FB04F202EBE9
S315000010A096061844F21C03EB8203027BCA80CB60CF
S315000010B00C72002AB8D1EBE718440023027BCA80E1
S315000010C00B72CB60002AAFD1E2E7642037E700BF9E
S315000010D00401FE1F494D4600185E0000605C0000DA
S315000010E0E05C0000034B04301B6823F8201000204E
S315000010F0704700BF5001FE1F034B021D1B680020F6
S3150000110023F82200704700BF5001FE1F034B1A68E8
S31500001110137843F080031370002070475001FE1FC0
S31500001120034B1A6813786FF3C713137000207047C8
S315000011305001FE1F20B1034B1B680360002070475F
S3150000114001207047205D000060B1012808D1094BDD
S315000011501B68002040214122187119711A717047CD
S3150000116001207047034B1B684021412298709970FB
S315000011709A7070475001FE1FF0B587B0002832D034
S3150000118004461A4800230B22CDE90133CDE9033387
S31500001190059302A9C3688DF8042001A8984705465F
S315000011A010B1284607B0F0BD114F029B3B6001A865
S315000011B002F07EFB606858B1A3683E6803EB8000CE
S315000011C0598813F8042B0432834226F82210F7D1EB
S315000011D02378002BE5D03A681378284643F080033D
S315000011E0137007B0F0BD0125DBE700BFE85C000027
S315000011F05001FE1F062070470620704720B1034BA2
S315000012001B6803600020704701207047905D000056
S31500001210324A136893F8281001F03003102B0CD0D3
S31500001220202B02D000239361704790F82B302C4975
S315000012309B0931F8131059B97047038D10B403F0A8
S315000012400303284C34F8133003BB5DF8044B704796
S31500001250D2ED047A90F82B30B8EE676A07EE901A52
S31500001260F8EE676A03F01F03C6EE267A07EE103A19
S31500001270B8EE477AF7EE006A37EE267A67EE877A97
S31500001280FCEEE77A17EE903A9361704707EE903AD4
S315000012904B06B8EE677A19D4032102EB8101D1ED32
S315000012A0016A038D5DF8044BF8EE666AC3F3052305
S315000012B086EE876A013307EE903AFAEEEF7A67EE2A
S315000012C0867AFCEEE77AC2ED067A7047038D13F054
S315000012D0100F0CBF03210021DFE700BF0801FE1F2E
S315000012E09C5D0000AC5D0000A9B1062810B430D0AA
S315000012F0052812D0042834D020B3012841D0022872
S3150000130037D0032845D1244C0023E0690B60026ADC
S3150000131002F0070208E0012070471F4C0023E06935
S315000013200B60026AC2F3027290F8263003F00703DC
S3150000133004EB830300205B6823FA02F20A605DF87F
S31500001340044B7047144C0860E069026AC2F302322B
S31500001350EAE7114C0023E0690B60026AC2F30262FD
S31500001360E2E70D4C0023E0690B60026AC2F3024219
S31500001370DAE7094C0023E0690B60026AC2F3021245
S31500001380D2E7054C0023E0690B60026AC2F3022231
S31500001390CAE70320D3E700BF0801FE1F38B50D7862
S315000013A04B788A78002465F30E3463F30A24CB78ED
S315000013B00D7962F3061463F302044A798B7965F3B7
S315000013C0124462F31E74054663F31A64002002F0A9
S315000013D0A3FB2C620020BDE8384002F06DBB00BFC5
S315000013E010B5174BDC6994F84120D0070CD51A6864
S315000013F094F8263092F82820510603F007030AD401
S31500001400052B0DD0032B0BD094F84130DB074FF0A2
S31500001410000008D410BD228DD206F3D4052BF1D1DD
S3150000142040F2971010BD02F077FB94F841306FF34D
S31500001430000384F84130002002F03EFB002010BD7E
S315000014400801FE1F38B5084BDC690546002002F08E
S3150000145063FB94F8303065F3000384F830300020E5
S3150000146002F02AFB002038BD0801FE1F084B10B50C
S31500001470DC69002002F050FB94F8523043F001037F
S3150000148084F85230002002F017FB002010BD00BF88
S315000014900801FE1F084B10B5DC69002002F03CFB7A
S315000014A094F852306FF3000384F85230002002F0B3
S315000014B003FB002010BD00BF0801FE1F084B10B53E
S315000014C0DC69002002F028FB94F83E3043F08003EC
S315000014D084F83E30002002F0EFFA002010BD00BF75
S315000014E00801FE1F084B10B5DC69002002F014FB52
S315000014F094F83E306FF3C71384F83E30002002F0B4
S31500001500DBFA002010BD00BF0801FE1F084B10B516
S31500001510DC69002002F000FB94F8533043F001032D
S3150000152084F85330002002F0C7FA002010BD00BF37
S315000015300801FE1F084B10B5DC69002002F0ECFA2A
S3150000154094F853306FF3000384F85330002002F010
S31500001550B3FA002010BD00BF0801FE1F38B5084BC6
S31500001560DC690546002002F0D7FA94F8243065F3CA
S31500001570061384F82430002002F09EFA002038BDBD
S315000015800801FE1F03788B4214D343788B4211D394
S3150000159083788B420ED3C3788B420BD343798B422D
S315000015A008D30379994205D8807981428CBF0520FA
S315000015B0002070470520704730B583B001F07CFFEE
S315000015C01A4B01901D68186810F0020028D0DDED56
S315000015D0017A174CF8EE677AF7EE006A86EEA77A7C
S315000015E00020186094F82320D1B2DFED127ADFEDE7
S315000015F0126A27EE277AC6EE877AFCEEE77A17EEAE
S31500001600902A013AB2F1807F0CD25A6001F0F001C3
S31500001610F025072284F8235098601A6084F8231076
S3150000162003B030BD12201D6003B030BD10E000E0F5
S3150000163000ED00E00024744900401C4608B1FFF7A5
S31500001640BBBF0320704700BF052827D0144B0428D2
S3150000165070B5DC6903D194F88034DB071BD40546EA
S3150000166000200E4602F058FA94F83E306FF3C71386
S3150000167084F83E3094F83E3066F3061384F83E3024
S3150000168094F83E3065F3020384F83E30002002F001
S3150000169013FA002070BD4FF4C87070BD0320704768
S315000016A00801FE1F30B583B0002953D0024600283A
S315000016B070D0414CE36993F8AA0010F0010063D1A1
S315000016C093F8A000196A2568C1F302318DF800105D
S315000016D0196AC1F302218DF80110196AC1F30211CA
S315000016E08DF80210196AC1F302018DF80310196A08
S315000016F0C1F302418DF80410196AC1F302718DF825
S3150000170005101B6AA968C3F3026300F003008DF895
S31500001710063009B1032840D0EB680BB1022844D04B
S315000017201146012001F078FFE469002002F0F4F987
S3150000173094F8403043F0800384F8403094F8403009
S3150000174043F0010384F84030002002F0B5F9002090
S3150000175003B030BD184BDD6995F84130DB0715D471
S3150000176008460C4602F0D8F995F8403064F30003B9
S3150000177085F8403095F8403064F3C713204685F865
S31500001780403002F099F9204603B030BD4FF4CB70DB
S3150000179003B030BD012003B030BD29696846FFF7AC
S315000017A0F1FE0028BCD00520EEE769696846FFF720
S315000017B0E9FE0028F7D1B3E70801FE1F38B50B4B49
S315000017C004461B68002093F8225002F0A5F994F80D
S315000017D08034DB0705D594F8813423EA050384F8C1
S315000017E081340020BDE8384002F066B90801FE1FCA
S315000017F0062070470620704706207047062070476F
S3150000180028B321B3134BDB6993F82620C2F30202F7
S3150000181002701A6AC2F302320A701A6AC2F302220C
S315000018204A701A6AC2F302128A701A6AC2F3020274
S31500001830CA701A6AC2F302420A711A6AC2F30272C3
S315000018404A711B6AC3F302638B7100207047012043
S31500001850704700BF0801FE1F05292ED8DFE801F0FA
S315000018600A11181F260390F82A0000F0010080F0E4
S315000018700100704790F8360000F0010080F001008A
S31500001880704790F8380000F0010080F001007047C2
S3150000189090F8900400F0010080F00100704790F885
S315000018A0320000F0010080F00100704790F88004DB
S315000018B000F0010080F0010070470020704700BF73
S315000018C030B5A1F1020483B04FF6FF73B4FA84F485
S315000018D00546640901930A4A04E0019B43B1019B52
S315000018E0013B01932946D069FFF7B6FFA042F4D128
S315000018F0019B002B0CBF4FF4CD70002003B030BD10
S315000019000801FE1F70B5344C86B0204601F072FE09
S3150000191006A800230322009300F8182D2F4ACDE9CC
S315000019200233CDE9043302A9D3689847029DE561E5
S315000019304FF6FF73019395F83630DA0705D50BE0BD
S31500001940019B33B1019B013B019395F83C30DB07CA
S31500001950F6D5019B002B39D0002002F0DDF895F872
S31500001960A530062262F3020385F8A530002002F0B6
S31500001970A3F82368E669D3E9061200254FF6FF733C
S315000019802261174A019328464FF40043C4E9022313
S315000019906160A561636102F0BFF896F8803443F098
S315000019A00103284686F8803402F086F801210420D7
S315000019B0FFF786FF054648B9E36918461A6A93F8A1
S315000019C02630FFF7FBFE284606B070BD4FF4CD75F6
S315000019D0284606B070BD00BF0801FE1FE85C000087
S315000019E000127A00052828D838B5524DEA6992F8CF
S315000019F0263003F0070398421CD0052B12D092F82C
S31500001A002A30DB070ED50128044618D192F840305B
S31500001A10DB097DD110462146FFF71EFF00283BD18A
S31500001A20002038BD2B6893F828305C062DD403239C
S31500001A309842E8D140F2911038BD03207047104615
S31500001A402146FFF709FF0028EAD0032CED6935D0BF
S31500001A50052C2CD0002C49D195F83C30D9072AD535
S31500001A60204602F059F895F8363043F0010385F820
S31500001A703630002002F020F820460121FFF720FF33
S31500001A800028CDD04FF4CD7038BD138D13F0100F54
S31500001A900CBF03230023CBE70020ED6902F03CF8DE
S31500001AA095F8383043F0010385F83830E1E795F8CA
S31500001AB03C309B0610D440F2931038BD95F83C306C
S31500001AC01A07F8D5002002F027F895F8323043F0CF
S31500001AD0010385F83230CCE7002002F01DF895F8B6
S31500001AE02A3043F0010385F82A30C2E7002002F0CD
S31500001AF013F8042CBDD801A353F824F0671A00008C
S31500001B00A11A0000251B0000CB1A0000171B0000BD
S31500001B1040F2951038BD95F8803443F0010385F8FE
S31500001B208034A6E795F8903443F0010385F89034A5
S31500001B309FE700BF0801FE1F05281DD808B5431EF4
S31500001B40012B014608D9042806D068B1032815D010
S31500001B5005281FD0002008BD194BD869FFF77CFE69
S31500001B6038B140F2911008BD154AD069FFF774FEEE
S31500001B70F0B94FF4C87008BD03207047104AD06909
S31500001B80FFF76AFE0028F4D0D36993F83C301B07B0
S31500001B9013D40AE00A4AD069FFF75EFE0028E8D0AF
S31500001BA0D36993F83C30990607D440F2931008BDE8
S31500001BB0D36993F83C30DA07F7D54FF4C97008BDFE
S31500001BC00801FE1F70B506464FF6FE7440F29315E7
S31500001BD001E0013C05D03046FFF7AEFFA842F8D041
S31500001BE000B970BD6FF4C873C318012B98BF0020ED
S31500001BF070BD00BF30B583B04FF6FF7304460120B9
S31500001C0001930D4601F088FF02A8002300F8053D68
S31500001C1001F0C4FB94F8AA30D90604D494F8A03095
S31500001C20C3F3001353B1019B013B0193019B002BAE
S31500001C30F0D1012001F040FF03B030BD94F8AA2096
S31500001C4063F300024FF6FF7384F8AA20019302E0C3
S31500001C50019B013B019394F8AA30DA0603D494F869
S31500001C60A030DB0602D5019B002BF1D194F8A03001
S31500001C70042D0CBF43F0030365F3010384F8A03081
S31500001C804FF6FF73019302E0019B013B019394F829
S31500001C90AA30D80603D494F8A030D90602D5019B01
S31500001CA0002BF1D194F8AA30042D0CBF43F00103A8
S31500001CB06FF3000384F8AA304FF6FF73019302E036
S31500001CC0019B013B019394F8AA30DA0603D494F8F9
S31500001CD0A030DB0602D5019B002BF1D19DF8030055
S31500001CE001F070FB012001F0E7FE03B030BD00BF3C
S31500001CF00428124B0BD0022809D01A6892688A422F
S31500001D0004D3D86990F82A30DB0714D47047D86911
S31500001D1090F82A20D207F0D590F83220D207ECD5D9
S31500001D2090F83620D207E8D590F83820D207E4D5C7
S31500001D300421FFF75FBF0321FFF75CBF0801FE1F09
S31500001D40052837D82DE9F843AE4E2DED028B0D460A
S31500001D5004460146F069FFF77FFD0746002842D199
S31500001D60042C57D0012C44D034B3032C60D0052C5E
S31500001D7000F0B880F56901F0CFFE032C00F09C80DE
S31500001D80042C4ED0022C3ED195F890346FF300030C
S31500001D9085F89034002001F08FFE20460221FFF7DF
S31500001DA08FFD002814BF4FF4CD700020BDEC028BD0
S31500001DB0BDE8F88303207047F56995F83C30DB07EA
S31500001DC000F1818095F8AA30DF0700F1858095F84B
S31500001DD0A030002001F0A0FE95F836306FF3000326
S31500001DE085F83630D6E7F069FFF712FA40F291101F
S31500001DF0DCE7F56995F8AA30DA0767D495F8A030DC
S31500001E00002001F089FE95F838306FF3000385F85D
S31500001E103830BFE7F069FFF7D1FC3846F56901F0C5
S31500001E207BFE95F880346FF3000385F88034B1E7C4
S31500001E30F76997F83C30180745D497F8AA30D907C0
S31500001E4000F1BD8097F8A0303168002091F8275046
S31500001E5091F8208091F8219001F05EFE97F81334F6
S31500001E6005FA09F25BB25A4002EA08025340DBB2B5
S31500001E7087F81334002001F01FFEF569002001F0F9
S31500001E804BFE95F813346FF3861385F81334002050
S31500001E9001F012FEF569002001F03EFE95F8A23031
S31500001EA0052262F3030385F8A230002001F004FE48
S31500001EB00020F56901F030FE95F832306FF300032B
S31500001EC085F8323066E740F293106FE72846032123
S31500001ED0FFF790FEF56993E728460321FFF78AFE90
S31500001EE0F56976E7002D70D03368697893F8242079
S31500001EF091425FD893F8262095ED017A07EE902A55
S31500001F00F8EE677AF4EEC77AF1EE10FA52D493F847
S31500001F10253007EE903AF8EE677AB4EEE77AF1EEFE
S31500001F2010FA47D42978032901D0002942D1F06953
S31500001F30FFF792FC00284AD0F76997F83C309A06DA
S31500001F40C1D497F8AA30DB0756D497F8A03095F895
S31500001F500080002001F0E0FD3B8DB8F1030F0CBFBF
S31500001F606FF3041343F010033B85002001F0A4FD3A
S31500001F703368F76993F8283095F8018003F0300349
S31500001F80102B41D0202B53D095ED018A202B21D048
S31500001F90F069FFF73DF90021F069FFF72BFEF569BF
S31500001FA0002001F0B9FD95F82A306FF3000385F89B
S31500001FB02A30EFE6BDEC028B0320BDE8F8833846F5
S31500001FC02146FFF717FEF7693EE70120EEE64FF4DC
S31500001FD0CA70EBE6002001F09FFDFCEEC87A97F888
S31500001FE02B2017EE903A013B63F3040287F82B206F
S31500001FF0002001F061FDCBE738460321FFF7FAFD2B
S31500002000F769A4E70801FE1F214B002033F818905A
S3150000201001F082FD3B8D69F301033B85002001F051
S315000020204BFD336893F8283003F03003202B13D18F
S31500002030184B002033F8188001F06EFD97F82B300E
S3150000204068F3871387F82B30002001F035FD3368DD
S3150000205093F8283003F03003102BF76995ED018AC9
S3150000206094D1002001F058FD78EE087A3A8DFCEE06
S31500002070E77A002017EE903A013B63F30D223A858A
S3150000208001F01AFD336893F8283003F030037DE73A
S31500002090A45D0000945D0000012814D0022801D040
S315000020A000207047052938B515460C460ED0291D67
S315000020B02046FFF745FE20B140F29113984200D02A
S315000020C038BD002038BD0846FFF78CBC1146107994
S315000020D0FFF736FE18B140F291139842F0D12879F5
S315000020E0FFF770FD0028E2D0EAE700BF2DE9F047D0
S315000020F0052884B000F28D80002900F08F800B78CF
S315000021008A799342C0F085804C789C42C0F08180E9
S31500002110CC789C427DD84B7993427AD30C79944201
S3150000212077D304280C4605467DD05C4FF86990F8B5
S31500002130263003F007039D4207D0002D40F089802A
S3150000214090F83C30D90740F18D80036A036A036A30
S31500002150036A036A036A036A0021C3F30268FFF78E
S3150000216049FD07EB8502A0795368F969C34000224F
S3150000217001938DF800208DF80C200A6A91F826301C
S3150000218003F0070307EB8303C2F302625B6868464A
S31500002190D340029301F0A0F9064600283AD1A3796C
S315000021A0D7F81C90434505F0070A5ED921464846F4
S315000021B0FFF7F4F8FC69304601F0AEFC94F82630DF
S315000021C06AF30203304684F8263001F075FCFB6999
S315000021D01A6A93F8263003F0070307EB8307C2F366
S315000021E002627B686846D340012202938DF8002084
S315000021F001F072F9064668B901F05EF9284B1860DD
S31500002200002848D001462846FFF772FDFFF7D4F9AB
S3150000221000E00326304604B0BDE8F08701263046CC
S3150000222004B0BDE8F08792B98BB91C4FF86990F8F5
S315000022304030DB090BD190F8263003F00703042B5E
S3150000224083D02946FFF708FB28B3F8697DE7052602
S31500002250E0E7032D19D0052DF3D190F83C309B060D
S315000022603FF573AF40F29316D4E701F055FC99F8A9
S3150000227026306AF30203304689F8263001F01CFC4A
S315000022802146F869FFF78AF8A1E790F83C301A076B
S315000022903FF55BAFE6E74FF4C876BBE70801FE1FE4
S315000022A0AC01FE1F2DE9F04F83B0002853D0DFF8B4
S315000022B03C910778D9F81C30467D93F826801A6A37
S315000022C01A6A1A6A1A6A1A6A1A6A1B6A027DC37D30
S315000022D0C17C8DF801208DF80330827D037E8DF858
S315000022E00060052F08F007088DF802108DF804200D
S315000022F08DF805302AD802AA3A4412F8082C012A89
S3150000230024D0022B08D10279052A1FD802A90A4433
S3150000231012F8082C012A19D0824652461846052181
S31500002320FFF7BAFE0446D8B9054640F2911BE9B25A
S3150000233030465246FFF7B0FE0135044608B158450F
S3150000234005D1052D12D01DF80560F0E703242046BF
S3150000235003B0BDE8F08F0124204603B0BDE8F08F3E
S3150000236040F291139842F2D10025DEE73846FFF796
S3150000237029FC04460028EAD1042F19D025460AF183
S315000023800C013846FFF7B2FE04460028DFD1474568
S3150000239005D002AB434413F8083C012B1DD0002D99
S315000023A0D5D001F089F801463846FFF7A1FCCEE703
S315000023B0D9F81C3093F82A20D00715D593F8322087
S315000023C0D10711D593F83620D2070DD593F838509A
S315000023D005F0010585F00105D1E74046FFF702FB50
S315000023E00028DCD00446B2E70125C8E70801FE1F35
S315000023F020B1034B1B680360002070470120704723
S31500002400E85D00000620704788B10F4B826A9A4249
S315000024100BD1C3695BB190F82420022A09D01A882F
S3150000242042F400721A80002070470720704701208E
S3150000243070471888C00B04D11A8842F400421A80EB
S3150000244070470820704700BF4344415298B10B4B78
S31500002450826A9A420DD1C3696BB190F82420022A90
S315000024601A8814BF6FF349226FF3CF321A80002007
S315000024707047072070470120704700BF4344415210
S3150000248068B1084B826A9A4207D1C3693BB11B887F
S31500002490DB0B0CBF00200820704707207047012087
S315000024A0704700BF43444152E8B1CB1CDBB21E2B40
S315000024B01BD8002910B407DB134B048853F82440BB
S315000024C001238B40234216D0104B846A9C420ED1C6
S315000024D0AAB1C369ABB11031002033F811301380B3
S315000024E05DF8044B704701207047032070470720B2
S315000024F05DF8044B704703205DF8044B70470220DB
S31500002500EEE70120ECE700BF5401FE1F43444152B1
S3150000251030B583B00023ADF806308AB114460DF10C
S3150000252006020546FFF7C0FFBDF8063010B123606E
S3150000253003B030BDEA88B2F5004FF8D11B04F6E7C8
S31500002540022003B030BD00BF18B311B31A4B826A24
S315000025509A421CD191F90020D31CDBB2122B1DD854
S31500002560002A18DB154B10B4048853F824400123C5
S315000025709340234214D04978062911D9C369CBB1B7
S315000025801A44002082F8E0105DF8044B70470720DB
S315000025907047012070474978062903D80320704701
S315000025A00320F1E7C369002BF3D01A44002082F818
S315000025B0E01070470120E7E7434441525401FE1FF3
S315000025C088B381B3354B826A9A422AD10379012BAB
S315000025D05AD070B5C56982B03DB3C46A44B34FF0F2
S315000025E0FF330126013306FA03F22242FAD01C2BEE
S315000025F04ED01D2B4AD010335A0015440D602023AF
S315000026000126013B06FA03F52542FAD01C2B41D0E0
S315000026101D2B41D010335B009B1A5B1001334B60BE
S3150000262007E00720704701207047012002B070BD07
S315000026304C601B4A03881669ADF806300C46002329
S31500002640012120220546ADF8043021728DF80420C0
S3150000265000936A46022101A8B0470028E6D12B78EC
S31500002660BDF80220628104335B004FF0FF326372D3
S31500002670E260EB7A012B04D16B691B68C3F30B0391
S31500002680E3606B882382D1E7032070471C22B4E7FE
S315000026901A22B2E71A23BFE71C23BDE7434441527F
S315000026A0E85C0000D0B110B584B00023044668464B
S315000026B0CDE90033CDE9023300F07CFF9DF80C3004
S315000026C09B070DD5E3691A88D20B0CD11B8813F42E
S315000026D0007F14BF1B20002004B010BD01207047EE
S315000026E0062004B010BD1B2004B010BD30B5B0F8F4
S315000026F080306FF30003A0F880300388C3F34133C2
S31500002700012B038A43F47C5383B00D46038203D125
S31500002710038A43F03F030382002404802B8844820B
S3150000272020226846ADF80040ADF802308DF8002052
S3150000273001F0BAF8EB6ADB000AD52B6903B11C700D
S3150000274002A800222223019200F8043D01F0ACF811
S3150000275003B030BD70B4C3698E7FB3F8A221CD7FBC
S3150000276091F8204066F30302A3F8A221B3F8A22150
S3150000277065F30712A3F8A221B3F8A22164F30B2292
S31500002780A3F8A221B3F8A02142F00802A3F8A021E1
S31500002790B3F8A02142F08002A3F8A021B3F8A0214B
S315000027A042F40062A3F8A021FF2EB3F8A02100F0A6
S315000027B0B7806FF30002A3F8A021B3F8A02142F07E
S315000027C00202A3F8A021B3F8A02142F00402A3F864
S315000027D0A021FF2DB3F8A02100F091806FF3041221
S315000027E0A3F8A021B3F8A02142F02002A3F8A0216B
S315000027F0B3F8A02142F04002A3F8A021FF2CB3F8C1
S31500002800A0216BD06FF30822A3F8A021B3F8A02172
S3150000281042F40072A3F8A021B3F8A02142F480622A
S31500002820A3F8A0218C7FC369C87F91F8201004F11A
S315000028307F02D2B23A2AB3F8B0212BD8C4F30114DE
S3150000284064F30102A3F8B021B3F8B02142F0080204
S31500002850A3F8B02100F17F02D2B23A2AB3F8B02130
S3150000286023D8C0F3011060F30512A3F8B021B3F822
S31500002870B02142F08002A3F8B02101F17F02D2B26A
S315000028803A2AB3F8B0211BD96FF3CB22A3F8B021B3
S3150000289070BC70476FF3C302A3F8B02100F17F024A
S315000028A0D2B23A2AB3F8B021DBD96FF3C712A3F834
S315000028B0B02101F17F02D2B23A2AB3F8B021E3D8AF
S315000028C0C1F3011161F30922A3F8B021B3F8B021D5
S315000028D042F40062A3F8B02170BC704742F48072E3
S315000028E0A3F8A021B3F8A0216FF34922A3F8A021F1
S315000028F0B3F8A0216FF38A22A3F8A02192E742F051
S315000029001002A3F8A021B3F8A0216FF34512A3F893
S31500002910A021B3F8A0216FF38612A3F8A0216DE7DA
S3150000292042F00102A3F8A021B3F8A0216FF34102FF
S31500002930A3F8A021B3F8A0216FF38202A3F8A02187
S3150000294047E700BF002842D03C4B826A9A423CD1FE
S31500002950C369002B3BD030B5044690F93000002304
S3150000296010F1210F83B0A3620BD098424BDA00F02E
S31500002970E9FF334B94F930201B6853F832300022BC
S315000029801A6094F9310010F1210F0BD0002820DADB
S3150000299000F0D8FF2A4B94F931201B6853F83230E7
S315000029A000221A602146E069FFF7A0FE02A8002572
S315000029B02023ADF8045000F8043D2388ADF8063016
S315000029C001F020F8284603B030BD072070470120EB
S315000029D070474209203201231A4900F01F0003FA0A
S315000029E000F041F82200BFF34F8FBFF36F8F94F9C9
S315000029F031000028CCDB4209603200F01F05AB40F5
S31500002A0041F82230C4E74209203201230D4900F083
S31500002A101F0003FA00F041F82200BFF34F8FBFF307
S31500002A206F8F94F930000028A1DB4209603200F074
S31500002A301F05AB4041F8223099E700BF434441529D
S31500002A407062000000E100E02DE9F0438DB048B16E
S31500002A5041B18B88C3F30E034BB1032528460DB055
S31500002A60BDE8F083012528460DB0BDE8F0830C468D
S31500002A70064608A8CDE90833CDE90A338D7800F07B
S31500002A8099FDA37933B19DF82C20D70740F1A08199
S31500002A90852BE2D0E27912F0DF0FDED1227A022A0C
S31500002AA0DBD8A1780229D8D8E07808B1052BD4D094
S31500002AB0206908B10229D0D0012D00F09781BF4BC3
S31500002AC0B56A9D4200F0888125886369ADF80A5091
S31500002AD03580BB4FA58894F81CE094F81DC0B361FF
S31500002AE030620023E07F3171F58094F82010A57FD5
S31500002AF086F824202022ADF80830CDE90833CDE948
S31500002B000A3386F8345086F8350086F83610FB68A6
S31500002B1086F832E086F833C08DF8082002A80DEB5F
S31500002B2002019847054600289DD1BDF82620089B3E
S31500002B30F361C2F382030433C2F340125B00727284
S31500002B403372A049208851F820204AB90B9A55883B
S31500002B5041F820505268120C12042A4341F82020F2
S31500002B600C2B00F04A810E2B00F03881102B03D17C
S31500002B70E378042B7FF471AF02A800F00FFF05463F
S31500002B8000287FF470AF0890D7F8108008AA0221B9
S31500002B9002A8C04723699DF9200086F83000002B63
S31500002BA000F03D8110F1210F00F03481864AA37AAE
S31500002BB012681B01002852F830C0DBB2C2B2C0F264
S31500002BC03381DFF808E24FEA501909F12009704411
S31500002BD0012102F01F0201FA02F280F80033CCF85C
S31500002BE000604EF82920BFF34F8FBFF36F8F96F921
S31500002BF03000002806DB4309603300F01F029140D5
S31500002C004EF8231000F09EFE08AA032102A8C04732
S31500002C10A3789DF9200086F83100012B00F0F280A0
S31500002C2010F1210F2DD0684AE37A12681B010028A3
S31500002C3052F830E0DBB2C2B2C0F2FE80DFF88C811F
S31500002C404FEA501C0CF1200C4044012102F01F02F7
S31500002C5001FA02F280F80033CEF8006048F82C2022
S31500002C60BFF34F8FBFF36F8F96F93100002806DB55
S31500002C704309603300F01F02914048F8231000F02A
S31500002C8061FE00237381C6E9043304A8CDE9043349
S31500002C90CDE90633019300F08DFC9DF81020019BD1
S31500002CA0039322218DF80C10D1060ED5CDE90833F9
S31500002CB0CDE90A3308A9FB6803A89847E0B90122C1
S31500002CC0089BB2729DF810203361120711D50023BC
S31500002CD04FF00108FA688DF80D80CDE90833CDE98B
S31500002CE00A3308A903A8904730B9089B86F80B80D9
S31500002CF07361BDF8123073803146F069FFF7F6FC58
S31500002D00002720222388ADF8107004A88DF8102023
S31500002D10ADF81230CDE90877CDE90A7700F0C8FDA5
S31500002D20F369A1781F805F821A8861F34E321A8098
S31500002D301A8867F3C7121A80227A012A00F0848063
S31500002D403AB9198841F480711980198A62F30D2104
S31500002D501982D88994F803C0A188E279A7796CF31F
S31500002D604200D881A1F50041D889B1FA81F149091B
S31500002D7061F3CF30D881A2F12002D989B2FA82F26A
S31500002D80520962F34511D98108A81F7300F012FC9D
S31500002D909DF82C30C3F34002D1B2327319B1217BB6
S31500002DA0002900F088805B0754D4737A012B00F069
S31500002DB09080024B0022C6E90A3254E6434441524F
S31500002DC0E85C00005401FE1F7062000000E100E0B4
S31500002DD018063FF55FAE40E6082544E6E378032B88
S31500002DE03FF4CAAE002B3FF4C7AE36E6258940F263
S31500002DF001139D423FF463AE2FE6E378022B7FF684
S31500002E00BBAE2AE62369002B3FF40AAF10F1210F6F
S31500002E107FF409AF02A800F0F5FD0B2523E610F1BB
S31500002E20210F3FF4F1AEC1E6374902F00F0211441B
S31500002E300B76CCF80060E5E6334902F00F02114448
S31500002E400B76CEF800601AE71A8A092161F30D2283
S31500002E501A827EE7F36996F8321093F8E12161F35E
S31500002E60420283F8E12193F8E12142F0100283F84F
S31500002E70E1210121962000F035FDF36996F8330033
S31500002E8093F8E12196F8321060F3000283F8E1210D
S31500002E9093F8E1216FF3C30283F8E12129B193F896
S31500002EA0E12142F0080283F8E121012140F2DC50E1
S31500002EB000F018FD79E73046FFF7F4FB074668B1E6
S31500002EC002A800F09FFD3146F0693D46FFF70EFC73
S31500002ED0C9E521463046FFF73DFC6AE796F9300022
S31500002EE000F030FD96F93030002B09DB5A096032CC
S31500002EF003F01F030121054801FA03F340F82230CD
S31500002F009DF82C304FE700BFFCEC00E000E100E04C
S31500002F10002800F00E81002900F00B81B74B826A71
S31500002F209A4240F004812DE9F041C66986B0002E30
S31500002F3000F001810B6804460D46002B00F000816D
S31500002F40AF4A018852F8212042F04052D243134240
S31500002F5040F0F68031886868C1F34131012900F0FC
S31500002F60F480002840F0EC80002302A8CDE902336B
S31500002F70CDE9043300F01EFB9DF80820970700F109
S31500002F80EA80D5E9003111F0405F40F0D98013F0B6
S31500002F9040510BD03088000600F1D280520700F174
S31500002FA05D8196F87A20002A40F0CA80327BE96873
S31500002FB0520700F004816A681A4331EA020240F0BF
S31500002FC0BF80002900F0BC802A7C002A40F0648182
S31500002FD06A689FB290B2B780B082180C13438FB262
S31500002FE0120C090C13F0405F3781F080F282718178
S31500002FF05DD00DF11808002302A848F8143DCDE96C
S315000030000233CDE9043300F0D5FA7E4B9DF810006B
S315000030109B694146984701997B4B994240F28F80C4
S315000030202B68002840F08C807848039AA0FB0101A9
S31500003030890C774802FB01F7A0FB0727BF09FA1F97
S31500003040F82A7DD8D90000F1CA806A68D20015D561
S31500003050FAB286F8DE20A27A012A00F09E80728AF1
S315000030606FF308227282728A42F480627282EA6880
S31500003070718AC2F3007262F30001718213F0005389
S3150000308040F0A1806A68910011D5FFB286F8DF7022
S31500003090728A63F349227282738A43F400637382ED
S315000030A0EB68728AC3F3407363F3410272822B7C2E
S315000030B06A7C2989E76920795B0203F4C0631343BC
S315000030C048F201029142A6F8663046D00228A6F8D8
S315000030D080105FD0B7F80080C8F34138B8F1010F0F
S315000030E000F09A8094F9300010F1210F13D000F00F
S315000030F029FC94F93020002A0DDB53099B0003F1CB
S31500003100604303F5614302F01F02012101FA02F256
S31500003110C3F880211A6029892B6848F2010291427E
S3150000312036D148F20102A6F88020002009E00720E7
S31500003130704701207047012006B0BDE8F0812B687A
S315000031400320E36206B0BDE8F0810028F8D01A43F8
S315000031500242F5D108E72B6819E7022800F0EE8055
S315000031603B88C3F34133012BBCD13A8A94F9310031
S3150000317042F03F0210F1210F3A8204D0002880F27B
S31500003180BD8000F0DFFB3B886FF386133B80A9E729
S315000031900020D6E72B680020D3E71E480023222212
S315000031A0CDE90133CDE90333059302A9C3688DF850
S315000031B004204046984700285DD02B68C1E70029C7
S315000031C03FF402AFBCE7FFB286F8DF70738A43F4C0
S315000031D000737382738A6FF3CB23738260E7FAB24C
S315000031E086F8DE20A27A012AD7D0728A42F480724B
S315000031F07282728A6FF38A22728238E7434441529E
S315000032005401FE1F245D00003F420F0083DE1B4376
S31500003210D34D6210E85C000094F9310010F1210FE3
S3150000322012D000F08FFB94F93130002B0CDB5A09D9
S31500003230920002F1604202F5614203F01F0308FAB0
S3150000324003F3C2F8803113603B8843F040033B80B0
S315000032503B8A0A2262F305033B8243E7B1F1405FF2
S315000032603FF46EAF33F070427FF46AAF2279002AE2
S315000032703FF49CAE64E7404600F01AFB22692B68D7
S31500003280117841F0800111701178D80041F01001D9
S3150000329011707FF5E4AEA8E7002302A8CDE902335A
S315000032A0CDE9043300F086F99DF80830DB077FF599
S315000032B046AF297C2B6807293FF642AF6A7C032A72
S315000032C07FF63EAF37886A68C7F34137012F01EAB8
S315000032D0020C01EA03002CD081427FF431AF318821
S315000032E00F0608D4BCF1000F03D0298900297FF40A
S315000032F027AFE9686DE60028F4D021E742092032BD
S3150000330000F01F01DFF838C003FA01F14CF8221073
S31500003310BFF34F8FBFF36F8F94F931000028FFF68C
S3150000332030AF4209603200F01F018B404CF822306A
S3150000333027E78142D3D06145D1D001E72B68F0E67B
S3150000334000E100E010B584B0EFF3058001F08EF8DF
S31500003350EFF30383104A103B12685BB252F8333026
S315000033601C68EFF30383A3F1100040B2019300F051
S31500003370E9FA5CB12188236AA269ADF8041000213C
S315000033808DF8061002920BB101A89847EFF305805D
S3150000339001F06AF804B010BD7062000068B1084A16
S315000033A0B2F8001192F80031C1F300016FF3000387
S315000033B00170002082F8003170470120704700BF7D
S315000033C000C00140104991F8043143F0010381F82F
S315000033D00431B1F80431DB070AD54FF0FF3300E0C2
S315000033E07BB1B1F80421D20703F1FF33F8D443B11E
S315000033F0054A92F8003160F3000382F8003100209C
S3150000340070471420704700BF00C0014070B5274DBB
S3150000341082B02B6898470021AE680320B04701218F
S31500003420234AEC698DF80110032301928DF80030D0
S315000034300320A047B0F5C97FFAD169460520B047F9
S3150000344028B140F29113984201D000BEEC69194AA6
S3150000345092F8003143F0010382F800310520A047BD
S31500003460B0F5C97FFAD1012302228DF806308DF816
S3150000347000308DF803308DF8043069468DF8012050
S315000034808DF802208DF805202B690520984700B19C
S3150000349000BE2B6E04209847AB6A01209847EB6A62
S315000034A09847AB6D984702B070BD00BF245D000021
S315000034B00000A04100C0014000B583B002A900236E
S315000034C041F8043D034B06209B699847019803B0D9
S315000034D05DF804FB245D0000037803BB41682F4AB6
S315000034E0914230B42ED82E4A2E4CF1201071107A0B
S315000034F063F382001072107A63F3C3001072107ABD
S31500003500F02563F34100A1421072157141D8264996
S31500003510264A0B7092F81C31002030BC7047012BF4
S315000035200ED1224A204992F81C31097803F007038C
S31500003530994205D092F81C3161F3020382F81C31DE
S3150000354000207047164B1A48F1221A711A7A42F077
S3150000355004021A721A7A42F008021A721A7AF024CF
S3150000356042F0020281421A721C7112D90E4A0223DB
S3150000357013700E4991F81C2102F007029A42CBD231
S3150000358091F81C2163F30202002081F81C2130BC53
S315000035907047054A01231370EBE700BF00879303CA
S315000035A000200040005A62025C01FE1F00C001407C
S315000035B000B4C404037B027843F0010341F23601F0
S315000035C002F0F00203F0FD0310B44160022442F061
S315000035D01B024FF47A616FF38203846002704180AC
S315000035E003735DF8044B7047037843F003030370DD
S315000035F0704700BF014B0360704700BFEC5D0000E1
S31500003600044B002103F1300243F8041B9342FBD123
S31500003610704700BF6001FE1F024B43F820100020D8
S31500003620704700BF6001FE1F08B56F4BB3F840310D
S31500003630D90700F1CB806C4BB3F840319A0700F103
S31500003640B880694BB3F840315B0700F1A580664B43
S31500003650B3F84031180700F19280634BB3F840315C
S31500003660D9067FD4604BB3F84001C0F38010002820
S315000036706CD15D4BB3F840311A065AD45A4BB3F8A5
S315000036804031DB0548D4584BB3F84031980536D461
S31500003690554BB3F84031590524D4534BB3F8403158
S315000036A01A0512D4504BB3F84031DB0400D408BDE0
S315000036B04E4BDB6A0BB10B2098474B4AB2F83031C0
S315000036C043F48053A2F8303108BD484B9B6A0BB1D6
S315000036D00A209847444AB2F8303143F40063A2F80E
S315000036E03031DFE7414B5B6A0BB1092098473E4A10
S315000036F0B2F8303143F48063A2F83031CDE73B4B6A
S315000037001B6A0BB108209847374AB2F8303143F4A8
S315000037100073A2F83031BBE7344BDB690BB10720ED
S315000037209847314AB2F8303143F48073A2F8303109
S31500003730A9E72E4B1B680BB1002098472A4AB2F81E
S31500003740303143F08003A2F8303197E7274B5B68AE
S3150000375003B19847244AB2F8303143F04003A2F847
S31500003760303186E7214B9B690BB1062098471E4AEC
S31500003770B2F8303143F01003A2F8303172E71B4B38
S315000037805B690BB105209847174AB2F8303143F010
S315000037900803A2F8303160E7144B1B690BB1042013
S315000037A09847114AB2F8303143F00403A2F8303199
S315000037B04DE70E4B9B680BB1022098470A4AB2F8B8
S315000037C0303143F00203A2F830313AE7074BDB68A9
S315000037D00BB103209847044AB2F8303143F0010395
S315000037E0A2F8303127E700BF006000406001FE1FED
S315000037F0114B01785A5C02F01F03920630B44488DC
S3150000380045780DD501222B2902FA03F00ED0332973
S3150000381004D1012D04BF013305FA03F030BC704713
S315000038202C441B1B0120984030BC7047072CF5D94F
S31500003830013302FA03F0F1E7186200000378452B22
S315000038401CD870B5164CE55CFF2D26D014460E46E6
S31500003850FFF7CEFF134BAA0953F8223086B1AA060A
S3150000386000D5D4B1EFF31082012181F310881968D5
S315000038700843186082F31088002070BD012070474D
S31500003880EFF31082012181F31088196821EA000004
S31500003890186082F31088304670BD032070BD00BFEB
S315000038A0186200006062000000220121FFF7C6BF17
S315000038B000221146FFF7C2BF034638B1054A92E817
S315000038C00300002283E803001046704701221046D9
S315000038D0704700BF88620000A0F101000028FBD1FC
S315000038E0704700BF2DE9D04301FB00F4FFF7E4FD6C
S315000038F04FF47A71A4FB018900274FF0FF364F453C
S3150000390008BF46450E4BB3FBF0F007D3B8FBF0F00B
S31500003910800890B1BDE8D043FFF7DEBF8000B4FB5E
S31500003920F0F0A0FB01018F4208BF8642F1D24FF0B2
S31500003930FF30BDE8D043FFF7CFBFBDE8D08300BF5F
S3150000394000CA9A3B002808DB800000F1804000F5A1
S31500003950C64003686FF31043036070470B4A0C4B75
S3150000396010B49B1A0B4CDB08236063B10A48002194
S315000039709388C3F3090340F8043B236801318B4263
S3150000398002F10802F4D85DF8044B70470005000008
S31500003990080500009001FE1F00630040164B10B49E
S315000039A01C687CB1154B00681A681368984218BFEA
S315000039B0002304D10AE052F8041F814207D00133E4
S315000039C0A342F8D103205DF8044B704700230C4A4C
S315000039D012680121134403E0C3E8401F0028F2D017
S315000039E0D3E84F2F12F0FF0FF6D0BFF32F8F08202A
S315000039F05DF8044B704700BF9401FE1F9801FE1F3F
S31500003A009C01FE1F0F4B10B41C687CB10E4B006866
S31500003A101A681368984218BF002304D109E052F8C7
S31500003A20041F814206D00133A342F8D15DF8044B4E
S31500003A3070470023054A12680021D1545DF8044BF3
S31500003A40704700BF9401FE1F9801FE1F9C01FE1FD8
S31500003A50F0B5134E134C1449144A154BDFF854C0F5
S31500003A600E60A41BA4081460C3F800C08CB106EB5A
S31500003A70840735464FF0000E55F8040B32460023F6
S31500003A8052F8041B884205D001339C42F8D1BD424E
S31500003A90F2D1F0BDBD420CF803E0EDD1F9E700BF6D
S31500003AA008050000B80600009801FE1F9401FE1FDD
S31500003AB09C01FE1F8000FE1FEFF31081012383F39C
S31500003AC01088124B33F8102092B22AB133F8102026
S31500003AD0013A92B223F8102033F810309BB28BB91A
S31500003AE00B4A10B40B4CB2F8FE3334F8100043F412
S31500003AF0254323EA0003A2F8FE3381F310885DF81C
S31500003B00044B704781F31088704700BFA001FE1F69
S31500003B1000E001407462000030B4EFF3108101232D
S31500003B2083F310880C4A32F810309BB253B90B4C11
S31500003B300B4DB4F8FE3335F8105043F425432B43B0
S31500003B40A4F8FE3332F8103001339BB222F810305D
S31500003B5081F3108830BC7047A001FE1F00E00140D1
S31500003B6074620000024B00221A805A809A807047C5
S31500003B70A001FE1F0C4A08B513684BB1033020F0B4
S31500003B8003000A491844884205D81060184608BD43
S31500003B90074B1360F2E701F077FA0C2303604FF04E
S31500003BA0FF33184608BD00BFA801FE1FF015FE1F13
S31500003BB0F005FE1F00BE704708B500F005F800F0DE
S31500003BC0C7FAFEE7704700BF434AD2F8883043F48D
S31500003BD0700370B50020C2F88830FFF7F3FFFFF7D7
S31500003BE0C1FFFFF70DFD3D4B1B689847FFF70EFC25
S31500003BF03B4A3C4B3C481B680024148098473B4991
S31500003C003B4B8B4204D0224603F8012D9942FBD14F
S31500003C103848394B984206D0384A12F8011B03F847
S31500003C20011B8342F9D1364B36493748374A0024BF
S31500003C304FF425459C801D809860DA60B1F82021FC
S31500003C40012542F48052A1F820219D80FFF734FC23
S31500003C502F4B18602846FFF7B5FF2E4D2E4B5B1BEA
S31500003C60A3424FEAA30605DD013455F8043B984705
S31500003C70A642F9DCFFF7ECFEFFF770FE274B284C57
S31500003C801B6828489847D4E90001D4E90023584026
S31500003C9001F018FAD4E900560BA1D1E900012A185F
S31500003CA046EB0103C4E9002309A1D1E90001D4E9E7
S31500003CB0005685EA000286EA0103C4E900230020D3
S31500003CC0BDE8704000F030B81654E7A1E34FE6F4C3
S31500003CD037B8929E2B52ADFD00ED00E0E85C000087
S31500003CE04C01FE1F1C5C0000A06200003001FE1F9C
S31500003CF0EC05FE1FEC00FE1F0000FE1F48670000DB
S31500003D00000D004000600040F015FE1FEF1DFE1F75
S31500003D10AC01FE1F7800FE1F7C00FE1F045D000044
S31500003D202801FE1F7C62000000F040B882B04FF010
S31500003D30C84300210091009A5A6961F300025A6152
S31500003D409A6AC8B1202161F30F229A629A6A4FF0EB
S31500003D50C04142F080029A620A68009240F6FF7201
S31500003D60019204E0019A013A0192019A12B19A6A0B
S31500003D705106F7D502B0704742F47F429A629A6ABA
S31500003D804FF0C04160F3C7129A620A68009240F68B
S31500003D90FF72019205E0019A013A0192019A002A06
S31500003DA0E8D09A6A5206F6D402B07047F8B54A4A85
S31500003DB011684FF0C84400236FF38611102011607C
S31500003DC02063A36123626363C4F80438A26863F3C3
S31500003DD00402A2606369FF2243F00103636122616A
S31500003DE06369662243F00103636122616369992274
S31500003DF043F0010363612261636943F00103636178
S31500003E0001212320FFF76EFD9F2323612269334B97
S31500003E10D2B21A702169C9B259702069C0B29870BD
S31500003E206569EF2A45F00105656103D000221A8015
S31500003E309A70F8BD4029F9D11728F7D105222261D9
S31500003E4020696169264B41F00101352661612661D1
S31500003E5021691970616941F001016161A56A042156
S31500003E6061F30305A5626568502761F30305656084
S31500003E702761656945F0010565611D7845F0020514
S31500003E801D700127C0B22761206118782061606922
S31500003E90384360612161616939436161216862F378
S31500003EA0020121602261226962693A4362612661E8
S31500003EB022691A7063693B436361236843F04003D8
S31500003EC02360A369DB07FCD40120FFF72FFF63699A
S31500003ED06FF300036361F8BD00700440B001FE1F7C
S31500003EE0B401FE1F704700BFFFF7FCBF08B500F026
S31500003EF0FDF8BDE8084000F02DB800BF30B5104D04
S31500003F00104B2A6889B0B8204FF4806100930123D2
S31500003F10D418CDE90530CDE90113CDE903330A4ABA
S31500003F200A490B482C60002300F09AF908B909B039
S31500003F3030BD0748002109B0BDE8304000F0B4B8F4
S31500003F405C04FE1FF01DFE1FED3E000048660000EB
S31500003F50C402FE1F80B5274F274E82B001F0B8FB82
S31500003F603846FFF7A9FCF468356823687168284667
S31500003F709847B168636828469847A36828469847D3
S31500003F8001901E4B0199D3F8048021B97A68D8F8BC
S31500003F902030108898471A4E636932460021284619
S31500003FA09847636932460121284698476369324635
S31500003FB002212846984763693246032128469847D6
S31500003FC063693246042128469847636932460521CB
S31500003FD02846984706216369324628469847019045
S31500003FE001990029D8D17A68D8F820309088984766
S31500003FF0D2E700BF7C03FE1F5866000098620000EF
S31500004000BC01FE1F80B50D4F0D4D0E4C00F06EF835
S31500004010022338462B60FFF74FFC0B4B5E68237874
S315000040207968326A4888B3FA83F35B0919462370C4
S315000040309047286800F0A4FBF1E700BFC401FE1F0B
S31500004040C001FE1FCC01FE1F9862000030B5104D66
S31500004050104B2A6889B0B8204FF480610093012381
S31500004060D418CDE90530CDE90113CDE903330A4A69
S315000040700A490B482C60002300F0F2F808B909B091
S3150000408030BD0748002109B0BDE8304000F00CB84B
S315000040905C04FE1FF021FE1F05400000A066000024
S315000040A08403FE1F704700BF00BE7047F8B50B4F74
S315000040B00B4E0C49002405461C2301220A483C608D
S315000040C0347000F059F818B121460748FFF7ECFFA5
S315000040D000F044F82846FFF7E5FFF8BD5C04FE1F34
S315000040E03C04FE1FAC6600004004FE1F38B54FF0CE
S315000040F0FF31144800F092F8F0B9134B1A7802B168
S3150000410038BD124C01221A70FFF7EEFE2368013B00
S315000041102360002BF4D00B4D04E02368013B2360A1
S31500004120002BEDD0284600F08FF80028F5D00021AE
S315000041302846FFF7B9FFF0E700210248FFF7B4FF72
S31500004140DBE700BF4004FE1F3C04FE1F5C04FE1FAD
S3150000415008B572B600F064F9002008BD10B5054C2C
S31500004160236803B19847636813B1BDE81040184748
S3150000417010BD00BF0000FE1F08B11C2B01D00C2093
S3150000418070472DE9F041EFF3108372B61F4E346885
S315000041900134346083F310881D4C1E4B25681C685F
S315000041A04DB1A04207D0002301E0A04229D001333F
S315000041B0AB426469F9D1054690460F46EFF310838A
S315000041C072B630680138306083F3108800F008FB5F
S315000041D0A54213D0EFF305830F4A11680B4306D0AF
S315000041E0EFF3058312681343B3F1F03F0BD3424656
S315000041F039462846BDE8F04100F03AB90C20BDE842
S31500004200F0810446D7E71320F9E700BF2C05FE1F0F
S315000042108004FE1F7004FE1F0800FE1F60B1084BDD
S3150000422002689A4208D129B1EFF30583054A12685C
S31500004230134303D100F046B90C20704704207047A1
S31500004240414D45530800FE1F18B10268034B9A42C0
S3150000425001D00C20704700F077B900BF414D45539F
S315000042602DE9F04F85B0DDE910B40094129C02945C
S31500004270139C0194DDE90E78149C002871D0B82CAB
S315000042806FD1EFF3108472B6DFF82091D9F80050A1
S315000042900135C9F8005084F31088414D414CD5F8DA
S315000042A000E0246808F1FF3CBC44BEF1000F16D0C4
S315000042B0A04214D000268A46E168B9425FD8256933
S315000042C0BD425CD901250027614506F101064CD89F
S315000042D02169614549D9D4F88840514600270546E9
S315000042E01E4692460391EFF3108372B6D9F800206A
S315000042F0013AC9F8002083F3108800F071FAA5424C
S315000043002FD0002F3FD0BAF1000F3CD0B8F1C70F25
S3150000431037D9BBF11F0F3AD8009B9B453BD3019B76
S31500004320012B36D8EFF305831F4A11680B4306D0DD
S31500004330EFF3058312681343B3F1F03F2DD3019BCE
S315000043401393029B1293009B0399CDE910B3524637
S3150000435033462846CDE90E7805B0BDE8F04F00F0AB
S315000043601DB90E2005B0BDE8F08F7645D4F888401B
S3150000437003D0A04201D0002D9ED05146AFE70025C4
S31500004380A2E70520EEE7032005B0BDE8F08F0F2079
S31500004390E8E71020E6E71820E4E71320E2E700BF8D
S315000043A02405FE1F1C05FE1F0800FE1F2C05FE1F10
S315000043B0F8B500F08FF90E4D0E4C0F4F0F4E00F072
S315000043C045FB0F480F49104A00232B60236003600A
S315000043D00B6013600D4D0E4C0E480F490F4A3B60A3
S315000043E033602B60236003600B601360F8BD00BF71
S315000043F08C04FE1F6C04FE1F7004FE1F8004FE1F4B
S315000044006004FE1F8404FE1F8804FE1F7C04FE1F3A
S315000044107404FE1F9004FE1F6804FE1F6404FE1F42
S3150000442010B50E4C236813F10F3F0AD04FF0F0334E
S31500004430236000F085FBFFF7BBFF094A13680133D1
S315000044401360084A4FF0F03310682360FFF72EFE22
S3150000445000232360BDE8104000F0B8BB0800FE1F33
S315000044602C05FE1F7804FE1F704700BF704700BF73
S31500004470002330B4C0E901120360C36003614361E5
S315000044808361EFF3108472B60B4A0C49136801601E
S315000044900B4963B109688D6988616861C0E90515D2
S315000044A00133136084F31088002030BC7047C0E9E4
S315000044B005000860F4E700BF8004FE1F414D455328
S315000044C07004FE1FF8B5EFF3108272B683685BBB0B
S315000044D031B31A4D2B681BBB194B1A4F1C68036965
S315000044E0D4F8B460E0660136A766C4F8B4600BB3CE
S315000044F0C6682667776F67673C6774672E680133FF
S315000045000361013606200123E1642E602063A36364
S3150000451082F31088204600F0F7F9D4F88400F8BD3D
S3150000452082F310880D20F8BD013B836082F310886A
S315000045300020F8BDC460C4E91C44DFE72C05FE1F5B
S315000045403005FE1F914E000038B5EFF3108472B6A9
S315000045500269D2B1013AC16815D0D1E91C35C360F0
S315000045605D672B6703460C481A6103680022013316
S3150000457003608A66C1F8842084F31088084600F038
S315000045804DF9002038BDC260ECE7836801338360D3
S3150000459084F31088002038BD2C05FE1F2DE9F84F46
S315000045A0DDE90A9704468B469246EF213A4648468D
S315000045B00C9D0E9E984600F07CFDB82200212046F8
S315000045C000F077FD0D9BC4F828B07A1E4A442021DE
S315000045D09D42C4E911A8C4F80C90C4E90427E56219
S315000045E0C4F89850C4E90666C4F8A0105BD000234E
S315000045F0E363C4F89C3003222E4BA46522636365F3
S315000046002D49204600F0C0FBEFF3108572B62B480B
S315000046102B4A036822602B4ADBB9C4E922441460A2
S31500004620294901330A6803600F9B0132012B0A6096
S315000046302AD1EFF30583254A12681343B3F1F03FFD
S3150000464011D285F31088204600F0E8F80020BDE876
S31500004650F88F1268D2F88C10C2F88C40C1F88840E6
S31500004660C4E92221DCE71A4B1E6806B3F36AF76B2E
S31500004670F36385F31088204600F0D0F8002EE5D0CD
S31500004680F7630020BDE8F88F85F31088EFF31083F9
S3150000469072B60A68013A0A6083F3108800F0A0F83F
S315000046A00020BDE8F88FE563C4F89C50A3E73746C1
S315000046B0DFE700BF0D4A0000394700002405FE1F52
S315000046C0445248541C05FE1F2C05FE1F0800FE1F01
S315000046D03405FE1F38B50E490E4D0F4A0F4B1048D4
S315000046E000240C602C6021462025146080221D6069
S315000046F000F0DFFC0B4A0C4913680C600B4D0C48AC
S315000047000C492C6043F0C57304600C60136038BD1F
S315000047103005FE1F3405FE1F1805FE1F3805FE1F57
S315000047209404FE1F2005FE1F1C05FE1F2405FE1F08
S315000047302C05FE1F1405FE1F38B50E4B1C68D4E968
S31500004740113098470C4B1B680BB120469847EFF386
S31500004750108372B609480268012100250132E5641A
S3150000476002602163A16383F310882046BDE83840C8
S3150000477000F0CAB83005FE1F1405FE1F2C05FE1FEB
S3150000478038B5EFF3108272B6124B1C68DCB1EFF34A
S315000047900583114909680B4315D1C0B10F4B196840
S315000047A089B91D68C4F88410E064691C01200425D9
S315000047B019602563A06382F31088204600F0A4F8F0
S315000047C0D4F8840038BD82F31088132038BD82F3F4
S315000047D0108838BD3005FE1F0800FE1F2C05FE1F81
S315000047E00A4B1B688BB90A4A0A4B12681B689A4225
S315000047F00BD0094B4FF080525A60EFF3058323B973
S31500004800EFF3108362B683F3108870472C05FE1F02
S315000048103005FE1F3405FE1F00ED00E0F8B5044626
S31500004820EFF3108572B6436E002B3ED04C3000F08D
S3150000483071F92E4AA06B1368216B013B1360B8B95E
S31500004840F9B92B492B4B1B6885F3108809689942E7
S315000048500DD013685BB9284B4FF080525A60EFF3C6
S31500004860058323B9EFF3108362B683F31088F8BD8E
S3150000487001390129E5D9636B93B91D49A363236304
S31500004880E0E7636B63B9E06A1C49236351F82030A3
S315000048906BB1586A164904625C62C4E90830D1E714
S315000048A003230021C4E90C31CBE7C364C1E7144EEE
S315000048B041F820403368134F012181400B4339688A
S315000048C033608142C4E908440949BBD90B683860A2
S315000048D04BB1DB6B8342B5D90C6085F31088136846
S315000048E0002BB8D0F8BD0C60ACE700BF2C05FE1F4E
S315000048F03405FE1F3005FE1F00ED00E09404FE1F88
S315000049001805FE1F3805FE1FF8B5384B04461D680E
S31500004910EFF3108672B685423BD0354AA16B136819
S31500004920012903F1FF33136014D0324B86F310884C
S315000049301B68AB420DD013685BB92F4B4FF080520A
S315000049405A60EFF3058323B9EFF3108362B683F35E
S315000049501088F8BD236AE06A4FF0000C9C42C4F848
S3150000496038C025D0254F616A57F820C05962A44542
S315000049700B621AD01F4B1968A142D7D1204909688A
S3150000498057F82110196086F310881368002BD4D0CD
S31500004990F8BDEB6C013B033303D805F14C0000F086
S315000049A08FF8184BE2691A60B7E747F82030E1E75D
S315000049B0154B124F814047F820C0186820EA0101C4
S315000049C0196051B90E480B4B20240460196086F318
S315000049D010881368002BB0D0F8BD4B420B40B3FAD9
S315000049E083F30749C3F11F030B60C3E73005FE1FBE
S315000049F02C05FE1F3405FE1F00ED00E09404FE1F8B
S31500004A003805FE1FC405FE1F1805FE1F10B4EFF380
S31500004A10108472B6026B042A08D0826ED0F8B410E5
S31500004A2084F3108862B15DF8044B1047064A136898
S31500004A300133136084F310885DF8044BFFF7EEBE74
S31500004A405DF8044B704700BF2C05FE1F70B5104D76
S31500004A50104B1149114A124E00242C60114D0C6066
S31500004A6018462146146080222C60346000F021FB39
S31500004A700D490E4A0E4D03460B6013600D480E4954
S31500004A800E4A2C60803303600C60146070BD00BF5A
S31500004A90C405FE1F4005FE1FE005FE1FC005FE1FE4
S31500004AA0E405FE1FD005FE1FD405FE1F3C05FE1FB4
S31500004AB0CC05FE1FC805FE1FD805FE1FDC05FE1F20
S31500004AC00268531ED91C01D8816901B17047202A9A
S31500004AD00D4A0E491268096894BF9B007C23134453
S31500004AE0994203D80A4A12685B1A13441A6832B10B
S31500004AF0516908615061C0E9042183617047C0E9CA
S31500004B0004001860F9E700BF3C05FE1FC805FE1F3C
S31500004B10D405FE1F836963B1026990420AD04169D8
S31500004B2051610A611968814204BF93611A600023CA
S31500004B30836170471A688242F9D100221A60F6E74B
S31500004B4010B472B6184A194B19491468194A1A60F2
S31500004B500A681948194B046042F001020A601848B5
S31500004B601B68A0FB03235B09013BB3F1807F09D2DD
S31500004B70144A15485360F0240021072380F8234087
S31500004B8091601360104BF0220021DA7783F822201F
S31500004B9083F82310EFF3148C2CF0040C8CF3148898
S31500004BA05DF8044B704700BF000000007804FE1F4C
S31500004BB0001000E0F425FE1F2805FE1FAC01FE1FB5
S31500004BC01F85EB5110E000E000ED00E0104B114CAA
S31500004BD011481249002222609A809A821A801A820B
S31500004BE09860D9609861D961EFF3088282F30988E9
S31500004BF00B48B0F82021012142F48052A0F8202170
S31500004C009980998262B6074B4FF080525A60FEE750
S31500004C10000D00402C05FE1FF015FE1FEF1DFE1FA8
S31500004C200060004000ED00E0F0B4234A234D244C20
S31500004C302449254E4AF202571EE09389DB0B0B608E
S31500004C400B68012B0FD1B2F8FE339BB23360A2F88A
S31500004C50FE73938960F3CF339381336843F425431E
S31500004C609BB2A2F8FE33BFF34F8F30BFBFF36F8FF7
S31500004C7062B60B68012B0BD072B62B6823602068D6
S31500004C800028DAD0114B4FF000625A60F0BC704732
S31500004C9072B6B2F8FE339BB23360A2F8FE73938904
S31500004CA043F400439381336843F425439BB2A2F84F
S31500004CB0FE3362B6E0E700BF00E001403405FE1FA8
S31500004CC03005FE1FD401FE1FD001FE1F00ED00E0DF
S31500004CD027480168002947D0EFF30983A3F1200391
S31500004CE083F3098803F1200323E9F00F1EF0100F68
S31500004CF007D1A3F1400383F3098803F1400323EDB1
S31500004D00108A8B601B4D2D6841F805E01A4C23680C
S31500004D1013B18B6100232360184E72B633680BB152
S31500004D20036001E0FFF780FF366862B67068013005
S31500004D307060B069206012484FF000014161F1686F
S31500004D4081613169C161B36856F805E01EF0100F44
S31500004D5001D1B3EC108AB3E8F00F83F309884FF062
S31500004D60010141617047FEE7034C024D2D68D3E710
S31500004D703005FE1FC0660000C405FE1F3405FE1F79
S31500004D80000D004000F024B80269A2F1400222F0B2
S31500004D9007024FF00003136053609360D360136102
S31500004DA05361C36893614FF00003D361136253628A
S31500004DB09362D36213634FF0FF33536391634FF0F3
S31500004DC08073D36382606FF00203C0F8903070473F
S31500004DD0244925480A680368013210B50A6013B1F0
S31500004DE0013B0360DBB1214A214C13682168186836
S31500004DF0F8B1204B01221A6000F0C4F823681BBBEF
S31500004E001D4B1B6853B11D4A1268934206D01C4BBA
S31500004E101B681BB91B4B4FF080525A6010BD134ADA
S31500004E20134C136818680121216010B1114B1960E9
S31500004E30E2E7154800680433834213600AD00D4B3D
S31500004E401B6821B1002BD7D100F062F8D8E7002B00
S31500004E50D6D0D1E70D48074B00681B6810600029C3
S31500004E60F0D1F4E7E405FE1FC405FE1F3C05FE1F56
S31500004E70E005FE1FC005FE1F3405FE1F3005FE1FA0
S31500004E802C05FE1F00ED00E0C805FE1FD405FE1F21
S31500004E9038B5EFF3108372B61A4A846E944202D084
S31500004EA083F3108838BDD0F8B4208A42F8D1C26E98
S31500004EB0002AF5D0144914688C42F1D111690029F1
S31500004EC0EED00139002484661161C1B1D568D0E9FC
S31500004ED01C1485424C67216711D0026B062ADFD16C
S31500004EE00A490A680D2401320A60C0F8844083F337
S31500004EF01088FFF793FCEFF3108372B6D0E7D1600A
S31500004F00EBE700BF914E0000414D45532C05FE1FB7
S31500004F10164B1B68EFF3108272B615490020086025
S31500004F2093B1196B81B9D3E9071010B4114C99618B
S31500004F309842216003D0D96ADB6B994207D082F38D
S31500004F4010885DF8044B704782F3108870470A4B4F
S31500004F500A4C43F821002068094953F820300B60B9
S31500004F6082F310885DF8044B704700BF3005FE1FC2
S31500004F70E005FE1FC405FE1F9404FE1F3805FE1F34
S31500004F803405FE1F2DE9F04F83B0EFF3108A72B699
S31500004F90DFF8E880D8F80070002F4BD1344E316826
S31500004FA0002947D00121DFF8D8B0DFF8D890314D7D
S31500004FB0C8F80010DBF800301968009109B1C1F893
S31500004FC018D0D9F8001043F8047B8B42CBF8003098
S31500004FD049D037608AF31088EFF3108A72B6009CC6
S31500004FE01CB3236901979C4239D0616959610093CA
S31500004FF00B61C3F818D02368202B20D9203B01A9C8
S315000050002360246101942C60A1618AF31088EFF378
S31500005010108A72B6019B2F60A342E0D1A761204699
S31500005020FFF74EFD009C002CDBD13368002BC1D16D
S31500005030C8F800308AF3108803B0BDE8F08F6168C5
S315000050402160D4E9023061B101A924610194A16112
S315000050502C608AF31088002BD9D09847D7E70097A1
S31500005060C9E7A161F4E7044B1B68CBF80030B0E751
S31500005070C005FE1FD005FE1FD405FE1FCC05FE1F72
S315000050803C05FE1FC805FE1F014B1868704700BF90
S315000050900C00FE1F30B50024A24201D1002007E01B
S315000050A0035D01340D1915F8015CAB42F4D0581BB1
S315000050B030BD02440346934200D1704703F8011BFA
S315000050C0F9E7FFFF38B50D4B1C68A36B05467BB9A6
S315000050D0182000F01BF80A4A0A4BA063C0E9002317
S315000050E0094B83600B23838101220023C0E904233B
S315000050F0A36B00221D615A6138BD00BF0C00FE1F64
S315000051000E33CDAB34126DE6ECDE0500024B0146E4
S31500005110186800F051B800BF0C00FE1F38B50546F0
S31500005120002945D051F8043C0C1F002BB8BFE418E9
S3150000513000F0ACF81F4A1368104633B96360146078
S315000051402846BDE8384000F0A2B8A3420CD9216831
S315000051506218934204BF1A685B68636004BF521802
S3150000516022600460ECE713465A680AB1A242FAD9F3
S3150000517019685818A0420BD1206801445818824279
S315000051801960DDD1106852685A6001441960D7E78A
S3150000519002D90C232B60D3E7206821188A4204BF6A
S315000051A011685268626004BF091821605C60C7E735
S315000051B038BD00BFD801FE1F70B5CD1C25F0030514
S315000051C008350C2D38BF0C25002D064601DBA942FB
S315000051D003D90C233360002070BD00F057F8214A34
S315000051E01468214691B9204C23681BB9304600F05B
S315000051F03DF820602946304600F038F8431C24D19B
S315000052000C233360304600F042F8E4E70B685B1B82
S3150000521018D40B2B0FD90B60CD50CC18304600F0AC
S3150000522036F804F10B00231D20F00700C31AD3D073
S315000052305A42E250D0E78C424B6816BF6360136057
S315000052400C46EBE70C464968CCE7C41C24F0030483
S31500005250A04205D0211A304600F008F80130CFD020
S315000052602560DBE7D801FE1FDC01FE1F38B5064CC2
S315000052700023054608462360FEF77CFC431C02D14A
S31500005280236803B12B6038BDE805FE1F70477047E1
S315000052900A4B10B50446186818B183690BB900F0BB
S315000052A0B5FA132C07D8064850F83430013302D02B
S315000052B000EBC40010BD0020FCE700BF0C00FE1F81
S315000052C0EC01FE1FF8B5431C054609D1FFF7DCFECD
S315000052D013240646002720463946ABBE04463460F2
S315000052E02846F8BDF8B50546FFF7CEFE1324064658
S315000052F0002720463946ABBE044634602846F8BD32
S3150000530030B585B0CDE901010392062401AD2046F2
S315000053102946ABBE04462046FFF7D4FF05B030BD94
S3150000532070B50E461546FFF7B3FF044630B9FFF7D2
S31500005330ABFE092303604FF0FF3070BD2A463146AD
S315000053400068FFF7DDFF431C1FBF6368281A1B18A0
S315000053506360F2E7F7B50C461646FFF799FF054678
S3150000536040B9FFF791FE092303604FF0FF34204652
S3150000537003B0F0BD022E03D9FFF786FE1623F3E72E
S31500005380012E12D14368E418F6D42B680A26CDE91B
S3150000539000346F4630463946ABBE06463046FFF708
S315000053A091FF0028E1DB6C60E1E7022EEDD102AF50
S315000053B0036847F8083D0C2630463946ABBE06461C
S315000053C03046FFF77FFF431CCFD00444DDE7FFF7ED
S315000053D0C1BF30B585B0CDE901010392052401AD09
S315000053E020462946ABBE04462046FFF76BFF05B0B4
S315000053F030BD70B50E461546FFF74AFF044630B974
S31500005400FFF742FE092303604FF0FF3070BD2A46C6
S3150000541031460068FFF7DDFF021EF5DB6368A81A58
S31500005420034495426360F1D10020BDE87040FFF768
S3150000543059BF37B502AD022445F8040D204629466A
S31500005440ABBE04462046FFF73DFF03B030BDFFFF6D
S3150000545038B50546FFF71CFF044630B9FFF714FEC2
S31500005460092303604FF0FF3038BD013D012D09D8F7
S31500005470094B9A681B699A4204D14FF0FF330360C7
S315000054800020F1E72068FFF7D4FF0028ECD14FF0A9
S31500005490FF332360E8E700BFEC01FE1F70B50C4642
S315000054A0FFF7F6FE064630B9FFF7EEFD0923036067
S315000054B04FF0FF3070BD636843F4005363604FF4F0
S315000054C0806363640C2528463146ABBE05462846F4
S315000054D0FFF7F8FE431C1CBF20610020EAE738B541
S315000054E00D460446582200212846FFF7E2FD2046D5
S315000054F0002100F011F8431C04460BD06B6843F4FE
S3150000550001436B602946FFF7C9FF05462046FFF7B2
S315000055109FFF2C46204638BD2DE9F0472B4B96B011
S3150000552082460E460025984653F83540611C4FEAE0
S31500005530C50736D00135142DF6D1FFF7A5FD182382
S3150000554003604FF0FF343CE0C6F3004440F20163D1
S31500005550B20748BF44F002041E4218BF44F00404D8
S31500005560330748BF24F00404504648BF44F00804FB
S31500005570CDF800A000F017FACDE90140012420463D
S315000055804946ABBE0446002C06DB4744002348F8D8
S3150000559035407B602C4614E02046FFF7A3FE044608
S315000055A00FE006F42063B3F5206FE946CCD14946F7
S315000055B05046FFF794FF0130C6D0FFF765FD112373
S315000055C00360204616B0BDE8F08700BFEC01FE1F61
S315000055D02DE9F74307468846294800211546FFF777
S315000055E09BFF2A46044600213846FFF762FD631CEE
S315000055F015D02046FFF74CFE0C268146304649461C
S31500005600ABBE06463046FFF75DFE032802DD0338D3
S31500005610A84208DC2046FFF71BFF4FF0FF34204668
S3150000562003B0BDE8F08304220DEB02012046FFF72C
S3150000563077FE0328EEDD9DF80430532BEAD19DF862
S315000056400530482BE6D19DF80630462BE2D19DF871
S315000056500730422BDED1012241462046FFF77AFE73
S315000056600028D7DB2A4639462046FFF759FE05466D
S315000056702046FFF7EDFE2846FFF724FE0446CEE758
S31500005680C866000037B50A4D0A4C0021012201A860
S3150000569029602260FFF79CFF002807DD9DF8043093
S315000056A003F0010203F002032A60236003B030BD59
S315000056B07000FE1F7400FE1F10B5044C2268002AFD
S315000056C001DAFFF7DFFF206810BD00BF7400FE1F80
S315000056D02DE9F04F85B0DFF8B090CDF804900323A4
S315000056E0002403930DF1040802940125284641463F
S315000056F0ABBE0546204E214A356023464FF0FF31AA
S31500005700144642F833100133142BFAD1FFF7D4FFB5
S315000057101B4DD0B14FF0030A0423CDF804900127A6
S31500005720CDF80CA0029338464146ABBE8346154BD6
S31500005730CDF80490C3F800B00823CDF80CA002936E
S3150000574038464146ABBE07462F602B68013302BF81
S315000057500C4B1B682B603368236000266660FFF7DE
S31500005760ABFF30B1074B1B68C4E902362B68C4E9AE
S31500005770043605B0BDE8F08FE401FE1FEC01FE1F04
S31500005780E001FE1FE801FE1FDE660000002310B5E3
S315000057900446C0E90033836081814366C281C0E963
S315000057A004338361194608225C30FFF782FC054BFF
S315000057B06362054BA362054BE362054B24622363D8
S315000057C010BD00BF21590000435900007B5900005D
S315000057D09F590000014900F085B800BF095B000031
S315000057E070B54A1E682555430E4605F17401FFF74C
S315000057F0E3FC044640B10021C0E900160C30A0606D
S3150000580005F16802FFF755FC204670BD836910B5A7
S31500005810044633BBC0E912330365124B124A1B68B8
S315000058208262984204BF0123836100F01FF8606022
S31500005830204600F01BF8A060204600F017F8002272
S31500005840E06004216068FFF7A1FF01220921A0683A
S31500005850FFF79CFF02221221E068FFF797FF012362
S31500005860A36110BDC4660000D5570000F8B51B4BF8
S315000058701E68B369074613B93046FFF7C7FF4836B7
