S00F00005350535F454D532E73726563DB
S31500000000E8340220697001009D6A010065700100F4
S315000000106570010065700100657001000000000058
S3150000002000000000000000000000000065700100F4
S315000000306570010000000000ED700200A171020071
S31500000040B9670100D94F0000DD3801009D39010074
S315000000502D0A0000FFFFFFFFFFFFFFFFFFFFFFFF6F
S31500000060FFFFFFFFFFFFFFFFFFFFFFFFFFFFFFFF9A
S31500000070FFFFFFFFFFFFFFFFFFFFFFFFFFFFFFFF8A
S31500000080FFFFFFFFFFFFFFFFFFFFFFFFFFFFFFFF7A
S31500000090FFFFFFFFFFFFFFFFFFFFFFFFFFFFFFFF6A
S31500000400FFFFFFFFFFFDFFFFFCFFFFFFFFFFFFFFFB
S31500000410FCFFFFFFFFFFFFFFFCFFFF00FFFFFF00EA
S31500000420FCFF0F20FFFF0F20FCFF7F40FFFF7F40F8
S31500000430FCFF0D40FFFF0D40FFFFFFFFFFFFFFFF2B
S31500000440FFFFFFFFFFFFFFFFFFFFFFFFFFFFFFFFB6
S31500000450FFFFFFFFFFFFFFFFFFFFFFFFFFFFFFFFA6
S31500000460FFFFFFFFFFFFFFFFFFFFFFFFFFFFFFFF96
S31500000470FFFFFFFFFFFFFFFFFFFFFFFFFFFFFFFF86
S31500000480FFFFFFFFFFFFFFFFFFFFFFFFFFFFFFFF76
S31500000490FFFFFFFFFFFFFFFFFFFFFFFFFFFFFFFF66
S315000004A0FFFFFFFFFFFFFFFFFFFFFFFFFFFFFFFF56
S315000004B0FFFFFFFFFFFFFFFFFFFFFFFFFFFFFFFF46
S315000004C0FFFFFFFFFFFFFFFFFFFFFFFFFFFFFFFF36
S315000004D0FFFFFFFFFFFFFFFFFFFFFFFFFFFFFFFF26
S315000004E0FFFFFFFFFFFFFFFFFFFFFFFFFFFFFFFF16
S315000004F0FFFFFFFFFFFFFFFFFFFFFFFFFFFFFFFF06
S31500000500846CFE1F4B002010A4B4FE1F6301400044
S31500000510586CFE1F300004005C6CFE1F310004089E
S31500000520A8B4FE1F61003310200000002000010067
S315000005302F0000002F0001000C0001001100000038
S3150000054030000000300001002400000024000100FB
S3150000055024000200240003002400040024000500F7
S315000005601300000017000000230000002100000017
S31500000570210001000700000007000100070002003B
S315000005800700030007000400070005000700060037
S3150000059007000700120000004400000008000000E9
S315000005A00B00000041000000400000004000010078
S315000005B004000000430000002B0000002B000A008E
S315000005C02B000B002B000C002B000D002B00010054
S315000005D02B0002002B0003002B0004002B0005005B
S315000005E02B0006002B0007002B0008002B0009003B
S315000005F00600000006000A0006000B0006000C00BC
S3150000060006000D0006000E0006000F0006000100A1
S3150000061006000200060003000600040006000500AE
S31500000620060006000600070006000800060009008E
S315000006301500000015000100150002003100000041
S315000006402A00000045000000100000000301000021
S3150000065003000000030001000F0000000D00000071
S315000006602D000000420000002C0000002C000100BC
S315000006702C0002002C0003003200000028000000BD
S31500000680180000001400000014000100140002000D
S3150000069014000300140004001400050014000600F2
S315000006A014000700140008001400090034000000BC
S315000006B0340001001600000016000100350000009D
S315000006C03600000036000100220000003300000062
S315000006D0330100002900000010B5054C237833B91A
S315000006E0044B13B10448AFF300800123237010BDFF
S315000006F0C80AFE1F000000001435070008B5034BAA
S315000007001BB103490348AFF3008008BD0000000099
S31500000710CC0AFE1F1435070018B1034B03600020F6
S3150000072070470120704700BF0A01080100285ED00B
S3150000073000295CD02DE9F04F384C0568A54285B0FC
S3150000074051D1D0F88840002C65D000F1380B044612
S315000007500E4658461946174624F0A6FB002848D1EF
S31500000760D4F88C50002D54D0D4F89010BD4228BF38
S315000007703D4694312A462144304627F03DFED4E9D1
S315000007802323521B2B44C4E923237D1B35B317F0C7
S315000007903F0F0CBFBA464FF0800A04F194084FF0A1
S315000007A0000903AB52464146D4F88800CDF80C90B8
S315000007B028F00AFB039BA7EB050CB44486461A46B1
S315000007C04146604603B3BEF1000F1DD1AB4214D9BA
S315000007D05B1BC4E923352A4627F00EFE584624F053
S315000007E08DFB002000E0072005B0BDE8F08F01205A
S315000007F07047142005B0BDE8F08F019327F0FCFD8B
S31500000800019BED1ACDD1E9E7584624F077FB642029
S31500000810EAE73D46BAE76420E6E700BF4D43585590
S31500000820B0B138B502681C4B9A420FD0044617F097
S3150000083057F9D4F888206AB1251D284634230122A9
S31500000840164924F0C5FAB8B1642038BD082038BD71
S315000008500120704704F16C0528461C23104924F03A
S3150000086025FC0028F0D128464FF47A7124F086FC46
S315000008700028E1D0142038BD34230122094904F1AF
S31500000880380024F0A5FA10B9034B236038BD28467A
S3150000089024F0F4FAD8E700BF4D43585598F90600FE
S315000008A0ACF90600C0F90600D8B138B502680E4B9F
S315000008B09A4201D0072038BD044617F0F7F80546DE
S315000008C008B1012038BD201D24F0D8FA04F1380003
S315000008D024F0D4FA04F16C0024F03AFC2560284692
S315000008E038BD0120704700BF4D435855A0B170B5C3
S315000008F0144B04689C420DD10229044615460DD0BE
S31500000900342000FB01400430114624F0CDFA58B9DA
S31500000910002070BD072070BD01207047061D3046BF
S31500000920114624F0C1FA08B1142070BD294604F11D
S31500000930380024F0B9FA0028EAD0304624F0DEFA6E
S31500000940F2E700BF4D43585578B138B50268144BED
S315000009509A4208D10446A9B1022908D001390129D1
S3150000096016D9002038BD072038BD01207047043055
S3150000097024F0C4FA054604F1380024F0BFFA5DB14C
S31500000980642038BD043024F0B9FA0028F8D1E8E72D
S3150000099004F1380024F0B2FA0028F1D1E1E700BFF3
S315000009A04D43585550B349B32DE9F0411E4C0568E7
S315000009B0A54282B01ED1D0F88840BCB1071D0446BE
S315000009C00D4638461946164624F06EFAC0B90DF1A2
S315000009D00808324648F8040D29464346D4F88800EC
S315000009E028F06EFA80B1384624F088FA642002B006
S315000009F0BDE8F081072002B0BDE8F0810120704714
S31500000A00142002B0BDE8F081024643462946D4F8D8
S31500000A10880028F055FA0446384624F06FFA002C70
S31500000A2014BF64200020E6E74D43585510B582B048
S31500000A30EFF3058024F0D4FFEFF30383A3F1100056
S31500000A4040B2019316F0C2F9144B1B685C698CB175
S31500000A501B691349D3F8B4208A4218BF002004D179
S31500000A6011E0D3F8B4208A420ED00130A04203F13F
S31500000A70CC03F6D101F084FAEFF3058002B0BDE8AD
S31500000A80104024F0ABBF002002F0F2F9EFF305802E
S31500000A9002B0BDE8104024F0A1BF00BF041502203B
S31500000AA000000940F8B50F4630210446154601F00E
S31500000AB0DDFB4FF4E06230210646204601F0C6FB1E
S31500000AC020463A2101F0D2FB012D10D0BB6801224D
S31500000AD09A4020EA0202204692B23A2101F0D0FB67
S31500000AE0B2B220463021BDE8F84001F0C9BBBA6871
S31500000AF005FA02F20243EEE7F8B50F463021044646
S31500000B00154601F0B3FB4FF4E0623021064620465D
S31500000B1001F09CFB2046382101F0A8FB012D10D0E6
S31500000B20BB6801229A4020EA0202204692B238218E
S31500000B3001F0A6FBB2B220463021BDE8F84001F034
S31500000B409FBBBA6805FA02F20243EEE7F8B50F4614
S31500000B5030210446154601F089FB4FF4E06230214E
S31500000B600646204601F072FB2046362101F07EFB48
S31500000B70012D10D0BB6801229A4020EA02022046CD
S31500000B8092B2362101F07CFBB2B220463021BDE89C
S31500000B90F84001F075BBBA6805FA02F20243EEE7C7
S31500000BA0002939D038B5CB68012B05460C4616D935
S31500000BB0042B08D100F0EEFD831E032B03D8DFE8DB
S31500000BC003F01D11110D002221462846FFF7BEFF36
S31500000BD0284621460022FFF765FFFF2038BD00F0BA
S31500000BE039FEE9E7214628460022FFF7AFFF2846EF
S31500000BF021460122FFF756FF002038BDA36823B91E
S31500000C00012221462846FFF74DFF284621460122AC
S31500000C10FFF79CFF002038BDFF20704730B5CB683A
S31500000C2083B00C460546042B15D8DFE803F0392AB5
S31500000C30212103002021019201F018FBA368019AEB
S31500000C4020F4426020F00F001A43024392B22021A2
S31500000C50284601F015FB04240021284601F006FB76
S31500000C600421284601F002FB013CF5D103B030BD5A
S31500000C70202101F0FBFA20F44060A26820F00F006A
S31500000C80E3E72C2101F0F2FAA26820F4406020F09C
S31500000C900F00024392B22C21284601F0F1FADAE75E
S31500000CA0282101F0E3FAA26820F4406020F00F004A
S31500000CB0024392B22821284601F0E2FACBE700BFB0
S31500000CC038B58B680C463BB95C2101F0CFFAC305F9
S31500000CD013D4A36AD86938BD05460F22642101F0F2
S31500000CE0B5FA22896421284601F0CAFA28465C2111
S31500000CF001F0BCFAA36AD869EDE74FF4807038BDFD
S31500000D002DE9F84F4E6926F080064FEAC60808EB33
S31500000D100603DB0000EB030EDEF80420D40717D42D
S31500000D200F4689690433C51842F0010301F0030236
S31500000D30022ACEF804300446BD60CEF82C700AD0E4
S31500000D40032A70D0002A00F09680FF20BDE8F88FB5
S31500000D501420BDE8F88F00F5367A4FF001091FFA26
S31500000D6089F26421204601F08BFA682120465AF860
S31500000D7004BB01F07BFAC0F3813050EA0B0209F1A3
S31500000D80010303D0062B9946E9D1DEE704EB89037C
S31500000D9008EB060A082104EBCA0A4FEAC902C3F89F
S31500000DA0D462CAE90921514BD4F8FC12994200F0E9
S31500000DB08F804FF4804A7A6908EB060304EBC3037D
S31500000DC01206C3F80C904BD5D4F808231AB1D4F800
S31500000DD07C23002A6AD002221A614FF010092946A4
S31500000DE0204600F0DDF8EFF3108572B6464404EBBA
S31500000DF0C6062046B289642101F042FA7B6903F0F7
S31500000E000F0242F080024AEA020249EA0202204642
S31500000E10682101F035FABA8B20466C2101F030FAD0
S31500000E2085F3108836E000F53B7A4FF006091FFA85
S31500000E3089F26421204601F023FA682120465AF8F7
S31500000E4004BB01F013FAC0F3813050EA0B00A9F19C
S31500000E50020330D009F10109B9F10A0FE7D174E7AD
S31500000E60D4F80C2312B1D4F88023D2B103221A612C
S31500000E704FF00009B3E7FB69CEF8242004219D0951
S31500000E80CEF80C20CEF81010CEF828509AB25E217B
S31500000E9001F0F6F93946204600F09EF80020BDE83C
S31500000EA0F88F01221A61C4F88023E1E701211A6153
S31500000EB0C4F87C1391E708EB060204EB890104EB06
S31500000EC0C202C1F8D4624FF4004AC2E9093072E79F
S31500000ED042F4E05292B26A21204601F0D1F9DAF8E2
S31500000EE02430872B3FF631AF63E700BF0000064092
S31500000EF0F8B58C6864212289054601F0C1F9A1681C
S31500000F0069B9E368002222602BB1012B08BFC5F83E
S31500000F1080230020F8BDC5F87C330020F8BD01F120
S31500000F20B40305EB8303002637315E60324628465C
S31500000F30490001F09FF9A268012707FA02F2284644
S31500000F4092B24A2101F08AF9A26807FA02F228460B
S31500000F5092B2462101F082F9A26807FA02F2284607
S31500000F6092B2482101F07AF9324621462846FFF727
S31500000F70EDFD324621462846FFF794FD32462146CE
S31500000F802846FFF7B9FD28464FF48042222101F09A
S31500000F9077F922896821284601F072F9B1E700BF86
S31500000FA038B58C68054654B90322602101F04EF924
S31500000FB06021284601F05AF98206F9D438BD373443
S31500000FC064002146032201F041F92146284601F03A
S31500000FD04DF98306F9D438BD00294FD038B58D6850
S31500000FE0A9680446D1B90322602101F02FF94FF414
S31500000FF080726021204601F03DF90F222021204613
S3150000100001F03EF920464FF48042222101F032F9E8
S315000010102B6823F004032B60002038BD37314900CC
S31500001020032201F013F9A968373149004FF48072A1
S31500001030204601F01FF92821204601F017F9AB6878
S3150000104000F00F0098421BD02C21204601F00EF92B
S31500001050AB6800F00F00984209D02021204601F02D
S3150000106005F94FF6F0732A8918400243C6E7204671
S315000010704FF480422E2101F0FDF8C9E71420704795
S3150000108020464FF480422A2101F0F4F8C0E700BF61
S3150000109010B54021044601F0E9F800F07000702810
S315000010A001D0FF2010BD052027F0D6F820464FF4CA
S315000010B08072082101F0DEF8002010BD99B110B54C
S315000010C08C68A16851B137314900022201F0D2F88B
S315000010D0236843F004032360002010BD0222602130
S315000010E001F0C8F8F4E71420704700BF01EBC10116
S315000010F000EBC1014868C3074CBFC0F38000FF2066
S31500001100704700BF38B50C460546FFF787FDE36814
S31500001110042B1CD8DFE803F0140D03030300284654
S31500001120222101F0A3F800F40053002B08BFFF2092
S3150000113038BD28462E2101F099F800F40053F4E753
S3150000114028462A2101F092F800F40053EDE7FF202B
S3150000115038BD00BF4368CBB110B4C268042A83B05F
S3150000116015D00A880192002B0CDD036801A9002224
S3150000117011F8014B1C70D0E900340132013394425E
S315000011800360F5DC03B05DF8044B704770470A68EE
S315000011900192002BF6DD036801A9002211F8014B2C
S315000011A01C70D0E9003401320133A2420360F5DB42
S315000011B003B05DF8044B7047F8B515460A68D207C8
S315000011C00C46064626D44A6802274FEA520C02F01D
S315000011D001021946C4E9012CE7604FF4806201F070
S315000011E049F8D6F8FC221C4B9A422AD0A06858B17E
S315000011F0266803463246298822F8021B013BFAD1AB
S3150000120006EB40002060A36029462046BDE8F84072
S31500001210FFF7A0BF1946002201F02CF8D6F8FC22F1
S315000012200D4B9A4212D0636853B123682A781A701C
S31500001230D4E900320133013AC4E90032002AF5D17B
S31500001240F8BDA0683D440028D2D1DDE763680335C8
S31500001250002BEAD1F4E700BF000006402DE9F0417B
S31500001260184CD0F8FC72A74201D0BDE8F0810C689A
S31500001270A4070E4621D11946736815469C08042218
S3150000128003F00303F260C6E901344FF4006200F094
S31500001290F1FFB2685AB13168134608462C6840F827
S315000012A0044B013BFAD101EB82023260B36029465E
S315000012B03046BDE8F041FFF74DBFBDE8F041FFF70E
S315000012C07BBF00BF00000640F0B4D1E90076D0F83D
S315000012D02453B6FBF3F617F0010F0C461FFA86FCF3
S315000012E0EF780FD08B600E616FF3051701269BB266
S315000012F0E6601146EB81EF70A5F80CC00022F0BC49
S3150000130000F0B8BF5B080E618B609EB20223E360FB
S31500001310012363F30517EE811146EF70A5F80CC0A3
S315000013204FF48062F0BC00F0A5BF00BFF0B500220C
S3150000133087B00646D0F8FC720D46FFF7E3FEFF289D
S315000013401CD0AA6AC0F30B03D469AB6129463046A8
S315000013500293FFF725FE2969029B99420BD202915F
S315000013600724B9B930464FF48042222100F088FFA5
S31500001370204607B0F0BD2BB90424F3E70446204607
S3150000138007B0F0BDB3FBF4F204FB1233002B14BF1D
S3150000139004240224094BD6F8FC12EA690192994208
S315000013A007F114024FF0200301A9304602D0FFF7DF
S315000013B003FFD7E7FFF752FFD4E700BF0000064060
S315000013C02DE9F043CB68D0F8FC7287B00D4606468F
S315000013D0B3B3012B2ED014374FF022084FF020095B
S315000013E0002229463046FFF78DFEFF281DD0AA6A47
S315000013F0C0F30B03D469AB61294630460293FFF76D
S31500001400CFFD2A69029B9A420CD2029207242ABB7C
S31500001410304641464FF4804200F032FF204607B086
S31500001420BDE8F08393B90424F2E70446204607B0EA
S31500001430BDE8F0831C374FF02E084FF02C09CFE79C
S3150000144018374FF02A084FF02809C9E7B3FBF4F222
S3150000145004FB1233002B14BF04240224084BD6F8D5
S31500001460FC22E96901919A4201A94B463A46304667
S3150000147002D0FFF7A1FECBE7FFF7F0FEC8E700BFFB
S31500001480000006402DE9F04304460E4689B0174693
S315000014902022FFF7C3FB4FF480422046222100F0B2
S315000014A0EFFEF368D4F8FC22002B00F09580012BA8
S315000014B000F08C804FF0220802F114092025002349
S315000014C00497C4F87833002F76D05E48B36AF16982
S315000014D0DB690391824200F089802A4603A92046EF
S315000014E0FFF7F2FE314601222046FFF72FFB554B50
S315000014F0D4F8FC22039E9A4200F09480414620468E
S3150000150000F0B4FE2946C4F87803204600F0AEFE8B
S3150000151080B2ADF80A00BDF80A3003F00F03ADF84B
S315000015200A30BDF80A30C4F878330F22294620461F
S3150000153000F08CFED4F82423D4F80C13D389B2F827
S315000015400CC08F680868CDF804C0D278C2F30112C7
S315000015500092494632467E6AB0474FF48052294689
S31500001560204600F087FEBDF80A202946204600F0F6
S3150000157081FEBDF80A10373149000122204600F0ED
S3150000158079FEDDE90560DDE90312079B00FB06F045
S3150000159003FB00F3CE1804F55770D31A4FF0FF3152
S315000015A0CDE9036326F0F4FF294606464FF4805240
S315000015B0204600F04BFEAEB9204641464FF480422D
S315000015C000F05EFE002009B0BDE8F0834FF02E0863
S315000015D002F11C092C2572E74FF02A0802F11809BE
S315000015E028256CE7FF2009B0BDE8F0838A077FF461
S315000015F074AFB7FBF3F7D4F8242307979B08D17889
S31500001600059398B204230693022363F30511BFB230
S31500001610D081D170978129464FF40062204600F0B0
S3150000162029FE5FE7D4F82433DB7803F03003202B60
S315000016303FF464AF102B0CBF09F1020909F103094D
S315000016405CE700BF00000640F8B515460A68D207F9
S315000016500C46064632D44A6802274FEA520C02F07C
S3150000166001021946C4E9012CE7604FF4806200F0DC
S3150000167001FED6F8FC72224BA6689F423BD076B19B
S3150000168020683346024632F8021B2980013BFAD114
S315000016901B4AA36000EB4600974220602ED0636889
S315000016A05BB123681B7805F80139D4E900320133B0
S315000016B0013AC4E90032002AF4D1F8BD19460022E5
S315000016C000F0D8FDD6F8FC220D4B9A420ED0636886
S315000016D0002BF2D023681B782B70D4E9003201333B
S315000016E0013AC4E90032002AF5D1F8BD6368033532
S315000016F0002BEFD1E1E70235002EC1D10335CEE74D
S31500001700000006402DE9F041214F1646D0F8FC2294
S31500001710BA4205460C4606D0324621462846BDE862
S31500001720F041FFF791BF0A689207F5D14A6804278E
S315000017304FEA920C02F00302C4E9012C1946E76055
S315000017404FF4006200F096FDA06858B12768034682
S315000017503A4652F8041B3160013BFAD107EB800090
S315000017602060A3600A4BD5F8FC229A42636808BF42
S3150000177003365BB123681B7806F80139D4E90032D9
S315000017800133013AC4E90032002AF4D1BDE8F08100
S3150000179000000640F0B5202287B005460C46FFF74C
S315000017A0B1FCFF2818D0A36A2669DF69E369D5F87A
S315000017B0FC2206A9BE4241F8143D0FD8143220235C
S315000017C0284666610296FFF79DFF28464FF40042C1
S315000017D0222100F055FD032007B0F0BD28466761C1
S315000017E0143220230297FFF78DFF022007B0F0BDC9
S315000017F0F0B4D1E90076D0F81053B6FBF3F617F043
S31500001800010F0C461FFA86FCEF780FD08B600E6135
S315000018106FF3051701269BB2E6601146EB81EF7068
S31500001820A5F80CC00022F0BC00F024BD5B080E61D8
S315000018308B609EB20223E360012363F30517EE81FA
S315000018401146EF70A5F80CC04FF48062F0BC00F0B2
S3150000185011BD00BF2DE9F043002287B007460C46B4
S31500001860FFF750FCFF2831D021463846FFF728FA0B
S31500001870A36A2569D3F81C8045451BD9E368029005
S3150000188005460226D7F8FC22DBB1012B30D01432F4
S3150000189020234FF0220906A9E06941F8140D65617D
S315000018A03846FFF72FFF2369434514D3304607B068
S315000018B0BDE8F083E36802950326D7F8FC22002BE7
S315000018C0E3D1183228234FF02A09E4E706463046CA
S315000018D007B0BDE8F0834946384600F0C7FC03046C
S315000018E0E4D4494638464FF4004200F0C3FCDDE735
S315000018F01C322C234FF02E09CDE700BFF0B4154F54
S31500001900D0F8FC62BE4204460D4604D02946204665
S31500001910F0BCFFF76DBF09688907F7D1D0F81063EF
S315000019206C68B4FBF3F49B08F778AB601FFA83FC92
S315000019300423EB6002232C6163F30517A4B2A6F817
S315000019400EC01146F770B4814FF40062F0BC00F08F
S3150000195091BC00BF00000640F0B5044616462B4871
S31500001960D4F8FC2285B082420A9D0F4642D0194621
S31500001970204600F07BFC2946C4F87803204600F098
S3150000198075FC80B2ADF80E00BDF80E300F22134084
S3150000199029462046ADF80E3000F058FCD4F8102346
S315000019A0D4F80813D389B2F80CE0D1F808C0086857
S315000019B0CDF804E0D278C2F30112009239463246DD
S315000019C0DCF82460B047294620464FF4805200F0E8
S315000019D051FCBDF80E202946204600F04BFCBDF810
S315000019E00E10373120464900012205B0BDE8F0400F
S315000019F000F040BCD4F81023D27802F03002202A3E
S31500001A00B5D0102A0CBF02360336B0E700000640F8
S31500001A10002942D02DE9F04304468BB00D46164608
S31500001A202A214FF4804200F02BFC00222946204652
S31500001A30FFF768FBFF282CD0EB680696D4F8FC620B
S31500001A406BB32C271C36B8464FF02E090AA9EB6952
S31500001A5041F8143DAB6A4246DB692046FFF74EFF6C
S31500001A603246059900974B462046FFF775FF4FF023
S31500001A70FF3104F5507026F08BFD4FF48052064678
S31500001A802821204600F0E2FB7EB106200BB0BDE81F
S31500001A90F083FF200BB0BDE8F083FF2070472827B6
S31500001AA01836B8464FF02A09D0E7DDE90712099B38
S31500001AB002FB01F1DDE9050203FB01F3C51841460E
S31500001AC0D31A2046CDE9055300F0D0FB00F00F05F0
S31500001AD037356D0004962946204600F0C7FB039073
S31500001AE0049B01330493049BB3F5FA6FCDD8039B93
S31500001AF05B04F0D40320CDE710B50C464C2100F072
S31500001B00B5FBC0F30A002060002010BD036A63B174
S31500001B10A1F10A03C06B0B2B25D8DFE803F01224D2
S31500001B2015181B1E210A24080C0F55207047082A79
S31500001B301BD0002070471146FFF7C0BA1146FFF7C9
S31500001B40D5BA1146FFF7D8BF114600F003BE1146BD
S31500001B5000F09ABB1146FFF7D3B81146FFF7C8B994
S31500001B601146FFF739BA542070471146FFF790BA6D
S31500001B7038B5094B1C68D4F81451012228460021B7
S31500001B8000F078FB28464FF45F42302100F072FBEC
S31500001B900123C4F8F83038BD001502202DE9F047BE
S31500001BA0C14BC24C80460FCB88B00DF1100989E8B5
S31500001BB00F00A0454FF000034FF03302CDE901338B
S31500001BC08DF8042000F09080B94B984540F0A38032
S31500001BD00424022501A815F0A5F8B64B01A81B6937
S31500001BE0294602AA98479DF9083013F1210F11D012
S31500001BF02401002BE4B2DAB2C0F2BE80AE4802F095
S31500001C001F02C51801215B0901FA02F285F800439B
S31500001C1040F82320A94B1D6800218023C5F8FC301D
S31500001C2008464FF4647226F049FB05F1D8030446D2
S31500001C30002800F0A7800646C5F81401C5F80881FB
S31500001C40C0F8FC8246F8783B9D4BC5F81031B24689
S31500001C50012505F130035046002249468DF81E3015
S31500001C6026F086FC0AF1480A0746002842D10135CB
S31500001C700A2DEED18E4B984500F0B3800146012225
S31500001C80204600F0E3FA40223946204600F0DEFA0C
S31500001C90864B984500F08A804021204600F0E6FAFF
S31500001CA0402100F08006204600F0E0FA054640217B
S31500001CB0204605F0800500F0D9FAAE42ECD100F0DE
S31500001CC080008642E8D1002E6AD1794B98455ED0D5
S31500001CD020220021204600F0B9FA744B984524D002
S31500001CE0384608B0BDE8F08701238DF80530FF249B
S31500001CF004256FE7012DF3D0303405EBC50504EB61
S31500001D00C5053046483626F041FCB542F9D138467D
S31500001D1008B0BDE8F08702210846322226F032FAE2
S31500001D203227384608B0BDE8F08708AD00260F22F6
S31500001D302046022145F8146D00F088FA614B2946C9
S31500001D4030469B699847039A5F4B6049A3FB0203A1
S31500001D505B0DA1FB0212520C03EB8301B2EB410FA8
S31500001D6088BF0133022B86BF023B9AB2002220466F
S31500001D70022100F07FFAB3E7554B02F00F0213443D
S31500001D801C7647E71227384608B0BDE8F08720469C
S31500001D900822002100F05AFA384608B0BDE8F0875C
S31500001DA010220021204600F065FA8EE703A814F001
S31500001DB05BFE0F220221204600F062FA4FF4004239
S31500001DC03E21204600F042FA039B424ADB699342D9
S31500001DD054D0414A93421BD0404A934259D03227AD
S31500001DE07EE701464FF48062204600F043FA002168
S31500001DF0204600F03BFA4205F9D520460122002193
S31500001E0000F024FA40220021204600F01FFA43E7A2
S31500001E1010223E21204600F02DFA20223E212046A7
S31500001E2000F028FA06250421204600F01FFA013D9D
S31500001E30F9D101223E21204600F008FA41F27075E0
S31500001E400421204600F012FA013DF9D102223E217A
S31500001E50204600F0FBF94FF480424FF48171204692
S31500001E6000F008FA0621204600F000FAC307F9D56B
S31500001E7080220021204600F0FDF90DE720461022C1
S31500001E803E2100F0E3F920223E21204600F0F2F93F
S31500001E90C8E7204610223E2100F0D8F920223E2134
S31500001EA0204600F0D3F9BDE7F0F906000000064031
S31500001EB0000009404C02070000E100E00015022086
S31500001EC00D1B0000C8020700B945511FDBC992135C
S31500001ED0FCEC00E0002D310100366E01001BB7005E
S31500001EE000B583B0FFF75AFE18B90190FFF740FE20
S31500001EF0019803B05DF804FB70B51F4D1F492C68AF
S31500001F00D4F89832012B07BFD4F82402D4F828322B
S31500001F10D4F82C02D4F83032C4F81C02C4F82032AB
S31500001F200E2204F58E7326F0A3F94FF47A72D4F8D4
S31500001F303431D4F89011C4F8CC2104F1D80604F554
S31500001F40AA72C4F89411C4F88C21C4F87031C4F88C
S31500001F5098310E21D4F81031304698472B68D3F8C3
S31500001F60BC3200210222C4F85811C4F8A8210BB1D2
S31500001F7001209847002070BD001502201808FE1F9A
S31500001F802DE9F047DFF8C082D8F80090D9F814415F
S31500001F904021204600F06AF9430407460CD5D8F8DC
S31500001FA00030D3F8BC320BB1052098474BF6FF72D0
S31500001FB04021204600F064F93E0400F1BF80FD0494
S31500001FC000F1A980780576D4F90545D4BA0514D46C
S31500001FD03B0501D4BDE8F087E16A07F0070330311D
S31500001FE04FF40062204600F09DF920464FF2FF7242
S31500001FF04021BDE8F04700F043B94821204600F0F3
S3150000200035F938218146204600F030F904F5357659
S31500002010824604F53F78012504E0043646454FEA3A
S315000020204505D5D019EA050FF7D01AEA050FF4D001
S31500002030EA43204692B2482100F022F9336803EBC6
S31500002040C30304EBC3022046D16A00234FF4007297
S31500002050303100F067F9E0E74621204600F006F946
S3150000206036218146204600F001F904F53576824690
S3150000207004F53F78012504E00436B0454FEA4505EE
S31500002080A4D019EA050FF7D01AEA050FF4D0EA43EF
S31500002090204692B2462100F0F3F8336803EBC303FF
S315000020A004EBC3022046D16A00234FF4807230311C
S315000020B000F038F9E0E74A21204600F0D7F83A2147
S315000020C08146204600F0D2F804F53576824604F5BE
S315000020D03F78012505E00436B0454FEA45053FF453
S315000020E073AF19EA050FF6D01AEA050FF3D0EA43E3
S315000020F0204692B24A2100F0C3F8336803EBC303CB
S3150000210004EBC3022046D16A00234FF480623031CB
S3150000211000F008F9DFE74EF6FF724021204600F096
S31500002120AFF807F07003102B4BD03AD9202B5FD0B5
S31500002130302B39D10323C4F8043343E747F6FF7243
S315000021404021204600F09CF84021204600F08EF801
S31500002150402100F08006204600F088F80546402120
S31500002160204605F0800500F081F8AE42ECD100F083
S3150000217080008642E8D1D9F80831324A3EB193420E
S3150000218043D010220021204600F074F817E793424E
S3150000219042D010220021204600F058F825F05EFDBE
S315000021A00DE7002B3FF40EAFD9F81831002B3FF4A2
S315000021B009AFD8F80020D2F8BC32D3B30420984730
S315000021C000E70821204600F051F800F00700022839
S315000021D029D0032813D0012804D1D8F800300022D2
S315000021E0C3F89822FFF788FE0123C9F81831E9E6FB
S315000021F05021204600F03AF8C9F80C01E2E6D8F87A
S3150000220000300222C3F89822ECE74FF480720021D6
S31500002210204600F02FF8B4E731464FF4807220468E
S3150000222000F014F8B5E7D8F800300122C3F8982278
S31500002230D8E7D2F8A432002B7FF4C4AE25F00EFD09
S31500002240C0E600BF0000064000150220D0F8FC02E0
S315000022500B5A23EA02020A52704700BFD243D0F853
S31500002260FC32C2F309025A52704700BFD0F8FC3262
S31500002270585A7047D0F8FC020B5A1A430A52704754
S31500002280D0F8FC325A5270478B6870B59C6864214E
S3150000229022890546FFF7F4FFA368002B40D02146AC
S315000022A02846FEF77DFE4FF4804222212846FFF79E
S315000022B0E7FF4FF480422A212846FFF7E1FF00227C
S315000022C021462846FEF7AAFCA268012606FA02F273
S315000022D092B24A212846FFF7C1FFA26806FA02F227
S315000022E092B246212846FFF7B9FFA26806FA02F223
S315000022F092B248212846FFF7B1FF00222146284620
S31500002300FEF724FC002221462846FEF7CBFB284692
S3150000231000222146FEF7F0FB04F12C0026F05CF9C2
S31500002320002070BD2DE9F843D1F80880B2F5006FA2
S315000023300C460646D8F808703AD0B2F5807F05D02C
S31500002340B2F5806F02D00020BDE8F883636A022BE5
S3150000235000F01481E569002D40F0D180D4F84C805E
S31500002360B8F1010F40F06781D7F808903D61394612
S315000023703046B9F1000F00F07B81FFF76BFA0228B7
S3150000238000F0D7812A4639463046FEF7DFFB424643
S3150000239039463046FEF786FBB968002940F0B6811B
S315000023A0304601226021FFF765FF0020E064CBE79D
S315000023B0013B052BC7D801A252F823F0D523000014
S315000023C047230000D523000047230000D523000043
S315000023D06B2500004FF6F7724021FFF751FF54219D
S315000023E03046FFF743FF81B204F1500026F0F8F8BB
S315000023F056213046FFF73AFF81B204F1520026F02B
S31500002400EFF858213046FFF731FF81B204F154004E
S3150000241026F0E6F85A213046FFF728FF04F1560564
S3150000242081B2284626F0DCF894F9502000230121D9
S315000024309A42A36123626160C0F2308194F85630FB
S3150000244023B994F85730002B00F028814FF002088A
S315000024502846C4F8248026F0C1F84FF00009E36846
S315000024602361C4E90509032260213046FFF7EEFE29
S31500002470BA68012505FA02F292B24A213046FFF700
S31500002480EDFEBA6805FA02F292B246213046FFF72F
S31500002490E5FE4FF4804222213046FFF7F1FE4FF46D
S315000024A080422A213046FFF7EBFE4A46394630463F
S315000024B0FEF7B4FB2A4639463046FEF747FB2A4666
S315000024C060213046FFF7D6FEC7F8048094F95030F5
S315000024D0002BC0F2178194F85630002B4AD194F89D
S315000024E05750002D46D10323E5616561304663628E
S315000024F005227B606021FFF7BDFE284624E7D8F859
S315000025001C00D7F808802369FB61854228BF054671
S315000025107D6139463046B8F1000F40F08180FFF703
S3150000252039F9022800F0B480002239463046FEF719
S315000025300DFB012239463046FEF7B4FA39692269A5
S31500002540D4E90603491B3961B9682A445B1B054473
S315000025502261C4E9065300295BD037313046490071
S315000025600122FFF787FE0020EEE600237B60FF20B6
S31500002570BDE8F88302237B600020E5E696F8883301
S31500002580BD68FF2B00F096806369D8F81C203B617C
S315000025909A42236938BF3A61FB6139463046002DBD
S315000025A05CD1FEF7C3FE02285CD0002239463046D5
S315000025B0FEF7CCFAD4E90632BD69206961692B447D
S315000025C02844521B8B422061C4E9063204D0D8F855
S315000025D01C30AB4200F0A180002525622A46394610
S315000025E03046FEF7B3FABB68002B5BD17B68022B43
S315000025F07FF4A9AE204625F011F9A36A03227A607A
S315000026000BB120469847002503233046E5616561F6
S315000026106DE7304601226021FFF72CFE002093E68D
S31500002620FFF718F902287FF47FAF012239463046BA
S31500002630FEF78CFA82E725622A4639463046FEF7CF
S3150000264031FABB6873BB7A68012A78D0A36A002B7B
S315000026503FF479AE20469847002075E6FEF7B0FEB7
S315000026600228A2D1012239463046FEF76FFAA1E7C9
S31500002670FFF790F802280CBF42464A4639463046D4
S31500002680FEF764FA012239463046FEF70BFA83E676
S31500002690012239463046FEF759FA4AE7204625F028
S315000026A0BDF813E7022307F12C00236025F094FF01
S315000026B0284649E6D6F88C33AB427FF465AFD6F8A8
S315000026C08403441EC6F88443002C7FF43CAED6F83F
S315000026D078333733590003223046FFF7B7FD4FF4FE
S315000026E080522C213046FFF7B1FD3046224639464E
S315000026F0FEF72CFAC6F8844386F88843C6F88C435E
S31500002700204621E601237B6000201DE63731490083
S3150000271030460122FFF7AEFD47E6BB68002B3FF4CB
S3150000272078AF3733304659000122FFF7A3FD00206A
S315000027300AE6424639463046FEF708FA2CE60321F9
S315000027406162E36163613046796005226021FFF7CB
S3150000275091FD7BE72DE9F84F002380F888338F68D9
S31500002760C0F88433BD68C0F88C330E46A9680446A9
S31500002770002953D103226021FFF768FDAA684FF0B4
S31500002780010808FA02F292B24A212046FFF766FDD6
S31500002790AA6808FA02F292B246212046FFF75EFDC9
S315000027A0736A032B40F09A80D4F808237369D7F82C
S315000027B01CC0002A4AD0EA68911E022946D9424521
S315000027C042D94FEA8C22B3FBF2F3C4F83C33D4F877
S315000027D03C330133C4F83C33D4F83C33002B00F0CF
S315000027E074814FF00009F069CA46904290460AF19A
S315000027F0010A05D2B0FBFCF90CFB1909A0EB09088C
S31500002800B8F1000F40F04081D4F83C33534540F214
S315000028109781D7F81CC04FEA8C22E6E7373149008A
S31500002820FFF724FD410407D5A96837314900204642
S31500002830FFF71CFD4204F7D4A9683731490003228B
S315000028402046FFF703FD99E79C45BAD3F268EA6193
S315000028509C452B614FF0200229462046674628BF3B
S315000028601F46FEF7DBF9222120464FF48042FFF790
S3150000287007FDD5F8088029462046B8F1000F40F03C
S31500002880D480FEF787FF022800F0F8800022294650
S315000028902046FEF75BF9012229462046FEF702F99B
S315000028A028693169D6E906233944C01B286131619C
S315000028B0A9683A44DB1BC6E90623002940F0C0801C
S315000028C0204601226021FFF7D5FCAB68002B40F0C3
S315000028D0C1804FF0000B5846BDE8F88F002229460C
S315000028E02046FEF733F9002229462046FEF7DAF89D
S315000028F0D4F80C33002B65D0EB689A1E022A61D9F6
S31500002900012B7169FA695BD94FEA8228B1FBF8F1AC
S31500002910C4F83C13D4F83C330133C4F83C33D4F840
S315000029203C33002B00F0E2804FF0000AD14609E06C
S31500002930D4F83C3309F101094B4540F2DD80FA69D0
S315000029404FEA8228F169414505D2B1FBF2FA02FB52
S315000029501A1AA1EB0A084FF0FF3384F88833AB68E4
S31500002960B8FBF2F2C4F88C33C4F88423B8F1000F34
S31500002970DED0424629462046FEF784FD8346A968F6
S31500002980373149002046FFF771FC4304F7D4A968A4
S315000029903731490003222046FFF758FCBBF1000FF0
S315000029A099D1D6E9063228693169A0EB080041447D
S315000029B0A2EB0802434428613161C6E90632B7E753
S315000029C09142A1D8002229462046FEF727F94FF466
S315000029D0804222212046FFF753FC29460122204649
S315000029E0FEF7B4F8A968002941D1204601226021EA
S315000029F0FFF740FCAB68002B3FF46BAF05F12C00F2
S31500002A004FF0FF3125F0C4FD834600287FF463AF05
S31500002A10D6F820B0BBF1000F7FF45DAF3368232BEF
S31500002A207FF457AF4FF0230B55E7FEF713FF02284D
S31500002A307FF42CAF012229462046FEF787F82FE7C0
S31500002A403731490020460122FFF714FCAB68002B02
S31500002A503FF43FAF05F12C004FF0FF3125F098FD14
S31500002A60834600287FF437AFD6F820B033E73731F6
S31500002A70490020460122FFF7FDFBBBE7012229465C
S31500002A802046FEF763F806E7202229462046FEF791
S31500002A90C5F84FF4804222212046FFF7F1FB336947
S31500002AA0EB61424629462046FEF7B2FFD6E90620EC
S31500002AB029693369A1EB08014344A0EB08004244AD
S31500002AC029613361C6E906209EE6AB68012707FA4D
S31500002AD003F39AB24A212046FFF7C0FBAA6807FA19
S31500002AE002F292B220464621FFF7B8FB00230222EB
S31500002AF033629B463260EEE6BAF1000FF6D0002252
S31500002B0029462046FEF78AF84FF4804222212046C5
S31500002B10FFF7B6FB4FF480422A212046FFF7B0FBB1
S31500002B20012229462046FEF711F8AB68002B3FF438
S31500002B305CAF3733590020460122FFF79BFB59E76C
S31500002B40AA684FF0010808FA02F292B24A2120461A
S31500002B50FFF784FBAA6808FA02F292B246212046E1
S31500002B60FFF77CFBB9F1000FC0D0FB69F76932694A
S31500002B70EA619F422F614FF020022946204628BF76
S31500002B801F46FEF74BF84FF4804222212046FFF7FE
S31500002B9077FB4FF480422A212046FFF771FB336909
S31500002BA0EB6129462046FDF7FBFFFF2883463FF4ED
S31500002BB092AE28693169D6E906233944C01B2861DB
S31500002BC03161A9683A44DB1BC6E9062329B94246A6
S31500002BD020466021FFF74EFB77E637314900424633
S31500002BE02046FFF747FB70E60C4B1B6810B5D3F881
S31500002BF01441102220460021FFF728FBD4F8FC22BE
S31500002C00074B9A4220460CBF082220220021FFF7DC
S31500002C101DFB1420BDE8104025F01EBB0015022048
S31500002C2000000940304B1B6870B5D3F81441D4F846
S31500002C30085345B304F5507025F0A8FCD4F80833C2
S31500002C409A681868D3699847D4F81023D67891788B
S31500002C5006F0F30601F0E301002300286FF3871660
S31500002C606FF34511D67091700CBF1D463425A4F83C
S31500002C70143384F81633C4F81833C4F81C3384F8B4
S31500002C801733C4F82033D4F80C335BB304F557700C
S31500002C9025F07CFCD4F80C339A681868D3699847F9
S31500002CA0D4F824239378D17803F0F3036FF3041355
S31500002CB001F0F30193706FF387110023D170C4F80C
S31500002CC02C33C4F8303384F82B33C4F8343391787A
S31500002CD0A4F82833984263F3451184F82A3318BFC1
S31500002CE034259170284670BD001502202DE9F0416B
S31500002CF05B4A82B0002390420746CDE9003302D0FA
S31500002D00584B98426AD1584BD3F80080D8F81451E2
S31500002D10D5F80833002B57D03846FFF783FF002835
S31500002D204FD105F1780405F540762046483425F064
S31500002D302DFCA642F9D14B4B9F4278D001220021AF
S31500002D402846FFF783FA4FF41F4230212846FFF743
S31500002D507DFA434B332200249F428DF80020ADF8C4
S31500002D60024044D000238DF8013002213F4B01AAD6
S31500002D701B69684698479DF90420002A12DB53090F
S31500002D809B0003F1604303F56143012102F01F023A
S31500002D9001FA02F2C3F88021C3F88020BFF34F8FF7
S31500002DA0BFF36F8F684613F0B9FF284625F02EFB58
S31500002DB00020C8E93E00C8F81401C8F80801C8F8A0
S31500002DC0100102B0BDE8F081D5F80C33002BA8D075
S31500002DD03846FFF727FF0028A3D0F2E7022108466E
S31500002DE0342225F0CFF9342002B0BDE8F0814FF44B
S31500002DF080424FF481712846FFF728FA2146802247
S31500002E002846FFF723FA10223E212846FFF71EFA2E
S31500002E1020223E212846FFF719FA02210F222846D2
S31500002E20FFF728FA01238DF8013004219EE74FF4BD
S31500002E30806200212846FFF709FA01220021284670
S31500002E40FFF704FA4FF41F4230212846FFF7FEF938
S31500002E50332200238DF80020ADF8023082E700BF50
S31500002E600000064000000940001502204C02070041
S31500002E702DE9F047BD4E33681B69CC2505FB0035AF
S31500002E806B6D53B9D5F8C8402A6DD4F8C830012AFD
S31500002E9003F10103C4F8C83001D0BDE8F087302142
S31500002EA0204600F007FA32218046204600F002FA5A
S31500002EB040210746204600F0FDF900EA0800C4F864
S31500002EC0CC004221204600F0F5F9D4F8CC30384049
S31500002ED09A04C4F8D00000F18981030400F17A81D4
S31500002EE0D4F8CC305F0500F14581D80500F10E819C
S31500002EF0990500F1DD80D4F8D0301A0500F19180F3
S31500002F00DF047AD458044BD4590634D4DA0619D4DB
S31500002F109B06C2D520464FF6DF72422100F0D4F957
S31500002F20D4F8DC20D5F8AC30306842F0200201330A
S31500002F30C4F8DC2000F52170C5F8AC30BDE8F047D8
S31500002F4025F04ABB4FF6EF724221204600F0BCF94D
S31500002F50D4F8DC20D5F8AC303068013342F04002BA
S31500002F60C4F8DC2000F52170C5F8AC3025F034FB40
S31500002F70D4F8D030CCE74FF6BF724221204600F09D
S31500002F80A3F96B6E30680133002103226B66EC30C7
S31500002F90C4F8D410226125F01FFBD4F8D030B5E771
S31500002FA04BF6FF724221204600F08EF9D4F8D47019
S31500002FB007BB2369012B1DD04FF4804232212046E6
S31500002FC000F072F94FF480523221204600F076F973
S31500002FD06B6E012003446B663A46C4F8D4005E214A
S31500002FE0204600F06BF930684FF0FF33EC30A361F8
S31500002FF025F0F2FAD4F8D03086E74EF6FF72422179
S31500003000204600F061F94FF2FF724221204600F09F
S315000030105BF9D4F8D430012B00F00881D4F8D03015
S3150000302070E74FF2FF724221204600F04DF94EF64E
S31500003030FF724221204600F047F90421204600F0A5
S3150000304039F910F002074FF480724FF03C01204628
S3150000305000F0DF8000F032F9454B62689A4200F0DA
S315000030601A81D4F8D47007BB2369012B1DD04FF405
S3150000307000623221204600F017F94FF480523221C7
S31500003080204600F01BF96B6E012003446B663A463E
S31500003090C4F8D4005E21204600F010F930684FF0E5
S315000030A0FF33EC30A36125F097FAD4F8D03027E748
S315000030B04821204600F0FEF804F58277824604F5A2
S315000030C096794FF001086FEA08021AEA080F92B2E1
S315000030D04FEA48084FF04801204609D03B682BB11B
S315000030E057F8283C43F0020347F8283C00F0ECF878
S315000030F00437B945E7D1D5F8AC3030680133C5F8A7
S31500003100AC3000F5217025F067FAF4E6462120463A
S3150000311000F0D0F804F58277824604F596794FF0F0
S3150000312001086FEA08021AEA080F92B24FEA480845
S315000031304FF04601204609D03B682BB157F8283C92
S3150000314043F0010347F8283C00F0BEF80437B945C0
S31500003150E7D1D5F8AC3030680133C5F8AC3000F5AE
S31500003160217025F039FAD4F8CC30C1E604150220D6
S31500003170000006404A21204600F09CF804F58277BC
S31500003180824604F596794FF001086FEA08021AEABA
S31500003190080F92B24FEA48084FF04A01204609D07C
S315000031A03B682BB157F8283C43F0040347F8283C0A
S315000031B000F08AF804374F45E7D1D5F8AC303068CF
S315000031C00133C5F8AC3000F5217025F005FAD4F8C6
S315000031D0CC308AE6204647F6FF72422100F074F8AA
S315000031E001210846432224F0CDFF79E64DF6FF7211
S315000031F04021204600F068F8D5F8AC30306801333D
S31500003200C5F8AC3000F5217025F0E6F9D4F8D00009
S3150000321063E600F049F8234B62689A427FF421AFD7
S3150000322039468022204600F049F81AE72369012B27
S315000032307FF4F4AE4FF480523221204600F034F889
S3150000324032214FF40062204600F038F804F580730E
S3150000325004F5947153F8042F2AB153F8282C42F040
S31500003260800243F8282C9942F4D1D5F8AC30306866
S315000032700133C5F8AC3000F5217025F0ADF96B6E61
S315000032803068002201336B66EC30C4F8D42022612A
S3150000329025F0A2F9C2E680220021204600F004F8BB
S315000032A0DFE600BF0000064040680B5A23EA020230
S315000032B00A5270474368585A704700BF40680B5A15
S315000032C01A430A52704700BF43685A52704700BFFC
S315000032D0042B01D0082B16D1104909684968097AD0
S315000032E038B50446012944F8043B0FD0043A0025BA
S315000032F052F8044F0135E9B224BA8B4240F8044F24
S31500003300F6D8002038BD4FF002107047114620460F
S315000033109A006AF0E6FA002038BD00BFC006FE1F1C
S315000033202DE9F0435E4F3C686468054694F808C092
S3150000333055F804EB83B00646BCF1000F17D194088C
S315000033400AD003EB840CACF1040C1A1F52F8040FDC
S3150000335000BA62451060F9D1BEF1040F46D0BEF145
S31500003360080F70D04FF0021003B0BDE8F083BEF135
S31500003370040F25D1DFF830E1BCF1010F4FEA9204CA
S31500003380DEF80000DEF8082032D10A9ECDE90036CC
S31500003390234696680A462946B0473B685B681B7A0F
S315000033A053B94CB10A9B043B03EB840453F8041F46
S315000033B009BA9C421960F9D1002003B0BDE8F08338
S315000033C0BEF1080FCED13748BCF1010FD0F8088006
S315000033D000684FEA92043AD10A9ACDE900320A46C9
S315000033E0D8F8086029462346B047D6E7DFF8B8E0A4
S315000033F0D1F800808868D1F804C0C968C6F814807E
S3150000340006F1140290600A98C2F804C0D160D6E9A9
S31500003410059CF169CDE90030DEF80830DEF80000E1
S31500003420D3F8088091FA81FE316A99FA89F39CFAF9
S315000034308CFC91FA81F9C6E9053C2946C6E907E9FB
S315000034402346C047A9E7174AD2F808801068D1F882
S315000034500090D1F804E0D1F808C0C968C6F82490F5
S3150000346006F12402D1600A99C2F804E0C2F808C045
S31500003470D6E9099ED6F82CC0CDE90031336BD8F8D1
S31500003480088099FA89F99EFA8EFE9CFA8CFC1BBA82
S31500003490C6E90BC32946C6E9099E2346C0477CE711
S315000034A0C006FE1F0CFA060000FA06002DE9F047DA
S315000034B0584ED6F800E0DEF804408446277A5CF8D9
S315000034C0049B82B00546BFB994080AD003EB840872
S315000034D0A8F10408181F50F8047F3FBA404507605A
S315000034E0F9D1B9F1040F6BD0B9F1080F2CD04FF018
S315000034F0021002B0BDE8F087B9F1040FF4D1DFF88D
S315000035001CE1012F4FEA9204DEF80000DEF80820E5
S3150000351058D10A9DCDE90035234655690A466146CC
S31500003520A84733685B681B7A53B94CB10A9B043BC6
S3150000353003EB840453F8042F12BA9C421A60F9D1A3
S31500003540002002B0BDE8F08705F124084F688C68BA
S31500003550C868D1F80090C5F82490C8F80470C8F877
S315000035600C00C8F80840DEF804402B4894F808E040
S3150000357087680068BEF1010F4FEA920408D10A9AE3
S31500003580CDE900320A467D6961462346A847C8E769
S315000035900A996A6ACDE90031D5E90B1392FA82FEDF
S315000035A0AA6A7F6992FA82F991FA81FA1BBAC5E989
S315000035B00BA342466146C5E909E92346B847B0E789
S315000035C0DFF858E0D1F8008088684F68C968C5F808
S315000035D0148005F1140290600A985760D160D5E90D
S315000035E00598E969DEF80870CDE900302B6A7F6935
S315000035F0DEF8000091FA81FA99FA89F998FA88F8C2
S315000036001BBAC5E907A36146C5E905982346B8472D
S3150000361087E700BFC006FE1F0CFA060000FA060088
S3150000362010B582B0049C33B124F04001802902D049
S31500003630B4F5807F0FD112680C2A09D102281A46E8
S31500003640C4F3C7041CD0012809D0002002B010BD65
S31500003650144802B010BD4FF0021002B010BD23B1E5
S315000036600146A3080A98FFF733FE089B00930799C3
S315000036700A98DDE90532FFF753FE002002B010BDBF
S3150000368023B10146A3080A98FFF722FE089B009380
S3150000369007990A98DDE90532FFF708FF002002B016
S315000036A010BD00BF0400020081B108B522F040033E
S315000036B0802B02D0B2F5807F0AD1C2F3471302985D
S315000036C00A460221FFF704FE002008BD084670479F
S315000036D04FF0021008BD00BF2DE9F041402AA0B00E
S315000036E090460F46044631D804F15805204600F0AE
S315000036F091FA04F198064022002128466AF015F94D
S315000037004022002130466AF010F9424639462846E2
S315000037106AF0E7F83946424630466AF0E2F82B4648
S3150000372031461A7882F0360203F8012B0A78B34242
S3150000373082F05C0201F8012BF3D129462046402293
S3150000374000F012FB002020B0BDE8F08100F062FA24
S3150000375042463946204600F007FB6946204600F0FF
S315000037600BFB6F464FF01008BEE700BF38B50446A6
S315000037700D4600F001FB204600F04CFA04F19801DA
S315000037802046402200F0F0FA29461022204600F09A
S31500003790EBFA2946204600F0EFFA002038BD00BFBC
S315000037A070B504460D4616461946049AFFF794FF6F
S315000037B032462946204600F0D7FA05992046FFF7FB
S315000037C0D5FF002070BD00BF00B5062883B023D00A
S315000037D0072819D005280DD0049A08990A98D20806
S315000037E0CDE90021DDE90512FFF7DAFF002003B07D
S315000037F05DF804FB1946049B0A98DA08FFF76CFF8C
S31500003800002003B05DF804FB08990A98FFF7AEFFA5
S31500003810002003B05DF804FBDDE905120A9800F00C
S31500003820A3FA002003B05DF804FB00BF2DE9F041C8
S31500003830402BBCB0984605460E46174625AC4AD8DE
S315000038404022002105A86AF070F84022002115A840
S315000038506AF06BF83946424605A86AF042F83946DE
S31500003860424615A86AF03DF80DF1530007460DF1E2
S31500003870130313F8011F10F8012F81F0360182F0AF
S315000038805C02BB4219700270F3D1204600F078FE4C
S3150000389005A94022204600F03BFF32462946204635
S315000038A000F036FF4299204600F03AFF204600F02D
S315000038B067FE15A94022204600F02AFF14224299ED
S315000038C0204600F025FF4299204600F029FF0020FF
S315000038D03CB0BDE8F081204600F052FE4246394633
S315000038E0204600F015FF2046694600F019FF6F4696
S315000038F04FF01408A4E700BF2DE9F041402A86B036
S3150000390090460F46044631D804F15C05204600F087
S3150000391037FE04F19C064022002128466AF005F88D
S315000039204022002130466AF000F8424639462846D1
S3150000393069F0D7FF39464246304669F0D2FF2B463A
S3150000394031461A7882F0360203F8012B0A78B34220
S3150000395082F05C0201F8012BF3D129462046402271
S3150000396000F0D6FE002006B0BDE8F08100F008FEAB
S3150000397042463946204600F0CBFE01A9204600F01B
S31500003980CFFE01AF4FF01408BEE700BF38B50446BE
S315000039900D4600F0C5FE204600F0F2FD04F19C0144
S315000039A02046402200F0B4FE29461422204600F0AC
S315000039B0AFFE2946204600F0B3FE002038BD00BF0A
S315000039C000B5062883B022D0072818D005280CD0C9
S315000039D0089A00921A46049BDDE90501DB08FFF709
S315000039E025FF002003B05DF804FB1946049B0A98E6
S315000039F0DA08FFF781FF002003B05DF804FB0899A1
S31500003A000A98FFF7C3FF002003B05DF804FBDDE969
S31500003A1005120A9800F07CFE002003B05DF804FB56
S31500003A202DE9F041402BC2B0984605460E46174692
S31500003A3028AC4AD84022002108A869F076FF402227
S31500003A40002118A869F071FF3946424608A869F0B6
S31500003A5048FF3946424618A869F043FF0DF15F005A
S31500003A6007460DF11F0313F8011F10F8012F81F00F
S31500003A70360182F05C02BB4219700270F3D1204617
S31500003A8000F0F8FE08A94022204600F0D5FF324695
S31500003A902946204600F0D0FF4899204600F0D4FF82
S31500003AA0204600F0E7FE18A94022204600F0C4FF99
S31500003AB020224899204600F0BFFF4899204600F092
S31500003AC0C3FF002042B0BDE8F081204600F0D2FEE0
S31500003AD042463946204600F0AFFF2046694600F0D0
S31500003AE0B3FF6F464FF02008A4E700BF2DE9F04171
S31500003AF0402A88B090460F46044631D804F168053E
S31500003B00204600F0B7FE04F1A80640220021284610
S31500003B1069F00BFF40220021304669F006FF42465D
S31500003B203946284669F0DDFE39464246304669F098
S31500003B30D8FE2B4631461A7882F0360203F8012B5E
S31500003B400A78B34282F05C0201F8012BF3D12946D0
S31500003B502046402200F070FF002008B0BDE8F0814A
S31500003B6000F088FE42463946204600F065FF694669
S31500003B70204600F069FF6F464FF02008BEE700BF01
S31500003B8038B504460D4600F05FFF204600F072FE91
S31500003B9004F1A8012046402200F04EFF29462022CB
S31500003BA0204600F049FF2946204600F04DFF002040
S31500003BB038BD00BF00B5062883B022D0072818D02C
S31500003BC005280CD0089A00921A46049BDDE90501E7
S31500003BD0DB08FFF725FF002003B05DF804FB19465C
S31500003BE0049B0A98DA08FFF781FF002003B05DF80E
S31500003BF004FB08990A98FFF7C3FF002003B05DF89D
S31500003C0004FBDDE905120A9800F016FF002003B058
S31500003C105DF804FB70B130B40749084D084C094AF9
S31500003C2003460020C3E90054C3E90400C3E90212B5
S31500003C3030BC704707207047FEDCBA980123456701
S31500003C4089ABCDEF7654321070B5051F03462C466E
S31500003C500C3054F8042F12BA84422260F9D1064A75
S31500003C6096681068B6681022B04755F8043F1BBA2C
S31500003C70A5422B60F9D170BD18FA060010B590B0B8
S31500003C8003460439ADF104000FAC51F8042F12BA03
S31500003C9040F8042FA042F8D1044A916810688C6855
S31500003CA010226946A04710B010BD00BF18FA0600E2
S31500003CB02DE9F0410546174600696A69FB00C318FD
S31500003CC028BF013202EB5772C0F3C5000C462B61C8
S31500003CD06A6108B3C0F14006BE4209D92FB1183057
S31500003CE028443A46214669F0FCFD0020BDE8F081F3
S31500003CF01830DFF870802844324669F0F2FDD8F8B3
S31500003D0000305B681B7A012B05F11801284624D088
S31500003D10FFF7B4FFBF1B34443F2F21D9A7F140065C
S31500003D2026F03F064036DFF83C80264404E0403467
S31500003D30FFF7A4FFB4420CD0D8F800305B681B7ABA
S31500003D40012B21462846F2D14034FFF77DFFB442CD
S31500003D50F2D107F03F070020C0E7FFF775FFD9E76C
S31500003D600020BBE7C006FE1F20B10AB1FFF7A0BFC7
S31500003D70104670470720704730B5D0E9042383B05A
S31500003D800D46110A04468DF80020100C8DF801101E
S31500003D90110EC2F3C502372A8DF802008DF8031002
S31500003DA04FEA13204FEA134194BFC2F13802C2F121
S31500003DB078028DF804308DF805001B0E8DF806107C
S31500003DC020460A498DF80730FFF772FF6946082238
S31500003DD02046FFF76DFFE06821686268A368E86027
S31500003DE0002029606A60AB6003B030BD0000FE1F92
S31500003DF030B597B00628209B2FD0072826D0052857
S31500003E0014D000231D4C1E481E491F4ACDE9043319
S31500003E101C9BCDE90040CDE902126C463BBB204617
S31500003E201E99FFF7A9FF002017B030BD002BFAD06E
S31500003E3014481549114D124C0022C3E90201002015
S31500003E40C3E90422C3E9005417B030BD18461E99D1
S31500003E50FFF792FF002017B030BD002BE3D01C9A6D
S31500003E60002AE0D018461B99FFF722FFDBE7204621
S31500003E70DDE91B12FFF71CFFD1E700BF01234567F1
S31500003E8089ABCDEFFEDCBA98765432102DE9F04FAF
S31500003E9091B0DDF868901D9DB9F14D0F68D8302AB4
S31500003EA066D8002D64D01F46064614468B466E2201
S31500003EB000210E93B5F80A8069F037FD4A46394667
S31500003EC0304669F00EFD1C9B4FEAD808002B4BD0FC
S31500003ED0E3000C9306EB08030F931B9F0B9706F169
S31500003EE06E03CC4600240D93B246EE694FF06E0E7B
S31500003EF05B462A460021032076B14FF4E877079700
S31500003F000D9FCDE905E70C9F0097CDE90844CDE963
S31500003F10034ACDE901ACB0474A46DDE90E1069F027
S31500003F20E0FCEE694FF06E0E09EB080C5B462A4684
S31500003F30002103207EB14FF4E87707970D9FCDE966
S31500003F4005E70B9FCDE903470C9F0097CDE9084491
S31500003F50CDE901ACB0470B9A1B9B4244D31A0B9296
S31500003F601C9A9A42C446C0D8002011B0BDE8F08F12
S31500003F704D2011B0BDE8F08F00B5084B9A6818685F
S31500003F80536883B0012201A9984718B9019803B074
S31500003F905DF804FB002003B05DF804FB54FA06004C
S31500003FA0FFF7EABF704700BF70B4B2F5805F039DAC
S31500003FB016D0D408812C0E46C5E9001406D040F26E
S31500003FC001139C4202D0002070BC70473378002B4E
S31500003FD0F9D1621E0136C5E90062002070BC704747
S31500003FE070BC0DF013BD00BF2DE9F04F87B0DDE9C1
S31500003FF012E4DDE910C804944FEADC05DDE9147427
S31500004000EE1E012E0594DDE9189ADDE9164B0392A2
S3150000401019D9B5F5007F16D00938012857D9A5F565
S315000040208072012A04F1080926D9A5F18002012A25
S3150000403051D9012E77D96A1E012A40F2B18001209A
S3150000404007B0BDE8F08F6268B2F5007FE4D1BEF537
S31500004050007FE1D1059ACDE91472049ACDE912E206
S31500004060039ACDE9189ACDE9164BCDE910C807B0E9
S31500004070BDE8F04F0DF0E4BC6268B2F5807FD4D1A4
S31500004080BEF5807FD5D140F20112954208BF0133BB
S3150000409019464FF48072484669F023FC4FF480724B
S315000040A0216804F5847069F01CFCAF4AAF4B1268B6
S315000040B0186852689E68137A0390012B40F031818C
S315000040C0CDE90087B468494640230022A047002076
S315000040D007B0BDE8F08F6268802AAAD1BEF1800FD2
S315000040E0ADD1812D08BF013319468022484669F0BB
S315000040F0F8FB8022216804F1880069F0F2FB9A4AF5
S315000041009B4B1268186852689E68137A0390012BBD
S3150000411040F03081CDE900874946B468202300226B
S31500004120A04700208CE76268B2F5807F65D0802AC0
S3150000413081D1BEF1800F82D1032D00F0C2801B68B1
S31500004140A3608022216804F10C0069F0CAFB864B4B
S315000041501B685B681B7A012B42D004F584758022AC
S315000041604146284669F0BDFB043409F5BE7254F891
S31500004170043F1BBA94422360F9D17D4B019718681E
S315000041809B6800955C68494620230022A0473B1F98
S315000041907C3753F8042F12BABB421A60F9D196E75E
S315000041A06268B2F5807F46D0802A7FF448AFBEF1C0
S315000041B0800F7FF444AF0022012D2272627273D009
S315000041C01A78A2725B78E3728022216804F10C00EF
S315000041D069F087FB644B1B685B681B7A012B7DD1FA
S315000041E0634B019718689B68CDF800805C68494668
S315000041F020230022A047002022E7BEF5807F7FF41F
S315000042001EAF032D54D01B68A3604FF48072216843
S3150000421004F10C0069F065FB534A544B12681868A8
S3150000422052689E68137A0390012B40F0C480CDE952
S315000042300087746847E7BEF5807F7FF400AF0022F1
S31500004240012D2272627245D01A78A2725B78E372EF
S315000042504FF48072216804F10C0069F042FB424A77
S31500004260424B1268186852689E68137A0390012BB5
S31500004270DDD004F502754FF480724146284669F098
S3150000428030FB043409F53F7254F8043F1BBAA242CE
S315000042902360F9D1CDE900574946B4680398402315
S315000042A00022A0470020CBE6A2721B78E3728BE7C0
S315000042B0002222721A7862725A78A2729B78E3728E
S315000042C0A3E7002222721A7862725A78A2729B7849
S315000042D0E37236E7A2721B78E372B9E704F58475D8
S315000042E080224146284669F0FCFA043409F5BE727C
S315000042F054F8043F1BBAA2422360F9D11C4B019724
S3150000430018689B6800955C68494620230022A047F0
S315000043103B1F7C3753F8042F12BA9F421A60F9D11B
S31500004320D5E604F502754FF480724146284669F0D9
S31500004330D8FA043409F53F7254F8043F1BBAA24276
S315000043402360F9D1CDE900574023B4680398494664
S315000043500022A0473B1FFC3753F8042F12BA9F4296
S315000043601A60F9D1B3E600BFC006FE1F48FA060080
S315000043703CFA060004F5847580224146284669F019
S31500004380B0FA043409F5BE7254F8043F1BBA9442DD
S315000043902360F9D1CDE900572023B4680398494634
S315000043A00022A0473B1F7C3753F8042F12BABB42AA
S315000043B01A60F9D18BE604F502754FF48072414616
S315000043C0284669F08EFA043409F53F7254F8043F22
S315000043D01BBAA2422360F9D1CDE900574023746885
S315000043E0039849460022A0473B1FFC3753F8042F89
S315000043F012BABB421A60F9D169E600BF394B10B553
S315000044001B68D3E9011282B0126818689047002829
S3150000441066D1354B35491B683548984700285FD12A
S31500004420344B35491B6835489847002858D1344CD9
S315000044303449236834489847002851D1236A3248C2
S31500004440984700284CD1314C314923683148984768
S31500004450002845D1236A2F489847002840D12E4C82
S315000044602E4923682E489847002839D1236A2C48BC
S315000044709847002834D12B4B2B491B682B4898476B
S3150000448000282DD12A4B2B491B682B48984700281A
S3150000449026D12A4B2A491B682A48984700BB2A4B33
S315000044A02A491B682A489847D0B92A4B2A491B68CB
S315000044B02A489847A0B92A4B2A491B682A48984790
S315000044C070B92A4B2A491B682A48984740B92A4B93
S315000044D027491B682948019302B0BDE810401847D8
S315000044E002B010BDC006FE1F6C2D07004000FE1F67
S315000044F054A1FF1F1C2F07004C00FE1F00A6FF1F24
S31500004500FC2D07004400FE1F08A3FF1FEC2E07002A
S315000045104800FE1FF0A4FF1FAC2F07005000FE1F2F
S315000045204CA0FF1F502C07007000FE1F38A0FF1F75
S31500004530882C07007400FE1FFCA2FF1FC02C07007A
S315000045405800FE1F60A2FF1FD42C07006000FE1F4C
S3150000455080A4FF1FE82C07006800FE1F10A4FF1FA1
S31500004560C82B07007800FE1FD0A2FF1FFC2C0700F7
S315000045705400FE1FF8A5FF1F342D070044A0FF1F9F
S3150000458040B3154A12685268127A0346012A4FF060
S31500004590000030B4C3E9050010D0104A1A6002F1D9
S315000045A0B9420F4D0F4C104902F55B2202F6EF623D
S315000045B0C3E90154C3E9031230BC70470B4A0C4DE2
S315000045C00C4C0D491A600D4AC3E90154C3E90312A4
S315000045D030BC704707207047C006FE1F01234567A1
S315000045E089ABCDEFFEDCBA987654321067452301CD
S315000045F0EFCDAB8998BADCFE10325476C3D2E1F027
S3150000460010B590B003460439ADF104000FAC51F873
S31500004610042F12BA40F8042FA042F8D1044A916838
S3150000462010688C6810226946A04710B010BD00BF04
S3150000463024FA06002DE9F047054691464069AA6925
S315000046404FEAC903C31828BF013202EB5972C0F3FF
S31500004650C5000C466B61AA6140B3C0F140064E45E9
S315000046600BD9B9F1000F05D01C3028444A46214623
S3150000467069F037F90020BDE8F0871C30DFF88CA020
S315000046802844324669F02DF9DAF800305B681B7A67
S31500004690012B05F11C0131D11B4B9A6818689768EC
S315000046A02B461022B847A9EB06093444B9F13F0F4F
S315000046B028D9A9F1400626F03F064036DFF84CA07F
S315000046C0DFF844802644DAF800305B681B7A012B59
S315000046D04FF010022B4621460CD1D8F80870D8F8B6
S315000046E00000BF68B8474034B442ECD109F03F0936
S315000046F00020B6E72846FFF783FFF4E72846FFF7D2
S315000047007FFFD0E70020ACE724FA0600C006FE1FB4
S3150000471020B10AB1FFF78EBF1046704707207047D9
S3150000472030B5D0E9052383B004468DF80330180E62
S315000047300D46190C1B0A8DF800008DF80110100E9D
S31500004740110C8DF802308DF80720130AC2F3C5024A
S31500004750372A94BFC2F13802C2F178028DF80400FC
S315000047608DF80510204626498DF80630FFF762FFC2
S31500004770082269462046FFF75DFF224B1B685B68EF
S315000047801B7A012B2FD0E3782B7063886B7023681C
S315000047901B0AAB702368EB70E3792B71E3886B71AE
S315000047A063681B0AAB716368EB71E37A2B726389EA
S315000047B06B72A3681B0AAB72A368EB72E37B2B7365
S315000047C0E3896B73E3681B0AAB73E368EB73E37C03
S315000047D02B74638A6B7423691B0AAB742369EB74AD
S315000047E0002003B030BD2368E0686168A268AA6053
S315000047F0E8602B60696023692B61002003B030BD3F
S315000048008000FE1FC006FE1F00B5062899B01FD007
S31500004810072815D005280CD001A8FFF7B1FE1C9B70
S3150000482013BB01A81E99FFF77BFF002019B05DF8A6
S3150000483004FB2098FFF7A4FE002019B05DF804FBE6
S315000048401E992098FFF76CFF002019B05DF804FB55
S31500004850209B002BE9D01C9B002BE6D01A461B9907
S315000048602098FFF7E7FEE0E71A461B9901A8FFF735
S31500004870E1FED6E7002834D01B4A12685268127A45
S315000048800346012A4FF0000030B4C3E9080011D0F6
S31500004890164D174C1749184A1D605C60174D184C89
S315000048A09960DA601749184AC3E90454C3E9061245
S315000048B030BC70471549164D164C174A996001F1E0
S315000048C064511D605C60154D154CDA60A1F5CF1181
S315000048D0144AA1F61D31C3E90454C3E9061230BCDB
S315000048E070470720704700BFC006FE1F67E6096ACB
S315000048F085AE67BB72F36E3C3AF54FA57F520E51FB
S315000049008C68059BABD9831F19CDE05B3C6EF372B7
S315000049106A09E667BB67AE85A54FF53A510E527F29
S315000049209B05688C5BE0CD1910B590B00346043941
S31500004930ADF104000FAC51F8042F12BA40F8042F61
S31500004940A042F8D1044A916810688C681022694622
S31500004950A04710B010BD00BF30FA06002DE9F047A1
S3150000496005469146006A6A6A4FEAC903C31828BF1A
S31500004970013202EB5972C0F3C5000C462B626A6223
S3150000498040B3C0F140064E450BD9B9F1000F05D032
S31500004990283028444A46214668F0A3FF0020BDE897
S315000049A0F0872830DFF88CA02844324668F099FF5B
S315000049B0DAF800305B681B7A012B05F1280131D14A
S315000049C01B4B9A68186897682B461022B847A9EBC4
S315000049D006093444B9F13F0F28D9A9F1400626F05B
S315000049E03F064036DFF84CA0DFF844802644DAF86C
S315000049F000305B681B7A012B4FF010022B462146D4
S31500004A000CD1D8F80870D8F80000BF68B847403411
S31500004A10B442ECD109F03F090020B6E72846FFF77B
S31500004A2083FFF4E72846FFF77FFFD0E70020ACE7D7
S31500004A3030FA0600C006FE1F20B10AB1FFF78EBF8E
S31500004A40104670470720704730B5D0E9082383B079
S31500004A5004468DF80330180E0D46190C1B0A8DF806
S31500004A6000008DF80110100E110C8DF802308DF833
S31500004A700720130AC2F3C502372A94BFC2F13802CF
S31500004A80C2F178028DF804008DF8051020463749EA
S31500004A908DF80630FFF762FF082269462046FFF7C9
S31500004AA05DFF334B1B685B681B7A012B4AD0E378AA
S31500004AB02B7063886B7023681B0AAB702368EB70DE
S31500004AC0E3792B71E3886B7163681B0AAB716368CA
S31500004AD0EB71E37A2B7263896B72A3681B0AAB7264
S31500004AE0A368EB72E37B2B73E3896B73E3681B0AA2
S31500004AF0AB73E368EB73E37C2B74638A6B74236993
S31500004B001B0AAB742369EB74E37D2B75E38A6B7523
S31500004B1063691B0AAB756369EB75E37E2B76638B62
S31500004B206B76A3691B0AAB76A369EB76E37F2B77DB
S31500004B30E38B6B77E3691B0AAB77E369EB770020BE
S31500004B4003B030BD21686268A368E068E860296048
S31500004B506A60AB60E06921696269A369E861002067
S31500004B6029616A61AB6103B030BD00BFC000FE1FA2
S31500004B70C006FE1F00B506289BB01FD0072815D01B
S31500004B8005280CD06846FFF775FE1E9B13BB6846CA
S31500004B902099FFF759FF00201BB05DF804FB22980F
S31500004BA0FFF768FE00201BB05DF804FB20992298F1
S31500004BB0FFF74AFF00201BB05DF804FB229B002B89
S31500004BC0E9D01E9B002BE6D01A461D992298FFF7C6
S31500004BD0C5FEE0E71A461D996846FFF7BFFED6E711
S31500004BE02DE9F04685B007460C9C0E9D109E894621
S31500004BF092461946224668F074FE2A460D993819DF
S31500004C0068F06FFE2C440F9B074D019302960094AB
S31500004C10524649463B4607F16C000395FFF736F9C5
S31500004C20002005B0BDE8F0863C02FE1F009B002078
S31500004C30C3E91912704700BF70B40828DDE90756AA
S31500004C40099C02D0432070BC7047D4E91912204653
S31500004C50CDE9065670BCFFF7C3BF00BF104B114A23
S31500004C6000280CBF18461046022303220360036087
S31500004C70036003600360036002600260026002601A
S31500004C80026002600260026002600260026002600E
S31500004C90036003600360036003600360704700BF46
S31500004CA02041064020430640104B114A00280CBF05
S31500004CB0184610460623072203600360036003605C
S31500004CC003600360026002600260026002600260CC
S31500004CD002600260026002600260026003600360BC
S31500004CE00360036003600360704700BF2041064015
S31500004CF02043064038B5384B33F82040054634B1DA
S31500004D00013CA4B22846FFF7CFFF002CF8D189005A
S31500004D1041F4C04189B20E2406E0FFF79FFF013C33
S31500004D204FEA410189B20AD011F4004F2846F4D067
S31500004D30FFF7BAFF013C4FEA410189B2F4D1274A95
S31500004D40274B002D08BF134601211C600C221C6056
S31500004D501C601C601C601C60013A1960FCD11A6062
S31500004D6010461A6011461A6010251A601A601A60F9
S31500004D7001221960196019601960196019601A60BA
S31500004D801A601A601A601A601A601C681A6040007D
S31500004D9080B2C4F3C004013D1A6040EA04001A6000
S31500004DA01A601A601A601960196019601960196032
S31500004DB01960DED11D600C221D6001211D601D6081
S31500004DC01D601D60013A1960FCD11A601A601A60F4
S31500004DD01A601A601A6038BDE40AFE1F20410640B8
S31500004DE0204306402A4B70B533F82060054614462A
S31500004DF036B1013EB6B22846FFF756FF002EF8D16F
S31500004E00890041F4A04189B20E2606E0FFF726FF8D
S31500004E10013E4FEA410189B20AD011F4004F2846FB
S31500004E20F4D0FFF741FF013E4FEA410189B2F4D1C8
S31500004E302846FFF739FF2846FFF710FF102105E047
S31500004E40FFF70CFF64000139A4B209D014F4004F37
S31500004E502846F5D0FFF728FF64000139A4B2F5D142
S31500004E600C4B0D4A002D0CBF1D4615460C23296020
S31500004E70012229602960296029602960013B2A6096
S31500004E80FCD12B602B602B602B602B602B6070BDE0
S31500004E90E40AFE1F204106402043064070B5164E28
S31500004EA0202305464FF40042002126F82030FFF764
S31500004EB099FF28460021FFF71DFF4FF400340346F3
S31500004EC004E0FFF717FF013C034612D01B044FF026
S31500004ED000012846F5D4FFF70DFF40F4807292B228
S31500004EE028460021FFF77EFF012326F82530002003
S31500004EF070BD4FF0FF3070BDE40AFE1F0C4B10B5BD
S31500004F0003EB8003044671B140F6E1525A80204615
S31500004F100421FFF767FF20464FF490520021BDE8B9
S31500004F201040FFF75FBF40F2E1125A80EFE700BF83
S31500004F30E40AFE1FF8B504460D46012116461F4633
S31500004F40FFF7D8FE20460121FFF7D4FE00F024002B
S31500004F50242831D11A4B03EB84035B885A0503D509
S31500004F60328842F0010232801B0503D5338843F0B4
S31500004F700203338020460521FFF7BCFE460544BFE9
S31500004F8001233B80040512D4810644BF01232B80F4
S31500004F90420644BF02232B80030644BF03232B8013
S31500004FA010F4807002D004232B800020F8BD3B88CB
S31500004FB043F002033B80E7E74FF0FF30F8BD00BF48
S31500004FC0E40AFE1F08B50121FFF794FE80F00400F5
S31500004FD040F3800008BD00BF00B583B0EFF3058045
S31500004FE020F0FEFCEFF303830C4A0193103B12689A
S31500004FF05BB252F83330186800F014FDEFF3038308
S31500005000A3F1100040B2019311F0E0FEEFF305802A
S3150000501003B05DF804EB20F0E1BC00BF1408070004
S315000050200123C0F80C33406815F086BF2DE9F04126
S31500005030D1E903358AB006467D4C0988C0F8D432DA
S3150000504000234020ADF81030ADF81210CDE906333C
S31500005050CDE908338DF81000C6F8D85206A9E368E2
S3150000506004A817469847002840F0BF800AAA23697B
S3150000507042F8140D014604A898479DF9143086F8A5
S31500005080143313F1210F00F0B0806A4A002B116827
S31500005090C0F2A48003F1604202F56142C02082F8AA
S315000050A0000351F8333004A81E60D6F8D452D6F85F
S315000050B0D84211F037FE604B9D4240F09F80DFF8EA
S315000050C090810121D8F81830202098470021D8F87F
S315000050D0208040F60600C047022021F0A5FB0121F2
S315000050E040F60600C047237843F0010323700120F1
S315000050F021F09AFB2B68514A43F002032B602B6880
S3150000510043F004032B602378D6F8B002D6F8B41225
S3150000511043F04003237000232062A1610D20A363A6
S3150000512040F20F713723A0642165A2622B6194F8C7
S315000051305830B26843F0010384F85830D2E90313BB
S315000051401A0C42EA01424FF4E02121679BB240F279
S31500005150EE501421C5F8C020C5F8C830A8602965EE
S31500005160A36F002F45D167F31143A367A36F0E22E8
S3150000517062F30503A367237C43F0010323742B7EAC
S3150000518043F004032B76236B43F400132363236B52
S3150000519043F480232363236B43F4800323630024B7
S315000051A0BDF81200C6F80843FFF778FE01301CD0A0
S315000051B02146BDF81200FFF7A1FE2C210122332360
S315000051C0CDE90221CDE9003306F5377033461C4A96
S315000051D01C4920F041F90AB0BDE8F0811A4A03F0F3
S315000051E00F000244C02010765BE743200AB0BDE8FA
S315000051F0F081022262F31143A367B7E7134B9D4286
S315000052007FF471AFDFF848800121D8F818301020FC
S3150000521098470021D8F8208040F60310C0470220A6
S3150000522021F002FB012140F60310C0475BE700BFF7
S315000052304C02070014080700004306409F0FFF4773
S315000052402150000078FA0600FCEC00E00041064020
S315000052508001070070B5D0F8086382B00025012EE2
S315000052600446ADF802508089ADF80450ADF80650FA
S315000052701DD00DF1060301AA0DF10201D4F8D46286
S31500005280FFF758FE01302FD0BDF80230042B50D066
S31500005290032B2BD0022B55D0012B2FD1336865F36E
S315000052A041033360336865F38203336026E0FFF71A
S315000052B089FEC8B1A368C4F808539D71606800F6FA
S315000052C0384293424BD000F68442934248D004F5CC
S315000052D03774204620F028F933222046114620F064
S315000052E099F8204620F08AF802B070BD336865F35D
S315000052F041033360336843F0040333602368A268D4
S3150000530013F004034FF0010118BF0B46C4F808134D
S315000053109371606800F638439A421CD000F68443C5
S315000053209A4219D004F53774204620F0FDF865221C
S31500005330D3E7336843F002033360336843F0040372
S315000053403360DBE7336843F002033360336865F3A9
S3150000535082033360D2E7002115F0F6FDE2E72E4620
S31500005360314615F0F1FDB2E738B590F91443D0F89F
S31500005370D452204611F02AFD002C0DDB63099B0058
S3150000538003F1604303F5614304F01F04012202FAAE
S3150000539004F4C3F880411C602B6843F040032B6083
S315000053A02B6843F020032B6038BD00BF2DE9F04188
S315000053B00446D1E9033086B0544E0988C4F8D43285
S315000053C040220023C4F8D802ADF80610ADF8043028
S315000053D0CDE90233CDE9043302A9F7688DF804203C
S315000053E001A8B847002840F08880D4F8D452D4F8F1
S315000053F0D882002D00F08180B8F1000F7DD02B6897
S3150000540060F386132B602B6860F345132B604122F3
S315000054100123ADF806008DF804208DF8053002A9A9
S3150000542001A8B847074600283FD098F8003043F057
S31500005430010388F80030022021F0F6F994F91403EC
S31500005440002849DB4409A40004F1604404F56144E2
S3150000545000F01F0301279F40C4F88070BFF34F8FF1
S31500005460BFF36F8F11F0B2FC294BC4F880719D42D7
S3150000547037D1284B00211B6A40F6060098470321C6
S3150000548001228DF80510F368ADF8062002A901A8DF
S31500005490984718B9029B1A68520432D401A811F031
S315000054A03DFC002006B0BDE8F081029A137843F077
S315000054B00103137098F8003043F0010388F80030B8
S315000054C0022021F0B1F9029A94F914031378002806
S315000054D067F300031370B5DA11F078FC0C4B9D42AC
S315000054E0C7D00D4B9D42D9D10A4B00211B6A40F60D
S315000054F00310984703210022C3E7432006B0BDE806
S31500005500F0811A6860F38E321A60C7E74C02070012
S315000055100043064080010700004106402DE9F84F90
S315000055200B685B07074640F19880D1F8B802002F58
S3150000553052D00301D1F8B48258F80320002A29DB9F
S315000055400025AE463C464FF0804CD4E902A2A2EBC1
S315000055500A0BBBF1100F02DC1AF01F0F61D108EB2A
S3150000556003096668C9F808A0A9F806B0F6B11F28AD
S3150000557014BF72466246431CA74203F01F03C9F8D4
S3150000558000207DD018461B01013558F80320002A5B
S315000055903446DADABA687B6A0E320E3BBA607B6250
S315000055A0384617F0C1F94920BDE8F88F1F280CBF0F
S315000055B04FF0A0434FF08053A742C9F80C70C9F8CA
S315000055C0003058D1D9F80020431C42F0005403F0B3
S315000055D01F006F1CC9F80040EFF3108372B6D1F8B4
S315000055E0BC423C44C1F8BC4283F31088C1F8B802FF
S315000055F05FB1D1F8B452431E03F01F000401013F0E
S315000056002B5943F000432B51F5D1D1F8D832986885
S3150000561010F001002CD11A7A42F001021A72BDE88C
S31500005620F88F0AF11F0626F01F06A6EB0A09BBF142
S31500005630000F91440DDD0BF1FF3201E0D4F808A014
S315000056401AF8028006F8028012F1FF32F6D2D1F87B
S31500005650B482C4E90269B24681E78268436A0E32BF
S315000056600E3B8260436217F05FF91420BDE8F88FA5
S315000056700020BDE8F88F431C03F01F006F1CABE74A
S31500005680D9F8002042F00052C9F800207AE700BF9E
S315000056902DE9F0470668D0F8188084B00023044648
S315000056A00D4617464360029300930393172E00F2AC
S315000056B05381DFE816F027007100E900FB002700A0
S315000056C0270027002700220122012901510151014B
S315000056D05101510151015101310147011800510198
S315000056E05101510131014FF446720021284668F0FC
S315000056F01CF97A69E369AB60C5F81023002004B091
S31500005700BDE8F0870B6800695A0740F1438183685A
S315000057100169A3F11002A3F10E079142876000F21E
S315000057202781426A0E324262002E00F02981062E3F
S3150000573000F026814FF6FF724FF0FF3743E904274A
S31500005740DFF8DCC2AA68B2F812E0D1684EEA01417D
S3150000575043F8081C1269A6F1050E1204BEF1010FEA
S3150000576043F8042C40F22281072E00F0388190F88D
S315000057703060062E06BF42F4064242F0DD0242F4D5
S31500005780006209BA12BA43E9021243E904C729467C
S31500005790FFF7C4FE6060B1E70E68002EAED10DF1D2
S315000057A0100901F11D0201F1AD0322F00F0223F0F1
S315000057B00F0349F80C6DC1F8B022C1F8B4324FF0AE
S315000057C0004A00231A464946D8F83C0616F000FE61
S315000057D04FEA061C002840F0EE800199D5F8B00289
S315000057E08B684A691F3323F01F0300EB0C0ED21A95
S315000057F0013622F01F02082E8B60AEF80620CEE995
S31500005800023140F80CA0DCD1036FD5F81023E6690D
S3150000581043F0804303673B88AB81AE60002A00F00B
S31500005820E7805368002B00F0E38002A89847DDE983
S315000058300212AB68C3E90312764B68465B68984769
S31500005840009B198B44F23542914200F0D680724B90
S3150000585001221A7039462846FFF7E8FBAB68D3E900
