S00F00005350535F454D532E73726563DB
S315000000009043FF1FE1910000518C0000DD9100003C
S31500000010DD910000DD910000DD9100000000000090
S31500000020000000000000000000000000DD9100005C
S31500000030DD9100000000000095CC000049CD0000D5
S3150000004065890000A10E0000695E0000154E0000E3
S31500000050894E0000E94C0000FFFFFFFFFFFFFFFF96
S31500000060FFFFFFFFFFFFFFFFFFFFFFFFFFFFFFFF9A
S31500000070FFFFFFFFFFFFFFFFFFFFFFFFFFFFFFFF8A
S31500000080FFFFFFFFFFFFFFFFFFFFFFFFFFFFFFFF7A
S31500000090FFFFFFFFFFFFFFFFFFFFFFFFFFFFFFFF6A
S31500000400FFFFFFFFFFFDFFFFFCFFFFFFFFFFFFFFFB
S31500000410FCFFFFFFFFFFFFFFFCFFFF00FFFFFF00EA
S31500000420FCFF0F20FFFF0F20FCFF7F40FFFF7F40F8
S31500000430FCFF0D40FFFF0D40FFFFFFFFFFFFFFFF2B
S31500000440FFFFFFFFFFFFFFFFFFFFFFFFFFFFFFFFB6
S31500000450FFFFFFFFFFFFFFFFFFFFFFFFFFFFFFFFA6
S31500000460FFFFFFFFFFFFFFFFFFFFFFFFFFFFFFFF96
S31500000470FFFFFFFFFFFFFFFFFFFFFFFFFFFFFFFF86
S31500000480FFFFFFFFFFFFFFFFFFFFFFFFFFFFFFFF76
S31500000490FFFFFFFFFFFFFFFFFFFFFFFFFFFFFFFF66
S315000004A0FFFFFFFFFFFFFFFFFFFFFFFFFFFFFFFF56
S315000004B0FFFFFFFFFFFFFFFFFFFFFFFFFFFFFFFF46
S315000004C0FFFFFFFFFFFFFFFFFFFFFFFFFFFFFFFF36
S315000004D0FFFFFFFFFFFFFFFFFFFFFFFFFFFFFFFF26
S315000004E0FFFFFFFFFFFFFFFFFFFFFFFFFFFFFFFF16
S315000004F0FFFFFFFFFFFFFFFFFFFFFFFFFFFFFFFF06
S31500000500E005FE1F4B002010EC05FE1F63014000B6
S315000005100806FE1FB6002B300C06FE1F860D1410B3
S315000005201006FE1F880D14201406FE1F870D1428C2
S3150000053020000000200001002F0000002F00010015
S315000005400C00010011000000300000003000010026
S3150000055024000000240001002400020024000300FF
S31500000560240004002400050013000000170000000A
S315000005702300000021000000210001000700000008
S31500000580070001000700020007000300070004003F
S31500000590070005000700060007000700120000001C
S315000005A044000000080000000B00000041000000AD
S315000005B0400000004000010004000000430000006D
S315000005C02B0000002B000A002B000B002B000C0058
S315000005D02B000D002B0001002B0002002B00030056
S315000005E02B0004002B0005002B0006002B00070043
S315000005F02B0008002B0009000600000006000A0078
S3150000060006000B0006000C0006000D0006000E009A
S3150000061006000F00060001000600020006000300A7
S315000006200600040006000500060006000600070096
S31500000630060008000600090015000000150001006C
S3150000064015000200310000002A00000045000000ED
S315000006501000000003010000030000000300010079
S315000006600F0000000D0000002D00000042000000F9
S315000006702C0000002C0001002C0002002C000300BE
S3150000068032000000280000001800000014000000DE
S3150000069014000100140002001400030014000400FA
S315000006A014000500140006001400070014000800DA
S315000006B01400090034000000340001001600000098
S315000006C0160001003500000036000000360001006B
S315000006D02200000033000000330100002900000062
S315000006E010B5054C237833B9044B13B10448AFF366
S315000006F000800123237010BDD804FE1F00000000F7
S31500000700EC64010008B5034B1BB103490348AFF382
S31500000710008008BD00000000DC04FE1FEC64010040
S31500000720062070470620704706207047062070474F
S3150000073006207047062070470620704718B1034B05
S315000007400360002070470120704700BF0A010601C0
S315000007502DE9F04343684F4A4F4C85B00646029256
S315000007609A68186893694FF48042039202A99847E1
S31500000770DDED027A9FED496A039B494AB8EE677A36
S3150000078007EE903AC6EE076A03EB8303C3EB031743
S315000007900DF1100803EB8303A4FB0717A4FB033436
S315000007A0002348F80C3D64257F096409F8EE677A52
S315000007B067EEA67AFCEEE77A17EE903A05FB03F5AC
S315000007C0A2FB0525C6ED027AAD0973689A6818681A
S315000007D0536941469847019B9F4201D99C4206D3E3
S315000007E0002DF2D001200BF041FE013DEDD17368E2
S315000007F0DFF8AC809A6818689368DFF8A890984785
S3150000080006F1140706F16405B368642000FB03F0E3
S31500000810A8FB0030C0090BF029FE01244FF0FF3180
S3150000082038460AF0DFFB204633460021DA6D2AB14E
S3150000083093F8582082B983F85800D96414339D423E
S31500000840F4D138460AF0F8FB002CDDD073689A68BC
S31500000850186893689847D7E7327C52B9D3E913C230
S3150000086012B1624588BF00245A6D624538BF002424
S31500000870E3E7B26C4A4501D00024DEE7D3E913C2B0
S3150000088094455A6D38BFC3F850C09445D5D9C3F8BE
S3150000089054C0D2E7008793031F85EB5100007A44CA
S315000008A0D34D6210464F5250F0B589B000284CD057
S315000008B000294AD00A68002A47D02D4B04689C427A
S315000008C04CD0002380F8583080F86C3080F88030A7
S315000008D080F8943080F8A8300C794260C3650367CD
S315000008E0C0F88430C0F89830C0F8AC308CBB0474C3
S315000008F0846493684BB304460D465B68D2E90001F5
S315000009009847064610BB04F11407384634230122E3
S3150000091018490AF0FBFA18BBAB680293B82001210C
S315000009204FF4806204F5B873CDE90510CDE90032C5
S31500000930CDE903662346104A104904F1B0000AF0D7
S31500000940C7FC78B90A4B236000E00126304609B09F
S31500000950F0BD01240A4B04748364CAE70826F5E750
S315000009606426F3E738460AF027FB6426EEE700BF65
S3150000097048435457644C0100510700007C4C010069
S31500000980464F525008B3124B02689A4201D00720D4
S31500000990704770B50646002546F8B05B04463046FB
S315000009A00AF092FD30460AF03BFDE5652567C4F87E
S315000009B08450C4F89850C4F8AC5084F8585004F1E8
S315000009C014000AF0F9FA284670BD0120704700BFEE
S315000009D04843545730B129B11B4B02689A4203D0A1
S315000009E007207047012070472DE9F04100F11408F7
S315000009F004460F4640464FF0FF310AF0F3FA00BBBB
S31500000A0006462346DD6D143345B10136052EF9D170
S31500000A1040460AF011FBCD20BDE8F0810BF044FC06
S31500000A2006EB8606D7E9002304EB8604C4E9142303
S31500000A30E06584F858504046E5640AF0FDFA284619
S31500000A40EAE76420E8E700BF4843545708B3194B68
S31500000A5002689A4201D00720704770B500F114066B
S31500000A6004464FF0FF3130460AF0BCFA054690B90D
S31500000A700BF01AFC2B462246D16D884202F1140275
S31500000A800BD00133052BF7D130460AF0D5FA0020FA
S31500000A9070BD01207047642070BD03EB830004EB3A
S31500000AA080000023C36580F8583030460AF0C4FA47
S31500000AB00020EDE74843545708B3194B02689A42A1
S31500000AC001D00720704770B500F1140604464FF0B8
S31500000AD0FF3130460AF086FA054690B90BF0E4FB82
S31500000AE02B462246D16D884202F114020BD0013307
S31500000AF0052BF7D130460AF09FFA002070BD012081
S31500000B007047642070BD03EB830004EB8000C36C68
S31500000B100133C36430460AF08FFA0020EEE700BFC7
S31500000B2048435457104B114A00280CBF184610462C
S31500000B300223032203600360036003600360036013
S31500000B40026002600260026002600260026002608F
S31500000B50026002600260026003600360036003607B
S31500000B6003600360704700BF2041064020430640F3
S31500000B70104B114A00280CBF1846104606230722C0
S31500000B800360036003600360036003600260026049
S31500000B90026002600260026002600260026002603F
S31500000BA00260026003600360036003600360036029
S31500000BB0704700BF204106402043064038B5384BF9
S31500000BC033F82040054634B1013CA4B22846FFF76D
S31500000BD0CFFF002CF8D1890041F4C04189B20E2420
S31500000BE006E0FFF79FFF013C4FEA410189B20AD0B8
S31500000BF011F4004F2846F4D0FFF7BAFF013C4FEA44
S31500000C00410189B2F4D1274A274B002D08BF13466C
S31500000C1001211C600C221C601C601C601C601C6096
S31500000C20013A1960FCD11A6010461A6011461A6022
S31500000C3010251A601A601A6001221960196019607D
S31500000C401960196019601A601A601A601A601A60D1
S31500000C501A601C681A60400080B2C4F3C004013DEB
S31500000C601A6040EA04001A601A601A601A60196075
S31500000C7019601960196019601960DED11D600C22B7
S31500000C801D6001211D601D601D601D60013A196017
S31500000C90FCD11A601A601A601A601A601A6038BDB0
S31500000CA0F404FE1F20410640204306402A4B70B53F
S31500000CB033F820600546144636B1013EB6B22846E2
S31500000CC0FFF756FF002EF8D1890041F4A04189B202
S31500000CD00E2606E0FFF726FF013E4FEA410189B2E4
S31500000CE00AD011F4004F2846F4D0FFF741FF013E29
S31500000CF04FEA410189B2F4D12846FFF739FF284669
S31500000D00FFF710FF102105E0FFF70CFF6400013923
S31500000D10A4B209D014F4004F2846F5D0FFF728FFF7
S31500000D2064000139A4B2F5D10C4B0D4A002D0CBF5D
S31500000D301D4615460C232960012229602960296079
S31500000D4029602960013B2A60FCD12B602B602B6057
S31500000D502B602B602B6070BDF404FE1F2041064003
S31500000D602043064070B5164E202305464FF4004238
S31500000D70002126F82030FFF799FF28460021FFF7CB
S31500000D801DFF4FF40034034604E0FFF717FF013C54
S31500000D90034612D01B044FF000012846F5D4FFF796
S31500000DA00DFF40F4807292B228460021FFF77EFFC5
S31500000DB0012326F82530002070BD4FF0FF3070BDAE
S31500000DC0F404FE1F0C4B10B503EB8003044671B10F
S31500000DD040F6E1525A8020460421FFF767FF20467D
S31500000DE04FF490520021BDE81040FFF75FBF40F27C
S31500000DF0E1125A80EFE700BFF404FE1FF8B504467F
S31500000E000D46012116461F46FFF7D8FE2046012152
S31500000E10FFF7D4FE00F02400242831D11A4B03EB4F
S31500000E2084035B885A0503D5328842F0010232807A
S31500000E301B0503D5338843F0020333802046052182
S31500000E40FFF7BCFE460544BF01233B80040512D4D0
S31500000E50810644BF01232B80420644BF02232B8018
S31500000E60030644BF03232B8010F4807002D00423B2
S31500000E702B800020F8BD3B8843F002033B80E7E768
S31500000E804FF0FF30F8BD00BFF404FE1F08B5012186
S31500000E90FFF794FE80F0040040F3800008BD00BF19
S31500000EA000B583B0EFF305800AF03AFCEFF3038355
S31500000EB00C4A0193103B12685BB252F83330186843
S31500000EC000F000FDEFF30383A3F1100040B201939D
S31500000ED008F04CF8EFF3058003B05DF804EB0AF078
S31500000EE01DBC00BF905701000123C0F80C334068B9
S31500000EF00DF058B82DE9F041D1E903358AB0064620
S31500000F00764C0988C0F8D43200234020ADF8103062
S31500000F10ADF81210CDE90633CDE908338DF810008F
S31500000F20C6F8D85206A9E36804A8174698470028C9
S31500000F3040F0BF800AAA236942F8140D014604A8AE
S31500000F4098479DF9143086F8143313F1210F00F0F9
S31500000F50B080634A002B1168C0F2A48003F160429E
S31500000F6002F56142302082F8000351F8333004A8BC
S31500000F701E60D6F8D452D6F8D84207F0ADFF594BCA
S31500000F809D4240F09F80DFF87481D8F81830012127
S31500000F90202098470021D8F8208040F60600C04758
S31500000FA002200BF063FA012140F60600C0472378C1
S31500000FB043F00103237001200BF058FA2B684A4ACC
S31500000FC043F002032B602B6843F004032B60237865
S31500000FD0D6F8B002D6F8B41243F0400323700023CB
S31500000FE02062A1610D20A36340F20F713723A06434
S31500000FF02165A2622B6194F85830B26843F0010370
S3150000100084F85830D2E903131A0C42EA01424FF42D
S31500001010E02121679BB240F2EE501421C5F8C020B2
S31500001020C5F8C830A8602965A36F002F45D167F3BE
S315000010301143A367A36F0E2262F30503A367237C04
S3150000104043F0010323742B7E43F004032B76236BBA
S3150000105043F400132363236B43F480232363236B3E
S3150000106043F4800323630024BDF81200C6F8084346
S31500001070FFF778FE01301CD02146BDF81200FFF7BD
S31500001080A1FE2C2101223323CDE90221CDE9003333
S3150000109006F537703346154A15490AF059FA0AB06B
S315000010A0BDE8F081134A03F00F00024430201076A9
S315000010B05BE743200AB0BDE8F081022262F31143E8
S315000010C0A367B7E70C4B9D427FF471AFDFF82C8026
S315000010D00121D8F8183010205BE700BFDC51010071
S315000010E090570100004306409F0FFF47E90E00009E
S315000010F0A44C0100FCEC00E000410640E450010075
S3150000110070B5D0F8086382B00025012E0446ADF80C
S3150000111002508089ADF80450ADF806501DD00DF18F
S31500001120060301AA0DF10201D4F8D462FFF766FEA8
S3150000113001302FD0BDF80230042B50D0032B2BD01A
S31500001140022B55D0012B2FD1336865F34103336051
S31500001150336865F38203336026E0FFF797FEC8B174
S31500001160A368C4F808539D71606800F22472934224
S315000011704BD000F25C72934248D004F53774204697
S315000011800AF04EFA3322204611460AF0BFF92046ED
S315000011900AF0B0F902B070BD336865F341033360FD
S315000011A0336843F0040333602368A26813F0040332
S315000011B04FF0010118BF0B46C4F80813937160681D
S315000011C000F224739A421CD000F25C739A4219D042
S315000011D004F5377420460AF023FA6522D3E733680C
S315000011E043F002033360336843F004033360DBE704
S315000011F0336843F002033360336865F38203336078
S31500001200D2E700210CF0D6FEE2E72E4631460CF07E
S31500001210D1FEB2E738B590F91443D0F8D45220463F
S3150000122007F0A4FE002C0DDB63099B0003F160436D
S3150000123003F5614304F01F04012202FA04F4C3F823
S3150000124080411C602B6843F040032B602B6843F001
S3150000125020032B6038BD00BF2DE9F0410446D1E9DB
S31500001260033086B0544E0988C4F8D4324022002395
S31500001270C4F8D802ADF80610ADF80430CDE9023353
S31500001280CDE9043302A9F7688DF8042001A8B84710
S31500001290002840F08880D4F8D452D4F8D882002DA3
S315000012A000F08180B8F1000F7DD02B6860F38613C3
S315000012B02B602B6860F345132B6041220123ADF8A8
S315000012C006008DF804208DF8053002A901A8B8475C
S315000012D0074600283FD098F8003043F0010388F80D
S315000012E0003002200BF0C2F894F91403002849DB01
S315000012F04409A40004F1604404F5614400F01F03AE
S3150000130001279F40C4F88070BFF34F8FBFF36F8FE4
S3150000131007F02CFE294BC4F880719D4237D1284B2B
S3150000132000211B6A40F606009847032101228DF82A
S315000013300510F368ADF8062002A901A8984718B968
S31500001340029B1A68520432D401A807F0C1FD00209E
S3150000135006B0BDE8F081029A137843F001031370DA
S3150000136098F8003043F0010388F8003002200BF0B3
S315000013707DF8029A94F914031378002867F30003A2
S315000013801370B5DA07F0F2FD0C4B9D42C7D00D4B3A
S315000013909D42D9D10A4B00211B6A40F606009847A8
S315000013A003210022C3E7432006B0BDE8F0811A6896
S315000013B060F38E321A60C7E7DC5101000043064035
S315000013C0E4500100004106402DE9F04F0B6883B060
S315000013D05B07019040F19880D1F8B842002800F0F0
S315000013E0A4802301D1F8B48258F80320002A2ADB0E
S315000013F00026B64605464FF0804CD5E90B92A2EB87
S31500001400090ABAF1100F02DC19F01F0F60D108EBC0
S315000014100307EA68C7F80890A7F806A002B31F2CCE
S3150000142004F1010314BF74466446854203F01F03AA
S315000014303C607CD01C461B01013658F80370002F17
S315000014401546DADA0198C26A83690E320E3BC26229
S31500001450836101A80CF066F9492003B0BDE8F08F5E
S315000014601F2C0CBF4FF0A0434FF080538542F8600D
S315000014703B6061D13A68631C42F0005203F01F04DE
S3150000148001363A60EFF3108372B6D1F8BC223244CB
S31500001490C1F8BC2283F31088C1F8B8425EB1D1F816
S315000014A0B452631E03F01F042201013EAB5843F001
S315000014B00043AB50F5D1D1F8D832986810F001004E
S315000014C02FD11A7A42F001021A7203B0BDE8F08FEA
S315000014D009F11F0727F01F07A7EB090BBAF1000F49
S315000014E093440DDD0AF1FF3201E0D5F82C9019F88E
S315000014F0028007F8028012F1FF32F6D2D1F8B482E8
S31500001500C5E90B7BB94682E7C26A83690E320E3B98
S31500001510C262836101A80CF005F9142003B0BDE88E
S31500001520F08F002003B0BDE8F08F0646AAE73C68BE
S3150000153044F000543C607DE7631C03F01F04013651
S31500001540A0E700BF2DE9F0470668D0F8188084B000
S31500001550002304460D461746436002930093039307
S31500001560132E00F24A81DFE816F023006800E0003F
S31500001570F200230023002300230019011901200192
S3150000158048014801480148014801480128013E0137
S3150000159014004FF446720021284611F0F4FF7A69D0
S315000015A0E369AB60C5F81023002004B0BDE8F087FE
S315000015B00B685A0740F141810069C36A416AA3F189
S315000015C01002A3F10E079142C76200F222818269DE
S315000015D00E328261002E00F02681062E00F0238155
S315000015E04FF6FF724FF0FF3743E90427DFF8D0C20A
S315000015F0AA68B2F812E0D1684EEA014143F8081C25
S315000016001269A6F1050E1204BEF1010F43F8042C6F
S3150000161040F22081072E06BF42F4004242F0350216
S3150000162042F4006209BA12BA43E9021243E904C756
S315000016302946FFF7C9FE6060B6E70E68002EB3D1F3
S315000016400DF1100901F11D0201F1AD0322F00F02A7
S3150000165023F00F0349F80C6DC1F8B022C1F8B4327B
S315000016604FF0004A00231A464946D8F838010BF0D5
S3150000167049FF4FEA061C002840F0F1800199D5F891
S31500001680B002D1E90A231F3323F01F0300EB0C0E2F
S31500001690D21A013622F01F02082ECB62AEF80620BF
S315000016A0CEE9023140F80CA0DCD1036FD5F8102347
S315000016B0E66943F0804303673B88AB81AE60002A4E
S315000016C000F0E5805368002B00F0E18002A89847FF
S315000016D0DDE90212AB68C3E90312764B68465B6824
S315000016E09847009B198B44F23542914200F0D48012
S315000016F0714B01221A7039462846FFF7FBFBAB688F
S31500001700D3E90323C6E90323002800F0BC80432362
S3150000171063600223012100227171B271A26940F255
S31500001720DC513162C5E900323EE70B68980777D590
S3150000173013F00401E26969D143F004032B60616090
S31500001740D5F8083393712846FFF764FD2CE70B683C
S31500001750590727D595F91423C069002A0EDB5309CA
S3150000176020330121554C02F01F0201FA02F244F81F
S315000017702320BFF34F8FBFF36F8F2B68D5F8D4228A
S3150000178011686FF386111160116823F004036FF37B
S315000017904511002411602B60847105E70B685B0717
S315000017A03FF502AF14236360FEE68A6843699279C7
S315000017B01A60002004B0BDE8F08701F5377009F023
S315000017C03BFF39462846FFF747FD0024D5F8B0020F
S315000017D020440C3010340BF089FF802CF6D1002009
S315000017E004B0BDE8F087D1F80C33012B2BD00023D1
S315000017F00020636004B0BDE8F0874369442141607E
S31500001800002200201A6004B0BDE8F087152363604B
S3150000181096E74323636004F110000BF083FFC3E6F1
S3150000182043236360C0E6A26843F8102CE76843F8D8
S315000018300C7C92FA82FC3FBADAE61423436010303D
S315000018400BF070FFB0E60023C1F80C330846FFF733
S3150000185057FCCCE742F4006242F00602E2E66EB1C3
S3150000186006F18056013E3601D5F8B00230440C3000
S31500001870103E0BF03BFF16F1100FF5D1012243236A
S315000018802A60636090E62B6843F0020342E7D7E9DB
S315000018900123C6E9032320E79A7E352A7FF428AF81
S315000018A093F83430022B7FF423AF034B00221A70D7
S315000018B021E700BFDC510100FC04FE1F00E100E04F
S315000018C00000FFFF002800F06A812DE9F04FD0F8F4
S315000018D0D832D0F8D4128046986A0A6998628BB0DA
S315000018E010F4101F029100900A6140F02081009BC5
S315000018F05F0316D4009B590210D5029BD8F8081036
S315000019009A6AD8F80030D20759BF43F0040301227F
S3150000191023F0040300228A71C8F800300BB0BDE83A
S31500001920F08FD8F8043000220892002BE2D0D8F8C5
S31500001930C422D8F8B00216014FF0010B8359DD001E
S3150000194002F1FF3400F19181002BD3DB03465D46A3
S3150000195001E0002FCEDBA91801F0070109010BF108
S31500001960010B475817F0805F01445D46F1D03044C3
S315000019708D88C068CE6807900235BBF1010185618C
S31500001980019100F07A8108A9CDF810B000240391E6
S315000019904FF0404A94468B4625E0089AD8F8B03274
S315000019A0D16AD8F8C4C2072F01F11F01976A03EB69
S315000019B0090E21F01F01A7EB0107CEF80C2027F036
S315000019C01F07D16214BF4FF000425246AEF80670B0
S315000019D0CEF80810AEF8040043F80920019A013445
S315000019E0944200F0DD8004EB0C0707F007074FEA8E
S315000019F0071903EB0901781CCA68B1F806C0D16A59
S31500001A0000F0070003EB0013D8F80400DB68D3608E
S31500001A106144002311631661D0F838011A4659460D
S31500001A20A5EB0C050BF06EFD0028B6D0DDF810B066
S31500001A30002C40F00C81D8F8C43204935C452DD2BA
S31500001A40E018D8F8B0E2CDF814B05B444FF0000AC5
S31500001A504FF040499B4600F007034FEA031C0EEB8C
S31500001A600C01072BCF68D7E90A2303F11F0323F0E4
S31500001A701F03A2EB030200F10100FB6222F01F022A
S31500001A8014BF4FF000474F468345CA808B60A1F8CC
S31500001A9004A04EF80C70DED1DDF814B0019BA34211
S31500001AA0049B00F2ED805C1EF36AD8F804200399CB
S31500001AB0D2F838011D4400235C443563F3601A46AE
S31500001AC004F007040BF01EFD00286ED00896D6E938
S31500001AD00A23D8F8B0021F3323F01F032501D21AB8
S31500001AE0411922F01F02CE60F362CA80D8F8C422E0
S31500001AF08B60072C5A440CBF4FF040434FF0004315
S31500001B0002F0070200278F80160143518359C8F857
S31500001B10C422002BBFF613AFD8F8D8321A69D00703
S31500001B203FF5E8AE1A7C42F001021A74E2E6D8F8F4
S31500001B300430002B3FF4DBAED8F8BC42002C3FF457
S31500001B40D6AED8F8C022D8F8B4021301013CC15869
S31500001B500029184414DACAE6013202F01F02C8F856
S31500001B60BC421301C8F8C022002C3FF4C0AED8F81E
S31500001B70B402C158002904F1FF341844FFF6B7AE89
S31500001B80CE00E9D550F80C3FD96A9A690E310E3A63
S31500001B909A61D9620BF0C6FDD8F8C022DCE770471F
S31500001BA0DDF810B00CF1FF347EE70798D8F808305E
S31500001BB0C66AC3613F4BB1891A78099049BA89B29E
S31500001BC0836932BB0F3323F01F0303F10A02143B70
S31500001BD03244334406F10E0715681D6252F8045C60
S31500001BE0DD6152F8085C9D6152F80C5C5D6152F84B
S31500001BF0105C1D6152F8145CDD6052F8185C9D6043
S31500001C0052F81C5C5D60203A9742A3F12003E3D3AF
S31500001C1083691036103BB1F5006FC66283610FD041
S31500001C2040F60603994231D048F23503994239D03D
S31500001C30D8F810338BB31B687BB39847089E46E7EA
S31500001C400146D8F804000CF0EFFA089E3FE7D8F8F2
S31500001C50B0227B1E03F0070302EB03130022DB68AE
S31500001C6007A8DA600BF042FDE5E60BEB040101F094
S31500001C70070100EB0111034679E608AB039313E76E
S31500001C805B4403F00703C8F8C43245E70146D8F8B9
S31500001C9004000BF0A5FE089E19E709A80BF026FD27
S31500001CA0089E14E70146D8F804000CF051FE089E81
S31500001CB00DE700BFFC04FE1FD0F82001012383635B
S31500001CC000F5D47009F0E8BB21B3013970B4013ACC
S31500001CD04518013808E003F12001A342C9B201D03A
S31500001CE0A14211D1A84212D010F8013F12F8014FBB
S31500001CF0A3F161011929A3F14106A3F12001ECD951
S31500001D00192EE8D9A342EDD0E22070BC704700201E
S31500001D1070BC704708467047F0B4D0E90B46002205
S31500001D2004F111030A609E4294F900206AD9002A40
S31500001D3000F08D802346A6F1110504E0AB4261D088
S31500001D40002A00F084801F4622F020000133432839
S31500001D501C4693F90020F1D122F020004F28EDD146
S31500001D6093F9010020F020004E28E7D193F90200F4
S31500001D7020F020005428E1D193F9030020F0200040
S31500001D804528DBD193F9040020F020004E28D5D158
S31500001D9093F9050020F020005428CFD193F90600CE
S31500001DA02D28CBD193F9070020F020004C28C5D16F
S31500001DB093F9080020F020004528BFD193F90900C7
S31500001DC020F020004E28B9D193F90A0020F0200017
S31500001DD04728B3D193F90B0020F020005428ADD149
S31500001DE093F90C0020F020004828A7D193F90D00A4
S31500001DF03A28A3D193F90E0020289FD197F91020F5
S31500001E0007F11004B4421BD2A2F13003DBB2092B56
S31500001E1098BF002306D913E0A2F13005EDB2092DD3
S31500001E2004460DD803EB83035B0020460B6010F9D4
S31500001E30012B303B13440B60B04294F90120EBD3E5
S31500001E40202A02D10020F0BC70470D2AFAD0EF20DC
S31500001E50F0BC70472DE9F04389B00F4616460021C5
S31500001E604FF421724FF40065994600F17C08044650
S31500001E7011F089FB00234FF0800C02954FF480454A
S31500001E80CDE9005C41463A463046CDE903330DF0D4
S31500001E900BFB054618B1284609B0BDE8F08305904E
S31500001EA011980190102310980090B8210122CDE9D5
S31500001EB0033206910293114A1149234604F5D47060
S31500001EC009F006FA054690B9129A0E4BC4F89C41E1
S31500001ED0C4E90F29139AC4F86C22149AC4F8742220
S31500001EE02846C4E90176236009B0BDE8F083404680
S31500001EF00DF052FB284609B0BDE8F0831D390000FD
S31500001F00FC4C010051545448F0B5DDF814C0079F4D
S31500001F10DDF828E0FAB11668114CA6421BD1D0B103
S31500001F2004F17F44056804F5862404F23144A54291
S31500001F3011D0BCF1000F0ED06FB1BEF5217F0AD1D2
S31500001F40FD69D5E90954641BB4F5177F05DBBDE8C7
S31500001F50F040FFF77FBF0720F0BDE920F0BD00BFCE
S31500001F602020504930B583B00446094B8068009361
S31500001F7004F17C02052350210DF07EF8054618B9C0
S31500001F8004F5D47009F088FA284603B030BD00BFC6
S31500001F90B91C000018B10268034B9A4201D0072011
S31500001FA07047FFF7DFBF00BF5154544838B500F102
S31500001FB07C050446002128460DF032FB28460DF02C
S31500001FC073F9A06850210DF0E1F9002038BD00BF7B
S31500001FD070B10268084B9A420AD1EFF30583074AAB
S31500001FE01268134306D1064B1B681BB1FFF7DEBF11
S31500001FF00720704711207047515454485403FE1F60
S31500002000A42AFF1F2DE9F04F87B0002300F17C0BB7
S3150000201003910B6080464FF47A72584604A90DF07E
S315000020200FFC8146A8B9049FFC6A94F9001021F0C0
S315000020302002A2F14703DBB2012B0ED9502A0CD0A5
S3150000204021F03001442908D038460CF0FBFB4FF054
S31500002050E009484607B0BDE8F08FD7E909239B1A87
S31500002060B3F5177F4BDB3A6B00254FF47A7AA24221
S3150000207006D8FB68BBB1D3E90B42A2421F46F8D98A
S3150000208015F0010194F9003004D00A2B04D0002584
S315000020900134ECE70D2BFAD10135042DF8D1DDE939
S315000020A003231360D5E74FF47A7205A958460DF05D
S315000020B0C7FB002834D1059E16B91BE0F668C6B1E9
S315000020C0D6E90B12D8F83C300498CDF800A0521A85
S315000020D00CF074FA0028F1D0039004980CF0B2FBCF
S315000020E0039B059899460CF0ADFB484607B0BDE842
S315000020F0F08F059E30460CF0A5FB3A6BB7E74FF420
S315000021007A733846D8F83C2005A90CF017FA03462E
S3150000211004983BB90CF096FB059F0497FC6AA2E76E
S315000021200346049899460CF08DFB92E70023F0B421
S315000021300B70D0E90B5405F10F02A24280F0BF806C
S3150000214095F900304BB9BAE00132944200F0B680FE
S3150000215012F90F3C002B00F0B28023F02003412B34
S31500002160F2D112F90E3C23F02003552BECD112F9D3
S315000021700D3C23F02003542BE6D112F90C3C23F03E
S315000021802003482BE0D112F90B3C23F020034F2B00
S31500002190DAD112F90A3C23F02003522BD4D112F9DA
S315000021A0093C23F02003492BCED112F9083C23F039
S315000021B020035A2BC8D112F9073C23F02003412BE8
S315000021C0C2D112F9063C23F02003542BBCD112F9DC
S315000021D0053C23F02003492BB6D112F9043C23F029
S315000021E020034F2BB0D112F9033C23F020034E2BD2
S315000021F0AAD112F9023C3A2BA6D112F9013C202BA6
S31500002200A2D1A24212D292F90030202B08BF531C51
S3150000221004D078E092F90050202D53D1A3421A46FB
S3150000222003F10103F6D1A51D03D24EE0951DA5428B
S3150000223044D292F90060002E47D0D71D13462A4695
S3150000224009E0A74203F1010226D293F901600137A2
S31500002250DEB31346624626F02006422EBC46F0D177
S3150000226093F9015025F02005412DEAD193F902504A
S3150000227025F02005532DE4D193F9035025F02005D0
S31500002280492DDED193F9045025F02005432DD8D1F0
S3150000229093F90550202DD4D1A2420FD292F90030E5
S315000022A0202B08BF531C04D011E092F90050202DBA
S315000022B00DD1A3421A4603F10103F6D300231846B3
S315000022C0F0BC7047951DA542B3D3A242F6D292F94F
S315000022D0004034F02003F2D00D2CEFD0013901324A
S315000022E0002308E012F9014B34F02005E7D00D2C4D
S315000022F0E5D0372BE3D001F8014F046B944203F18C
S315000023000103EFD8DBE7951DAC4292D8DDE700BFAD
S3150000231000230B70F0B4D0E90B45AC420ED294F911
S315000023200030202B0DD0631C03E094F90060202EB2
S3150000233007D09D421C4603F10103F6D1E020F0BC14
S31500002340704704F10806AE4204F1010307D294F97E
S3150000235001702F2F03D027F02007482F59D0AB420A
S31500002360ECD293F900402F2CE8D1013A002608E080
S315000023708C550133056BAB4206F1010674D293F915
S315000023800040202C75D024F004073B2F67D09642DE
S3150000239065D0252CECD19C1CA54265D95D78A5F1AC
S315000023A03004E4B2092C10D9A5F16104052C0AD930
S315000023B0A5F14104052C57D8A5F1370464B28C5514
S315000023C001EB060C05E0A5F1570464B28C5501EB50
S315000023D0060C24018CF800409F78A7F13005EDB279
S315000023E0092D04D82C448CF800400333C2E7A7F12A
S315000023F06105052D08D9A7F14105052D34D8373FCC
S315000024003C448CF80040F0E7573F3C448CF80040D1
S31500002410EBE794F90270742F32D0542F9FD194F9C0
S315000024200470702F9BD194F905703A2F97D194F9C7
S3150000243006702F2F93D194F907702F2F8FD194F90F
S3150000244008301BB32F2B21D0093404E014F9013BCB
S31500002450E3B12F2B1AD0AC422646F7D16EE791F99D
S3150000246000300BB13B2F08D00023E0200B70F0BCEE
S31500002470704791F90030002BF6D0002088555EE7B2
S3150000248094F90370742F7FF46AAFC8E7334668E7A0
S31500002490D0E90B31DA1C914221D993F90020DAB147
S315000024A00339C91A002007E00130884203F101030D
S315000024B013D093F900208AB10D2AF5D193F90120A2
S315000024C00A2AF1D193F902200D2AEDD193F90320BE
S315000024D00A2AE9D104307047104670477047002039
S315000024E0704700BFF0B4174F01F1FF3C0023A7FB74
S315000024F00024E40804EB8402A0EB4200303046B22C
S315000025005D1C2046A3B10CEB050313F8012C03F860
S3150000251001299942F9D10E7074B10A2D01D02B46CA
S31500002520E5E70025302328468D720B70F0BC704716
S315000025300E70002CF3D10125002328464B55F0BC24
S31500002540704700BFCDCCCCCC2DE9F04F0C4687B000
S31500002550064603A92046984617460DF0D7FE80BBCF
S31500002560039ABA422DD1A1180546A35680F0A3803E
S315000025702E2B00F0A2802F2B12D0481E01320124F0
S3150000258005E02E2B22D02F2B04F1010408D0944213
S31500002590014690F9003000F1FF30F2D12E2B15D014
S315000025A0109B0A2B0ED9464B03CB1A889B78C8F88A
S315000025B00000C8F80410A8F8082088F80A300A2590
S315000025C000E0E025284607B0BDE8F08F013CD6F8CC
S315000025D064324A1C009213B1D6F8682292BB04AF4B
S315000025E0DFF8E4B0109B374E01950BF1280A03F192
S315000025F0FF3901E05BF8086F2246394630460DF098
S3150000260085FE4A4605A940B9DBF8045028460DF078
S315000026107DFE10B9049AA24206D0D345EAD1109B9A
S31500002620019D0A2BCED9BEE7324621460098FFF718
S315000026304BFB0028F1D12946059D40466A1C10F047
S315000026407EFFBFE7109A4FF0000B04AF02F1FF3A8E
S3150000265005E0D6F868329B45C2D2D6F8643253F804
S315000026603B00224639460DF051FE4FEACB09524651
S3150000267005A90BF1010B0028EBD1D6F864324B44C7
S3150000268058680DF043FE0028E3D1049BA342E0D135
S31500002690D6F86432009853F8092021469944FFF78A
S315000026A013FB0028D5D1059DD9F8041040466A1CB5
S315000026B010F045FF86E7044670E74FF0FF3486E7E3
S315000026C0884F0100804F0100004E010001EB4101DF
S315000026D0C1F39C012DE9F04300297ED090F900302A
S315000026E0002B7AD03D2B78D04FF000084646C646E0
S315000026F0154621E0A3F141040EF1010C10F90C304E
S31500002700DFB2A7F14109B9F1190F38D8413B2F467D
S31500002710B8F1000F1CD11B0943EA840301362B7064
S315000027209519E6462F464FF001088E4223D210F93E
S315000027300E3003B33D2B1ED0DCB2A4F14107192F96
S31500002740D8D9A4F16107192F20D8A3F14704D3E7FC
S31500002750B8F1010F24D0B8F1020FE6D1013643EAF1
S3150000276084132B708E4202EB06050EF1020E2F46E5
S315000027704FF00008DBD300233B70BDE8F083A7F1E0
S315000027806109B9F1190F06D8473BC0E7303C092C5F
S3150000279011D81C1DB0E7303F092F13D80433B6E714
S315000027A09B0843EA041301362B709519E6462F461B
S315000027B04FF00208B9E72B2B0DD02F2B14BF0024A6
S315000027C03F2499E72B2B04D02F2B14BF00233F2344
S315000027D09DE73E239BE73E248EE7174600233B708A
S315000027E0BDE8F0832DE9F04786B06C4FDDF840A0D8
S315000027F06B4E0391002405463888ADF814004FF05F
S31500002800220C8946904621463822CAF8004065487F
S31500002810ADF810C01F4610F0B6FE214630462A22FB
S3150000282010F0B1FE48465F49FFF780FC08B34FF051
S3150000283001090146CAF8009032465A48FFF746FF9A
S3150000284098F90030002B00F0A68021464246344617
S3150000285001E02A290DD014F901CB9C4518BF4FF091
S31500002860000912F9013F0131002BF2D1B9F1000F35
S315000028706CD14FF0FF33382203A9E86B0BF004FE4E
S31500002880044630B16B6E01336B66204606B0BDE878
S31500002890F0874FF0FF34EB6B43490094082203980E
S315000028A00BF08CFEEB6B41490094012203980BF070
S315000028B085FEEB6B3E490094102203980BF07EFEDA
S315000028C0EB6B0398009405A902220BF077FEEB6BE5
S315000028D0384900941E2203980BF070FEEB6B0398A8
S315000028E0009404A901220BF069FEEB6B0398009497
S315000028F0DDE90E120BF062FEEB6B0398009404A95F
S3150000290001220BF05BFEEB6B0398009405A90222F3
S315000029100BF054FEEB6B0398009405A902220BF012
S315000029204DFE05F17C004FF47A7203990DF004FA1E
S31500002930044630B103980BF085FF204606B0BDE88B
S31500002940F087E424204606B0BDE8F0872A2990D017
S3150000295073563A2B8DD197F9003001319BB12A2954
S3150000296087D07018012201E02A2982D010F9014B84
S315000029709C4218BF002217F9013F0131002BF3D109
S31500002980002A3FF476AF2A293FF473AF7456002C21
S315000029907FF46FAF79E71946DAE700BFB44C010060
S315000029A00005FE1F2C05FE1FB84C0100C44C01009B
S315000029B0C84C0100DC4C01002DE9F843D0E90B4876
S315000029C01546A218904506461F460CD9894603E0CF
S315000029D001346319984506D94A4629462046FFF729
S315000029E073F90028F4D10135631943452FD2625D8E
S315000029F0202A02D005E0434529D013F8012F202ACA
S31500002A00F9D0089A1AB39A1C904520D3089A7C1ECE
S31500002A1003EB020C002009E0624500F1010004F816
S31500002A20011F134616D0326BAA4210D31A46DD1C7C
S31500002A3012F8011B0D29EFD15B780A2BECD1089B0C
S31500002A40834204D048B900203870BDE8F883E620F8
S31500002A50BDE8F883089B8342F9D0421EBB18BA5CD6
S31500002A60202A18BF3F1804D0EDE713F8012D202ABD
S31500002A7004D1BB42A3EB0701F7D1E4E70F44E2E739
S31500002A80F0B4534BC479534A53F82440524E94F948
S31500002A9000500D70C57953F8255095F901504D70C9
S31500002AA0C57953F82530202793F902308B702C24F2
S31500002AB0CC700F71C478A2FB0453DB08A2FB03C5DC
S31500002AC0ED0803EB830C05EB8505A4EB4C04A3EBA7
S31500002AD045034FF0303C30343033C1F805C08C71BB
S31500002AE0CF714B71837856F8233093F900300B720F
S31500002AF0837856F8233093F901304B72837856F871
S31500002B00233093F902308B7201F11004CF720588DD
S31500002B10C1F80CC001F10C0CA2FB0563DB0803EB4A
S31500002B2083071E46A5EB4703303304F8013DA44551
S31500002B303546F1D120250D740479A2FB0463DB0828
S31500002B40A2FB0376F60803EB830706EB8606A4EBE7
S31500002B504704A3EB46034FF0303C30333A2630347B
S31500002B60C1F811C04B748C74CE744779C1F814C087
S31500002B70A2FB0734E408A2FB04C3DB0803EB8303D0
S31500002B80A4EB430304EB8404A7EB44043034303352
S31500002B904C758E750B7580794D76A2FB0043DB086C
S31500002BA0A2FB0342D20803EB830402EB8202A3EBEF
S31500002BB04202A0EB4400303047254D2430325423E6
S31500002BC008768D76CC761D20CA750B77F0BC7047DB
S31500002BD0F001FE1FCDCCCCCCC001FE1F2DE9F04F7D
S31500002BE0A64C8FB005462488C06BADF808409246C7
S31500002BF09B4638224FF0FF330E460BF045FC00286B
S31500002C0040F0B18007229E493668504610F088FC95
S31500002C1011229C498146504610F082FC4FF0FF3746
S31500002C20EB6B994900970822804630460BF0C6FCAC
S31500002C30EB6B964900970446012230460BF0BEFC2A
S31500002C40EB6B009704445A46514630460BF0B6FCEF
S31500002C50EB6B0097044402A9304602220BF0AEFC4F
S31500002C60199B0444C3B1EB6B894900970E22304689
S31500002C700BF0A4FCEB6B0097DDE919128246304697
S31500002C800BF09CFCEB6B00978244022202A93046B3
S31500002C900BF094FC54440444189AEB6B002A6AD156
S31500002CA04FF0FF3A11227B49CDF800A030460BF0D9
S31500002CB085FCEB6BCDF800A00746022202A9304640
S31500002CC00BF07CFC38440444D5F87C326BB304A882
S31500002CD0984706A904A8FFF7D3FE4FF0FF3AEB6B1F
S31500002CE06D49CDF800A08346062230460BF066FCFF
S31500002CF0EB6BCDF800A007465A4606A930460BF006
S31500002D005DFCEB6BCDF800A00744022202A9304619
S31500002D100BF054FCD5F880323C4404442BB1B9F195
S31500002D20000F58D0B8F1000F55D01B9AEB6B4AB183
S31500002D304FF0FF3200923046DDE91B120BF03EFCED
S31500002D40EB6B04444FF0FF32009202A90222304698
S31500002D500BF034FC241802D030460BF073FD2046ED
S31500002D600FB0BDE8F08F6B6E0446013320466B66EC
S31500002D700FB0BDE8F08F4FF0FF371122454900979D
S31500002D8030460BF01BFCEB6B00970222824602A931
S31500002D9030460BF013FC06A982441898FFF7A2FBF5
S31500002DA05444EB6B3D4900978246102230460BF0A7
S31500002DB005FCEB6B00970444524606A930460BF01F
S31500002DC0FDFBEB6B00970444022202A930460BF090
S31500002DD0F5FB044478E7D5F86022012AA5D104AAB8
S31500002DE003A905F10C00984701289ED14FF0FF3842
S31500002DF0EB6B2B49CDF80080172230460BF0DEFB3B
S31500002E0006A907460398FFF76DFBEB6BCDF800802C
S31500002E10024606A930460BF0D1FBEB6BCDF80080DD
S31500002E200744022202A930460BF0C8FB3C44044486
S31500002E30B9F1000F7FF479AF06A904A8FFF720FEC9
S31500002E40EB6B1849CDF8008081460F2230460BF017
S31500002E50B5FBEB6BCDF8008007464A4606A930461F
S31500002E600BF0ACFBEB6BCDF800800744022202A905
S31500002E7030460BF0A3FB3C44044456E7B44C010037
S31500002E80304D0100384D0100B84C0100C44C010022
S31500002E904C4D01005C4D0100704D0100A04D01003C
S31500002EA0784D0100904D0100F0B589B007460F9DA1
S31500002EB01C46002B54D05DB30E9B9C46109B0026EF
S31500002EC09C44CDE903661346CDE901660A46CDF872
S31500002ED000C007A9FFF782FEB0B94FF0FF36FB6BC3
S31500002EE00E9A0798009621460BF068FBFB6B109A2A
S31500002EF000960446294607980BF060FB2044079984
S31500002F00F8B108460BF09EFCE024204609B0F0BD5F
S31500002F100E9B0093CDE903551346CDE901550A46AC
S31500002F2007A9FFF75BFE0028EED14FF0FF32FB6BDF
S31500002F300798009221460E9A0BF040FB079900284D
S31500002F40DFD107F17C004FF47A720CF0F5FE0446EF
S31500002F500028DAD007980BF075FC204609B0F0BDC2
S31500002F60CDE90333CDE90133009313460A4607A999
S31500002F70FFF734FE0028C7D1079907F17C004FF40C
S31500002F807A720CF0D9FE04460028BED0E2E700BFF4
S31500002F902DE9F0430E4695B000F10C0800240546D5
S31500002FA0414630462922CDE90B44CDE90D44CDE911
S31500002FB00F441194FFF7ACF960B111230093CDE9EA
S31500002FC001442846B14BB2490F22FFF76DFF15B0F9
S31500002FD0BDE8F083074607A93046FEF79DFE60B1BF
S31500002FE020230093CDE901772846AA4BA8490F2252
S31500002FF0FFF75AFF15B0BDE8F0833046FFF748FAF1
S315000030000446002836D0D5F86C92D5F87072B9F11E
S31500003010000F3AD0002F67D00DF1380C0AA80DA981
S3150000302009AA0CABCDE90121CDE9030C0093424678
S3150000303008AB04212846B8470746A7F1E403012B4D
S315000030405DD9E32F23D017B3D5F87832002BBED045
S315000030500B9B002BBBD013AA12A905F17C000CF028
S31500003060CDFB0028B3D1D5F8783212994046042218
S315000030709847ACE72023CDE9010000932846864B0C
S3150000308083490F22FFF710FFA1E7002FC4D1D5F81F
S3150000309074729FB13346424604212846B84768B148
S315000030A0E8284FF0000366D01922CDE901332846FF
S315000030B000927A4B7A49FFF7F7FE88E7079B002BC9
S315000030C085D04146286CFDF72DFB814600285BD054
S315000030D000231C22CDE9013300922846714B70492A
S315000030E01922FFF7E1FE72E70AAA09ABCDE9003221
S315000030F0042108AB42462846C84707469DE71422E6
S315000031000FA908980DF002F900287FF460AF142289
S3150000311010A909980DF0FAF800287FF458AF4FF47B
S31500003120806211A90A980DF0F1F800287FF44FAFDC
S31500003130D5F8703273B10E9A119B9A427FF447AF5D
S315000031400C9A0F9B9A427FF442AF0D9A109B9A42BB
S315000031507FF43DAFE42F7FF477AF11980A99019081
S315000031600BA802900091DDE9082331462846FFF7B7
S3150000317039FB074665E72846CDE901330093062269
S315000031804949FFF791FE22E705F1740742463946A1
S315000031900123286CFDF7CAFA00283FD1D6E90B12A5
S315000031A0521AA24251D8079BF468B3B1002C5FD0E3
S315000031B0D4E90B3238461946D21AFDF7BDFA002873
S315000031C037D1D4E90B02079B296EE468121A9B1AC1
S315000031D00A4407932A66002BE8D113AE3846FDF75A
S315000031E0A7FA0023CDE90333CDE901330093314635
S315000031F006232D4A2846FFF7F1FC00287FF4E7AEA8
S3150000320005F17C004FF47A7213990CF095FD0028B5
S315000032103FF4DDAE13980BF015FBD8E61A230093A6
S31500003220CDE901992846214B1D491922FFF73CFE9D
S31500003230CDE600231B22CDE90133009228461C4B24
S3150000324017491922FFF730FEC1E6121B2144384602
S31500003250FDF772FA0028ECD1D6E90B02079B296E1E
S31500003260121A9B1A0A442344141B07932C669BE7E5
S3150000327005F17C0813AE4FF47A72314640460CF0E5
S31500003280DFFA002841D1139C20E000BF304E010038
S31500003290444E0100544E0100784E01009C4E010040
S315000032A0B84E0100D44E0100304D0100F44E01002D
S315000032B0104F0100D4E90B01079B2A6EE468091A36
S315000032C05B1A0A4407932A66C3B1BCB1D4E90B3230
S315000032D038461946D21AFDF72FFA0028EAD00023FD
S315000032E01B22CDE90133009228460D4B0D491922C8
S315000032F0FFF7DAFD13980BF0A5FA68E613980BF0C2
S31500003300A1FA079B002BB6D168E700231922CDE965
S31500003310013328460092044B0249FFF7C5FD56E6E5
S31500003320104F0100B84E01002C4F01002DE9F0416D
S315000033300F4692B000F10C06002405463146384689
S315000033402922CDE90944CDE90B44CDE90D440F947A
S31500003350FEF7DEFF002851D1D5F86C82D5F8704211
S31500003360B8F1000F2ED0002C67D00DF1300C08A854
S315000033700BA907AA0AABCDE90121CDE9030C0093FD
S31500003380324606AB05212846A0470446A4F1E403CD
S31500003390012B60D9E32C17D0B4B1D5F87832002BC5
S315000033A036D0099B002B33D011AA10A905F17C0059
S315000033B00CF024FA60BBD5F8783210993046052215
S315000033C0984725E0002CD0D1D5F874421CB33B4673
S315000033D0324605212846A047E8B1E8284FF0000309
S315000033E000F089801922CDE9013328460092464B28
S315000033F04649FFF759FD12B0BDE8F081112300934D
S31500003400CDE901442846424B42490F22FFF74CFDC5
S3150000341012B0BDE8F0813146286CFDF785F9002829
S315000034204FD000231C22CDE90133009228463A4BA7
S3150000343036491922FFF738FDEAE708AA07ABCDE9B6
S315000034400032052106AB32462846C0470446A4F1A1
S31500003450E403012B9ED814220DA906980CF056FF02
S315000034600028D5D114220EA907980CF04FFF00288A
S31500003470CED14FF480620FA908980CF047FF0028C0
S31500003480C6D1D5F870325BB10C9A0F9B9A42BFD168
S315000034900A9A0D9B9A42BBD10B9A0E9B9A42B7D1C0
S315000034A0E42C7FF47AAF0F980899019009A802904E
S315000034B00091DDE9062339462846FFF793F90446CD
S315000034C068E7CDE90300CDE9010000900623134A21
S315000034D011A92846FFF782FB002899D105F17C0047
S315000034E04FF47A7211990CF027FC002890D01198AD
S315000034F00BF0A8F98CE72846CDE9013300930622A4
S315000035000649FFF7D1FC83E79C4E0100B84E010047
S31500003510304E0100444E0100104D0100304D0100B7
S315000035202DE9F04700F10C06A6B0002405469046AA
S315000035300F461046314629220794CDE90C44CDE9C1
S315000035400E44CDE910441294FEF7E2FE00284ED157
S31500003550022F00F0DA80D5F86C92D5F87042B9F1F6
S31500003560000F51D0002C00F08C800DF13C0C0AA805
S315000035700EA909AA0DABCDE90121CDE9030C0093F3
S31500003580324608AB39462846A0470446A4F1E40370
S31500003590012B40F28580E32C01D0002C5BD1D5F8BD
S315000035A0803223B1D5F86032012B00F0D0800123A0
S315000035B005F17C09009348460A23C82214210CF021
S315000035C0CFFCD5F8744214B34346324639462846F2
S315000035D0A047E0B1E82814D000231922CDE9013331
S315000035E028460092A74BA849FFF75EFC09E0112385
S315000035F00093CDE901442846A44BA5490F22FFF7C5
S3150000360053FC26B0BDE8F087002CAED1C7E7022FE9
S3150000361002D1079B002BF4D028221EA930460CF0BD
S3150000362075FE0028EDD105F17404034621463246A5
S31500003630286CFDF77BF88046002800F0BA801E9AB9
S3150000364002922623009301962846924B92490D2218
S31500003650FFF72AFCD5E7D5F87832002BD1D00C9BA2
S31500003660002BCED01EAA16A905F17C000CF0C6F8D8
S315000036700028C6D1D5F8783216993A46304698478A
S31500003680BFE70AAA09ABCDE90032394608AB324694
S315000036902846C8470446A4F1E403012B3FF67BAF56
S315000036A0142210A908980CF031FE0028A9D1142282
S315000036B011A909980CF02AFE0028A2D14FF48062C5
S315000036C012A90A980CF022FE00289AD1D5F8703279
S315000036D05BB10F9A129B9A4293D10D9A109B9A4214
S315000036E08FD10E9A119B9A428BD1E42CB3D11298AA
S315000036F00A9901900CA802900091DDE90823414641
S315000037002846FFF76FF8044645E7814607A9404675
S31500003710FEF702FB50B120230093CDE9019928461C
S315000037205E4B5B490F22FFF7BFFB6AE74046FEF799
S31500003730AFFE00287FF40FAF2023CDE901000093F0
S315000037402846574B52490F22FFF7AEFB59E71E2278
S31500003750009216AB112253494046FFF72DF9044655
S3150000376000287FF424AF14AAD5F8803213A9304676
S31500003770984701287FF41BAF1EA914A8FFF780F90C
S3150000378026AA034602EB000C1EA916A85A1C0B9388
S315000037900CF8204C0FF0C4FE00287FF408AFCDE9EA
S315000037A0010000900346102228463F49FFF77CFBA4
S315000037B027E726AB286C43F87C8D31464246CDE997
S315000037C00488CDE90288CDE90088FCF7A9FF0DF150
S315000037D0580A1E2031461E9A009053462846FEF788
S315000037E0B3FE26AB1E18079B0093CDE901A0CDE9D9
S315000037F003880B9014A906232C4A06F8408C284609
S31500003800FFF7ECF9002870D1079A149B002A5BD0C9
S31500003810032F59D09A690B9242B3196B9A6AD5F85D
S315000038209830521A043A9A420B92204684BF0B9360
S315000038301A460BABFCF77EFF002863D114990B9850
S315000038408A690B6B024403448A610B634FF47A72F4
S3150000385048460CF071FA002854D10B99EA6D079B83
S315000038600B900A445B1AEA6507934BB34FF0FF339C
S31500003870382214A9E86B0AF007FE002846D1149BEB
S31500003880CBE700BF9C4E0100B84E0100304E010050
S31500003890444E0100C84D0100F04D0100544E010098
S315000038A0784E0100B44D0100384D0100304D010045
S315000038B014980AF0C7FF149A002392690B92079393
S315000038C02046FCF735FF9CE619464FF47A724846C7
S315000038D00CF032FA0028EBD1149B07999A690B92E7
S315000038E00029EDD0032F97D1EAE71922CDE9018807
S315000038F028460092074B0849FFF7D6FA2046FCF700
S3150000390017FF7EE614980AF09DFFD9E76B6E013328
S315000039106B66D5E79C4E0100B84E01002DE9F043D9
S31500003920044687B000F5D47600F17C050027DFF861
S31500003930B091DFF8B08111E0012802D0236F013386
S3150000394023674FF47A7128460BF06AFE28460BF07F
S31500003950ABFC2A465021A0680BF0EEFB05AA00211D
S31500003960304607F073FDA36B13B9304607F0A0FD90
S315000039700599A76305AA304607F068FD4FF47A71EA
S3150000398028460BF0E9FA98BBE36E0133E36604A917
S315000039902046FEF737FB0028CED10498D0E90B323B
S315000039A0A2EB030CBCF1060F5ADD93F800C0BCF184
S315000039B0470F21D0BCF1500F32D15A78552A52D038
S315000039C04F2A02D19A78532A5ED02123C4F8607216
S315000039D013220093CDE901774B4641462046FFF777
S315000039E063FAA36D0133A36504980AF02BFFA8E7D9
S315000039F0A36E0133A366A9E75A78452AE5D19A78DA
S31500003A00542AE2D1DB78202BDFD1636C01210B44F1
S31500003A1002466364C4F860122046FFF781FDE3E7BF
S31500003A20BCF1440F41D15A78452ACED19A784C2A16
S31500003A30CBD1DA78452AC8D11A79542AC5D15A7910
S31500003A40452AC2D19B79202BBFD1236D0522013394
S31500003A5001462365C4F860222046FFF767FCC3E7EA
S31500003A600AF0F0FE6AE79A78542AAED1DB78202B6A
S31500003A70ABD1E36C042201330146E364C4F860224F
S31500003A802046FFF785FAAFE7DA78542A9DD11B79ED
S31500003A90202B9AD1636D0221013302466365C4F877
S31500003AA060122046FFF73CFD9EE7BCF1480F8CD123
S31500003AB05A78452A89D19A78412A86D1DA78442AD1
S31500003AC083D11B79202B80D1A36C032101330246BD
S31500003AD0A364C4F860122046FFF722FD84E700BF06
S31500003AE0484F01006C4F010058B1074B02689A42DB
S31500003AF005D18368FF22002018701A7070470720CE
S31500003B0070470120704700BF5444570020B1034B53
S31500003B101B68036000207047012070474850010071
S31500003B20074B1B685BB1DA684AB100B583B002A8DF
S31500003B305B6840F8043D904703B05DF804FB7047AE
S31500003B406405FE1FF0B5D0F808E0164FBEF8024037
S31500003B50A4B200235FFA84FC0B700CF00306BD1DB3
S31500003B603B469D4207D013F8012B9642F9D1DA1B4A
S31500003B709D428A70F7D19EF80630C2689EF80860AA
S31500003B800B7243684E7204F440752CF00F0C04F46B
S31500003B90405481F803C0CD808C80C1E90323002006
S31500003BA0F0BD00BF6950010041B138B10268044B55
S31500003BB09A4201D1FFF7C6BF072070470120704720
S31500003BC05444570061B158B1064B02689A4205D178
S31500003BD083689B889B0B0B700020704707207047FB
S31500003BE00120704754445700B8B10D4B02689A4201
S31500003BF011D189B210B481F47F4484F0FF04A40388
S31500003C0089038268A4B28BB2948090881840FBD155
S31500003C105DF8044B7047072070470120704700BFCE
S31500003C205444570069B160B1074B02689A4206D105
S31500003C3083689B88C3F30D030B6000207047072041
S31500003C4070470120704700BF5444570091B188B1B6
S31500003C5030B50268244B254C89B0802501949A42E0
S31500003C604FF006048DF80B508DF80A4004D007205B
S31500003C7009B030BD012070470C4602A9FFF762FF6C
S31500003C800028F5D19DF80A10194A1A4B52F821203E
S31500003C9062609B6901A9012098470028E8D19DF838
S31500003CA00B30602B17D00CD9802B11D0F02B03D002
S31500003CB0702B0BD14FF40065019BB3FBF5F5256026
S31500003CC0D6E7102B0ED0402B0AD03BB11220CFE7FF
S31500003CD04FF40055F0E74FF40075EDE70125EBE7EB
S31500003CE01D46E9E70425E7E7544457000087930398
S31500003CF04C50010044520100F0B587B000295AD05B
S31500003D00002858D08B78022B5DD106463448002314
S31500003D102922CDE90133C76805930D46CDE9033362
S31500003D2002A98DF8042001A8B847044600283FD10F
S31500003D302B78029AB260002B41D101A805F042F916
S31500003D400446002844D1287A264B3460F4601E606D
S31500003D50C0B9EB68002B3DD02349022004F070FF68
S31500003D60D5E90332F360062372608DF8043002A9A8
S31500003D7001A8B847029AB2F8203143F00203A2F82C
S31500003D802031287AAB78194AEF78A988D35CEA887B
S31500003D903B4311436F78B2686D7A0B4314495380E5
S31500003DA09071157231601FB10021FF2311701370DD
S31500003DB0204607B0F0BD0124204607B0F0BD05241B
S31500003DC0204607B0F0BD043B022B9ED90324EFE743
S31500003DD00A24EDE701A805F029F90124E8E700BF68
S31500003DE0DC5101006405FE1F213B00006850010004
S31500003DF05444570018B1034B03600020704701205C
S31500003E00704700BF0B010601836810B5044623B155
S31500003E109A6812B1D26918689047E36833B19A6814
S31500003E2022B1D2691868BDE81040104710BD00BF26
S31500003E302DE9F04F354C364D89B00646CDE90423C1
S31500003E400791A6FB04129DF84CB00690CDE900122E
S31500003E50330A0020DDF848800393A1468BF0010B5E
S31500003E608246012303435B4544D1079B2F8803FB0E
S31500003E7007F7069BB3FBF7F4661EFF2E3AD804FB42
S31500003E8007F41DE0039AB4FBF2F27F2A02FB03F368
S31500003E9030D9002BB8BFFF331B12A3F5C333A03BA9
S31500003EA0002BB8BF5B42994505DD05999246049AF9
S31500003EB00D6099461670C8F800A0E41BD6B1013E05
S31500003EC0E3172246DDE900010FF024F9A0F5C3301F
S31500003ED0A03800F5C333A033B8F1000FD2D10028C3
S31500003EE0B8BF4042814505DD059B1D60049B8146A8
S31500003EF01E70C246074B0635AB4202D0E8782B79D6
S31500003F00B0E7484609B0BDE8F08F00BFA0860100C3
S31500003F1070500100BE500100002832D0002930D078
S31500003F201D4B42689A422AD170B58268002382B03E
S31500003F3005460E46C1E900334AB390686946CDE9A5
S31500003F400033836910689847EB78009A03F00303FF
S31500003F5003FB02F37360E868A8B18268006893699E
S31500003F600024CDE9004469469847EB78009A03F0AF
S31500003F70030303FB02F32046336002B070BD072043
S31500003F807047012070474FF0FF323260F5E74FF07F
S31500003F90FF334B60DFE700BF5549435378B171B13A
S31500003FA06AB110B40C4B44689C420AD1C37803F042
S31500003FB00303022B09D000205DF8044B7047012053
S31500003FC0704707205DF8044B7047114311F0010F4D
S31500003FD00CBF00200320EFE7554943532DE9F0417C
S31500003FE082B006460F46FFF7D9FF0446F8B91546D4
S31500003FF0F378B26803F0030322B390680094013BA0
S31500004000D0F81880019469461068DD40C047009BCF
S315000040109D4210D8B3789BB9B3680122B2709A68F2
S31500004020186856682146ABB23A46B0470446204661
S3150000403002B0BDE8F0810124204602B0BDE8F0815F
S315000040400824F4E7736B002BFAD1C6E90C75B0634C
S31500004050EDE700BF30B5946883B0002C32D0146809
S31500004060002C2FD052686AB312685AB30978D578F3
S3150000407094786FF387156FF345140229D570947001
S3150000408023D0D1786FF30511D1700278ADF80620F0
S315000040901946114B00241422ADF804401B698DF813
S315000040A0042000946A4601A898479DF90030213300
S315000040B008D0069ABDF802301380079B20461C7074
S315000040C003B030BD012003B030BDE9B2012464F372
S315000040D00511D170D9E700BFDC51010090F83C1002
S315000040E0012900D070470A4A90F83D30126AC08F05
S315000040F082B001922BB1DDED017A17EE903A02B053
S31500004100184707EE902A194617EE903A02B018475C
S31500004110E45001002DE9F04385B043F697240C9E48
S31500004120A6422AD848B3054604A8002400F8084D3C
S31500004130994690460F4604F04DFD04A9114B41F8EF
S31500004140044D9B699DF8080098470446A8B90123C9
S3150000415001930398CDF8009043463A462946FFF767
S3150000416067FEB0420ADD0398CDE9009443463A461D
S315000041702946FFF75DFE864200DA0324204605B095
S31500004180BDE8F0834452010028B3304B42689A429E
S315000041901FD1F0B5456AAB7813F0030387B04DD154
S315000041A0C278059312F00406044606AA284B42F884
S315000041B0083D18BF05AEE36A00930846FF2733465D
S315000041C00DF10F018DF80F70FFF7A4FF28B107B0AE
S315000041D0F0BD0720704701207047AA78049B9DF820
S315000041E00FC002F00B02AA70AA78206160F30102E8
S315000041F0AA709F78DC7819795A7985F801C0EB792D
S3150000420067F38613EB71EB7964F30413EB71EB79C7
S3150000421061F3C303EB712B7862F301032B7046B194
S315000042203368FF2B0DD8EA79DBB242F00402EA715B
S31500004230AB74AB7843F05003AB70C8E7012007B00E
S31500004240F0BDEB7960F38203EB71F2E75549435316
S3150000425070500100002867D03C4B42689A4261D1F9
S3150000426070B5436A90F918109A78002402F00B0290
S31500004270A142446082B09A700DDB4A0920320124C3
S31500004280334D01F01F0104FA01F145F82210BFF386
S315000042904F8FBFF36F8F90F91B20002A46DA90F9F3
S315000042A01920002A0DDB510920310124284D02F086
S315000042B01F0204FA02F245F82120BFF34F8FBFF325
S315000042C06F8F90F91A20002A0DDB51092031012445
S315000042D01F4D02F01F0204FA02F245F82120BFF337
S315000042E04F8FBFF36F8F99789A7801F0020161F3CF
S315000042F001029A7002AE04460025FFF785FD1423DD
S31500004300ADF8045006F8043DE5612378A562304611
S31500004310ADF8063004F0DCFD304604F087FE284692
S3150000432002B070BD07207047012070475109203147
S315000043300124074D02F01F0204FA02F245F821207B
S31500004340BFF34F8FBFF36F8FA9E700BF55494353A4
S3150000435000E100E02DE9F04383B002AC002544F80B
S31500004360045D1C4E0A9D3769164622469846B84794
S315000043709DF904402C70054690B93601002CF6B222
S31500004380E7B211DA204604F0F1FD134B07F00F07F0
S315000043903B441E76114B1B6853F83430C3F800803B
S315000043A0284603B0BDE8F083630901222033DFF815
S315000043B0309007F01F0702FA07F749F82370BFF39A
S315000043C04F8FBFF36F8FA144204604F0CFFD89F8CD
S315000043D00063DFE7DC510100FCEC00E090570100D0
S315000043E000E100E02DE9F04F93B0F8B1F1B19E4B3A
S315000043F042689A4200F040820B789C4AADF81A3027
S31500004400044600231420ADF818300D468DF8180028
S31500004410D268CDE90933CDE90B3309A906A890473F
S31500004420064640B1304613B0BDE8F08F012630464F
S3150000443013B0BDE8F08F099B636206A8039304F0EE
S31500004440C1FD06460028EDD1BDF82A20884907900F
S31500004450C2F3810242F210738A5C6270D5F8208042
S315000044606868E362B8F1000F36D098F80C3098F817
S3150000447000A053BBE27863F38202E2709946D8F853
S3150000448010307C4AE362FF218DF817100892BAF1CA
S31500004490000F27D004F11B03EA7B0093012123467A
S315000044A006A8FFF757FF04F118032A7B00930221A1
S315000044B0234606A8FFF74EFF0646F8B12046FFF74B
S315000044C0A3FC06A804F0B2FDACE7E37843F00403CE
S315000044D0E3700DF11C09D2E7FF21664A8DF817102B
S315000044E00892C146009308AA4B460DF11701FFF743
S315000044F011FE06460028E1D18246CBE704F11903F6
S315000045006A7B00930521234606A8FFF723FF06468C
S315000045100028D3D104F11A03AA7B00930421234671
S3150000452006A8FFF717FF06460028C7D12A7AE378C0
S31500004530D5F810B0D5F814C0C4F808B0012161F35D
S315000045400103022AC4F80CC0E37000F08880BBF1B6
S31500004550000F41D0DBF804E0BEE80F000DAFBC460B
S31500004560ACE80F000DF13A02DEF80010CCF80010AE
S315000045700EAB019200935A46022305F10801284624
S31500004580FFF768FD002868D12A69E178536894F836
S3150000459001C01B68606A01F00301BCF1000F00F066
S315000045A0A281022900F1100C18BF00F1110CC3F80A
S315000045B004C09878D9784FF0020C6CF383006FF33F
S315000045C08301D9709870936810681B6839469847BC
S315000045D0002842D1D5F814C0BCF1000F4CD0DCF84D
S315000045E004B0BBE80F000DAFBE46AEE80F000DF1FC
S315000045F03A02DBF80010CEF800100EAB01920093E1
S315000046006246052305F108012846FFF723FD20BB76
S315000046106A69E178536894F801C01B68606A01F022
S315000046200301BCF1000F00F06481022900F10E0CB9
S3150000463018BF00F10F0CC3F808C09878D9784FF06E
S31500004640020C6FF383006CF38301D9709870936842
S3150000465010681B683946984770B106462EE7DBB2EC
S3150000466062F30103E37072E755494353DC510100DD
S31500004670C05001007050010098F81520B8F81630A7
S3150000468098F8141084F83C1084F83D20E3872046FF
S31500004690FFF724FD06A804F01FFC039A00231370FD
S315000046A0937012790AB1039A1371039FF221B971BB
S315000046B000234FF0FF0C4FF47840402187F801C0EB
S315000046C087F812C0FB713B727B72BB72FB723B7345
S315000046D07B733B73B8827B830320F974062138779A
S315000046E03977BAF1000F40F0C980BA78089B9DF877
S315000046F017E06AF30102BA7093F802C093F80380D8
S3150000470019795A7987F801E0FB796CF38613FB7106
S31500004710FB7968F30413FB71FB7961F3C303FB7147
S315000047203B7862F301033B70B9F1000F0AD0D9F868
S315000047300030FF2B00F2C780FA79DBB242F00402A8
S31500004740FA71BB746278636A296A32B3988A40F058
S3150000475001009882988A40F002009882013A2869FE
S3150000476092B202F00F0C002800F0B3809A8A6FF321
S315000047700B229A829A8A6CF30F329A829A8A42F0B4
S3150000478004029A82039F9A8AC2F38002002AFAD10F
S315000047900397988A62F3071098821A7895F809C0E9
S315000047A0287A42EA0C12D2B201281A7000F08280EE
S315000047B0022807D11A786FF386121A709A796FF366
S315000047C004129A711A7895F80AC0E87A6CF3C30253
S315000047D01A7018B15A7B42F002025A7399B1DA790B
S315000047E091F802C0C87849786CF3C712DA71DA79A1
S315000047F060F345120020DA71187298789A780143AE
S3150000480061F301029A702A782270D5E906122262B3
S315000048100022C4E904220398A2706263A263E161E4
S31500004820818A62F3C3018182827894F9181042F07A
S3150000483010020029827007DB01F01F0501224909D9
S315000048403148AA4040F8212094F91B20002A07DBB2
S3150000485002F01F05012152092B48A94040F82210F9
S3150000486003982A49827842F0400282709A7842F090
S3150000487020029A706160D5E50826D3E5039981F890
S3150000488001C0CA7963F38612CA71CA7963F3C30297
S31500004890CA710A7863F301020A708B78022262F306
S315000048A0010392458B707FF44DAFCB7943F0100333
S315000048B0CB7147E71A7842F040021A709A7942F0B3
S315000048C010029A717EE7039AD3796AF38203D37151
S315000048D038E7A1B191F804E0988A02EA0E0262F381
S315000048E00B20988246E701290CBF0530103058602E
S315000048F05FE601290CBF03300E3098609DE69A8A68
S315000049006CF30B229A8235E700E100E055494353E8
S3150000491070B508B3504B42689A421AD111F0FD0F98
S3150000492004460E461BD00625012E13D8A568002D79
S3150000493000F08E800023A370AB682868DB68984778
S315000049400546637833B1626A938A43F00203938221
S3150000495000E00725284670BD0125284670BD426A3D
S3150000496090F91900937803F07B03937004F0FEFA34
S3150000497094F91930002B3EDA94F91A0004F0F6FA8D
S3150000498094F91A30002B1BDAE568002D56D0AB6877
S315000049902868DB689847637805463BB1626A938A64
S315000049A043F004039382938A5B07FCD40023C4E993
S315000049B004332046FFF792FB002DB5D0284670BD84
S315000049C0590920310122254803F01F0302FA03F397
S315000049D040F82130BFF34F8FBFF36F8F94F91A3031
S315000049E0002BD1DB5909603103F01F0302FA03F3F0
S315000049F040F82130C8E7590920310122174803F051
S31500004A001F0302FA03F340F82130BFF34F8FBFF3C1
S31500004A106F8F94F91930002BAEDB5909603103F022
S31500004A201F0302FA03F340F8213094F91A0004F048
S31500004A309DFA94F91A30002BA6DBC1E76378002BA8
S31500004A40ACD1C4E9043320461D46FFF747FB6BE7AC
S31500004A50A563656375E700BF5549435300E100E070
S31500004A604269E2B170B4C4780569436A417804F0DA
S31500004A700306022E14D02E7861B1B6B21979C9098F
S31500004A80FCD0DE8104F00303D21A2B44C0E90432C1
S31500004A9070BC70471979C909FCD0DE70F2E770471F
S31500004AA02E880029EAD11979C909FCD0E9E700BFA7
S31500004AB02DE9F04383B004460F46FFF76FFA05462B
S31500004AC010B9236923B10825284603B0BDE8F08351
S31500004AD0A18F0129164603D13B4BE08F1B6A9847ED
S31500004AE0D4F82480E26898F8023003F07B0388F853
S31500004AF00230C4E9047622B394F8039093681068F0
S31500004B009A6909F0030909F1FF33DE400023019396
S31500004B106361009369469047009B9E424AD863783A
S31500004B2023B9013EC4F814900BD04F44E3689A6849
S31500004B301868D2F80490B3B239460022C847002854
S31500004B403FD194F9190004F011FA94F91920002ABA
S31500004B500BDA6378C3B198F80230284643F0A00315
S31500004B6088F8023003B0BDE8F08353099B0003F1D7
S31500004B706043012103F5614302F01F0201FA02F2CC
S31500004B80C3F880216178D1B998F8023043F0A003C8
S31500004B9088F802302046FFF763FF94F91930002B9E
S31500004BA092DB03F01F0001225B090849824041F8AD
S31500004BB0232089E701252046FFF790FA84E71A604B
S31500004BC0C9E70546F7E700BFE450010000E100E051
S31500004BD04378426A5BB9C37803F00303022B05BF2F
S31500004BE0107C537C537943EA00230B607047107C9A
S31500004BF0537C43EA0023C3F308030B60704700BFEE
S31500004C0030B5436B0578046A85B08022009503941D
S31500004C10ADF804202BB9C36902916846984705B0E0
S31500004C2030BD826B9342FAD9C378046B03F003025A
S31500004C301346022A826BCDB2134483632570036B3D
S31500004C4010D001330363826B436B9A42E7D1002392
S31500004C500122029383634363ADF80420C369684667
S31500004C609847DCE75A1C090A02635970036B013343
S31500004C700363E8E7F0B583B04378446A002205464B
S31500004C8001922BB3FE27BF26EB692771C3B1E38AD6
S31500004C90D8060DD0227C637C43EA0223C3F30803C3
S31500004CA0194628460193FFF7ABFFE38AD906F1D1EF
S31500004CB026712379DB07E7D403B0F0BD237C637C40
S31500004CC0E38ADA06FAD126712379DB07DCD4F3E727
S31500004CD001A9FFF77DFFEB69002BEDD0284601996E
S31500004CE0FFF78EFF03B0F0BDF0B585B0EFF305809A
S31500004CF006F016FDEFF30383A3F1100040B2009314
S31500004D0004F034F9EFF30383404A0093103B5BB29F
S31500004D10126852F833301C6824B1E568676A7DB3BF
S31500004D2063692BB1EFF3058006F0F8FC05B0F0BD22
S31500004D3094F91A0004F01AF994F91A20002A33DAC1
S31500004D40BA7894F9193002F07F0242F00402002B7F
S31500004D50BA703DDAE36900222261002BE2D02178A5
S31500004D60206A00914FF48071CDE90220ADF804105D
S31500004D7068469847EFF3058006F0D0FC05B0F0BD15
S31500004D806678002E3ED0FB8AC3F30423F61A002E63
S31500004D9005DD01352046FFF763FEAE42F9D13B79CA
S31500004DA06FF3C7133B71BBE7510902F01F031848A5
S31500004DB0012201F160059A4040F82520B87894F95F
S31500004DC0193000F07F0040F00400002BB87015DBAE
S31500004DD05909203101220E4803F01F0302FA03F39A
S31500004DE040F82130BFF34F8FBFF36F8F94F91A103D
S31500004DF00029AFDB01F01F039A404909044B43F831
S31500004E002120A7E72046FFF72BFE89E790570100F0
S31500004E1000E100E010B584B0EFF3058006F080FCF9
S31500004E20EFF30383A3F1100040B2009304F09EF861
S31500004E30EFF30383134A0093103B5BB2126852F8F8
S31500004E403330186878B18378012B12D1C26904789F
S31500004E50002181703AB1006A039000940291ADF886
S31500004E60043068469047EFF3058006F057FC04B01F
S31500004E7010BDFFF7FFFEEFF3058006F04FFC04B010
S31500004E8010BD00BF9057010030B585B0EFF3058027
S31500004E9006F046FCEFF303831F4A0093103B5BB218
S31500004EA0126852F833301C68ACB1616A94F91A2062
S31500004EB08B78207803F07B03002A8B701CDAE36979
S31500004EC04BB1226A03920025022100900295ADF8AB
S31500004ED0041068469847EFF30383A3F1100040B22D
S31500004EE0009304F043F82046FFF7F8F8EFF3058047
S31500004EF006F014FC05B030BD530920330121074DDF
S31500004F0002F01F0201FA02F245F82320BFF34F8F89
S31500004F10BFF36F8FD3E700BF9057010000E100E0B9
S31500004F20114A136870B4040A9C4216D25668C0B27D
S31500004F3000F11005012356F8246003FA05F5354201
S31500004F400BD069B100EB0410936853F82030C3F31B
S31500004F50400300200B7070BC7047032070BC704784
S31500004F60184670BC704700BF9804FE1F084B1A68AD
S31500004F70000A904207D241B1DA68430104320020A8
S31500004F809B580B807047032070470120704700BF75
S31500004F909804FE1F084B1A68000A904208D249B1CD
S31500004FA0DA684301043200209B581B0C0B807047C3
S31500004FB003207047012070479804FE1F70B4134CFD
S31500004FC02268030A93421BD26668C0B200F110053C
S31500004FD0012256F8236002FA05F5354210D091B148
S31500004FE0E4685B01043402FA00F01C5983B233EA28
S31500004FF0144313BF002000200A70087070BC70476D
S31500005000032070BC7047104670BC70479804FE1FA2
S315000050100C4B10B41C68000AA0420ED26AB1DB68C1
S315000050205DF8044B083303EB401022EA01030A4003
S3150000503042EA034242600020704703205DF8044BB9
S31500005040704700BF9804FE1F144A70B41468030A20
S31500005050A3421DD25668C0B200F11004012556F8CD
S31500005060236005FA04F4344212D0A94210D8D2685B
S3150000507002F1080202EB431305FA00F05D680AD05C
S3150000508045EA0040000C0004586070BC00207047E0
S31500005090032070BC7047284380B2F5E79804FE1FD2
S315000050A018B1034B0360002070470120704700BF12
S315000050B007010301012920D870B4124C2368020AA3
S315000050C09A4217D26668C0B200F11005012356F85D
S315000050D0226003FA05F535420CD003FA00F083B2DC
S315000050E069B10020E168520108311843505070BC84
S315000050F000207047032070BC7047032070470004EF
S315000051000B46EFE79804FE1F012957D82E4BF0B443
S315000051101C68020AA2424ED25D68C0B200F11006B7
S31500005120012455F82250B4402C4244D000EB021022
S315000051309C681D6954F82030002941D043F00401D1
S31500005140224E0E40EFF31087012383F31088204B85
S315000051501A8892B222B94FF0400CEA7085F803C063
S315000051601A88013292B21A8087F31088CF0354F856
S31500005170202007D5174F22F480320F4044F8202014
S3150000518044F8207044F82060EFF31081012282F386
S3150000519010881A8892B21AB11A88013A92B21A8005
S315000051A01B889BB213B98022EB70EA7081F31088DA
S315000051B00020F0BC70470320F0BC70470320704706
S315000051C023F00401BCE700BF9804FE1FD5FC011FB5
S315000051D06805FE1FD5FC001FB2B10C4B10B41C684D
S315000051E0000AA0420CD2DB6822EA0104400108331F
S315000051F00A4042EA0442C2505DF8044B0020704760
S3150000520003205DF8044B7047032070479804FE1F87
S31500005210D2B10E4B70B41C68000AA04211D2DD68F0
S31500005220400102EA01032E582C58334361EA020278
S315000052309BB2210C1A4009040A432A50002070BC74
S315000052407047032070BC7047032070479804FE1F08
S31500005250F8B500283BD009681E4F4FF0000C01EB53
S31500005260C00066464FF0010E8D8840F2024295421C
S315000052704FF000030BD10C680EFA03F204F0B85499
S31500005280D2B2B4F1807F0CBF164342EA0C0C013354
S31500005290032B06D037F813209542ECD00133032BAD
S315000052A0F8D108318142DFD16FEA0C0C5FFA8CF439
S315000052B0012003F045FF084B93F8BB241643264014
S315000052C083F8BB640120BDE8F84003F009BF064639
S315000052D0FF24EDE72051010000E0014070B582B0E7
S315000052E002AB002403F8044D054618460E4603F0AB
S315000052F08FFC9DF80430DB0715D5202D10D8012E24
S315000053000ED80A4B1B691A7813BF154302F03002F8
S3150000531022EA050505F0300520461D7002B070BD75
S31500005320032002B070BD062002B070BD9804FE1FB7
S315000053302DE9F0470746011D0088FFF789FF3B88E6
S31500005340002B4ED0DFF8A4E0274900224FF0010CD5
S315000053504FF0400A4FF080097B68DEF8106053F882
S315000053603250DEF8084003EBC2039B88180ADBB212
S3150000537003EB0013EFF310888CF31088088880B2D3
S3150000538010B9F07086F803A00888013080B2088052
S3150000539088F3108815F4803F54F8230007D020F4D2
S315000053A0803025F4803844F8230044F8238044F8FC
S315000053B02350EFF310808CF310880B889BB21BB13F
S315000053C00B88013B9BB20B800B889BB213B9F37021
S315000053D086F8039080F3108801323B8892B293429C
S315000053E0BAD80020BDE8F0876805FE1F9804FE1FA6
S315000053F018B143680BB1FFF79BBF0120704700BF90
S3150000540000283AD04368002B37D02DE9F04186B00A
S3150000541006AD00230922019305F8142D184A194CEC
S31500005420D2F80C8002930646CDE90333059302A910
S315000054302846C047029BE3600A22BDF80C308DF86F
S31500005440042002A9059A6260284601272360C04706
S31500005450029B8DF80570284602A9A360C0477368B1
S31500005460029A22612BB13046FFF762FF06B0BDE813
S31500005470F081384606B0BDE8F0810120704700BFD4
S31500005480DC5101009804FE1F2DE9F0412F4C2368E2
S315000054904FEA1028984584B053D26268C5B205F128
S315000054A01003012752F8282007FA03F3134248D0C5
S315000054B00E4604A902AA034641F80C2D3846ADF85B
S315000054C00C300296ADF8007005EB0815FFF7C0FE2C
S315000054D02169A068EFF3108487F310881C4B1A88A3
S315000054E092B212B94027CA70CF701A88013292B2AE
S315000054F01A8084F31088F40350F8252007D522F487
S31500005500803226F4803440F8252040F8254040F8C3
S315000055102560EFF31080012282F310881A8892B278
S315000055201AB11A88013A92B21A801B889BB213B933
S315000055308022CB70CA7080F31088002004B0BDE8CA
S31500005540F081032004B0BDE8F08100BF9804FE1F7F
S315000055506805FE1F68B183685BB1C168064A91425F
S3150000556005D1DA6A6FF30002DA620020704707207D
S3150000557070470120704700BF5450470068B18368E8
S315000055805BB1C168064A914205D1DA6A42F001026E
S31500005590DA6200207047072070470120704700BF7D
S315000055A05450470020B1034B1B680360002070472E
S315000055B001207047285101002DE9F04782B002AC66
S315000055C0002544F8045D3C4D8946AF698246904605
S315000055D0214603201E464C460025B847B8F1060F63
S315000055E02AD8DFE808F00D480453575B2D000198D0
S315000055F0324A0023A9FB00010DF0DCFD04460D46EE
S315000056009AF81530012B32D04FF0FF300021A94215
S3150000561008BFA0424FF0000322D2A208AF0842EA18
S315000056208572B94203F1010308BF904214463D4614
S31500005630DBB215D2052BF0D1032002B0BDE8F0870E
S3150000564000234FF47A7202FB09F2194601980DF015
S31500005650B1FD04460D469AF81530012B07D00023FC
S315000056600A9A00201370346002B0BDE8F0874FF646
S31500005670FF700021CBE701980DA3D3E90023A9FB16
S3150000568000010DF097FD04460D46B9E701984FF469
S315000056907A72AEE7019CA9FB0445B1E72B464A4660
S315000056A0019800210DF086FD04460D46D3E700BFA4
S315000056B000CA9A3B000000004452010040420F001D
S315000056C0012A70B506461C462FD02AD3022A26D1B7
S315000056D01A4A0023A4FB010100250DF06BFD012EE3
S315000056E00ED0A94208BFA04204D0002908BFB0F1DD
S315000056F0FF3F10D14FF0FF30049B1860002070BDB3
S3150000570014F1FF3245F1FF33101A63EB0101A94290
S3150000571008BFA042EED08D4208BF8442ECD20320DF
S3150000572070BD084600250021D9E764220023A4FBAA
S31500005730010100250DF03EFDD1E700BFA086010066
S31500005740002836D08368002B33D0224AC1689142A4
S315000057502DD130B5DA6A6FF30002DA6290F91420BF
S31500005760002A83B027DADA8E6FF30822DA869A8E59
S3150000577004466FF3082202A800252B219A86237C73
S31500005780ADF8045000F8041DADF8063003F04EFCE9
S3150000579094F91430657413F1210F04D00E4A12687F
S315000057A052F833301D600020E06003B030BD0720A2
S315000057B0704701207047510920310124074D02F03E
S315000057C01F0204FA02F245F82120BFF34F8FBFF300
S315000057D06F8FC8E7545047009057010000E100E082
S315000057E050B149B183683BB1C068054A904205D1C2
S315000057F09B6C0B60002070470120704707207047A4
S315000058005450470038B383682BB3144BC2689A428E
S315000058101FD130B4EFF31081012282F31088836820
S31500005820DD6ADC6A6FF30004DC62047C9869A240DE
S3150000583040F000409861DA609A696FF3DF729A610E
S31500005840DA6A65F30002DA6281F31088002030BC60
S315000058507047072070470120704700BF545047002B
