S00E00007665726966792E7372656381
S315000000005825FE1F21470000914100001D470000B2
S315000000101D4700001D4700001D47000000000000AE
S315000000200000000000000000000000001D47000066
S315000000301D47000000000000E56200009963000013
S31500000040AD3E000019180000D91000004D11000047
S31500000050AD0F0000FFFFFFFFFFFFFFFFFFFFFFFFEA
S31500000060FFFFFFFFFFFFFFFFFFFFFFFFFFFFFFFF9A
S31500000070FFFFFFFFFFFFFFFFFFFFFFFFFFFFFFFF8A
S31500000080FFFFFFFFFFFFFFFFFFFFFFFFFFFFFFFF7A
S31500000090FFFFFFFFFFFFFFFFFFFFFFFFFFFFFFFF6A
S31500000400FFFFFFFFFFFDFFFFFCFFFFFFFFFFFFFFFB
S31500000410FCFFFFFFFFFFFFFFFCFFFF00FFFFFF00EA
S31500000420FCFF0F20FFFF0F20FCFF7F40FFFF7F40F8
S31500000430FCFF0D40FFFF0D40FFFFFFFFFFFFFFFF2B
S31500000440FFFFFFFFFFFFFFFFFFFFFFFFFFFFFFFFB6
S31500000450FFFFFFFFFFFFFFFFFFFFFFFFFFFFFFFFA6
S31500000460FFFFFFFFFFFFFFFFFFFFFFFFFFFFFFFF96
S31500000470FFFFFFFFFFFFFFFFFFFFFFFFFFFFFFFF86
S31500000480FFFFFFFFFFFFFFFFFFFFFFFFFFFFFFFF76
S31500000490FFFFFFFFFFFFFFFFFFFFFFFFFFFFFFFF66
S315000004A0FFFFFFFFFFFFFFFFFFFFFFFFFFFFFFFF56
S315000004B0FFFFFFFFFFFFFFFFFFFFFFFFFFFFFFFF46
S315000004C0FFFFFFFFFFFFFFFFFFFFFFFFFFFFFFFF36
S315000004D0FFFFFFFFFFFFFFFFFFFFFFFFFFFFFFFF26
S315000004E0FFFFFFFFFFFFFFFFFFFFFFFFFFFFFFFF16
S315000004F0FFFFFFFFFFFFFFFFFFFFFFFFFFFFFFFF06
S31500000500BC01FE1F4B002010C001FE1FB6002B30A1
S31500000510C401FE1F860D1410C801FE1F880D14208D
S31500000520CC01FE1F870D14282000000020000100CA
S315000005302F0000002F0001000C0001001100000038
S3150000054030000000300001002400000024000100FB
S3150000055024000200240003002400040024000500F7
S315000005601300000017000000230000002100000017
S31500000570210001000700000007000100070002003B
S315000005800700030007000400070005000700060037
S3150000059007000700120000004400000008000000E9
S315000005A00B00000041000000400000004000010078
S315000005B004000000430000002B0000002B000A008E
S315000005C02B000B002B000C002B000D002B00010054
S315000005D02B0002002B0003002B0004002B0005005B
S315000005E02B0006002B0007002B0008002B0009003B
S315000005F00600000006000A0006000B0006000C00BC
S3150000060006000D0006000E0006000F0006000100A1
S3150000061006000200060003000600040006000500AE
S31500000620060006000600070006000800060009008E
S315000006301500000015000100150002003100000041
S315000006402A00000045000000100000000301000021
S3150000065003000000030001000F0000000D00000071
S315000006602D000000420000002C0000002C000100BC
S315000006702C0002002C0003003200000028000000BD
S31500000680180000001400000014000100140002000D
S3150000069014000300140004001400050014000600F2
S315000006A014000700140008001400090034000000BC
S315000006B0340001001600000016000100350000009D
S315000006C03600000036000100220000003300000062
S315000006D0330100002900000010B5054C237833B91A
S315000006E0044B13B10448AFF300800123237010BDFF
S315000006F03001FE1F000000005883000008B5034BC0
S315000007001BB103490348AFF3008008BD0000000099
S315000007103401FE1F5883000018B1034B036000200C
S3150000072070470120704700BF0A0106012DE9F0431A
S3150000073043684F4A4F4C85B0064602929A6818683D
S3150000074093694FF48042039202A99847DDED027A3D
S315000007509FED496A039B494AB8EE677A07EE903ADD
S31500000760C6EE076A03EB8303C3EB03170DF110080C
S3150000077003EB8303A4FB0717A4FB0334002348F809
S315000007800C3D64257F096409F8EE677A67EEA67A60
S31500000790FCEEE77A17EE903A05FB03F5A2FB05257A
S315000007A0C6ED027AAD0973689A68186853694146BE
S315000007B09847019B9F4201D99C4206D3002DF2D057
S315000007C0012005F091FA013DEDD17368DFF8AC80A8
S315000007D09A6818689368DFF8A890984706F1140796
S315000007E006F16405B368642000FB03F0A8FB003043
S315000007F0C00905F079FA01244FF0FF31384604F0BC
S31500000800ABFB204633460021DA6D2AB193F8582017
S3150000081082B983F85800D96414339D42F4D138461E
S3150000082004F0C4FB002CDDD073689A6818689368DE
S315000008309847D7E7327C52B9D3E913C212B1624561
S3150000084088BF00245A6D624538BF0024E3E7B26CC6
S315000008504A4501D00024DEE7D3E913C294455A6D18
S3150000086038BFC3F850C09445D5D9C3F854C0D2E7B1
S31500000870008793031F85EB5100007A44D34D621025
S31500000880464F5250F0B589B000284CD000294AD0C6
S315000008900A68002A47D02D4B04689C424CD000239E
S315000008A080F8583080F86C3080F8803080F89430CA
S315000008B080F8A8300C794260C3650367C0F88430BD
S315000008C0C0F89830C0F8AC308CBB0474846493686C
S315000008D04BB304460D465B68D2E9000198470646CD
S315000008E010BB04F11407384634230122184904F0DA
S315000008F0C7FA18BBAB680293B82001214FF4806297
S3150000090004F5B873CDE90510CDE90032CDE90366EB
S315000009102346104A104904F1B00004F03FFC78B9B0
S315000009200A4B236000E00126304609B0F0BD0124E1
S315000009300A4B04748364CAE70826F5E76426F3E7DE
S31500000940384604F0F3FA6426EEE700BF48435457EE
S31500000950407700002D07000058770000464F5250A0
S3150000096008B3124B02689A4201D00720704770B54F
S315000009700646002546F8B05B0446304604F0CCFC3B
S31500000980304604F0B3FCE5652567C4F88450C4F826
S315000009909850C4F8AC5084F8585004F1140004F090
S315000009A0C5FA284670BD0120704700BF484354571A
S315000009B030B129B11B4B02689A4203D00720704719
S315000009C0012070472DE9F04100F1140804460F4656
S315000009D040464FF0FF3104F0BFFA00BB06462346FF
S315000009E0DD6D143345B10136052EF9D1404604F0CC
S315000009F0DDFACD20BDE8F08105F016F906EB860696
S31500000A00D7E9002304EB8604C4E91423E06584F8DF
S31500000A1058504046E56404F0C9FA2846EAE76420DF
S31500000A20E8E700BF4843545708B3194B02689A4297
S31500000A3001D00720704770B500F1140604464FF048
S31500000A40FF31304604F088FA054690B905F0ECF817
S31500000A502B462246D16D884202F114020BD0013397
S31500000A60052BF7D1304604F0A1FA002070BD012015
S31500000A707047642070BD03EB830004EB8000002305
S31500000A80C36580F85830304604F090FA0020EDE750
S31500000A904843545708B3194B02689A4201D00720BD
S31500000AA0704770B500F1140604464FF0FF3130462A
S31500000AB004F052FA054690B905F0B6F82B462246E0
S31500000AC0D16D884202F114020BD00133052BF7D108
S31500000AD0304604F06BFA002070BD01207047642098
S31500000AE070BD03EB830004EB8000C36C0133C36469
S31500000AF0304604F05BFA0020EEE700BF4843545747
S31500000B0058B1074B02689A4205D18368FF2200203C
S31500000B1018701A707047072070470120704700BF91
S31500000B205444570020B1034B1B68036000207047F4
S31500000B3001207047A0770000074B1B685BB1DA689D
S31500000B404AB100B583B002A85B6840F8043D9047FF
S31500000B5003B05DF804FB70474C01FE1FF0B5D0F8FA
S31500000B6008E0164FBEF80240A4B200235FFA84FCE8
S31500000B700B700CF00306BD1D3B469D4207D013F8D3
S31500000B80012B9642F9D1DA1B9D428A70F7D19EF865
S31500000B900630C2689EF808600B7243684E7204F411
S31500000BA040752CF00F0C04F4405481F803C0CD803E
S31500000BB08C80C1E903230020F0BD00BFC17700008F
S31500000BC041B138B10268044B9A4201D1FFF7C6BF62
S31500000BD007207047012070475444570061B158B14F
S31500000BE0064B02689A4205D183689B889B0B0B7063
S31500000BF00020704707207047012070475444570073
S31500000C00B8B10D4B02689A4211D189B210B481F481
S31500000C107F4484F0FF04A40389038268A4B28BB2E4
S31500000C20948090881840FBD15DF8044B70470720EC
S31500000C3070470120704700BF5444570069B160B146
S31500000C40074B02689A4206D183689B88C3F30D035B
S31500000C500B6000207047072070470120704700BFD7
S31500000C605444570091B188B130B50268244B254CE5
S31500000C7089B0802501949A424FF006048DF80B50F6
S31500000C808DF80A4004D0072009B030BD0120704716
S31500000C900C4602A9FFF762FF0028F5D19DF80A105D
S31500000CA0194A1A4B52F8212062609B6901A901205A
S31500000CB098470028E8D19DF80B30602B17D00CD947
S31500000CC0802B11D0F02B03D0702B0BD14FF4006585
S31500000CD0019BB3FBF5F52560D6E7102B0ED0402B14
S31500000CE00AD03BB11220CFE74FF40055F0E74FF49E
S31500000CF00075EDE70125EBE71D46E9E70425E7E783
S31500000D005444570000879303A4770000D07800006E
S31500000D10F0B587B000295AD0002858D08B78022B1E
S31500000D205DD10646344800232922CDE90133C76840
S31500000D3005930D46CDE9033302A98DF8042001A8D9
S31500000D40B847044600283FD12B78029AB260002BA0
S31500000D5041D101A803F0D6FB0446002844D1287AE5
S31500000D60264B3460F4601E60C0B9EB68002B3DD0A2
S31500000D702349022003F004FAD5E90332F36006237F
S31500000D8072608DF8043002A901A8B847029AB2F839
S31500000D90203143F00203A2F82031287AAB78194AB1
S31500000DA0EF78A988D35CEA883B4311436F78B26831
S31500000DB06D7A0B43144953809071157231601FB1DF
S31500000DC00021FF2311701370204607B0F0BD0124E7
S31500000DD0204607B0F0BD0524204607B0F0BD043B11
S31500000DE0022B9ED90324EFE70A24EDE701A803F0BE
S31500000DF0BDFB0124E8E700BF947800004C01FE1F0C
S31500000E00390B0000C07700005444570090F83C109E
S31500000E10012900D070470A4A90F83D30126AC08F07
S31500000E2082B001922BB1DDED017A17EE903A02B055
S31500000E30184707EE902A194617EE903A02B018475F
S31500000E40C87700004269E2B170B4C4780569436AA4
S31500000E50417804F00306022E14D02E7861B1B6B2A2
S31500000E601979C909FCD0DE8104F00303D21A2B4498
S31500000E70C0E9043270BC70471979C909FCD0DE702C
S31500000E80F2E770472E880029EAD11979C909FCD002
S31500000E90E9E700BF4378426A5BB9C37803F003030E
S31500000EA0022B05BF107C537C537943EA00230B6069
S31500000EB07047107C537C43EA0023C3F308030B609E
S31500000EC0704700BF30B5436B0578046A85B0802251
S31500000ED000950394ADF804202BB9C36902916846C6
S31500000EE0984705B030BD826B9342FAD9C378046B3C
S31500000EF003F003021346022A826BCDB213448363C6
S31500000F002570036B10D001330363826B436B9A42E7
S31500000F10E7D100230122029383634363ADF80420E3
S31500000F20C36968469847DCE75A1C090A0263597088
S31500000F30036B01330363E8E7F0B583B04378446A93
S31500000F400022054601922BB3FE27BF26EB692771C7
S31500000F50C3B1E38AD8060DD0227C637C43EA022320
S31500000F60C3F30803194628460193FFF7ABFFE38A4C
S31500000F70D906F1D126712379DB07E7D403B0F0BD9A
S31500000F80237C637CE38ADA06FAD126712379DB07B0
S31500000F90DCD4F3E701A9FFF77DFFEB69002BEDD069
S31500000FA028460199FFF78EFF03B0F0BDF0B585B076
S31500000FB0EFF3058004F024FAEFF30383A3F11000A6
S31500000FC040B2009303F072FAEFF30383404A0093B2
S31500000FD0103B5BB2126852F833301C6824B1E568E6
S31500000FE0676A7DB363692BB1EFF3058004F006FAF7
S31500000FF005B0F0BD94F91A0003F058FA94F91A20D6
S31500001000002A33DABA7894F9193002F07F0242F0F6
S315000010100402002BBA703DDAE36900222261002B3C
S31500001020E2D02178206A00914FF48071CDE9022048
S31500001030ADF8041068469847EFF3058004F0DEF932
S3150000104005B0F0BD6678002E3ED0FB8AC3F30423BC
S31500001050F61A002E05DD01352046FFF7F3FEAE42F7
S31500001060F9D13B796FF3C7133B71BBE7510902F026
S315000010701F031848012201F160059A4040F8252017
S31500001080B87894F9193000F07F0040F00400002B86
S31500001090B87015DB5909203101220E4803F01F03F1
S315000010A002FA03F340F82130BFF34F8FBFF36F8F7F
S315000010B094F91A100029AFDB01F01F039A40490981
S315000010C0044B43F82120A7E72046FFF7BBFE89E73C
S315000010D01C7E000000E100E010B584B0EFF305804F
S315000010E004F08EF9EFF30383A3F1100040B20093EE
S315000010F003F0DCF9EFF30383134A0093103B5BB272
S31500001100126852F83330186878B18378012B12D1FF
S31500001110C2690478002181703AB1006A0390009494
S315000011200291ADF8043068469047EFF3058004F06D
S3150000113065F904B010BDFFF7FFFEEFF3058004F07C
S315000011405DF904B010BD00BF1C7E000030B585B04F
S31500001150EFF3058004F054F9EFF303831F4A00937D
S31500001160103B5BB2126852F833301C68ACB1616A4E
S3150000117094F91A208B78207803F07B03002A8B7071
S315000011801CDAE3694BB1226A039200250221009022
S315000011900295ADF8041068469847EFF30383A3F170
S315000011A0100040B2009303F081F92046FFF72EFEAF
S315000011B0EFF3058004F022F905B030BD5309203362
S315000011C00121074D02F01F0201FA02F245F8232021
S315000011D0BFF34F8FBFF36F8FD3E700BF1C7E0000B6
S315000011E000E100E0114A136870B4040A9C4216D26A
S315000011F05668C0B200F11005012356F8246003FAC0
S3150000120005F535420BD069B100EB0410936853F82D
S315000012102030C3F3400300200B7070BC70470320DE
S3150000122070BC7047184670BC704700BFF000FE1FC8
S31500001230084B1A68000A904207D241B1DA684301A6
S31500001240043200209B580B80704703207047012012
S31500001250704700BFF000FE1F084B1A68000A904254
S3150000126008D249B1DA684301043200209B581B0CAE
S315000012700B8070470320704701207047F000FE1F67
S3150000128070B4134C2268030A93421BD26668C0B23C
S3150000129000F11005012256F8236002FA05F53542E1
S315000012A010D091B1E4685B01043402FA00F01C59D5
S315000012B083B233EA144313BF002000200A7008707B
S315000012C070BC7047032070BC7047104670BC7047F6
S315000012D0F000FE1F0C4B10B41C68000AA0420ED290
S315000012E06AB1DB685DF8044B083303EB401022EA71
S315000012F001030A4042EA034242600020704703208D
S315000013005DF8044B704700BFF000FE1F144A70B42E
S315000013101468030AA3421DD25668C0B200F1100435
S31500001320012556F8236005FA04F4344212D0A94286
S3150000133010D8D26802F1080202EB431305FA00F056
S315000013405D680AD045EA0040000C0004586070BC95
S3150000135000207047032070BC7047284380B2F5E731
S31500001360F000FE1F18B1034B0360002070470120F8
S31500001370704700BF07010301012920D870B4124C41
S315000013802368020A9A4217D26668C0B200F11005B5
S31500001390012356F8226003FA05F535420CD003FA0C
S315000013A000F083B269B10020E168520108311843A8
S315000013B0505070BC00207047032070BC704703205B
S315000013C0704700040B46EFE7F000FE1F012957D8CF
S315000013D02E4BF0B41C68020AA2424ED25D68C0B21F
S315000013E000F11006012455F82250B4402C4244D096
S315000013F000EB02109C681D6954F82030002941D08A
S3150000140043F00401224E0E40EFF31087012383F3CD
S315000014101088204B1A8892B222B94FF0400CEA701D
S3150000142085F803C01A88013292B21A8087F31088B1
S31500001430CF0354F8202007D5174F22F480320F40EF
S3150000144044F8202044F8207044F82060EFF310811F
S31500001450012282F310881A8892B21AB11A88013AC8
S3150000146092B21A801B889BB213B98022EB70EA7085
S3150000147081F310880020F0BC70470320F0BC704751
S315000014800320704723F00401BCE700BFF000FE1FF5
S31500001490D5FC011F5001FE1FD5FC001FB2B10C4B3D
S315000014A010B41C68000AA0420CD2DB6822EA0104D0
S315000014B0400108330A4042EA0442C2505DF8044B38
S315000014C00020704703205DF8044B704703207047E7
S315000014D0F000FE1FD2B10E4B70B41C68000AA04289
S315000014E011D2DD68400102EA01032E582C5833431D
S315000014F061EA02029BB2210C1A4009040A432A50EF
S31500001500002070BC7047032070BC704703207047F2
S31500001510F000FE1FF8B500283BD009681E4F4FF0BB
S31500001520000C01EBC00066464FF0010E8D8840F2BC
S31500001530024295424FF000030BD10C680EFA03F2FB
S3150000154004F0B854D2B2B4F1807F0CBF164342EA1D
S315000015500C0C0133032B06D037F813209542ECD040
S315000015600133032BF8D108318142DFD16FEA0C0C2D
S315000015705FFA8CF4012003F083F8084B93F8BB2440
S315000015801643264083F8BB640120BDE8F84003F00B
S3150000159047B80646FF24EDE70478000000E0014066
S315000015A070B582B002AB002403F8044D0546184618
S315000015B00E4602F0CDFD9DF80430DB0715D5202D33
S315000015C010D8012E0ED80A4B1B691A7813BF154383
S315000015D002F0300222EA050505F0300520461D70AE
S315000015E002B070BD032002B070BD062002B070BD0F
S315000015F0F000FE1F2DE9F0470746011D0088FFF7A2
S3150000160089FF3B88002B4ED0DFF8A4E02749002253
S315000016104FF0010C4FF0400A4FF080097B68DEF86E
S31500001620106053F83250DEF8084003EBC2039B8883
S31500001630180ADBB203EB0013EFF310888CF3108863
S31500001640088880B210B9F07086F803A008880130C7
S3150000165080B2088088F3108815F4803F54F8230080
S3150000166007D020F4803025F4803844F8230044F86D
S31500001670238044F82350EFF310808CF310880B88F6
S315000016809BB21BB10B88013B9BB20B800B889BB2B4
S3150000169013B9F37086F8039080F3108801323B8803
S315000016A092B29342BAD80020BDE8F0875001FE1FDF
S315000016B0F000FE1F18B143680BB1FFF79BBF012076
S315000016C0704700BF00283AD04368002B37D02DE979
S315000016D0F04186B006AD00230922019305F8142DCA
S315000016E0184A194CD2F80C8002930646CDE903330A
S315000016F0059302A92846C047029BE3600A22BDF86B
S315000017000C308DF8042002A9059A6260284601274C
S315000017102360C047029B8DF80570284602A9A36086
S31500001720C0477368029A22612BB13046FFF762FF09
S3150000173006B0BDE8F081384606B0BDE8F08101206C
S31500001740704700BF94780000F000FE1F2DE9F041BD
S315000017502F4C23684FEA1028984584B053D262680C
S31500001760C5B205F11003012752F8282007FA03F342
S31500001770134248D00E4604A902AA034641F80C2D8E
S315000017803846ADF80C300296ADF8007005EB08153A
S31500001790FFF7C0FE2169A068EFF3108487F3108875
S315000017A01C4B1A8892B212B94027CA70CF701A8899
S315000017B0013292B21A8084F31088F40350F825207F
S315000017C007D522F4803226F4803440F8252040F8EC
S315000017D0254040F82560EFF31080012282F310883F
S315000017E01A8892B21AB11A88013A92B21A801B88E4
S315000017F09BB213B98022CB70CA7080F31088002088
S3150000180004B0BDE8F081032004B0BDE8F08100BF5C
S31500001810F000FE1F5001FE1F10B582B0EFF30580E9
S3150000182003F0EEFDEFF30383194A103B12685BB237
S3150000183052F833301C68EFF30383A3F1100040B273
S31500001840009302F033FE54B1637C73B9236833B15D
S315000018506268009200228DF8042068469847EFF3EC
S31500001860058003F0CBFD02B010BDA368DA6A6FF302
S315000018700002DA62A17C00229A6401B1DA64E27C99
S315000018800AB100221A65DA6B6FF38612DA63DDE7B6
S315000018901C7E000070B1084A084B12689A4207D1B4
S315000018A0074B1B685A6803EB8203036000207047EE
S315000018B012207047012070470401FE1F494D460063
S315000018C09CB17F4020B1034B1B680360002070472A
S315000018D001207047AC78000008B5154B196889B12E
S315000018E003F57F70002201E053F8041F83420A4487
S315000018F0FAD13AB90F4B19680B0CB3F5807F04D0B7
S3150000190000BEFDE700BE00BEFCE70B68013B0333EB
S3150000191007D824310422084804F07AFF20B100BE1B
S31500001920FDE700BE00BEFCE7044B054A1A6008BD91
S31500001930C47900009CB17F40E87900000401FE1FD5
S31500001940494D4600A8B10C4A0C4B12689A420ED17A
S315000019500B4B1B685A6800F1100103EB820353F826
S31500001960042F40F8042B8142F9D100207047122041
S3150000197070470120704700BF0401FE1F494D460015
S315000019809CB17F4040B13AB1F0B51B4C1B4B24686B
S315000019909C4203D01220F0BD01207047184B1E68F0
S315000019A01EB3184B07781B68002404E00134B442C8
S315000019B003F1080319D09D79BD42F7D193F805C00C
S315000019C04588B5EB9C0FF1D1DD7990F801C005F0A3
S315000019D0070EE645EAD1B1EBD50FE7D19B88147027
S315000019E0C3F3090353800020F0BDDF21FF231170EC
S315000019F053800B20F0BD00BF0401FE1F494D460079
S31500001A009401FE1F1C7E000038B131B18A4A8B4B0F
S31500001A1012689A4203D012207047012070472DE9C0
S31500001A20F041874D0278AC6805EB8404A3789A42AE
S31500001A3064D24FEA121C04EB8C0702F00F06B7F8CB
S31500001A40088028FA06FE1EF0010F57D0072EBF7A2F
S31500001A500AD904EB8C0C02F007069CF80B2002F066
S31500001A600F0217444FEA1828DFF8DCC1754A1CF844
S31500001A70066006EA08061B09925D02333A449B009B
S31500001A8003EB4203E618E25A96F90160C2F3090233
S31500001A90002E05EB820308DB002B2FD04678002EA4
S31500001AA04BD040F27950BDE8F08115F822204578F8
S31500001AB05208DDB14FF0020C012604271C78E4071A
S31500001AC005F1FF35EDD5052A0CD8DFE802F0342DF7
S31500001AD0221C1A039A78D41C1CFB026202EB9402A5
S31500001AE003EB82031A785208002DE7D1042A00F28C
S31500001AF0A080DFE802F06262624F3B004FF4AF6005
S31500001B00D1E70833EEE79A7817FB026203EB82030C
S31500001B10E8E71C799A7812FB04F20332033402EBED
S31500001B20940203EB8203DDE71A79033202F4FE72B4
S31500001B300C321344D6E70C33D4E7DF784088D4F868
S31500001B4004C03E46C6F30304C7F3031701264F72CB
S31500001B508C728E8000284FD135F822209B78CB805E
S31500001B600CEB02220A600872C8609CE7D8785C78A1
S31500001B705D680D6000230246C2F30302C0F3031042
S31500001B808B800B72CB60A307CC8048728A7288D593
S31500001B90002088E7D8785C789D78CC800246C0F330
S31500001BA00310C2F3030204330424487200208A722D
S31500001BB08D80CB600C72086075E7DD781E794088F1
S31500001BC02C46C5F303154D72B5B2C4F30304854222
S31500001BD08C728D8010D9DC889D68012A00FB045424
S31500001BE00C601DD0022A0AD0B3F80130CB80002247
S31500001BF00A72CA60002BCBD140F27A5053E79C7828
S31500001C00033600FB04F202EB96061844F21C03EBC3
S31500001C108203027BCA80CB600C72002AB8D1EBE744
S31500001C2018440023027BCA800B72CB60002AAFD116
S31500001C30E2E7642037E700BF0401FE1F494D460076
S31500001C40C47900000C7800008C780000034B043047
S31500001C501B6823F820100020704700BF5401FE1FA8
S31500001C60034B021D1B68002023F82200704700BFAB
S31500001C705401FE1F034B1A68137843F08003137058
S31500001C80002070475401FE1F034B1A6813786FF348
S31500001C90C7131370002070475401FE1F20B1034B79
S31500001CA01B6803600020704701207047CC78000055
S31500001CB060B1012808D1094B1B6800204021412250
S31500001CC0187119711A71704701207047034B1B6810
S31500001CD040214122987099709A7070475401FE1FF6
S31500001CE0F0B587B0002832D004461A4800230B22EC
S31500001CF0CDE90133CDE90333059302A9C3688DF815
S31500001D00042001A89847054610B1284607B0F0BD43
S31500001D10114F029B3B6001A802F07EFB606858B140
S31500001D20A3683E6803EB8000598813F8042B04323D
S31500001D30834226F82210F7D12378002BE5D03A68A3
S31500001D401378284643F08003137007B0F0BD0125D1
S31500001D50DBE700BF947800005401FE1F06207047A1
S31500001D600620704720B1034B1B68036000207047B4
S31500001D70012070473C790000324A136893F8281016
S31500001D8001F03003102B0CD0202B02D000239361DE
S31500001D90704790F82B302C499B0931F8131059B92C
S31500001DA07047038D10B403F00303284C34F8133046
S31500001DB003BB5DF8044B7047D2ED047A90F82B30E4
S31500001DC0B8EE676A07EE901AF8EE676A03F01F032B
S31500001DD0C6EE267A07EE103AB8EE477AF7EE006AB4
S31500001DE037EE267A67EE877AFCEEE77A17EE903AB8
S31500001DF09361704707EE903A4B06B8EE677A19D4AE
S31500001E00032102EB8101D1ED016A038D5DF8044BDC
S31500001E10F8EE666AC3F3052386EE876A013307EE9A
S31500001E20903AFAEEEF7A67EE867AFCEEE77AC2ED42
S31500001E30067A7047038D13F0100F0CBF03210021A3
S31500001E40DFE700BF0801FE1F48790000587900004F
S31500001E50A9B1062810B430D0052812D0042834D0F1
S31500001E6020B3012841D0022837D0032845D1244C7D
S31500001E700023E0690B60026A02F0070208E0012015
S31500001E8070471F4C0023E0690B60026AC2F30272BE
S31500001E9090F8263003F0070304EB830300205B6809
S31500001EA023FA02F20A605DF8044B7047144C08608E
S31500001EB0E069026AC2F30232EAE7114C0023E069E4
S31500001EC00B60026AC2F30262E2E70D4C0023E0698E
S31500001ED00B60026AC2F30242DAE7094C0023E069AA
S31500001EE00B60026AC2F30212D2E7054C0023E069D6
S31500001EF00B60026AC2F30222CAE70320D3E700BFDF
S31500001F000801FE1F38B50D784B788A78002465F3F2
S31500001F100E3463F30A24CB780D7962F3061463F367
S31500001F2002044A798B7965F3124462F31E740546FE
S31500001F3063F31A64002002F0A3FB2C620020BDE8C4
S31500001F40384002F06DBB00BF10B5174BDC6994F842
S31500001F504120D0070CD51A6894F8263092F828202C
S31500001F60510603F007030AD4052B0DD0032B0BD023
S31500001F7094F84130DB074FF0000008D410BD228DE5
S31500001F80D206F3D4052BF1D140F2971010BD02F022
S31500001F9077FB94F841306FF3000384F8413000205A
S31500001FA002F03EFB002010BD0801FE1F38B5084BAD
S31500001FB0DC690546002002F063FB94F8303065F3D7
S31500001FC0000384F83030002002F02AFB002038BDE0
S31500001FD00801FE1F084B10B5DC69002002F050FB1B
S31500001FE094F8523043F0010384F85230002002F096
S31500001FF017FB002010BD00BF0801FE1F084B10B5DF
S31500002000DC69002002F03CFB94F852306FF30003C9
S3150000201084F85230002002F003FB002010BD00BF00
S315000020200801FE1F084B10B5DC69002002F028FBF2
S3150000203094F83E3043F0800384F83E30002002F0EE
S31500002040EFFA002010BD00BF0801FE1F084B10B5B7
S31500002050DC69002002F014FB94F83E306FF3C713DE
S3150000206084F83E30002002F0DBFA002010BD00BFED
S315000020700801FE1F084B10B5DC69002002F000FBCA
S3150000208094F8533043F0010384F85330002002F0F3
S31500002090C7FA002010BD00BF0801FE1F084B10B58F
S315000020A0DC69002002F0ECFA94F853306FF3000379
S315000020B084F85330002002F0B3FA002010BD00BFB0
S315000020C00801FE1F38B5084BDC690546002002F002
S315000020D0D7FA94F8243065F3061384F824300020E8
S315000020E002F09EFA002038BD0801FE1F03788B42DD
S315000020F014D343788B4211D383788B420ED3C378A3
S315000021008B420BD343798B4208D30379994205D886
S31500002110807981428CBF05200020704705207047DA
S3150000212030B583B001F07CFF1A4B01901D6818682A
S3150000213010F0020028D0DDED017A174CF8EE677A30
S31500002140F7EE006A86EEA77A0020186094F823203E
S31500002150D1B2DFED127ADFED126A27EE277AC6EEEC
S31500002160877AFCEEE77A17EE902A013AB2F1807F81
S315000021700CD25A6001F0F001F025072284F82350B2
S3150000218098601A6084F8231003B030BD12201D60D9
S3150000219003B030BD10E000E000ED00E0002474491B
S315000021A000401C4608B1FFF7BBBF0320704700BFC5
S315000021B0052827D0144B042870B5DC6903D194F8A0
S315000021C08034DB071BD4054600200E4602F058FA81
S315000021D094F83E306FF3C71384F83E3094F83E30DF
S315000021E066F3061384F83E3094F83E3065F3020336
S315000021F084F83E30002002F013FA002070BD4FF440
S31500002200C87070BD032070470801FE1F30B583B04B
S31500002210002953D00246002870D0414CE36993F858
S31500002220AA0010F0010063D193F8A000196A25688E
S31500002230C1F302318DF80010196AC1F302218DF83D
S315000022400110196AC1F302118DF80210196AC1F35F
S3150000225002018DF80310196AC1F302418DF80410CA
S31500002260196AC1F302718DF805101B6AA968C3F3D8
S31500002270026300F003008DF8063009B1032840D050
S31500002280EB680BB1022844D01146012001F078FF1B
S31500002290E469002002F0F4F994F8403043F080033A
S315000022A084F8403094F8403043F0010384F840301D
S315000022B0002002F0B5F9002003B030BD184BDD69EF
S315000022C095F84130DB0715D408460C4602F0D8F9DC
S315000022D095F8403064F3000385F8403095F84030B7
S315000022E064F3C713204685F8403002F099F920467A
S315000022F003B030BD4FF4CB7003B030BD012003B046
S3150000230030BD29696846FFF7F1FE0028BCD00520DC
S31500002310EEE769696846FFF7E9FE0028F7D1B3E7FB
S315000023200801FE1F38B50B4B04461B68002093F8C6
S31500002330225002F0A5F994F88034DB0705D594F80D
S31500002340813423EA050384F881340020BDE838404F
S3150000235002F066B90801FE1F062070470620704786
S31500002360062070470620704728B321B3134BDB695C
S3150000237093F82620C2F3020202701A6AC2F30232EE
S315000023800A701A6AC2F302224A701A6AC2F3021269
S315000023908A701A6AC2F30202CA701A6AC2F3024249
S315000023A00A711A6AC2F302724A711B6AC3F30263A4
S315000023B08B71002070470120704700BF0801FE1F87
S315000023C005292ED8DFE801F00A11181F260390F818
S315000023D02A0000F0010080F00100704790F83600F6
S315000023E000F0010080F00100704790F8380000F01E
S315000023F0010080F00100704790F8900400F00100A1
S3150000240080F00100704790F8320000F0010080F083
S315000024100100704790F8800400F0010080F0010090
S3150000242070470020704700BF30B5A1F1020483B0A9
S315000024304FF6FF73B4FA84F40546640901930A4A19
S3150000244004E0019B43B1019B013B01932946D069FE
S31500002450FFF7B6FFA042F4D1019B002B0CBF4FF44F
S31500002460CD70002003B030BD0801FE1F70B5344C9E
S3150000247086B0204601F072FE06A8002303220093D0
S3150000248000F8182D2F4ACDE90233CDE9043302A90D
S31500002490D3689847029DE5614FF6FF73019395F85F
S315000024A03630DA0705D50BE0019B33B1019B013BC2
S315000024B0019395F83C30DB07F6D5019B002B39D00C
S315000024C0002002F0DDF895F8A530062262F302033B
S315000024D085F8A530002002F0A3F82368E669D3E961
S315000024E0061200254FF6FF732261174A019328460C
S315000024F04FF40043C4E902236160A561636102F001
S31500002500BFF896F8803443F00103284686F88034F5
S3150000251002F086F801210420FFF786FF054648B938
S31500002520E36918461A6A93F82630FFF7FBFE284639
S3150000253006B070BD4FF4CD75284606B070BD00BF1D
S315000025400801FE1F9478000000127A00052828D89A
S3150000255038B5524DEA6992F8263003F007039842DF
S315000025601CD0052B12D092F82A30DB070ED5012895
S31500002570044618D192F84030DB097DD11046214639
S31500002580FFF71EFF00283BD1002038BD2B6893F8CB
S3150000259028305C062DD403239842E8D140F29110EE
S315000025A038BD0320704710462146FFF709FF002873
S315000025B0EAD0032CED6935D0052C2CD0002C49D15E
S315000025C095F83C30D9072AD5204602F059F895F8F7
S315000025D0363043F0010385F83630002002F020F84B
S315000025E020460121FFF720FF0028CDD04FF4CD7003
S315000025F038BD138D13F0100F0CBF03230023CBE758
S315000026000020ED6902F03CF895F8383043F00103FC
S3150000261085F83830E1E795F83C309B0610D440F257
S31500002620931038BD95F83C301A07F8D5002002F013
S3150000263027F895F8323043F0010385F83230CCE7BD
S31500002640002002F01DF895F82A3043F0010385F8C2
S315000026502A30C2E7002002F013F8042CBDD801A3EB
S3150000266053F824F0CF250000092600008D2600002F
S31500002670332600007F26000040F2951038BD95F8FD
S31500002680803443F0010385F88034A6E795F890344A
S3150000269043F0010385F890349FE700BF0801FE1F51
S315000026A005281DD808B5431E012B014608D9042864
S315000026B006D068B1032815D005281FD0002008BD14
S315000026C0194BD869FFF77CFE38B140F2911008BD6E
S315000026D0154AD069FFF774FEF0B94FF4C87008BD0B
S315000026E003207047104AD069FFF76AFE0028F4D02D
S315000026F0D36993F83C301B0713D40AE00A4AD06921
S31500002700FFF75EFE0028E8D0D36993F83C309906BF
S3150000271007D440F2931008BDD36993F83C30DA072A
S31500002720F7D54FF4C97008BD0801FE1F70B50646FF
S315000027304FF6FE7440F2931501E0013C05D0304699
S31500002740FFF7AEFFA842F8D000B970BD6FF4C873AA
S31500002750C318012B98BF002070BD00BF30B583B0F1
S315000027604FF6FF730446012001930D4601F088FFE2
S3150000277002A8002300F8053D01F0C4FB94F8AA3036
S31500002780D90604D494F8A030C3F3001353B1019BC7
S31500002790013B0193019B002BF0D1012001F040FF8A
S315000027A003B030BD94F8AA2063F300024FF6FF731E
S315000027B084F8AA20019302E0019B013B019394F85F
S315000027C0AA30DA0603D494F8A030DB0602D5019BC2
S315000027D0002BF1D194F8A030042D0CBF43F0030375
S315000027E065F3010384F8A0304FF6FF73019302E00E
S315000027F0019B013B019394F8AA30D80603D494F8C0
S31500002800A030D90602D5019B002BF1D194F8AA304D
S31500002810042D0CBF43F001036FF3000384F8AA30C4
S315000028204FF6FF73019302E0019B013B019394F87D
S31500002830AA30DA0603D494F8A030DB0602D5019B51
S31500002840002BF1D19DF8030001F070FB012001F08F
S31500002850E7FE03B030BD00BF0428124B0BD00228A0
S3150000286009D01A6892688A4204D3D86990F82A3047
S31500002870DB0714D47047D86990F82A20D207F0D520
S3150000288090F83220D207ECD590F83620D207E8D55A
S3150000289090F83820D207E4D50421FFF75FBF032163
S315000028A0FFF75CBF0801FE1F052837D82DE9F8435E
S315000028B0AE4E2DED028B0D4604460146F069FFF73C
S315000028C07FFD0746002842D1042C57D0012C44D066
S315000028D034B3032C60D0052C00F0B880F56901F004
S315000028E0CFFE032C00F09C80042C4ED0022C3ED14F
S315000028F095F890346FF3000385F89034002001F0CA
S315000029008FFE20460221FFF78FFD002814BF4FF4EB
S31500002910CD700020BDEC028BBDE8F8830320704724
S31500002920F56995F83C30DB0700F1818095F8AA300F
S31500002930DF0700F1858095F8A030002001F0A0FEA9
S3150000294095F836306FF3000385F83630D6E7F06930
S31500002950FFF712FA40F29110DCE7F56995F8AA3014
S31500002960DA0767D495F8A030002001F089FE95F8C3
S3150000297038306FF3000385F83830BFE7F069FFF7AA
S31500002980D1FC3846F56901F07BFE95F880346FF38B
S31500002990000385F88034B1E7F76997F83C301807EB
S315000029A045D497F8AA30D90700F1BD8097F8A03032
S315000029B03168002091F8275091F8208091F82190F5
S315000029C001F05EFE97F8133405FA09F25BB25A403D
S315000029D002EA08025340DBB287F81334002001F004
S315000029E01FFEF569002001F04BFE95F813346FF3D6
S315000029F0861385F81334002001F012FEF5690020D5
S31500002A0001F03EFE95F8A230052262F3030385F835
S31500002A10A230002001F004FE0020F56901F030FE2E
S31500002A2095F832306FF3000385F8323066E740F2EE
S31500002A3093106FE728460321FFF790FEF56993E7A9
S31500002A4028460321FFF78AFEF56976E7002D70D048
S31500002A503368697893F8242091425FD893F826204A
S31500002A6095ED017A07EE902AF8EE677AF4EEC77ACA
S31500002A70F1EE10FA52D493F8253007EE903AF8EEBC
S31500002A80677AB4EEE77AF1EE10FA47D4297803298B
S31500002A9001D0002942D1F069FFF792FC00284AD004
S31500002AA0F76997F83C309A06C1D497F8AA30DB0745
S31500002AB056D497F8A03095F80080002001F0E0FD8C
S31500002AC03B8DB8F1030F0CBF6FF3041343F01003F3
S31500002AD03B85002001F0A4FD3368F76993F82830A0
S31500002AE095F8018003F03003102B41D0202B53D0F2
S31500002AF095ED018A202B21D0F069FFF73DF90021E1
S31500002B00F069FFF72BFEF569002001F0B9FD95F895
S31500002B102A306FF3000385F82A30EFE6BDEC028B0E
S31500002B200320BDE8F88338462146FFF717FEF7690C
S31500002B303EE70120EEE64FF4CA70EBE6002001F016
S31500002B409FFDFCEEC87A97F82B2017EE903A013BD2
S31500002B5063F3040287F82B20002001F061FDCBE728
S31500002B6038460321FFF7FAFDF769A4E70801FE1FBF
S31500002B70214B002033F8189001F082FD3B8D69F35C
S31500002B8001033B85002001F04BFD336893F82830A4
S31500002B9003F03003202B13D1184B002033F8188094
S31500002BA001F06EFD97F82B3068F3871387F82B300A
S31500002BB0002001F035FD336893F8283003F0300328
S31500002BC0102BF76995ED018A94D1002001F058FD8C
S31500002BD078EE087A3A8DFCEEE77A002017EE903A06
S31500002BE0013B63F30D223A8501F01AFD336893F831
S31500002BF0283003F030037DE750790000407900006B
S31500002C00012814D0022801D000207047052938B5C4
S31500002C1015460C460ED0291D2046FFF745FE20B16D
S31500002C2040F29113984200D038BD002038BD0846C6
S31500002C30FFF78CBC11461079FFF736FE18B140F24B
S31500002C4091139842F0D12879FFF770FD0028E2D061
S31500002C50EAE700BF2DE9F047052884B000F28D8031
S31500002C60002900F08F800B788A799342C0F0858026
S31500002C704C789C42C0F08180CC789C427DD84B79C0
S31500002C8093427AD30C79944277D304280C460546AE
S31500002C907DD05C4FF86990F8263003F007039D421B
S31500002CA007D0002D40F0898090F83C30D90740F1DC
S31500002CB08D80036A036A036A036A036A036A036A06
S31500002CC00021C3F30268FFF749FD07EB8502A079EF
S31500002CD05368F969C340002201938DF800208DF8EE
S31500002CE00C200A6A91F8263003F0070307EB8303EA
S31500002CF0C2F302625B686846D340029301F0A0F912
S31500002D00064600283AD1A379D7F81C90434505F02A
S31500002D10070A5ED921464846FFF7F4F8FC693046B3
S31500002D2001F0AEFC94F826306AF30203304684F8CC
S31500002D30263001F075FCFB691A6A93F8263003F019
S31500002D40070307EB8307C2F302627B686846D3403A
S31500002D50012202938DF8002001F072F9064668B947
S31500002D6001F05EF9284B1860002848D00146284635
S31500002D70FFF772FDFFF7D4F900E00326304604B0F2
S31500002D80BDE8F0870126304604B0BDE8F08792B969
S31500002D908BB91C4FF86990F84030DB090BD190F8DD
S31500002DA0263003F00703042B83D02946FFF708FBE0
S31500002DB028B3F8697DE70526E0E7032D19D0052D30
S31500002DC0F3D190F83C309B063FF573AF40F2931673
S31500002DD0D4E701F055FC99F826306AF30203304631
S31500002DE089F8263001F01CFC2146F869FFF78AF8BD
S31500002DF0A1E790F83C301A073FF55BAFE6E74FF4E2
S31500002E00C876BBE70801FE1FB001FE1F2DE9F04F93
S31500002E1083B0002853D0DFF83C910778D9F81C30EE
S31500002E20467D93F826801A6A1A6A1A6A1A6A1A6A14
S31500002E301A6A1B6A027DC37DC17C8DF801208DF85C
S31500002E400330827D037E8DF80060052F08F00708A9
S31500002E508DF802108DF804208DF805302AD802AAC4
S31500002E603A4412F8082C012A24D0022B08D1027900
S31500002E70052A1FD802A90A4412F8082C012A19D0DB
S31500002E808246524618460521FFF7BAFE0446D8B9CF
S31500002E90054640F2911BE9B230465246FFF7B0FEB6
S31500002EA00135044608B1584505D1052D12D01DF847
S31500002EB00560F0E70324204603B0BDE8F08F012447
S31500002EC0204603B0BDE8F08F40F291139842F2D14C
S31500002ED00025DEE73846FFF729FC04460028EAD13C
S31500002EE0042F19D025460AF10C013846FFF7B2FE29
S31500002EF004460028DFD1474505D002AB434413F80A
S31500002F00083C012B1DD0002DD5D001F089F80146D3
S31500002F103846FFF7A1FCCEE7D9F81C3093F82A20F3
S31500002F20D00715D593F83220D10711D593F836205E
S31500002F30D2070DD593F8385005F0010585F0010547
S31500002F40D1E74046FFF702FB0028DCD00446B2E793
S31500002F500125C8E70801FE1F20B1034B1B6803606B
S31500002F6000207047012070479479000006207047C2
S31500002F7088B10F4B826A9A420BD1C3695BB190F854
S31500002F802420022A09D01A8842F400721A800020EE
S31500002F90704707207047012070471888C00B04D17E
S31500002FA01A8842F400421A8070470820704700BF12
S31500002FB04344415298B10B4B826A9A420DD1C36980
S31500002FC06BB190F82420022A1A8814BF6FF34922A5
S31500002FD06FF3CF321A800020704707207047012018
S31500002FE0704700BF4344415268B1084B826A9A4217
S31500002FF007D1C3693BB11B88DB0B0CBF002008203F
S315000030007047072070470120704700BF4344415274
S31500003010E8B1CB1CDBB21E2B1BD8002910B407DB92
S31500003020134B048853F8244001238B40234216D0C7
S31500003030104B846A9C420ED1AAB1C369ABB1103160
S31500003040002033F8113013805DF8044B70470120DF
S3150000305070470320704707205DF8044B7047032034
S315000030605DF8044B70470220EEE70120ECE700BF55
S315000030705801FE1F4344415230B583B00023ADF8DA
S3150000308006308AB114460DF106020546FFF7C0FF69
S31500003090BDF8063010B1236003B030BDEA88B2F542
S315000030A0004FF8D11B04F6E7022003B030BD00BF85
S315000030B018B311B31A4B826A9A421CD191F90020B7
S315000030C0D31CDBB2122B1DD8002A18DB154B10B40B
S315000030D0048853F8244001239340234214D04978AE
S315000030E0062911D9C369CBB11A44002082F8E01031
S315000030F05DF8044B704707207047012070474978F8
S31500003100062903D8032070470320F1E7C369002B83
S31500003110F3D01A44002082F8E01070470120E7E758
S31500003120434441525801FE1F88B381B3354B826A2E
S315000031309A422AD10379012B5AD070B5C56982B05B
S315000031403DB3C46A44B34FF0FF330126013306FA98
S3150000315003F22242FAD01C2B4ED01D2B4AD010333C
S315000031605A0015440D6020230126013B06FA03F59B
S315000031702542FAD01C2B41D01D2B41D010335B00C9
S315000031809B1A5B1001334B6007E007207047012054
S315000031907047012002B070BD4C601B4A0388166957
S315000031A0ADF806300C460023012120220546ADF875
S315000031B0043021728DF8042000936A46022101A88A
S315000031C0B0470028E6D12B78BDF80220628104338F
S315000031D05B004FF0FF326372E260EB7A012B04D1A1
S315000031E06B691B68C3F30B03E3606B882382D1E72B
S315000031F0032070471C22B4E71A22B2E71A23BFE75E
S315000032001C23BDE74344415294780000D0B110B569
S3150000321084B0002304466846CDE90033CDE9023385
S3150000322000F07CFF9DF80C309B070DD5E3691A88EA
S31500003230D20B0CD11B8813F4007F14BF1B20002077
S3150000324004B010BD01207047062004B010BD1B203D
S3150000325004B010BD30B5B0F880306FF30003A0F8AD
S3150000326080300388C3F34133012B038A43F47C5334
S3150000327083B00D46038203D1038A43F03F030382E2
S31500003280002404802B88448220226846ADF8004042
S31500003290ADF802308DF8002001F0BAF8EB6ADB00D9
S315000032A00AD52B6903B11C7002A8002222230192C1
S315000032B000F8043D01F0ACF803B030BD70B4C3694A
S315000032C08E7FB3F8A221CD7F91F8204066F30302EA
S315000032D0A3F8A221B3F8A22165F30712A3F8A2214D
S315000032E0B3F8A22164F30B22A3F8A221B3F8A0211C
S315000032F042F00802A3F8A021B3F8A02142F0800210
S31500003300A3F8A021B3F8A02142F40062A3F8A021FB
S31500003310FF2EB3F8A02100F0B7806FF30002A3F8E8
S31500003320A021B3F8A02142F00202A3F8A021B3F82D
S31500003330A02142F00402A3F8A021FF2DB3F8A0219A
S3150000334000F091806FF30412A3F8A021B3F8A02136
S3150000335042F02002A3F8A021B3F8A02142F04002D7
S31500003360A3F8A021FF2CB3F8A0216BD06FF308229D
S31500003370A3F8A021B3F8A02142F40072A3F8A0217B
S31500003380B3F8A02142F48062A3F8A0218C7FC36920
S31500003390C87F91F8201004F17F02D2B23A2AB3F81E
S315000033A0B0212BD8C4F3011464F30102A3F8B021B1
S315000033B0B3F8B02142F00802A3F8B02100F17F0271
S315000033C0D2B23A2AB3F8B02123D8C0F3011060F381
S315000033D00512A3F8B021B3F8B02142F08002A3F899
S315000033E0B02101F17F02D2B23A2AB3F8B0211BD93B
S315000033F06FF3CB22A3F8B02170BC70476FF3C30202
S31500003400A3F8B02100F17F02D2B23A2AB3F8B02174
S31500003410DBD96FF3C712A3F8B02101F17F02D2B254
S315000034203A2AB3F8B021E3D8C1F3011161F30922B6
S31500003430A3F8B021B3F8B02142F40062A3F8B0219A
S3150000344070BC704742F48072A3F8A021B3F8A021A3
S315000034506FF34922A3F8A021B3F8A0216FF38A22C3
S31500003460A3F8A02192E742F01002A3F8A021B3F836
S31500003470A0216FF34512A3F8A021B3F8A0216FF3A2
S315000034808612A3F8A0216DE742F00102A3F8A0215D
S31500003490B3F8A0216FF34102A3F8A021B3F8A0214D
S315000034A06FF38202A3F8A02147E700BF002842D0AD
S315000034B03C4B826A9A423CD1C369002B3BD030B563
S315000034C0044690F93000002310F1210F83B0A36267
S315000034D00BD098424BDA00F0E9FF334B94F93020D9
S315000034E01B6853F8323000221A6094F9310010F14B
S315000034F0210F0BD0002820DA00F0D8FF2A4B94F9D0
S3150000350031201B6853F8323000221A602146E069E8
S31500003510FFF7A0FE02A800252023ADF8045000F80E
S31500003520043D2388ADF8063001F020F8284603B0A4
S3150000353030BD072070470120704742092032012321
S315000035401A4900F01F0003FA00F041F82200BFF309
S315000035504F8FBFF36F8F94F931000028CCDB4209FF
S31500003560603200F01F05AB4041F82230C4E7420943
S31500003570203201230D4900F01F0003FA00F041F844
S315000035802200BFF34F8FBFF36F8F94F930000028EE
S31500003590A1DB4209603200F01F05AB4041F8223042
S315000035A099E700BF434441521C7E000000E100E061
S315000035B02DE9F0438DB048B141B18B88C3F30E03BA
S315000035C04BB1032528460DB0BDE8F08301252846FA
S315000035D00DB0BDE8F0830C46064608A8CDE90833D1
S315000035E0CDE90A338D7800F099FDA37933B19DF8C2
S315000035F02C20D70740F1A081852BE2D0E27912F08A
S31500003600DF0FDED1227A022ADBD8A1780229D8D8A8
S31500003610E07808B1052BD4D0206908B10229D0D0B2
S31500003620012D00F09781BF4BB56A9D4200F088815D
S3150000363025886369ADF80A503580BB4FA58894F894
S315000036401CE094F81DC0B36130620023E07F317145
S31500003650F58094F82010A57F86F824202022ADF866
S315000036600830CDE90833CDE90A3386F8345086F8B8
S31500003670350086F83610FB6886F832E086F833C0E7
S315000036808DF8082002A80DEB020198470546002890
S315000036909DD1BDF82620089BF361C2F38203043353
S315000036A0C2F340125B0072723372A049208851F84F
S315000036B020204AB90B9A558841F820505268120CBE
S315000036C012042A4341F820200C2B00F04A810E2BCD
S315000036D000F03881102B03D1E378042B7FF471AF0F
S315000036E002A800F00FFF054600287FF470AF08908F
S315000036F0D7F8108008AA022102A8C04723699DF9BD
S31500003700200086F83000002B00F03D8110F1210FDB
S3150000371000F03481864AA37A12681B01002852F809
S3150000372030C0DBB2C2B2C0F23381DFF808E24FEA42
S31500003730501909F120097044012102F01F0201FA13
S3150000374002F280F80033CCF800604EF82920BFF36F
S315000037504F8FBFF36F8F96F93000002806DB4309C1
S31500003760603300F01F0291404EF8231000F09EFED9
S3150000377008AA032102A8C047A3789DF9200086F86D
S315000037803100012B00F0F28010F1210F2DD0684A94
S31500003790E37A12681B01002852F830E0DBB2C2B2AD
S315000037A0C0F2FE80DFF88C814FEA501C0CF1200C31
S315000037B04044012102F01F0201FA02F280F80033B0
S315000037C0CEF8006048F82C20BFF34F8FBFF36F8F01
S315000037D096F93100002806DB4309603300F01F022A
S315000037E0914048F8231000F061FE00237381C6E97A
S315000037F0043304A8CDE90433CDE90633019300F080
S315000038008DFC9DF81020019B039322218DF80C104E
S31500003810D1060ED5CDE90833CDE90A3308A9FB68F0
S3150000382003A89847E0B90122089BB2729DF81020C0
S315000038303361120711D500234FF00108FA688DF89D
S315000038400D80CDE90833CDE90A3308A903A89047CE
S3150000385030B9089B86F80B807361BDF8123073800F
S315000038603146F069FFF7F6FC002720222388ADF8E1
S31500003870107004A88DF81020ADF81230CDE9087745
S31500003880CDE90A7700F0C8FDF369A1781F805F8251
S315000038901A8861F34E321A801A8867F3C7121A80A3
S315000038A0227A012A00F084803AB9198841F480719D
S315000038B01980198A62F30D211982D88994F803C0F8
S315000038C0A188E279A7796CF34200D881A1F500417D
S315000038D0D889B1FA81F1490961F3CF30D881A2F1D3
S315000038E02002D989B2FA82F2520962F34511D981CE
S315000038F008A81F7300F012FC9DF82C30C3F3400299
S31500003900D1B2327319B1217B002900F088805B07A0
S3150000391054D4737A012B00F09080024B0022C6E942
S315000039200A3254E643444152947800005801FE1F7F
S315000039301C7E000000E100E018063FF55FAE40E6A1
S31500003940082544E6E378032B3FF4CAAE002B3FF488
S31500003950C7AE36E6258940F201139D423FF463AEB9
S315000039602FE6E378022B7FF6BBAE2AE62369002B0F
S315000039703FF40AAF10F1210F7FF409AF02A800F05F
S31500003980F5FD0B2523E610F1210F3FF4F1AEC1E65C
S31500003990374902F00F0211440B76CCF80060E5E6D9
S315000039A0334902F00F0211440B76CEF800601AE795
S315000039B01A8A092161F30D221A827EE7F36996F8C5
S315000039C0321093F8E12161F3420283F8E12193F882
S315000039D0E12142F0100283F8E1210121962000F056
S315000039E035FDF36996F8330093F8E12196F8321025
S315000039F060F3000283F8E12193F8E1216FF3C3023B
S31500003A0083F8E12129B193F8E12142F0080283F815
S31500003A10E121012140F2DC5000F018FD79E7304643
S31500003A20FFF7F4FB074668B102A800F09FFD314698
S31500003A30F0693D46FFF70EFCC9E521463046FFF723
S31500003A403DFC6AE796F9300000F030FD96F930301B
S31500003A50002B09DB5A09603203F01F0301210548D8
S31500003A6001FA03F340F822309DF82C304FE700BFEF
S31500003A70FCEC00E000E100E0002800F00E810029E7
S31500003A8000F00B81B74B826A9A4240F004812DE91F
S31500003A90F041C66986B0002E00F001810B6804462D
S31500003AA00D46002B00F00081AF4A018852F8212014
S31500003AB042F04052D243134240F0F68031886868A3
S31500003AC0C1F34131012900F0F480002840F0EC8078
S31500003AD0002302A8CDE90233CDE9043300F01EFB32
S31500003AE09DF80820970700F1EA80D5E9003111F02A
S31500003AF0405F40F0D98013F040510BD0308800066B
S31500003B0000F1D280520700F15D8196F87A20002AF2
S31500003B1040F0CA80327BE968520700F004816A6887
S31500003B201A4331EA020240F0BF80002900F0BC804F
S31500003B302A7C002A40F064816A689FB290B2B780FE
S31500003B40B082180C13438FB2120C090C13F0405FAD
S31500003B503781F080F28271815DD00DF11808002363
S31500003B6002A848F8143DCDE90233CDE9043300F04C
S31500003B70D5FA7E4B9DF810009B69414698470199FE
S31500003B807B4B994240F28F802B68002840F08C8056
S31500003B907848039AA0FB0101890C774802FB01F7DC
S31500003BA0A0FB0727BF09FA1FF82A7DD8D90000F124
S31500003BB0CA806A68D20015D5FAB286F8DE20A27AE3
S31500003BC0012A00F09E80728A6FF308227282728A3E
S31500003BD042F480627282EA68718AC2F3007262F30A
S31500003BE00001718213F0005340F0A1806A689100D1
S31500003BF011D5FFB286F8DF70728A63F349227282AA
S31500003C00738A43F400637382EB68728AC3F340736A
S31500003C1063F3410272822B7C6A7C2989E7692079E9
S31500003C205B0203F4C063134348F201029142A6F813
S31500003C30663046D00228A6F880105FD0B7F800801C
S31500003C40C8F34138B8F1010F00F09A8094F93000BA
S31500003C5010F1210F13D000F029FC94F93020002A2E
S31500003C600DDB53099B0003F1604303F5614302F04A
S31500003C701F02012101FA02F2C3F880211A60298984
S31500003C802B6848F20102914236D148F20102A6F8A9
S31500003C908020002009E0072070470120704701209E
S31500003CA006B0BDE8F0812B680320E36206B0BDE8EC
S31500003CB0F0810028F8D01A430242F5D108E72B68B4
S31500003CC019E7022800F0EE803B88C3F34133012B4D
S31500003CD0BCD13A8A94F9310042F03F0210F1210F2B
S31500003CE03A8204D0002880F2BD8000F0DFFB3B88DA
S31500003CF06FF386133B80A9E70020D6E72B680020E8
S31500003D00D3E71E4800232222CDE90133CDE9033350
S31500003D10059302A9C3688DF80420404698470028F9
S31500003D205DD02B68C1E700293FF402AFBCE7FFB2C4
S31500003D3086F8DF70738A43F400737382738A6FF3B5
S31500003D40CB23738260E7FAB286F8DE20A27A012AD4
S31500003D50D7D0728A42F480727282728A6FF38A2294
S31500003D60728238E7434441525801FE1FD078000062
S31500003D703F420F0083DE1B43D34D62109478000050
S31500003D8094F9310010F1210F12D000F08FFB94F955
S31500003D903130002B0CDB5A09920002F1604202F529
S31500003DA0614203F01F0308FA03F3C2F8803113607F
S31500003DB03B8843F040033B803B8A0A2262F30503BB
S31500003DC03B8243E7B1F1405F3FF46EAF33F07042A0
S31500003DD07FF46AAF2279002A3FF49CAE64E740463E
S31500003DE000F01AFB22692B68117841F080011170EE
S31500003DF01178D80041F0100111707FF5E4AEA8E704
S31500003E00002302A8CDE90233CDE9043300F086F998
S31500003E109DF80830DB077FF546AF297C2B6807291C
S31500003E203FF642AF6A7C032A7FF63EAF37886A6860
S31500003E30C7F34137012F01EA020C01EA03002CD037
S31500003E4081427FF431AF31880F0608D4BCF1000FF0
S31500003E5003D0298900297FF427AFE9686DE6002899
S31500003E60F4D021E74209203200F01F01DFF838C004
S31500003E7003FA01F14CF82210BFF34F8FBFF36F8F97
S31500003E8094F931000028FFF630AF4209603200F0A5
S31500003E901F018B404CF8223027E78142D3D0614581
S31500003EA0D1D001E72B68F0E600E100E010B584B060
S31500003EB0EFF3058001F0A4FAEFF30383104A103BF9
S31500003EC012685BB252F833301C68EFF30383A3F138
S31500003ED0100040B2019300F0E9FA5CB12188236A30
S31500003EE0A269ADF8041000218DF8061002920BB1FC
S31500003EF001A89847EFF3058001F080FA04B010BDE1
S31500003F001C7E000068B1084AB2F8001192F8003130
S31500003F10C1F300016FF300030170002082F8003145
S31500003F2070470120704700BF00C00140104991F85A
S31500003F30043143F0010381F80431B1F80431DB07A1
S31500003F400AD54FF0FF3300E07BB1B1F80421D20768
S31500003F5003F1FF33F8D443B1054A92F8003160F318
S31500003F60000382F80031002070471420704700BF1C
S31500003F7000C0014070B5274D82B02B6898470021DC
S31500003F80AE680320B0470121234AEC698DF8011081
S31500003F90032301928DF800300320A047B0F5C97FB6
S31500003FA0FAD169460520B04728B140F291139842EC
S31500003FB001D000BEEC69194A92F8003143F00103C2
S31500003FC082F800310520A047B0F5C97FFAD1012358
S31500003FD002228DF806308DF800308DF803308DF80A
S31500003FE0043069468DF801208DF802208DF80520F1
S31500003FF02B690520984700B100BE2B6E0420984718
S31500004000AB6A01209847EB6A9847AB6D984702B0B8
S3150000401070BD00BFD07800000000A04100C0014084
S3150000402000B583B002A9002341F8043D034B0620E6
S315000040309B699847019803B05DF804FBD0780000AF
S31500004040037803BB41682F4A914230B42ED82E4ADA
S315000040502E4CF1201071107A63F382001072107AE0
S3150000406063F3C3001072107AF02563F34100A14296
S315000040701072157141D82649264A0B7092F81C31E8
S31500004080002030BC7047012B0ED1224A204992F8FD
S315000040901C31097803F00703994205D092F81C31C8
S315000040A061F3020382F81C3100207047164B1A4850
S315000040B0F1221A711A7A42F004021A721A7A42F03E
S315000040C008021A721A7AF02442F0020281421A7227
S315000040D01C7112D90E4A022313700E4991F81C2145
S315000040E002F007029A42CBD291F81C2163F3020236
S315000040F0002081F81C2130BC7047054A012313704B
S31500004100EBE700BF0087930300200040005A6202DD
S315000041106001FE1F00C0014000B4C404037B0278A6
S3150000412043F0010341F2360102F0F00203F0FD0311
S3150000413010B44160022442F01B024FF47A616FF31F
S31500004140820384600270418003735DF8044B7047FC
S31500004150037843F003030370704700BF014B03600D
S31500004160704700BF98790000044B002103F130022C
S3150000417043F8041B9342FBD1704700BF6401FE1F46
S31500004180024B43F820100020704700BF6401FE1F59
S3150000419008B56F4BB3F84031D90700F1CB806C4BB3
S315000041A0B3F840319A0700F1B880694BB3F8403153
S315000041B05B0700F1A580664BB3F84031180700F1A4
S315000041C09280634BB3F84031D9067FD4604BB3F885
S315000041D04001C0F3801000286CD15D4BB3F840312C
S315000041E01A065AD45A4BB3F84031DB0548D4584B1B
S315000041F0B3F84031980536D4554BB3F840315905DC
S3150000420024D4534BB3F840311A0512D4504BB3F8AB
S315000042104031DB0400D408BD4E4BDB6A0BB10B20EA
S3150000422098474B4AB2F8303143F48053A2F8303104
S3150000423008BD484B9B6A0BB10A209847444AB2F81E
S31500004240303143F40063A2F83031DFE7414B5B6A5B
S315000042500BB1092098473E4AB2F8303143F48063E7
S31500004260A2F83031CDE73B4B1B6A0BB108209847CB
S31500004270374AB2F8303143F40073A2F83031BBE765
S31500004280344BDB690BB107209847314AB2F830311D
S3150000429043F48073A2F83031A9E72E4B1B680BB1AB
S315000042A0002098472A4AB2F8303143F08003A2F83A
S315000042B0303197E7274B5B6803B19847244AB2F839
S315000042C0303143F04003A2F8303186E7214B9B6939
S315000042D00BB1062098471E4AB2F8303143F010035E
S315000042E0A2F8303172E71B4B5B690BB1052098478A
S315000042F0174AB2F8303143F00803A2F8303160E7CC
S31500004300144B1B690BB104209847114AB2F830319F
S3150000431043F00403A2F830314DE70E4B9B680BB116
S31500004320022098470A4AB2F8303143F00203A2F855
S3150000433030313AE7074BDB680BB103209847044A54
S31500004340B2F8303143F00103A2F8303127E700BF5D
S31500004350006000406401FE1F114B01785A5C02F0B8
S315000043601F03920630B4448845780DD501222B29C7
S3150000437002FA03F00ED0332904D1012D04BF013314
S3150000438005FA03F030BC70472C441B1B01209840F3
S3150000439030BC7047072CF5D9013302FA03F0F1E778
S315000043A0C47D00000378452B1CD870B5164CE55C1F
S315000043B0FF2D26D014460E46FFF7CEFF134BAA0953
S315000043C053F8223086B1AA0600D5D4B1EFF3108295
S315000043D0012181F3108819680843186082F3108858
S315000043E0002070BD01207047EFF31082012181F398
S315000043F01088196821EA0000186082F31088304698
S3150000440070BD032070BD00BFC47D00000C7E00009F
S3150000441000220121FFF7C6BF00221146FFF7C2BFE7
S31500004420034638B1054A92E80300002283E80300F8
S315000044301046704701221046704700BF347E0000C8
S31500004440A0F101000028FBD1704700BF2DE9D04341
S3150000445001FB00F4FFF7E4FD4FF47A71A4FB018938
S3150000446000274FF0FF364F4508BF46450E4BB3FBBE
S31500004470F0F007D3B8FBF0F0800890B1BDE8D04368
S31500004480FFF7DEBF8000B4FBF0F0A0FB01018F4216
S3150000449008BF8642F1D24FF0FF30BDE8D043FFF7A8
S315000044A0CFBFBDE8D08300BF00CA9A3B002808DB17
S315000044B0800000F1804000F5C64003686FF31043AA
S315000044C0036070470B4A0C4B10B49B1A0B4CDB086D
S315000044D0236063B10A4800219388C3F3090340F8B7
S315000044E0043B236801318B4202F10802F4D85DF8DF
S315000044F0044B704700050000280500009401FE1FCC
S3150000450000630040164B10B41C687CB1154B006864
S315000045101A681368984218BF002304D10AE052F8BB
S31500004520041F814207D00133A342F8D103205DF86E
S31500004530044B704700230C4A12680121134403E020
S31500004540C3E8401F0028F2D0D3E84F2F12F0FF0F28
S31500004550F6D0BFF32F8F08205DF8044B704700BFDD
S315000045609801FE1F9C01FE1FA001FE1F0F4B10B4F9
S315000045701C687CB10E4B00681A681368984218BF15
S31500004580002304D109E052F8041F814206D001330A
S31500004590A342F8D15DF8044B70470023054A126820
S315000045A00021D1545DF8044B704700BF9801FE1FEF
S315000045B09C01FE1FA001FE1FF0B5134E134C1449BB
S315000045C0144A154BDFF854C00E60A41BA4081460EF
S315000045D0C3F800C08CB106EB840735464FF0000ED9
S315000045E055F8040B3246002352F8041B884205D0C6
S315000045F001339C42F8D1BD42F2D1F0BDBD420CF868
S3150000460003E0EDD1F9E700BF28050000D806000059
S315000046109C01FE1F9801FE1FA001FE1F8400FE1FC5
S31500004620EFF31081012383F31088124B33F8102027
S3150000463092B22AB133F81020013A92B223F8102030
S3150000464033F810309BB28BB90B4A10B40B4CB2F84E
S31500004650FE3334F8100043F4254323EA0003A2F89E
S31500004660FE3381F310885DF8044B704781F31088A0
S31500004670704700BFA401FE1F00E00140207E00003D
S3150000468030B4EFF31081012383F310880C4A32F81B
S3150000469010309BB253B90B4C0B4DB4F8FE3335F8C2
S315000046A0105043F425432B43A4F8FE3332F8103060
S315000046B001339BB222F8103081F3108830BC70476A
S315000046C0A401FE1F00E00140207E0000024B0022F4
S315000046D01A805A809A807047A401FE1F0C4A08B5BA
S315000046E013684BB1033020F003000A49184488428E
S315000046F005D81060184608BD074B1360F2E702F0B4
S3150000470081F80C2303604FF0FF33184608BD00BF45
S31500004710AC01FE1F581DFE1F580DFE1F00BE704740
S3150000472008B500F005F800F025FAFEE7704700BF6F
S31500004730434AD2F8883043F4700370B50020C2F8BB
S315000047408830FFF7F3FFFFF7C1FFFFF70DFD3D4B85
S315000047501B689847FFF70EFC3B4A3C4B3C481B68DE
S315000047600024148098473B493B4B8B4204D0224699
S3150000477003F8012D9942FBD13848394B984206D0AF
S31500004780384A12F8011B03F8011B8342F9D1364B54
S3150000479036493748374A00244FF425459C801D800A
S315000047A09860DA60B1F82021012542F48052A1F820
S315000047B020219D80FFF734FC2F4B18602846FFF719
S315000047C0B5FF2E4D2E4B5B1BA3424FEAA30605DD1C
S315000047D0013455F8043B9847A642F9DCFFF7ECFE96
S315000047E0FFF770FE274B284C1B6828489847D4E9EA
S315000047F00001D4E90023584002F086F8D4E90056B7
S315000048000BA1D1E900012A1846EB0103C4E90023F4
S3150000481009A1D1E90001D4E9005685EA000286EA39
S315000048200103C4E900230020BDE8704000F030B861
S315000048301654E7A1E34FE6F437B8929E2B52ADFD2E
S3150000484000ED00E0947800005001FE1FC8770000DC
S315000048506C7E00003001FE1F540DFE1FF000FE1F8F
S315000048600000FE1F5C830000000D00400060004059
S31500004870581DFE1F5725FE1FB001FE1F7C00FE1FA0
S315000048808000FE1FB07800002801FE1F287E000071
S3150000489000F040B882B04FF0C84300210091009A62
S315000048A05A6961F300025A619A6AC8B1202161F31C
S315000048B00F229A629A6A4FF0C04142F080029A62D1
S315000048C00A68009240F6FF72019204E0019A013AEA
S315000048D00192019A12B19A6A5106F7D502B0704751
S315000048E042F47F429A629A6A4FF0C04160F3C7125F
S315000048F09A620A68009240F6FF72019205E0019AF8
S31500004900013A0192019A002AE8D09A6A5206F6D430
S3150000491002B07047F8B54A4A11684FF0C844002300
S315000049206FF38611102011602063A3612362636315
S31500004930C4F80438A26863F30402A2606369FF2224
S3150000494043F00103636122616369662243F0010358
S31500004950636122616369992243F001036361226105
S31500004960636943F00103636101212320FFF76EFDB4
S315000049709F2323612269334BD2B21A702169C9B2CF
S3150000498059702069C0B298706569EF2A45F0010533
S31500004990656103D000221A809A70F8BD4029F9D1CA
S315000049A01728F7D10522226120696169264B41F05B
S315000049B0010135266161266121691970616941F03D
S315000049C001016161A56A042161F30305A5626568B9
S315000049D0502761F3030565602761656945F00105A8
S315000049E065611D7845F002051D700127C0B227617B
S315000049F020611878206160693843606121616169CE
S31500004A0039436161216862F30201216022612269F2
S31500004A1062693A436261266122691A7063693B439F
S31500004A206361236843F040032360A369DB07FCD47A
S31500004A300120FFF72FFF63696FF300036361F8BD81
S31500004A4000700440B401FE1FB801FE1F08B500F057
S31500004A505FF8BDE8084000F055B900BF70B5114DCC
S31500004A60114A2B6888B001214FF480600092B82665
S31500004A7003225C18CDE90321CDE90102CDE9051633
S31500004A8000230A4A0A490B482C6000F087FB08B944
S31500004A9008B070BD0748002108B0BDE8704000F0BE
S31500004AA011B800BF4009FE1F5825FE1F4D4A0000E1
S31500004AB0447E00006808FE1F704700BFFFF7FCBF7A
S31500004AC0704700BF00BE7047F8B50D4F0D4E0E493A
S31500004AD0002405461C2301220C483C60347000F07B
S31500004AE0E9FA18B121460948FFF7ECFF00F050F843
S31500004AF0FFF7B4FF00F0DAF82846FFF7E1FFF8BD4C
S31500004B004009FE1F2009FE1F587E00002409FE1FD3
S31500004B1038B54FF0FF31144800F01EFBF0B9134BC7
S31500004B201A7802B138BD124C01221A70FFF7C6FF7F
S31500004B302368013B2360002BF4D00B4D04E023686F
S31500004B40013B2360002BEDD0284600F01BFB00281C
S31500004B50F5D000212846FFF7B5FFF0E7002102480F
S31500004B60FFF7B0FFDBE700BF2409FE1F2009FE1F89
S31500004B704009FE1F08B572B600F01CFC002008BDF7
S31500004B8008B5FFF7C5FFBDE8084000F011B900BF42
S31500004B9030B5274D27492B6827485C1C89B01C2354
S31500004BA001222C6000F086FA00283CD1142338221A
S31500004BB0CDE900322149224B2248012200F012FAA7
S31500004BC060BB14233822CDE900321F491F4B204811
S31500004BD0012200F007FAE0B9012203234FF48060B6
S31500004BE01C490091B824CDE90332CDE90103CDE992
S31500004BF005240023184A1949194800F0CFFA08B9C4
S31500004C0009B030BD1648002109B0BDE83040FFF7B5
S31500004C1059BF00210E48FFF755FFDDE7002109487F
S31500004C20FFF750FFCDE700210348FFF74BFFBDE735
S31500004C304009FE1F5C8200007C0AFE1F6C82000099
S31500004C40D001FE1F7C09FE1F7C820000E401FE1FCE
S31500004C50D80AFE1F5829FE1F814B0000487E00001F
S31500004C60C409FE1F00BE704700B5074B07491B6805
S31500004C70074883B09847019018B101A90548FFF786
S31500004C80F1FF03B05DF804FB687700000000FE1F2B
S31500004C90F801FE1F8C82000008B5FFF739FFFFF709
S31500004CA0E3FFBDE8084000F0DFB800BF30B5104DA7
S31500004CB0104B2A6889B0B8204FF480610093012315
S31500004CC0D418CDE90530CDE90113CDE903330A4AFD
S31500004CD00A490B482C60002300F060FA08B909B0B5
S31500004CE030BD0748002109B0BDE83040FFF7EABEF5
S31500004CF04009FE1F582DFE1F994C0000BC82000083
S31500004D00100BFE1F80B5224F2249D7F80880D7F82E
S31500004D100090D8F80830C82401224846C1E900248A
S31500004D20984700B100BE1C48DFF878A01B4C14233E
S31500004D30CAF800300646FFF773FB194B5D68227808
S31500004D4071682B6A0888002A0DBF01220022012102
S31500004D5000212270984772682B6A508821789847FC
S31500004D60217872682B6A9088B1FA81F149099847CF
S31500004D70D8F810304846984700B100BEDAF800006F
S31500004D8000F0B2FFD7F80880D7F80090D7E700BF49
S31500004D908C8200008807FE1F7C07FE1F8407FE1F0B
S31500004DA0507E00007807FE1F004870479007FE1FE0
S31500004DB02DE9F04782B0FFF7F7FF264FDFF8A49002
S31500004DC0C9F8000002F0FEFBD7F808A0D7F800806B
S31500004DD02149DAF80830C82401224046C1E90024F6
S31500004DE0984700B100BE1D4EF56832682B687168A1
S31500004DF0019210469847019A6B68B1681046984729
S31500004E00019AAB6810469847019AE8B90024D9F888
S31500004E1000106B69104601EB440261B20134E4B242
S31500004E209847072CDAF81030404628BF00249847E8
S31500004E3000B100BE052000F057FFF5683268D7F8CC
S31500004E4008A0D7F80080E2E7054801F055FD019A71
S31500004E50DCE700BF8C820000A407FE1F148200005E
S31500004E60C0820000A007FE1F08B5044B1A696FF345
S31500004E7041021A61052000F037FFFBE700B0014050
S31500004E8008B1342B01D01C2070472DE9F041EFF317
S31500004E90108372B6214E34680134346083F310886F
S31500004EA01F4C204B25681C684DB1A04207D000233B
S31500004EB001E0A0422DD00133AB42246AF9D1054668
S31500004EC017468846EFF3108372B6306801383060B3
S31500004ED083F3108800F038FFA54203D0012F04D9D0
S31500004EE01F2000E01C20BDE8F081EFF305830E4A89
S31500004EF011680B4306D0EFF3058312681343B3F131
S31500004F00F03F08D33A4641462846BDE8F04100F056
S31500004F1079BA0446D3E71320E5E700BF940CFE1FD9
S31500004F20CC0BFE1FD00BFE1F0C00FE1F58B10268F3
S31500004F30074B9A4207D1EFF30583064A12681343DB
S31500004F4003D100F08FBA1C2070471320704700BFB2
S31500004F504554554D0C00FE1F18B1124B02689A427B
S31500004F6001D01C20704710B481B90F4AEFF30583B6
S31500004F701468234306D0EFF3058312681343B3F195
S31500004F80F03F0DD35DF8044B00F0CCBAEFF3058388
S31500004F90054A14682343E9D004205DF8044B7047A2
S31500004FA01320FAE74554554D0C00FE1F90B10B4BEC
S31500004FB002689A420ED1EFF30583094A11680B4342
S31500004FC006D0EFF3058312681343B3F1F03F03D322
S31500004FD000F088BB1C207047132070474554554D80
S31500004FE00C00FE1F2DE9F047DDE9089400284CD09F
S31500004FF0382C4AD1EFF3108472B6DFF8B4C0DCF86F
S3150000500000500135CCF8005084F31088254D264C0D
S315000050102E6824684EB1A04207D0002501E0A042C8
S3150000502039D00135B542246BF9D105461F461646DF
S315000050308846EFF3108372B6DCF80020013ACCF80C
S31500005040002083F3108800F07FFEA5421DD027B311
S31500005050731E0F2B1CD8B6EB990F19D8EFF30583E7
S31500005060124A11680B4306D0EFF305831268134307
S31500005070B3F1F03F13D3CDF820903B46324641467C
S315000050802846BDE8F04700F037BC0920BDE8F087A8
S315000050900520BDE8F0870446C7E70320F6E713209E
S315000050A0F4E700BFD40BFE1FF40BFE1F0C00FE1F1F
S315000050B0940CFE1F08B11C2B01D00C2070472DE963
S315000050C0F041EFF3108372B61F4E3468013434603A
S315000050D083F310881D4C1E4B25681C684DB1A042F9
S315000050E007D0002301E0A04229D00133AB42646916
S315000050F0F9D1054690460F46EFF3108372B6306835
S315000051000138306083F3108800F01EFEA54213D0EC
S31500005110EFF305830F4A11680B4306D0EFF30583BF
S3150000512012681343B3F1F03F0BD342463946284683
S31500005130BDE8F04100F018BC0C20BDE8F081044643
S31500005140D7E71320F9E700BF940CFE1FE80BFE1FFC
S31500005150D80BFE1F0C00FE1F60B1084B02689A4276
S3150000516008D129B1EFF30583054A1268134303D129
S3150000517000F024BC0C20704704207047414D455375
S315000051800C00FE1F18B10268034B9A4201D00C2096
S31500005190704700F055BC00BF414D45532DE9F04F17
S315000051A085B0DDE910B40094129C0294139C01941E
S315000051B0DDE90E78149C002871D0B82C6FD1EFF37E
S315000051C0108472B6DFF82091D9F800500135C9F87D
S315000051D0005084F31088414D414CD5F800E0246816
S315000051E008F1FF3CBC44BEF1000F16D0A04214D01B
S315000051F000268A46E168B9425FD82569BD425CD976
S3150000520001250027614506F101064CD82169614553
S3150000521049D9D4F888405146002705461E4692468D
S315000052200391EFF3108372B6D9F80020013AC9F85A
S31500005230002083F3108800F087FDA5422FD0002FB1
S315000052403FD0BAF1000F3CD0B8F1C70F37D9BBF148
S315000052501F0F3AD8009B9B453BD3019B012B36D8A9
S31500005260EFF305831F4A11680B4306D0EFF305835E
S3150000527012681343B3F1F03F2DD3019B1393029BA6
S315000052801293009B0399CDE910B352463346284644
S31500005290CDE90E7805B0BDE8F04F00F0FBBB0E205F
S315000052A005B0BDE8F08F7645D4F8884003D0A0421B
S315000052B001D0002D9ED05146AFE70025A2E705207C
S315000052C0EEE7032005B0BDE8F08F0F20E8E71020D9
S315000052D0E6E71820E4E71320E2E700BF8C0CFE1F88
S315000052E0840CFE1F0C00FE1F940CFE1FEFF30583BB
S315000052F0074909680B4308D118B10268054B9A4261
S3150000530001D00E20704700F061BC1320704700BF2B
S315000053100C00FE1F4452485458B10268074B9A428B
S3150000532007D1EFF30583064A1268134303D100F051
S3150000533021BE0E2070471320704700BF44524854C8
S315000053400C00FE1FF8B500F079FC0E4D0E4C0F4F09
S315000053500F4E00F085FE0F480F49104A00232B60C0
S31500005360236003600B6013600D4D0E4C0E480F4911
S315000053700F4A3B6033602B60236003600B60136051
S31500005380F8BD00BFF40BFE1FD40BFE1FD80BFE1F8B
S31500005390E80BFE1FC80BFE1FEC0BFE1FF00BFE1FDB
S315000053A0E40BFE1FDC0BFE1FF80BFE1FD00BFE1FCF
S315000053B0CC0BFE1F10B50E4C236813F10F3F0AD01D
S315000053C04FF0F033236000F0C5FEFFF7BBFF094A3C
S315000053D0136801331360084A4FF0F03310682360F6
S315000053E0FFF772FB00232360BDE8104000F0F8BE13
S315000053F00C00FE1F940CFE1FE00BFE1F704700BF43
S31500005400704700BF70B50D4614460021342201F0E6
S315000054100EFA034645600461EFF3108472B60C4938
S315000054200C480A680C4E0D4D1E6005600C485AB1BA
S315000054300068456A43622B62C3E9080501320A60C7
S3150000544084F31088002070BDC3E908330360F5E7D4
S31500005450CC0BFE1F7C0CFE1F4554554D25650000E8
S31500005460D00BFE1F2DE9F843EFF3108272B62A49DE
S315000054700B680024013B04600B60002B42D12749D6
S315000054800B60DFF89C80C168D8F800308469C56974
S315000054900133C8F800300023C0E9063341B10123C7
S315000054A0836082F3108800F01DF9EFF3108272B664
S315000054B082F31088BDB100270126013DEFF310836A
S315000054C072B6D8F80020A7660132C4F88460C8F81E
S315000054D00020D4F8709083F31088204600F052FC28
S315000054E04C46002DE9D1EFF3108372B6D8F80020B0
S315000054F0013AC8F8002083F3108800F025FC00204C
S31500005500BDE8F883054CD0E9083125685962854223
S315000055100B6208BF2360B4E7CC0BFE1FD00BFE1F47
S31500005520940CFE1FF8B5EFF3108572B63B4A8368FC
S315000055301468E3B90123C0E90234A4B10369012B5D
S3150000554003D1E36A436120238362D4F8A830002B99
S3150000555042D01A6B1863D062C0E90B32D4F8A4307B
S315000055600133C4F8A43085F310880020F8BDC26862
S31500005570A24227D061B32A4E33684BBBD4F8B4702D
S31500005580C369E0660137C4F8B470264FA76643BB0B
S315000055908461C4E91C4437680133C36101374FF0A5
S315000055A00D0C0123E1643760C4F830C0A36385F3B2
S315000055B010880369012B1ED0204600F059FCD4F850
S315000055C08400F8BD0133836085F310880020CDE7A1
S315000055D085F310881D20F8BDC4F8A800C0E90B00AB
S315000055E0BCE787692767D7F874C0C4F874C0CCF8DD
S315000055F070407C67CFE7E16A836A8B42D2F8A030BD
S3150000560088BF81629942D36A38BFC2F8A010994216
S31500005610D2D2104600F008F8CEE700BF980CFE1F65
S31500005620940CFE1FA56400002DE9F8430446EFF331
S31500005630108672B6026B52B1D0F89C20C1628A42C3
S3150000564028BF0A46C26386F31088BDE8F8830D4674
S315000056502149DFF88C900B68C264023303220B6089
S315000056600123D9F8007002638363D0F82C8086F397
S31500005670108800F0FDFBEFF3108372B6D4F89C207F
S31500005680E562AA4228BF2A46E26383F310882046D1
S3150000569000F078FBEFF3108272B6D9F800309C4226
S315000056A007D0216B29B9D96AE36A8B4205D8BC4277
S315000056B008D082F31088BDE8F883E06B8342F8D9FE
S315000056C08142F6D3A84538BF0449C9F8004038BF1F
S315000056D041F82340EDE700BF940CFE1FFC0BFE1FB4
S315000056E09C0CFE1F2DE9F041EFF3108472B6826820
S315000056F0002A56D07E49C36809688B42A44603D067
S315000057007C4E316800294CD0013A8260002A43D190
S31500005710002B41D0D3F8A420013AC3F8A420002AD4
S3150000572044D1C3F8A82087690269002F00F083805E
S31500005730012A0546D3F8988000F08580C3696D4E2E
S31500005740012B5ED9002F00F098800024D7F8A42002
S31500005750002A68D1C7F8A850C5E90B550132013BAC
S315000057600121C7F8A420EB61C5E90217002B54D12B
S31500005770AB613368002201333360BA66C7F8842010
S315000057808CF310882B69012B00F09780384600F0C7
S31500005790F9FA0020BDE8F08184F310880020BDE806
S315000057A0F08184F310881E20BDE8F081D3F8A8505C
S315000057B0D0E90B2185421163CA62B4D1B1E7202436
S315000057C0EFF3108C72B63268C3F8A040EB69A045BF
S315000057D002F1FF3228BFA046012B326069D92A693F
S315000057E0012A75D13368013333608CF3108828465B
S315000057F000F0BAFEEFF3108C72B63368AF69013B66
S315000058003360002F39D02B69012B54D1FB6A6B61B1
S315000058102023AB62EC68EB6998E7D7E91C32AB61F1
S315000058205A671367A5E7D7F8A810086B0D63C5621A
S31500005830C5E90B1092E7002A7FF47AAFC26084F3C1
S3150000584010881046ABE72B4E32680132326084F383
S315000058501088D3F8A8100029B1D00A46202401E008
S31500005860002AADD01069012803D1906A844228BF6E
