S00E00007665726966792E7372656381
S31500000000F022FE1F095B000079550000055B000029
S31500000010055B0000055B0000055B000000000000BA
S31500000020000000000000000000000000055B00006A
S31500000030055B000000000000C57E0000797F00001F
S315000000408D5200009127000039170000AD170000FF
S315000000500D160000FFFFFFFFFFFFFFFFFFFFFFFF83
S31500000060FFFFFFFFFFFFFFFFFFFFFFFFFFFFFFFF9A
S31500000070FFFFFFFFFFFFFFFFFFFFFFFFFFFFFFFF8A
S31500000080FFFFFFFFFFFFFFFFFFFFFFFFFFFFFFFF7A
S31500000090FFFFFFFFFFFFFFFFFFFFFFFFFFFFFFFF6A
S31500000400FFFFFFFFFFFDFFFFFCFFFFFFFFFFFFFFFB
S31500000410FCFFFFFFFFFFFFFFFCFFFF00FFFFFF00EA
S31500000420FCFF0F20FFFF0F20FCFF7F40FFFF7F40F8
S31500000430FCFF0D40FFFF0D40FFFFFFFFFFFFFFFF2B
S31500000440FFFFFFFFFFFFFFFFFFFFFFFFFFFFFFFFB6
S31500000450FFFFFFFFFFFFFFFFFFFFFFFFFFFFFFFFA6
S31500000460FFFFFFFFFFFFFFFFFFFFFFFFFFFFFFFF96
S31500000470FFFFFFFFFFFFFFFFFFFFFFFFFFFFFFFF86
S31500000480FFFFFFFFFFFFFFFFFFFFFFFFFFFFFFFF76
S31500000490FFFFFFFFFFFFFFFFFFFFFFFFFFFFFFFF66
S315000004A0FFFFFFFFFFFFFFFFFFFFFFFFFFFFFFFF56
S315000004B0FFFFFFFFFFFFFFFFFFFFFFFFFFFFFFFF46
S315000004C0FFFFFFFFFFFFFFFFFFFFFFFFFFFFFFFF36
S315000004D0FFFFFFFFFFFFFFFFFFFFFFFFFFFFFFFF26
S315000004E0FFFFFFFFFFFFFFFFFFFFFFFFFFFFFFFF16
S315000004F0FFFFFFFFFFFFFFFFFFFFFFFFFFFFFFFF06
S315000005002404FE1F4B0020102804FE1FB6002B30CB
S315000005102C04FE1F860D14103004FE1F880D1420B7
S315000005203404FE1F870D142820000000200001005F
S315000005302F0000002F0001000C0001001100000038
S3150000054030000000300001002400000024000100FB
S3150000055024000200240003002400040024000500F7
S315000005601300000017000000230000002100000017
S31500000570210001000700000007000100070002003B
S315000005800700030007000400070005000700060037
S3150000059007000700120000004400000008000000E9
S315000005A00B00000041000000400000004000010078
S315000005B004000000430000002B0000002B000A008E
S315000005C02B000B002B000C002B000D002B00010054
S315000005D02B0002002B0003002B0004002B0005005B
S315000005E02B0006002B0007002B0008002B0009003B
S315000005F00600000006000A0006000B0006000C00BC
S3150000060006000D0006000E0006000F0006000100A1
S3150000061006000200060003000600040006000500AE
S31500000620060006000600070006000800060009008E
S315000006301500000015000100150002003100000041
S315000006402A00000045000000100000000301000021
S3150000065003000000030001000F0000000D00000071
S315000006602D000000420000002C0000002C000100BC
S315000006702C0002002C0003003200000028000000BD
S31500000680180000001400000014000100140002000D
S3150000069014000300140004001400050014000600F2
S315000006A014000700140008001400090034000000BC
S315000006B0340001001600000016000100350000009D
S315000006C03600000036000100220000003300000062
S315000006D0330100002900000010B5054C237833B91A
S315000006E0044B13B10448AFF300800123237010BDFF
S315000006F07803FE1F0000000040AF000008B5034B62
S315000007001BB103490348AFF3008008BD0000000099
S315000007107C03FE1F40AF000018B1034B03600020AE
S3150000072070470120704700BF0B010601836810B5B2
S31500000730044623B19A6812B1D26918689047E368F3
S3150000074033B19A6822B1D2691868BDE810401047E3
S3150000075010BD00BF2DE9F04F354C364D89B0064629
S31500000760CDE904230791A6FB04129DF84CB0069030
S31500000770CDE90012330A0020DDF848800393A14634
S315000007808BF0010B8246012303435B4544D1079B53
S315000007902F8803FB07F7069BB3FBF7F4661EFF2EB5
S315000007A03AD804FB07F41DE0039AB4FBF2F27F2A61
S315000007B002FB03F330D9002BB8BFFF331B12A3F59E
S315000007C0C333A03B002BB8BF5B42994505DD0599B5
S315000007D09246049A0D6099461670C8F800A0E41B6C
S315000007E0D6B1013EE3172246DDE9000107F08CFD94
S315000007F0A0F5C330A03800F5C333A033B8F1000F1D
S31500000800D2D10028B8BF4042814505DD059B1D6059
S31500000810049B81461E70C246074B0635AB4202D08A
S31500000820E8782B79B0E7484609B0BDE8F08F00BFFD
S31500000830A0860100A49D0000F29D0000002832D091
S31500000840002930D01D4B42689A422AD170B5826881
S31500000850002382B005460E46C1E900334AB39068CC
S315000008606946CDE90033836910689847EB78009AAA
S3150000087003F0030303FB02F37360E868A8B1826820
S31500000880006893690024CDE9004469469847EB78EF
S31500000890009A03F0030303FB02F32046336002B021
S315000008A070BD07207047012070474FF0FF3232605D
S315000008B0F5E74FF0FF334B60DFE700BF5549435381
S315000008C078B171B16AB110B40C4B44689C420AD13C
S315000008D0C37803F00303022B09D000205DF8044B14
S315000008E070470120704707205DF8044B704711439D
S315000008F011F0010F0CBF00200320EFE755494353C9
S315000009002DE9F04182B006460F46FFF7D9FF0446AF
S31500000910F8B91546F378B26803F0030322B390687A
S315000009200094013BD0F81880019469461068DD40B8
S31500000930C047009B9D4210D8B3789BB9B36801228B
S31500000940B2709A68186856682146ABB23A46B04704
S315000009500446204602B0BDE8F0810124204602B0DC
S31500000960BDE8F0810824F4E7736B002BFAD1C6E9E1
S315000009700C75B063EDE700BF30B5946883B0002C0A
S3150000098032D01468002C2FD052686AB312685AB35A
S315000009900978D57894786FF387156FF34514022993
S315000009A0D570947023D0D1786FF30511D170027889
S315000009B0ADF806201946114B00241422ADF8044068
S315000009C01B698DF8042000946A4601A898479DF992
S315000009D00030213308D0069ABDF802301380079BF9
S315000009E020461C7003B030BD012003B030BDE9B213
S315000009F0012464F30511D170D9E700BF109F0000F0
S31500000A0090F83C10012900D070470A4A90F83D3012
S31500000A10126AC08F82B001922BB1DDED017A17EE1A
S31500000A20903A02B0184707EE902A194617EE903A08
S31500000A3002B01847189E00002DE9F04385B043F632
S31500000A4097240C9EA6422AD848B3054604A800243B
S31500000A5000F8084D994690460F4604F04FFD04A94C
S31500000A60114B41F8044D9B699DF8080098470446D0
S31500000A70A8B9012301930398CDF8009043463A465E
S31500000A802946FFF767FEB0420ADD0398CDE90094D8
S31500000A9043463A462946FFF75DFE864200DA0324BE
S31500000AA0204605B0BDE8F083789F000028B3304BA0
S31500000AB042689A421FD1F0B5456AAB7813F003033A
S31500000AC087B04DD1C278059312F00406044606AAF3
S31500000AD0284B42F8083D18BF05AEE36A0093084666
S31500000AE0FF2733460DF10F018DF80F70FFF7A4FFB6
S31500000AF028B107B0F0BD0720704701207047AA78DB
S31500000B00049B9DF80FC002F00B02AA70AA78206120
S31500000B1060F30102AA709F78DC7819795A7985F812
S31500000B2001C0EB7967F38613EB71EB7964F3041379
S31500000B30EB71EB7961F3C303EB712B7862F301037D
S31500000B402B7046B13368FF2B0DD8EA79DBB242F041
S31500000B500402EA71AB74AB7843F05003AB70C8E79C
S31500000B60012007B0F0BDEB7960F38203EB71F2E789
S31500000B7055494353A49D0000002867D03C4B42686A
S31500000B809A4261D170B5436A90F918109A78002498
S31500000B9002F00B02A142446082B09A700DDB4A0952
S31500000BA020320124334D01F01F0104FA01F145F80A
S31500000BB02210BFF34F8FBFF36F8F90F91B20002ACF
S31500000BC046DA90F91920002A0DDB5109203101245B
S31500000BD0284D02F01F0204FA02F245F82120BFF365
S31500000BE04F8FBFF36F8F90F91A20002A0DDB510942
S31500000BF0203101241F4D02F01F0204FA02F245F8CB
S31500000C002120BFF34F8FBFF36F8F99789A7801F049
S31500000C10020161F301029A7002AE04460025FFF755
S31500000C2085FD1423ADF8045006F8043DE5612378EC
S31500000C30A5623046ADF8063004F0DEFD304604F01D
S31500000C4089FE284602B070BD072070470120704714
S31500000C50510920310124074D02F01F0204FA02F265
S31500000C6045F82120BFF34F8FBFF36F8FA9E700BF71
S31500000C705549435300E100E02DE9F04383B002AC4F
S31500000C80002544F8045D1C4E0A9D37691646224627
S31500000C909846B8479DF904402C70054690B9360130
S31500000CA0002CF6B2E7B211DA204604F0F3FD134B3E
S31500000CB007F00F073B441E76114B1B6853F8343080
S31500000CC0C3F80080284603B0BDE8F083630901221B
S31500000CD02033DFF8309007F01F0702FA07F749F8CC
S31500000CE02370BFF34F8FBFF36F8FA144204604F0EC
S31500000CF0D1FD89F80063DFE7109F0000FCEC00E0FF
S31500000D00C4A4000000E100E02DE9F04F93B0F8B173
S31500000D10F1B19E4B42689A4200F040820B789C4AA1
S31500000D20ADF81A30044600231420ADF818300D46ED
S31500000D308DF81800D268CDE90933CDE90B3309A93E
S31500000D4006A89047064640B1304613B0BDE8F08F7E
S31500000D500126304613B0BDE8F08F099B636206A8F2
S31500000D60039304F0C3FD06460028EDD1BDF82A2002
S31500000D7088490790C2F3810242F210738A5C62705E
S31500000D80D5F820806868E362B8F1000F36D098F88D
S31500000D900C3098F800A053BBE27863F38202E2704D
S31500000DA09946D8F810307C4AE362FF218DF8171077
S31500000DB00892BAF1000F27D004F11B03EA7B0093D7
S31500000DC00121234606A8FFF757FF04F118032A7BE3
S31500000DD000930221234606A8FFF74EFF0646F8B108
S31500000DE02046FFF7A3FC06A804F0B4FDACE7E378C1
S31500000DF043F00403E3700DF11C09D2E7FF21664AB4
S31500000E008DF817100892C146009308AA4B460DF1BB
S31500000E101701FFF711FE06460028E1D18246CBE70F
S31500000E2004F119036A7B00930521234606A8FFF700
S31500000E3023FF06460028D3D104F11A03AA7B0093A8
S31500000E400421234606A8FFF717FF06460028C7D148
S31500000E502A7AE378D5F810B0D5F814C0C4F808B0EB
S31500000E60012161F30103022AC4F80CC0E37000F00B
S31500000E708880BBF1000F41D0DBF804E0BEE80F002C
S31500000E800DAFBC46ACE80F000DF13A02DEF80010DB
S31500000E90CCF800100EAB019200935A46022305F1DE
S31500000EA008012846FFF768FD002868D12A69E1781D
S31500000EB0536894F801C01B68606A01F00301BCF135
S31500000EC0000F00F0A281022900F1100C18BF00F1FA
S31500000ED0110CC3F804C09878D9784FF0020C6CF363
S31500000EE083006FF38301D9709870936810681B684C
S31500000EF039469847002842D1D5F814C0BCF1000FF6
S31500000F004CD0DCF804B0BBE80F000DAFBE46AEE82F
S31500000F100F000DF13A02DBF80010CEF800100EAB10
S31500000F20019200936246052305F108012846FFF762
S31500000F3023FD20BB6A69E178536894F801C01B68F9
S31500000F40606A01F00301BCF1000F00F06481022920
S31500000F5000F10E0C18BF00F10F0CC3F808C098780A
S31500000F60D9784FF0020C6FF383006CF38301D970CC
S31500000F709870936810681B683946984770B10646A2
S31500000F802EE7DBB262F30103E37072E75549435380
S31500000F90109F0000F49D0000A49D000098F8152005
S31500000FA0B8F8163098F8141084F83C1084F83D20F0
S31500000FB0E3872046FFF724FD06A804F021FC039AE8
S31500000FC000231370937012790AB1039A1371039F69
S31500000FD0F221B97100234FF0FF0C4FF47840402105
S31500000FE087F801C087F812C0FB713B727B72BB7237
S31500000FF0FB723B737B733B73B8827B830320F9746C
S31500001000062138773977BAF1000F40F0C980BA78EF
S31500001010089B9DF817E06AF30102BA7093F802C0C4
S3150000102093F8038019795A7987F801E0FB796CF314
S315000010308613FB71FB7968F30413FB71FB7961F38B
S31500001040C303FB713B7862F301033B70B9F1000FF8
S315000010500AD0D9F80030FF2B00F2C780FA79DBB24C
S3150000106042F00402FA71BB746278636A296A32B389
S31500001070988A40F001009882988A40F0020098828F
S31500001080013A286992B202F00F0C002800F0B380F2
S315000010909A8A6FF30B229A829A8A6CF30F329A829B
S315000010A09A8A42F004029A82039F9A8AC2F38002C5
S315000010B0002AFAD10397988A62F3071098821A7861
S315000010C095F809C0287A42EA0C12D2B201281A70A1
S315000010D000F08280022807D11A786FF386121A7000
S315000010E09A796FF304129A711A7895F80AC0E87A19
S315000010F06CF3C3021A7018B15A7B42F002025A739B
S3150000110099B1DA7991F802C0C87849786CF3C712B8
S31500001110DA71DA7960F345120020DA71187298787C
S315000011209A78014361F301029A702A782270D5E910
S31500001130061222620022C4E904220398A2706263A6
S31500001140A263E161818A62F3C3018182827894F9A4
S31500001150181042F010020029827007DB01F01F050B
S31500001160012249093148AA4040F8212094F91B2060
S31500001170002A07DB02F01F05012152092B48A9406E
S3150000118040F8221003982A49827842F04002827081
S315000011909A7842F020029A706160D5E50826D3E578
S315000011A0039981F801C0CA7963F38612CA71CA79B4
S315000011B063F3C302CA710A7863F301020A708B787B
S315000011C0022262F3010392458B707FF44DAFCB7917
S315000011D043F01003CB7147E71A7842F040021A70C9
S315000011E09A7942F010029A717EE7039AD3796AF3EC
S315000011F08203D37138E7A1B191F804E0988A02EA34
S315000012000E0262F30B20988246E701290CBF0530D7
S31500001210103058605FE601290CBF03300E3098602D
S315000012209DE69A8A6CF30B229A8235E700E100E08C
S315000012305549435370B508B3504B42689A421AD188
S3150000124011F0FD0F04460E461BD00625012E13D8BD
S31500001250A568002D00F08E800023A370AB68286877
S31500001260DB6898470546637833B1626A938A43F030
S315000012700203938200E00725284670BD0125284613
S3150000128070BD426A90F91900937803F07B0393705E
S3150000129004F000FB94F91930002B3EDA94F91A0099
S315000012A004F0F8FA94F91A30002B1BDAE568002DE1
S315000012B056D0AB682868DB689847637805463BB12B
S315000012C0626A938A43F004039382938A5B07FCD491
S315000012D00023C4E904332046FFF792FB002DB5D066
S315000012E0284670BD590920310122254803F01F0305
S315000012F002FA03F340F82130BFF34F8FBFF36F8F2D
S3150000130094F91A30002BD1DB5909603103F01F0321
S3150000131002FA03F340F82130C8E7590920310122C7
S31500001320174803F01F0302FA03F340F82130BFF316
S315000013304F8FBFF36F8F94F91930002BAEDB59092D
S31500001340603103F01F0302FA03F340F8213094F9E9
S315000013501A0004F09FFA94F91A30002BA6DBC1E7B5
S315000013606378002BACD1C4E9043320461D46FFF751
S3150000137047FB6BE7A563656375E700BF55494353B4
S3150000138000E100E04269E2B170B4C4780569436ADD
S31500001390417804F00306022E14D02E7861B1B6B25D
S315000013A01979C909FCD0DE8104F00303D21A2B4453
S315000013B0C0E9043270BC70471979C909FCD0DE70E7
S315000013C0F2E770472E880029EAD11979C909FCD0BD
S315000013D0E9E700BF2DE9F04383B004460F46FFF767
S315000013E06FFA054610B9236923B10825284603B0CC
S315000013F0BDE8F083A18F0129164603D13B4BE08F50
S315000014001B6A9847D4F82480E26898F8023003F003
S315000014107B0388F80230C4E9047622B394F803907B
S31500001420936810689A6909F0030909F1FF33DE40F1
S31500001430002301936361009369469047009B9E4297
S315000014404AD8637823B9013EC4F814900BD04F44B0
S31500001450E3689A681868D2F80490B3B23946002255
S31500001460C84700283FD194F9190004F013FA94F9FB
S315000014701920002A0BDA6378C3B198F8023028469F
S3150000148043F0A00388F8023003B0BDE8F0835309A7
S315000014909B0003F16043012103F5614302F01F0243
S315000014A001FA02F2C3F880216178D1B998F80230C6
S315000014B043F0A00388F802302046FFF763FF94F953
S315000014C01930002B92DB03F01F0001225B0908494B
S315000014D0824041F8232089E701252046FFF790FA4C
S315000014E084E71A60C9E70546F7E700BF189E0000C3
S315000014F000E100E04378426A5BB9C37803F0030376
S31500001500022B05BF107C537C537943EA00230B6002
S315000015107047107C537C43EA0023C3F308030B6037
S31500001520704700BF30B5436B0578046A85B08022EA
S3150000153000950394ADF804202BB9C369029168465F
S31500001540984705B030BD826B9342FAD9C378046BD5
S3150000155003F003021346022A826BCDB2134483635F
S315000015602570036B10D001330363826B436B9A4281
S31500001570E7D100230122029383634363ADF804207D
S31500001580C36968469847DCE75A1C090A0263597022
S31500001590036B01330363E8E7F0B583B04378446A2D
S315000015A00022054601922BB3FE27BF26EB69277161
S315000015B0C3B1E38AD8060DD0227C637C43EA0223BA
S315000015C0C3F30803194628460193FFF7ABFFE38AE6
S315000015D0D906F1D126712379DB07E7D403B0F0BD34
S315000015E0237C637CE38ADA06FAD126712379DB074A
S315000015F0DCD4F3E701A9FFF77DFFEB69002BEDD003
S3150000160028460199FFF78EFF03B0F0BDF0B585B00F
S31500001610EFF3058005F03CFEEFF30383A3F1100022
S3150000162040B2009304F036F9EFF30383404A009387
S31500001630103B5BB2126852F833301C6824B1E5687F
S31500001640676A7DB363692BB1EFF3058005F01EFE73
S3150000165005B0F0BD94F91A0004F01CF994F91A20AB
S31500001660002A33DABA7894F9193002F07F0242F090
S315000016700402002BBA703DDAE36900222261002BD6
S31500001680E2D02178206A00914FF48071CDE90220E2
S31500001690ADF8041068469847EFF3058005F0F6FDAF
S315000016A005B0F0BD6678002E3ED0FB8AC3F3042356
S315000016B0F61A002E05DD01352046FFF763FEAE4221
S315000016C0F9D13B796FF3C7133B71BBE7510902F0C0
S315000016D01F031848012201F160059A4040F82520B1
S315000016E0B87894F9193000F07F0040F00400002B20
S315000016F0B87015DB5909203101220E4803F01F038B
S3150000170002FA03F340F82130BFF34F8FBFF36F8F18
S3150000171094F91A100029AFDB01F01F039A4049091A
S31500001720044B43F82120A7E72046FFF72BFE89E765
S31500001730C4A4000000E100E010B584B0EFF305801A
S3150000174005F0A6FDEFF30383A3F1100040B200936A
S3150000175004F0A0F8EFF30383134A0093103B5BB247
S31500001760126852F83330186878B18378012B12D199
S31500001770C2690478002181703AB1006A039000942E
S315000017800291ADF8043068469047EFF3058005F006
S315000017907DFD04B010BDFFF7FFFEEFF3058005F0F9
S315000017A075FD04B010BD00BFC4A4000030B585B0FF
S315000017B0EFF3058005F06CFDEFF303831F4A0093FA
S315000017C0103B5BB2126852F833301C68ACB1616AE8
S315000017D094F91A208B78207803F07B03002A8B700B
S315000017E01CDAE3694BB1226A0392002502210090BC
S315000017F00295ADF8041068469847EFF30383A3F10A
S31500001800100040B2009304F045F82046FFF7F8F8C0
S31500001810EFF3058005F03AFD05B030BD53092033DE
S315000018200121074D02F01F0201FA02F245F82320BA
S31500001830BFF34F8FBFF36F8FD3E700BFC4A4000081
S3150000184000E100E0114A136870B4040A9C4216D203
S315000018505668C0B200F11005012356F8246003FA59
S3150000186005F535420BD069B100EB0410936853F8C7
S315000018702030C3F3400300200B7070BC7047032078
S3150000188070BC7047184670BC704700BF3803FE1F17
S31500001890084B1A68000A904207D241B1DA68430140
S315000018A0043200209B580B807047032070470120AC
S315000018B0704700BF3803FE1F084B1A68000A9042A3
S315000018C008D249B1DA684301043200209B581B0C48
S315000018D00B80704703207047012070473803FE1FB6
S315000018E070B4134C2268030A93421BD26668C0B2D6
S315000018F000F11005012256F8236002FA05F535427B
S3150000190010D091B1E4685B01043402FA00F01C596E
S3150000191083B233EA144313BF002000200A70087014
S3150000192070BC7047032070BC7047104670BC70478F
S315000019303803FE1F0C4B10B41C68000AA0420ED2DE
S315000019406AB1DB685DF8044B083303EB401022EA0A
S3150000195001030A4042EA0342426000207047032026
S315000019605DF8044B704700BF3803FE1F144A70B47D
S315000019701468030AA3421DD25668C0B200F11004CF
S31500001980012556F8236005FA04F4344212D0A94220
S3150000199010D8D26802F1080202EB431305FA00F0F0
S315000019A05D680AD045EA0040000C0004586070BC2F
S315000019B000207047032070BC7047284380B2F5E7CB
S315000019C03803FE1F18B1034B036000207047012047
S315000019D0704700BF07010301012920D870B4124CDB
S315000019E02368020A9A4217D26668C0B200F110054F
S315000019F0012356F8226003FA05F535420CD003FAA6
S31500001A0000F083B269B10020E16852010831184341
S31500001A10505070BC00207047032070BC70470320F4
S31500001A20704700040B46EFE73803FE1F012957D81D
S31500001A302E4BF0B41C68020AA2424ED25D68C0B2B8
S31500001A4000F11006012455F82250B4402C4244D02F
S31500001A5000EB02109C681D6954F82030002941D023
S31500001A6043F00401224E0E40EFF31087012383F367
S31500001A701088204B1A8892B222B94FF0400CEA70B7
S31500001A8085F803C01A88013292B21A8087F310884B
S31500001A90CF0354F8202007D5174F22F480320F4089
S31500001AA044F8202044F8207044F82060EFF31081B9
S31500001AB0012282F310881A8892B21AB11A88013A62
S31500001AC092B21A801B889BB213B98022EB70EA701F
S31500001AD081F310880020F0BC70470320F0BC7047EB
S31500001AE00320704723F00401BCE700BF3803FE1F44
S31500001AF0D5FC011F9403FE1FD5FC001FB2B10C4B91
S31500001B0010B41C68000AA0420CD2DB6822EA010469
S31500001B10400108330A4042EA0442C2505DF8044BD1
S31500001B200020704703205DF8044B70470320704780
S31500001B303803FE1FD2B10E4B70B41C68000AA042D7
S31500001B4011D2DD68400102EA01032E582C583343B6
S31500001B5061EA02029BB2210C1A4009040A432A5088
S31500001B60002070BC7047032070BC7047032070478C
S31500001B703803FE1FF8B500283BD009681E4F4FF00A
S31500001B80000C01EBC00066464FF0010E8D8840F256
S31500001B90024295424FF000030BD10C680EFA03F295
S31500001BA004F0B854D2B2B4F1807F0CBF164342EAB7
S31500001BB00C0C0133032B06D037F813209542ECD0DA
S31500001BC00133032BF8D108318142DFD16FEA0C0CC7
S31500001BD05FFA8CF4012003F047FF084B93F8BB240F
S31500001BE01643264083F8BB640120BDE8F84003F0A5
S31500001BF00BBF0646FF24EDE7549E000000E00140BF
S31500001C0070B582B002AB002403F8044D05461846B1
S31500001C100E4603F091FC9DF80430DB0715D5202D08
S31500001C2010D8012E0ED80A4B1B691A7813BF15431C
S31500001C3002F0300222EA050505F0300520461D7047
S31500001C4002B070BD032002B070BD062002B070BDA8
S31500001C503803FE1F2DE9F0470746011D0088FFF7F0
S31500001C6089FF3B88002B4ED0DFF8A4E027490022ED
S31500001C704FF0010C4FF0400A4FF080097B68DEF808
S31500001C80106053F83250DEF8084003EBC2039B881D
S31500001C90180ADBB203EB0013EFF310888CF31088FD
S31500001CA0088880B210B9F07086F803A00888013061
S31500001CB080B2088088F3108815F4803F54F823001A
S31500001CC007D020F4803025F4803844F8230044F807
S31500001CD0238044F82350EFF310808CF310880B8890
S31500001CE09BB21BB10B88013B9BB20B800B889BB24E
S31500001CF013B9F37086F8039080F3108801323B889D
S31500001D0092B29342BAD80020BDE8F0879403FE1F32
S31500001D103803FE1F18B143680BB1FFF79BBF0120C4
S31500001D20704700BF00283AD04368002B37D02DE912
S31500001D30F04186B006AD00230922019305F8142D63
S31500001D40184A194CD2F80C8002930646CDE90333A3
S31500001D50059302A92846C047029BE3600A22BDF804
S31500001D600C308DF8042002A9059A626028460127E6
S31500001D702360C047029B8DF80570284602A9A36020
S31500001D80C0477368029A22612BB13046FFF762FFA3
S31500001D9006B0BDE8F081384606B0BDE8F081012006
S31500001DA0704700BF109F00003803FE1F2DE9F04169
S31500001DB02F4C23684FEA1028984584B053D26268A6
S31500001DC0C5B205F11003012752F8282007FA03F3DC
S31500001DD0134248D00E4604A902AA034641F80C2D28
S31500001DE03846ADF80C300296ADF8007005EB0815D4
S31500001DF0FFF7C0FE2169A068EFF3108487F310880F
S31500001E001C4B1A8892B212B94027CA70CF701A8832
S31500001E10013292B21A8084F31088F40350F8252018
S31500001E2007D522F4803226F4803440F8252040F885
S31500001E30254040F82560EFF31080012282F31088D8
S31500001E401A8892B21AB11A88013A92B21A801B887D
S31500001E509BB213B98022CB70CA7080F31088002021
S31500001E6004B0BDE8F081032004B0BDE8F08100BFF6
S31500001E703803FE1F9403FE1F68B183685BB1C16817
S31500001E80064A914205D1DA6A6FF30002DA6200204F
S31500001E907047072070470120704700BF5450470025
S31500001EA068B183685BB1C168064A914205D1DA6AB6
S31500001EB042F00102DA6200207047072070470120D5
S31500001EC0704700BF5450470020B1034B1B680360A6
S31500001ED000207047012070475C9E0000FFFFFFFF57
S31500001EE02DE9F04782B002AC002544F8045D3C4D74
S31500001EF08946AF6982469046214603201E464C46D7
S31500001F000025B847B8F1060F2AD8DFE808F00D48D3
S31500001F100453575B2D000198324A0023A9FB0001A8
S31500001F2006F042FA04460D469AF81530012B32D0D7
S31500001F304FF0FF300021A94208BFA0424FF0000336
S31500001F4022D2A208AF0842EA8572B94203F1010320
S31500001F5008BF904214463D46DBB215D2052BF0D1A0
S31500001F60032002B0BDE8F08700234FF47A7202FB2B
S31500001F7009F21946019806F017FA04460D469AF832
S31500001F801530012B07D000230A9A00201370346005
S31500001F9002B0BDE8F0874FF6FF700021CBE701984D
S31500001FA00DA3D3E90023A9FB000106F0FDF90446C1
S31500001FB00D46B9E701984FF47A72AEE7019CA9FB8A
S31500001FC00445B1E72B464A460198002106F0ECF994
S31500001FD004460D46D3E700BF00CA9A3B0000000046
S31500001FE0789F000040420F00012A70B506461C4645
S31500001FF02FD02AD3022A26D11A4A0023A4FB010194
S31500002000002506F0D1F9012E0ED0A94208BFA04244
S3150000201004D0002908BFB0F1FF3F10D14FF0FF30C8
S31500002020049B1860002070BD14F1FF3245F1FF33A8
S31500002030101A63EB0101A94208BFA042EED08D42FF
S3150000204008BF8442ECD2032070BD0846002500215B
S31500002050D9E764220023A4FB0101002506F0A4F9B8
S31500002060D1E700BFA0860100002836D08368002B88
S3150000207033D0224AC16891422DD130B5DA6A6FF366
S315000020800002DA6290F91420002A83B027DADA8E89
S315000020906FF30822DA869A8E04466FF3082202A8A6
S315000020A000252B219A86237CADF8045000F8041DE8
S315000020B0ADF8063003F04EFC94F91430657413F154
S315000020C0210F04D00E4A126852F833301D600020EA
S315000020D0E06003B030BD072070470120704751090A
S315000020E020310124074D02F01F0204FA02F245F8DE
S315000020F02120BFF34F8FBFF36F8FC8E754504700BF
S31500002100C4A4000000E100E050B149B183683BB1CE
S31500002110C068054A904205D19B6C0B600020704751
S3150000212001207047072070475450470038B3836832
S315000021302BB3144BC2689A421FD130B4EFF310810F
S31500002140012282F310888368DD6ADC6A6FF300047B
S31500002150DC62047C9869A24040F000409861DA6035
S315000021609A696FF3DF729A61DA6A65F30002DA62DE
S3150000217081F31088002030BC70470720704701208B
S31500002180704700BF5450470058B130B5856885B0D8
S3150000219065B141B1184CC568A5420AD0072005B003
S315000021A030BD01207047032005B030BD012005B0C9
S315000021B030BD0DF10B030025009303AB04460395D8
S315000021C08DF80B50FFF78CFE0028E8D1A368D96A7A
S315000021D0DA6A60F30002DA62DA6A9DF80B4064F3A9
S315000021E01A62DA62039A013A5A669864DA6A61F305
S315000021F00002DA62D3E700BF5450470078B1F0B569
S31500002200866885B02EB3012B06D8214CC568A54239
S3150000221007D0072005B0F0BD032005B0F0BD0120B2
S31500002220704704AF0446002047F8040D1D46736E40
S31500002230A07D00970133FFF7D7FE0028EDD1039A62
S31500002240A3684AB91A6B02217DB161F319621A6358
S31500002250E3E7012005B0F0BD511C0FD0196B45B95D
S3150000226060F3114119635A65D7E761F311421A63A6
S31500002270D3E760F3196119639A65CEE71A6B1DB14E
S3150000228042F040721A63C8E742F440321A63C4E768
S315000022905450470000283DD000293BD02DE9F0419D
S315000022A0D0F8088082B0B8F1000F35D01D4BC26857
S315000022B09A4235D10C46D8F864301B4A02A900264A
S315000022C0013341F8046DA360D8F82C709369054674
S315000022D0C7F30267032098477F00012303FA07F735
S315000022E0019AB2FBF7F76760D8F83020C2F3000214
S315000022F02270D8F82C2012F0010F18BF3346237332
S315000023002B7C03EB83035B00B633E381304602B0DC
S31500002310BDE8F08101207047012002B0BDE8F081E0
S315000023200720F4E754504700789F00002DE9F0415C
S315000023308AB0002963D0002861D04B7C934EADF85B
S315000023401230044600232B20ADF810300F468DF8CE
S315000023501000F2688DF80B300393CDE90633CDE912
S31500002360083306A904A890470546002848D10AAABA
S31500002370069942F8140D3369A16004A80621BDF838
S315000023801E809847BDF81E309DF8142022755E0702
S315000023905CBF012363750DF10B0348BF65753A7A7F
S315000023A079680093204603ABFFF79AFD054638BBD4
S315000023B07B69002B00F0CE8094F91420213200F0C6
S315000023C05781BA69C4E900327B7C23743A78012AC2
S315000023D000F0D080FB69022A1D7899781879A075DB
S315000023E04FF00003A574E1746374069300F0A680B1
S315000023F004A803F07BFA054630B1082500E0012564
S3150000240028460AB0BDE8F081A66804A803F0F8F9EA
S31500002410F36A4FEAD80865F30003F3624FF42540E8
S315000024204FF0FF33012128F00102306035617561FC
S315000024307561F56135627562B562F5623163756322
S31500002440B563F5633564B564F36433657365B36585
S315000024507366B366C6F88850C6F88C308AB1756460
S31500002460F3663367F3677367C6F88030B367C6F8F9
S315000024708430C6F89030C6F89430C6F89830C6F85E
S31500002480A050A6689DF80B00F26A0699039B6FF3AD
S315000024901242F262326B42F002023263326B42F057
S315000024A001023263326B6FF341023263F26A60F308
S315000024B01A62F262FA69013B00207366B06432B1B7
S315000024C01378002B40F09F809378002B64D17B69B2
S315000024D0002B00F0CF80BB7C94F914002C4A1B0122
S315000024E000281268DBB2C0F2CA8000F1604101F533
S315000024F0614181F8003352F830301C6003F0CAF9AC
S3150000250094F91420002A0DDB53099B0003F1604364
S3150000251003F5614302F01F02012101FA02F2C3F83A
S3150000252080211A60FB7C1BB1F36A43F00103F3625E
S31500002530184BE36028460AB0BDE8F08106AD3A7C48
S31500002540F968039B0095FFF74FFD054600283FF409
S315000025504FAF55E73A78012A02D07B7C237439E7DE
S3150000256094F91420213200F08380BA69C4E900325C
S315000025707B7C2374FB691A7898781979A2740023F6
S315000025800122E074A1756274069331E7109F000082
S31500002590C4A4000054504700A368D0789A8E97F8D8
S315000025A000C060F304129A869A8E60F387129A86A8
S315000025B09A8EBCF1010F42F00C029A8665D0BCF1EE
S315000025C0000F00F09880A27D002A40F0A5809A8E28
S315000025D0012060F301029A869A8E022060F383023C
S315000025E09A861A6C012060F393421A641A6B0029CA
S315000025F040F08B80022161F319621A639A8E42F4CD
S3150000260080729A8663E7F38E92F801C097F800E02D
S315000026106CF30413F386F38E6CF38713F386F38E51
S31500002620BEF1010F43F00C03F38649D0BEF1000F53
S3150000263066D0A37D002B40F08180F38E012060F3ED
S315000026400103F386F38E022060F38303F386336C73
S31500002650012060F311433364336B002967D10220F4
S3150000266060F311433363F38E43F48073F3862BE7F1
S315000026700B25C5E63B78012B7FF454AF2BE7434986
S3150000268000F00F0C61440B7635E700221A651A6CD0
S315000026906CF393421A64627D012A0CBF4FF6FF72F7
S315000026A04FF0FF329A659A8E00285CD1022161F3C1
S315000026B001029A869A8E012161F383029A869DE72A
S315000026C0F064336C6EF311433364637D012B0CBFEE
S315000026D04FF6FF734FF0FF337365F38EBCF1000FB7
S315000026E037D1022060F30103F386F38E012060F3F5
S315000026F08303F386B7E79A8E6CF301029A867DE729
S31500002700F38E6EF30103F386ADE7481C35D06FF305
S3150000271019621A63996571E79A8E022060F30102C5
S315000027209A869A8E012060F383029A8659E7481C9E
S3150000273027D06FF311433363716594E7F38E02205C
S3150000274060F30103F386F38E012060F38303F386BF
S315000027507DE7012060F30103F386F38E022060F328
S315000027608303F3867FE7012161F301029A869A8E3D
S31500002770022161F383029A8640E742F040721A63AF
S315000027803CE743F4403333636DE700BFFCEC00E005
S3150000279010B582B0EFF3058004F07AFDEFF3038302
S315000027A0194A103B12685BB252F833301C68EFF3DB
S315000027B00383A3F1100040B2009303F06BF854B109
S315000027C0637C73B9236833B16268009200228DF886
S315000027D0042068469847EFF3058004F057FD02B0E1
S315000027E010BDA368DA6A6FF30002DA62A17C0022E8
S315000027F09A6401B1DA64E27C0AB100221A65DA6BE6
S315000028006FF38612DA63DDE7C4A4000070B1084AEC
S31500002810084B12689A4207D1074B1B685A6803EBAC
S315000028208203036000207047122070470120704722
S315000028304C03FE1F494D46009CB17F4020B1034B1F
S315000028401B6803600020704701207047289F000026
S3150000285008B5154B196889B103F57F70002201E0B0
S3150000286053F8041F83420A44FAD13AB90F4B196848
S315000028700B0CB3F5807F04D000BEFDE700BE00BEA2
S31500002880FCE70B68013B033307D8243104220848D0
S3150000289005F040FF20B100BEFDE700BE00BEFCE72C
S315000028A0044B054A1A6008BD6CA000009CB17F402D
S315000028B090A000004C03FE1F494D4600A8B10C4AEB
S315000028C00C4B12689A420ED10B4B1B685A6800F1EA
S315000028D0100103EB820353F8042F40F8042B8142C6
S315000028E0F9D100207047122070470120704700BFC1
S315000028F04C03FE1F494D46009CB17F4040B13AB1A2
S31500002900F0B51B4C1B4B24689C4203D01220F0BD33
S3150000291001207047184B1E681EB3184B07781B68BA
S31500002920002404E00134B44203F1080319D09D7970
S31500002930BD42F7D193F805C04588B5EB9C0FF1D1A0
S31500002940DD7990F801C005F0070EE645EAD1B1EB56
S31500002950D50FE7D19B881470C3F309035380002079
S31500002960F0BDDF21FF23117053800B20F0BD00BFA7
S315000029704C03FE1F494D4600E403FE1FC4A400009D
S3150000298038B131B18A4A8B4B12689A4203D0122071
S315000029907047012070472DE9F041874D0278AC68F9
S315000029A005EB8404A3789A4264D24FEA121C04EB26
S315000029B08C0702F00F06B7F8088028FA06FE1EF00C
S315000029C0010F57D0072EBF7A0AD904EB8C0C02F000
S315000029D007069CF80B2002F00F0217444FEA18284E
S315000029E0DFF8DCC1754A1CF8066006EA08061B0912
S315000029F0925D02333A449B0003EB4203E618E25A27
S31500002A0096F90160C2F30902002E05EB820308DB8A
S31500002A10002B2FD04678002E4BD040F27950BDE8DF
S31500002A20F08115F8222045785208DDB14FF0020CEE
S31500002A30012604271C78E40705F1FF35EDD5052AA4
S31500002A400CD8DFE802F0342D221C1A039A78D41C25
S31500002A501CFB026202EB940203EB82031A78520813
S31500002A60002DE7D1042A00F2A080DFE802F06262BE
S31500002A70624F3B004FF4AF60D1E70833EEE79A7838
S31500002A8017FB026203EB8203E8E71C799A7812FBD4
S31500002A9004F20332033402EB940203EB8203DDE714
S31500002AA01A79033202F4FE720C321344D6E70C3361
S31500002AB0D4E7DF784088D4F804C03E46C6F3030462
S31500002AC0C7F3031701264F728C728E8000284FD1F0
S31500002AD035F822209B78CB800CEB02220A60087224
S31500002AE0C8609CE7D8785C785D680D600023024674
S31500002AF0C2F30302C0F303108B800B72CB60A307F3
S31500002B00CC8048728A7288D5002088E7D8785C78AD
S31500002B109D78CC800246C0F30310C2F3030204334F
S31500002B200424487200208A728D80CB600C72086083
S31500002B3075E7DD781E7940882C46C5F303154D727E
S31500002B40B5B2C4F3030485428C728D8010D9DC883B
S31500002B509D68012A00FB04540C601DD0022A0AD08D
S31500002B60B3F80130CB8000220A72CA60002BCBD1A9
S31500002B7040F27A5053E79C78033600FB04F202EBEE
S31500002B8096061844F21C03EB8203027BCA80CB60D4
S31500002B900C72002AB8D1EBE718440023027BCA80E6
S31500002BA00B72CB60002AAFD1E2E7642037E700BFA3
S31500002BB04C03FE1F494D46006CA00000889E000095
S31500002BC0089F0000034B04301B6823F820100020E8
S31500002BD0704700BF9803FE1F034B021D1B680020B1
S31500002BE023F82200704700BF9803FE1F034B1A68A4
S31500002BF0137843F080031370002070479803FE1F7C
S31500002C00034B1A6813786FF3C713137000207047CD
S31500002C109803FE1F20B1034B1B680360002070471A
S31500002C2001207047489F000060B1012808D1094B78
S31500002C301B68002040214122187119711A717047D2
S31500002C4001207047034B1B68402141229870997000
S31500002C509A7070479803FE1FF0B587B0002832D0EF
S31500002C6004461A4800230B22CDE90133CDE903338C
S31500002C70059302A9C3688DF8042001A89847054664
S31500002C8010B1284607B0F0BD114F029B3B6001A86A
S31500002C9002F0B6FD606858B1A3683E6803EB800099
S31500002CA0598813F8042B0432834226F82210F7D1F0
S31500002CB02378002BE5D03A681378284643F0800342
S31500002CC0137007B0F0BD0125DBE700BF109F0000C1
S31500002CD09803FE1F062070470620704790B10A4BE6
S31500002CE002689A420CD190F90630084AC03312683D
S31500002CF052F823106FF3186142F823100020704732
S31500002D00072070470120704700435444A403FE1F68
S31500002D1020B1034B1B6803600020704701207047F9
S31500002D204C9F000010B31A4B02689A421CD1E9B1BD
S31500002D30184B90F906201B68DB8900209BB288712E
S31500002D40180415D4144B53F82230D87800F0C0007C
S31500002D50802813D0DB8940289BB28B8015D078B9A8
S31500002D604FF480330B60704707207047012070478F
S31500002D705BB2934204BF01238B71E3E79B898B808F
S31500002D804FF480730B6000207047DBB28B80F7E74F
S31500002D9000435444A003FE1F0000FE1FF0B1114A79
S31500002DA001689142034617D190F9062012F1210FCE
S31500002DB016D00D4902F1C000096830B451F8204020
S31500002DC00A4D6FF3186441F82040002145F822109F
S31500002DD00846196030BC70470720704701207047CD
S31500002DE00B20704700435444A403FE1F0000FE1F3F
S31500002DF068B31D4B02689A422BD190F9063013F145
S31500002E00210F28D0194A52F823209168F9B1516848
S31500002E10E9B1D17801F0300110291ED0202910D057
S31500002E20134AC033126852F823106FF3104142F868
S31500002E30231052F8231041F0807142F8231000202D
S31500002E4070479168890702D152689207E8D001203D
S31500002E507047072070470B2070479168C907F6D462
S31500002E605268D007DCD5F2E7004354440000FE1F49
S31500002E70A403FE1FF0B583B00191009200283ED056
S31500002E80214990F9062051F82260F17811F0C0012D
S31500002E902ED053B31D4C0568A5422DD1802902D1F1
S31500002EA0F489A4B25CB31A4C1A4D24682D68C0325A
S31500002EB054F822706FF3186744F822702A786FF37B
S31500002EC004122A70019A0AB1019A7260009A0AB134
S31500002ED0009AB260802915D001B9F381FFF788FF07
S31500002EE02B7843F010032B7038B1132003B0F0BDDC
S31500002EF0064C0568A542D6D0072003B0F0BD0120D8
S31500002F0003B0F0BDB381E9E70000FE1F004354445F
S31500002F10A403FE1FA003FE1FF0B583B001919DF828
S31500002F2020600092BDF8245000283BD0214A90F939
S31500002F30064052F82410CA7802F0C002802A34D122
S31500002F40002D2FD0002B2DD01B4A076897422FD17A
S31500002F501A4A1B4F12683F68C03452F824C06FF3F8
S31500002F60186C42F824C03A786FF304123A70019A4A
S31500002F700AB1019A4A60009A0AB1009A8A60CA7830
S31500002F808D81CB818B7BCB7366F30512CA70FFF7FD
S31500002F902FFF3B7843F01003002814BF13200020B6
S31500002FA03B7000E0012003B0F0BD062003B0F0BD89
S31500002FB00720F8E70000FE1F00435444A403FE1F49
S31500002FC0A003FE1F40B339B30B682BB3DA7812F0B7
S31500002FD0C00F1DD1534B02689A422AD02DE9F04703
S31500002FE0514E337886B00746884623BB4F48019337
S31500002FF00822C4688DF80420CDE90233CDE90433F4
S315000030000DEB020101A8A04740B106B0BDE8F0876C
S31500003010DB89B3F5807FDDD901207047444D029BE3
S315000030202B6001A802F062FC814600285CD00A20D1
S31500003030EBE7082070473F4B1D68B8F80460002393
S3150000304002E00133702B48D003F1C00459B255F8A1
S315000030502420C2F308029642F3D1374E55F82420B5
S3150000306056F82300C2F30802BA8030BBD8F800C075
S31500003070624600E01032D07810F0C00F1CBF907B83
S31500003080D073907810F0C000F4D1294C98F806203F
S315000030902468DFF890E0257860F30415257046F87B
S315000030A023C0B971C7F800E05AB92378104643F037
S315000030B01003237006B0BDE8F087082006B0BDE80F
S315000030C0F0873846FFF794FE237843F01003002874
S315000030D014BF13200020237097E7D5F87C32C3F382
S315000030E00803BB800B2090E7DFF84CA001A802F094
S315000030F087FB49464FF4E072504605F025FB2B68E6
S31500003100C3F804A01A7B062542F001021A738DF853
S31500003110045002A901A8A047064B029D1D60012389
S3150000312033708AE7004354449C03FE1F109F00003F
S31500003130A003FE1FA403FE1F0000FE1F062070470B
S315000031400620704720B1034B1B68036000207047C0
S3150000315001207047E49F0000324A136893F8281054
S3150000316001F03003102B0CD0202B02D000239361EA
S31500003170704790F82B302C499B0931F8131059B938
S315000031807047038D10B403F00303284C34F8133052
S3150000319003BB5DF8044B7047D2ED047A90F82B30F0
S315000031A0B8EE676A07EE901AF8EE676A03F01F0337
S315000031B0C6EE267A07EE103AB8EE477AF7EE006AC0
S315000031C037EE267A67EE877AFCEEE77A17EE903AC4
S315000031D09361704707EE903A4B06B8EE677A19D4BA
S315000031E0032102EB8101D1ED016A038D5DF8044BE9
S315000031F0F8EE666AC3F3052386EE876A013307EEA7
S31500003200903AFAEEEF7A67EE867AFCEEE77AC2ED4E
S31500003210067A7047038D13F0100F0CBF03210021AF
S31500003220DFE700BF5003FE1FF09F000000A0000074
S31500003230A9B1062810B430D0052812D0042834D0FD
S3150000324020B3012841D0022837D0032845D1244C89
S315000032500023E0690B60026A02F0070208E0012021
S3150000326070471F4C0023E0690B60026AC2F30272CA
S3150000327090F8263003F0070304EB830300205B6815
S3150000328023FA02F20A605DF8044B7047144C08609A
S31500003290E069026AC2F30232EAE7114C0023E069F0
S315000032A00B60026AC2F30262E2E70D4C0023E0699A
S315000032B00B60026AC2F30242DAE7094C0023E069B6
S315000032C00B60026AC2F30212D2E7054C0023E069E2
S315000032D00B60026AC2F30222CAE70320D3E700BFEB
S315000032E05003FE1F38B50D784B788A78002465F3B5
S315000032F00E3463F30A24CB780D7962F3061463F374
S3150000330002044A798B7965F3124462F31E7405460A
S3150000331063F31A64002002F0A7FB2C620020BDE8CC
S31500003320384002F071BB00BF10B5174BDC6994F84A
S315000033304120D0070CD51A6894F8263092F8282038
S31500003340510603F007030AD4052B0DD0032B0BD02F
S3150000335094F84130DB074FF0000008D410BD228DF1
S31500003360D206F3D4052BF1D140F2971010BD02F02E
S315000033707BFB94F841306FF3000384F84130002062
S3150000338002F042FB002010BD5003FE1F38B5084B6B
S31500003390DC690546002002F067FB94F8303065F3DF
S315000033A0000384F83030002002F02EFB002038BDE8
S315000033B05003FE1F084B10B5DC69002002F054FBD9
S315000033C094F8523043F0010384F85230002002F0A2
S315000033D01BFB002010BD00BF5003FE1F084B10B59D
S315000033E0DC69002002F040FB94F852306FF30003D2
S315000033F084F85230002002F007FB002010BD00BF09
S315000034005003FE1F084B10B5DC69002002F02CFBB0
S3150000341094F83E3043F0800384F83E30002002F0FA
S31500003420F3FA002010BD00BF5003FE1F084B10B575
S31500003430DC69002002F018FB94F83E306FF3C713E6
S3150000344084F83E30002002F0DFFA002010BD00BFF5
S315000034505003FE1F084B10B5DC69002002F004FB88
S3150000346094F8533043F0010384F85330002002F0FF
S31500003470CBFA002010BD00BF5003FE1F084B10B54D
S31500003480DC69002002F0F0FA94F853306FF3000381
S3150000349084F85330002002F0B7FA002010BD00BFB8
S315000034A05003FE1F38B5084BDC690546002002F0C4
S315000034B0DBFA94F8243065F3061384F824300020F0
S315000034C002F0A2FA002038BD5003FE1F03788B429B
S315000034D014D343788B4211D383788B420ED3C378AF
S315000034E08B420BD343798B4208D30379994205D893
S315000034F0807981428CBF05200020704705207047E7
S3150000350030B583B001F07CFF1A4B01901D68186836
S3150000351010F0020028D0DDED017A174CF8EE677A3C
S31500003520F7EE006A86EEA77A0020186094F823204A
S31500003530D1B2DFED127ADFED126A27EE277AC6EEF8
S31500003540877AFCEEE77A17EE902A013AB2F1807F8D
S315000035500CD25A6001F0F001F025072284F82350BE
S3150000356098601A6084F8231003B030BD12201D60E5
S3150000357003B030BD10E000E000ED00E00024744927
S3150000358000401C4608B1FFF7BBBF0320704700BFD1
S31500003590052827D0144B042870B5DC6903D194F8AC
S315000035A08034DB071BD4054600200E4602F05CFA89
S315000035B094F83E306FF3C71384F83E3094F83E30EB
S315000035C066F3061384F83E3094F83E3065F3020342
S315000035D084F83E30002002F017FA002070BD4FF448
S315000035E0C87070BD032070475003FE1F30B583B00E
S315000035F0002953D00246002870D0414CE36993F865
S31500003600AA0010F0010063D193F8A000196A25689A
S31500003610C1F302318DF80010196AC1F302218DF849
S315000036200110196AC1F302118DF80210196AC1F36B
S3150000363002018DF80310196AC1F302418DF80410D6
S31500003640196AC1F302718DF805101B6AA968C3F3E4
S31500003650026300F003008DF8063009B1032840D05C
S31500003660EB680BB1022844D01146012001F07CFF23
S31500003670E469002002F0F8F994F8403043F0800342
S3150000368084F8403094F8403043F0010384F8403029
S31500003690002002F0B9F9002003B030BD184BDD69F7
S315000036A095F84130DB0715D408460C4602F0DCF9E4
S315000036B095F8403064F3000385F8403095F84030C3
S315000036C064F3C713204685F8403002F09DF9204682
S315000036D003B030BD4FF4CB7003B030BD012003B052
S315000036E030BD29696846FFF7F1FE0028BCD00520E9
S315000036F0EEE769696846FFF7E9FE0028F7D1B3E708
S315000037005003FE1F38B50B4B04461B68002093F888
S31500003710225002F0A9F994F88034DB0705D594F815
S31500003720813423EA050384F881340020BDE838405B
S3150000373002F06AB95003FE1F062070470620704744
S31500003740062070470620704728B321B3134BDB6968
S3150000375093F82620C2F3020202701A6AC2F30232FA
S315000037600A701A6AC2F302224A701A6AC2F3021275
S315000037708A701A6AC2F30202CA701A6AC2F3024255
S315000037800A711A6AC2F302724A711B6AC3F30263B0
S315000037908B71002070470120704700BF5003FE1F49
S315000037A005292ED8DFE801F00A11181F260390F824
S315000037B02A0000F0010080F00100704790F8360002
S315000037C000F0010080F00100704790F8380000F02A
S315000037D0010080F00100704790F8900400F00100AD
S315000037E080F00100704790F8320000F0010080F090
S315000037F00100704790F8800400F0010080F001009D
S3150000380070470020704700BF30B5A1F1020483B0B5
S315000038104FF6FF73B4FA84F40546640901930A4A25
S3150000382004E0019B43B1019B013B01932946D0690A
S31500003830FFF7B6FFA042F4D1019B002B0CBF4FF45B
S31500003840CD70002003B030BD5003FE1F70B5344C60
S3150000385086B0204601F076FE06A8002303220093D8
S3150000386000F8182D2F4ACDE90233CDE9043302A919
S31500003870D3689847029DE5614FF6FF73019395F86B
S315000038803630DA0705D50BE0019B33B1019B013BCE
S31500003890019395F83C30DB07F6D5019B002B39D018
S315000038A0002002F0E1F895F8A530062262F3020343
S315000038B085F8A530002002F0A7F82368E669D3E969
S315000038C0061200254FF6FF732261174A0193284618
S315000038D04FF40043C4E902236160A561636102F00D
S315000038E0C3F896F8803443F00103284686F88034FE
S315000038F002F08AF801210420FFF786FF054648B941
S31500003900E36918461A6A93F82630FFF7FBFE284645
S3150000391006B070BD4FF4CD75284606B070BD00BF29
S315000039205003FE1F109F000000127A00052828D8B9
S3150000393038B5524DEA6992F8263003F007039842EB
S315000039401CD0052B12D092F82A30DB070ED50128A1
S31500003950044618D192F84030DB097DD11046214645
S31500003960FFF71EFF00283BD1002038BD2B6893F8D7
S3150000397028305C062DD403239842E8D140F29110FA
S3150000398038BD0320704710462146FFF709FF00287F
S31500003990EAD0032CED6935D0052C2CD0002C49D16A
S315000039A095F83C30D9072AD5204602F05DF895F8FF
S315000039B0363043F0010385F83630002002F024F853
S315000039C020460121FFF720FF0028CDD04FF4CD700F
S315000039D038BD138D13F0100F0CBF03230023CBE764
S315000039E00020ED6902F040F895F8383043F0010305
S315000039F085F83830E1E795F83C309B0610D440F264
S31500003A00931038BD95F83C301A07F8D5002002F01F
S31500003A102BF895F8323043F0010385F83230CCE7C5
S31500003A20002002F021F895F82A3043F0010385F8CA
S31500003A302A30C2E7002002F017F8042CBDD801A3F3
S31500003A4053F824F0AF390000E93900006D3A000060
S31500003A50133A00005F3A000040F2951038BD95F821
S31500003A60803443F0010385F88034A6E795F8903456
S31500003A7043F0010385F890349FE700BF5003FE1F13
S31500003A8005281DD808B5431E012B014608D9042870
S31500003A9006D068B1032815D005281FD0002008BD20
S31500003AA0194BD869FFF77CFE38B140F2911008BD7A
S31500003AB0154AD069FFF774FEF0B94FF4C87008BD17
S31500003AC003207047104AD069FFF76AFE0028F4D039
S31500003AD0D36993F83C301B0713D40AE00A4AD0692D
S31500003AE0FFF75EFE0028E8D0D36993F83C309906CC
S31500003AF007D440F2931008BDD36993F83C30DA0737
S31500003B00F7D54FF4C97008BD5003FE1F70B50646C1
S31500003B104FF6FE7440F2931501E0013C05D03046A5
S31500003B20FFF7AEFFA842F8D000B970BD6FF4C873B6
S31500003B30C318012B98BF002070BD00BF30B583B0FD
S31500003B404FF6FF730446012001930D4601F08CFFEA
S31500003B5002A8002300F8053D01F0C4FB94F8AA3042
S31500003B60D90604D494F8A030C3F3001353B1019BD3
S31500003B70013B0193019B002BF0D1012001F044FF92
S31500003B8003B030BD94F8AA2063F300024FF6FF732A
S31500003B9084F8AA20019302E0019B013B019394F86B
S31500003BA0AA30DA0603D494F8A030DB0602D5019BCE
S31500003BB0002BF1D194F8A030042D0CBF43F0030381
S31500003BC065F3010384F8A0304FF6FF73019302E01A
S31500003BD0019B013B019394F8AA30D80603D494F8CC
S31500003BE0A030D90602D5019B002BF1D194F8AA305A
S31500003BF0042D0CBF43F001036FF3000384F8AA30D1
S31500003C004FF6FF73019302E0019B013B019394F889
S31500003C10AA30DA0603D494F8A030DB0602D5019B5D
S31500003C20002BF1D19DF8030001F070FB012001F09B
S31500003C30EBFE03B030BD00BF0428124B0BD00228A8
S31500003C4009D01A6892688A4204D3D86990F82A3053
S31500003C50DB0714D47047D86990F82A20D207F0D52C
S31500003C6090F83220D207ECD590F83620D207E8D566
S31500003C7090F83820D207E4D50421FFF75FBF03216F
S31500003C80FFF75CBF5003FE1F052837D82DE9F84320
S31500003C90AE4E2DED028B0D4604460146F069FFF748
S31500003CA07FFD0746002842D1042C57D0012C44D072
S31500003CB034B3032C60D0052C00F0B880F56901F010
S31500003CC0D3FE032C00F09C80042C4ED0022C3ED157
S31500003CD095F890346FF3000385F89034002001F0D6
S31500003CE093FE20460221FFF78FFD002814BF4FF4F4
S31500003CF0CD700020BDEC028BBDE8F8830320704731
S31500003D00F56995F83C30DB0700F1818095F8AA301B
S31500003D10DF0700F1858095F8A030002001F0A4FEB1
S31500003D2095F836306FF3000385F83630D6E7F0693C
S31500003D30FFF712FA40F29110DCE7F56995F8AA3020
S31500003D40DA0767D495F8A030002001F08DFE95F8CB
S31500003D5038306FF3000385F83830BFE7F069FFF7B6
S31500003D60D1FC3846F56901F07FFE95F880346FF393
S31500003D70000385F88034B1E7F76997F83C301807F7
S31500003D8045D497F8AA30D90700F1BD8097F8A0303E
S31500003D903168002091F8275091F8208091F8219001
S31500003DA001F062FE97F8133405FA09F25BB25A4045
S31500003DB002EA08025340DBB287F81334002001F010
S31500003DC023FEF569002001F04FFE95F813346FF3DA
S31500003DD0861385F81334002001F016FEF5690020DD
S31500003DE001F042FE95F8A230052262F3030385F83E
S31500003DF0A230002001F008FE0020F56901F034FE33
S31500003E0095F832306FF3000385F8323066E740F2FA
S31500003E1093106FE728460321FFF790FEF56993E7B5
S31500003E2028460321FFF78AFEF56976E7002D70D054
S31500003E303368697893F8242091425FD893F8262056
S31500003E4095ED017A07EE902AF8EE677AF4EEC77AD6
S31500003E50F1EE10FA52D493F8253007EE903AF8EEC8
S31500003E60677AB4EEE77AF1EE10FA47D42978032997
S31500003E7001D0002942D1F069FFF792FC00284AD010
S31500003E80F76997F83C309A06C1D497F8AA30DB0751
S31500003E9056D497F8A03095F80080002001F0E4FD94
S31500003EA03B8DB8F1030F0CBF6FF3041343F01003FF
S31500003EB03B85002001F0A8FD3368F76993F82830A8
S31500003EC095F8018003F03003102B41D0202B53D0FE
S31500003ED095ED018A202B21D0F069FFF73DF90021ED
S31500003EE0F069FFF72BFEF569002001F0BDFD95F89E
S31500003EF02A306FF3000385F82A30EFE6BDEC028B1B
S31500003F000320BDE8F88338462146FFF717FEF76918
S31500003F103EE70120EEE64FF4CA70EBE6002001F022
S31500003F20A3FDFCEEC87A97F82B2017EE903A013BDA
S31500003F3063F3040287F82B20002001F065FDCBE730
S31500003F4038460321FFF7FAFDF769A4E75003FE1F81
S31500003F50214B002033F8189001F086FD3B8D69F364
S31500003F6001033B85002001F04FFD336893F82830AC
S31500003F7003F03003202B13D1184B002033F81880A0
S31500003F8001F072FD97F82B3068F3871387F82B3012
S31500003F90002001F039FD336893F8283003F0300330
S31500003FA0102BF76995ED018A94D1002001F05CFD94
S31500003FB078EE087A3A8DFCEEE77A002017EE903A12
S31500003FC0013B63F30D223A8501F01EFD336893F839
S31500003FD0283003F030037DE7F89F0000E89F0000DB
S31500003FE0012814D0022801D000207047052938B5D1
S31500003FF015460C460ED0291D2046FFF745FE20B17A
S3150000400040F29113984200D038BD002038BD0846D2
S31500004010FFF78CBC11461079FFF736FE18B140F257
S3150000402091139842F0D12879FFF770FD0028E2D06D
S31500004030EAE700BF2DE9F047052884B000F28D803D
S31500004040002900F08F800B788A799342C0F0858032
S315000040504C789C42C0F08180CC789C427DD84B79CC
S3150000406093427AD30C79944277D304280C460546BA
S315000040707DD05C4FF86990F8263003F007039D4227
S3150000408007D0002D40F0898090F83C30D90740F1E8
S315000040908D80036A036A036A036A036A036A036A12
S315000040A00021C3F30268FFF749FD07EB8502A079FB
S315000040B05368F969C340002201938DF800208DF8FA
S315000040C00C200A6A91F8263003F0070307EB8303F6
S315000040D0C2F302625B686846D340029301F0A0F91E
S315000040E0064600283AD1A379D7F81C90434505F037
S315000040F0070A5ED921464846FFF7F4F8FC693046C0
S3150000410001F0B2FC94F826306AF30203304684F8D4
S31500004110263001F079FCFB691A6A93F8263003F021
S31500004120070307EB8307C2F302627B686846D34046
S31500004130012202938DF8002001F072F9064668B953
S3150000414001F05EF9284B1860002848D00146284641
S31500004150FFF772FDFFF7D4F900E00326304604B0FE
S31500004160BDE8F0870126304604B0BDE8F08792B975
S315000041708BB91C4FF86990F84030DB090BD190F8E9
S31500004180263003F00703042B83D02946FFF708FBEC
S3150000419028B3F8697DE70526E0E7032D19D0052D3C
S315000041A0F3D190F83C309B063FF573AF40F293167F
S315000041B0D4E701F059FC99F826306AF30203304639
S315000041C089F8263001F020FC2146F869FFF78AF8C5
S315000041D0A1E790F83C301A073FF55BAFE6E74FF4EE
S315000041E0C876BBE75003FE1F0004FE1F2DE9F04F03
S315000041F083B0002853D0DFF83C910778D9F81C30FB
S31500004200467D93F826801A6A1A6A1A6A1A6A1A6A20
S315000042101A6A1B6A027DC37DC17C8DF801208DF868
S315000042200330827D037E8DF80060052F08F00708B5
S315000042308DF802108DF804208DF805302AD802AAD0
S315000042403A4412F8082C012A24D0022B08D102790C
S31500004250052A1FD802A90A4412F8082C012A19D0E7
S315000042608246524618460521FFF7BAFE0446D8B9DB
S31500004270054640F2911BE9B230465246FFF7B0FEC2
S315000042800135044608B1584505D1052D12D01DF853
S315000042900560F0E70324204603B0BDE8F08F012453
S315000042A0204603B0BDE8F08F40F291139842F2D158
S315000042B00025DEE73846FFF729FC04460028EAD148
S315000042C0042F19D025460AF10C013846FFF7B2FE35
S315000042D004460028DFD1474505D002AB434413F816
S315000042E0083C012B1DD0002DD5D001F089F80146E0
S315000042F03846FFF7A1FCCEE7D9F81C3093F82A2000
S31500004300D00715D593F83220D10711D593F836206A
S31500004310D2070DD593F8385005F0010585F0010553
S31500004320D1E74046FFF702FB0028DCD00446B2E79F
S315000043300125C8E75003FE1F20B1034B1B6803602D
S3150000434000207047012070473CA0000006207047FF
S3150000435088B10F4B826A9A420BD1C3695BB190F860
S315000043602420022A09D01A8842F400721A800020FA
S31500004370704707207047012070471888C00B04D18A
S315000043801A8842F400421A8070470820704700BF1E
S315000043904344415298B10B4B826A9A420DD1C3698C
S315000043A06BB190F82420022A1A8814BF6FF34922B1
S315000043B06FF3CF321A800020704707207047012024
S315000043C0704700BF4344415268B1084B826A9A4223
S315000043D007D1C3693BB11B88DB0B0CBF002008204B
S315000043E07047072070470120704700BF4344415281
S315000043F0E8B1CB1CDBB21E2B1BD8002910B407DB9F
S31500004400134B048853F8244001238B40234216D0D3
S31500004410104B846A9C420ED1AAB1C369ABB110316C
S31500004420002033F8113013805DF8044B70470120EB
S3150000443070470320704707205DF8044B7047032040
S315000044405DF8044B70470220EEE70120ECE700BF61
S31500004450A803FE1F4344415230B583B00023ADF894
S3150000446006308AB114460DF106020546FFF7C0FF75
S31500004470BDF8063010B1236003B030BDEA88B2F54E
S31500004480004FF8D11B04F6E7022003B030BD00BF91
S3150000449018B311B31A4B826A9A421CD191F90020C3
S315000044A0D31CDBB2122B1DD8002A18DB154B10B417
S315000044B0048853F8244001239340234214D04978BA
S315000044C0062911D9C369CBB11A44002082F8E0103D
S315000044D05DF8044B70470720704701207047497804
S315000044E0062903D8032070470320F1E7C369002B90
S315000044F0F3D01A44002082F8E01070470120E7E765
S3150000450043444152A803FE1F88B381B3354B826AE8
S315000045109A422AD10379012B5AD070B5C56982B067
S315000045203DB3C46A44B34FF0FF330126013306FAA4
S3150000453003F22242FAD01C2B4ED01D2B4AD0103348
S315000045405A0015440D6020230126013B06FA03F5A7
S315000045502542FAD01C2B41D01D2B41D010335B00D5
S315000045609B1A5B1001334B6007E007207047012060
S315000045707047012002B070BD4C601B4A0388166963
S31500004580ADF806300C460023012120220546ADF881
S31500004590043021728DF8042000936A46022101A896
S315000045A0B0470028E6D12B78BDF80220628104339B
S315000045B05B004FF0FF326372E260EB7A012B04D1AD
S315000045C06B691B68C3F30B03E3606B882382D1E737
S315000045D0032070471C22B4E71A22B2E71A23BFE76A
S315000045E01C23BDE743444152109F0000D0B110B5D3
S315000045F084B0002304466846CDE90033CDE9023392
S3150000460000F080FF9DF80C309B070DD5E3691A88F2
S31500004610D20B0CD11B8813F4007F14BF1B20002083
S3150000462004B010BD01207047062004B010BD1B2049
S3150000463004B010BD30B5B0F880306FF30003A0F8B9
S3150000464080300388C3F34133012B038A43F47C5340
S3150000465083B00D46038203D1038A43F03F030382EE
S31500004660002404802B88448220226846ADF800404E
S31500004670ADF802308DF8002001F0BEF8EB6ADB00E1
S315000046800AD52B6903B11C7002A8002222230192CD
S3150000469000F8043D01F0B0F803B030BD70B4C36952
S315000046A08E7FB3F8A221CD7F91F8204066F30302F6
S315000046B0A3F8A221B3F8A22165F30712A3F8A22159
S315000046C0B3F8A22164F30B22A3F8A221B3F8A02128
S315000046D042F00802A3F8A021B3F8A02142F080021C
S315000046E0A3F8A021B3F8A02142F40062A3F8A02108
S315000046F0FF2EB3F8A02100F0B7806FF30002A3F8F5
S31500004700A021B3F8A02142F00202A3F8A021B3F839
S31500004710A02142F00402A3F8A021FF2DB3F8A021A6
S3150000472000F091806FF30412A3F8A021B3F8A02142
S3150000473042F02002A3F8A021B3F8A02142F04002E3
S31500004740A3F8A021FF2CB3F8A0216BD06FF30822A9
S31500004750A3F8A021B3F8A02142F40072A3F8A02187
S31500004760B3F8A02142F48062A3F8A0218C7FC3692C
S31500004770C87F91F8201004F17F02D2B23A2AB3F82A
S31500004780B0212BD8C4F3011464F30102A3F8B021BD
S31500004790B3F8B02142F00802A3F8B02100F17F027D
S315000047A0D2B23A2AB3F8B02123D8C0F3011060F38D
S315000047B00512A3F8B021B3F8B02142F08002A3F8A5
S315000047C0B02101F17F02D2B23A2AB3F8B0211BD947
S315000047D06FF3CB22A3F8B02170BC70476FF3C3020E
S315000047E0A3F8B02100F17F02D2B23A2AB3F8B02181
S315000047F0DBD96FF3C712A3F8B02101F17F02D2B261
S315000048003A2AB3F8B021E3D8C1F3011161F30922C2
S31500004810A3F8B021B3F8B02142F40062A3F8B021A6
S3150000482070BC704742F48072A3F8A021B3F8A021AF
S315000048306FF34922A3F8A021B3F8A0216FF38A22CF
S31500004840A3F8A02192E742F01002A3F8A021B3F842
S31500004850A0216FF34512A3F8A021B3F8A0216FF3AE
S315000048608612A3F8A0216DE742F00102A3F8A02169
S31500004870B3F8A0216FF34102A3F8A021B3F8A02159
S315000048806FF38202A3F8A02147E700BF002842D0B9
S315000048903C4B826A9A423CD1C369002B3BD030B56F
S315000048A0044690F93000002310F1210F83B0A36273
S315000048B00BD098424BDA00F0EDFF334B94F93020E1
S315000048C01B6853F8323000221A6094F9310010F157
S315000048D0210F0BD0002820DA00F0DCFF2A4B94F9D8
S315000048E031201B6853F8323000221A602146E069F5
S315000048F0FFF7A0FE02A800252023ADF8045000F81B
S31500004900043D2388ADF8063001F024F8284603B0AC
S3150000491030BD07207047012070474209203201232D
S315000049201A4900F01F0003FA00F041F82200BFF315
S315000049304F8FBFF36F8F94F931000028CCDB42090B
S31500004940603200F01F05AB4041F82230C4E742094F
S31500004950203201230D4900F01F0003FA00F041F850
S315000049602200BFF34F8FBFF36F8F94F930000028FA
S31500004970A1DB4209603200F01F05AB4041F822304E
S3150000498099E700BF43444152C4A4000000E100E09F
S315000049902DE9F0438DB048B141B18B88C3F30E03C6
S315000049A04BB1032528460DB0BDE8F0830125284606
S315000049B00DB0BDE8F0830C46064608A8CDE90833DD
S315000049C0CDE90A338D7800F09DFDA37933B19DF8CA
S315000049D02C20D70740F1A081852BE2D0E27912F096
S315000049E0DF0FDED1227A022ADBD8A1780229D8D8B5
S315000049F0E07808B1052BD4D0206908B10229D0D0BF
S31500004A00012D00F09781BF4BB56A9D4200F0888169
S31500004A1025886369ADF80A503580BB4FA58894F8A0
S31500004A201CE094F81DC0B36130620023E07F317151
S31500004A30F58094F82010A57F86F824202022ADF872
S31500004A400830CDE90833CDE90A3386F8345086F8C4
S31500004A50350086F83610FB6886F832E086F833C0F3
S31500004A608DF8082002A80DEB02019847054600289C
S31500004A709DD1BDF82620089BF361C2F3820304335F
S31500004A80C2F340125B0072723372A049208851F85B
S31500004A9020204AB90B9A558841F820505268120CCA
S31500004AA012042A4341F820200C2B00F04A810E2BD9
S31500004AB000F03881102B03D1E378042B7FF471AF1B
S31500004AC002A800F013FF054600287FF470AF089097
S31500004AD0D7F8108008AA022102A8C04723699DF9C9
S31500004AE0200086F83000002B00F03D8110F1210FE8
S31500004AF000F03481864AA37A12681B01002852F816
S31500004B0030C0DBB2C2B2C0F23381DFF808E24FEA4E
S31500004B10501909F120097044012102F01F0201FA1F
S31500004B2002F280F80033CCF800604EF82920BFF37B
S31500004B304F8FBFF36F8F96F93000002806DB4309CD
S31500004B40603300F01F0291404EF8231000F0A2FEE1
S31500004B5008AA032102A8C047A3789DF9200086F879
S31500004B603100012B00F0F28010F1210F2DD0684AA0
S31500004B70E37A12681B01002852F830E0DBB2C2B2B9
S31500004B80C0F2FE80DFF88C814FEA501C0CF1200C3D
S31500004B904044012102F01F0201FA02F280F80033BC
S31500004BA0CEF8006048F82C20BFF34F8FBFF36F8F0D
S31500004BB096F93100002806DB4309603300F01F0236
S31500004BC0914048F8231000F065FE00237381C6E982
S31500004BD0043304A8CDE90433CDE90633019300F08C
S31500004BE091FC9DF81020019B039322218DF80C1057
S31500004BF0D1060ED5CDE90833CDE90A3308A9FB68FD
S31500004C0003A89847E0B90122089BB2729DF81020CC
S31500004C103361120711D500234FF00108FA688DF8A9
S31500004C200D80CDE90833CDE90A3308A903A89047DA
S31500004C3030B9089B86F80B807361BDF8123073801B
S31500004C403146F069FFF7F6FC002720222388ADF8ED
S31500004C50107004A88DF81020ADF81230CDE9087751
S31500004C60CDE90A7700F0CCFDF369A1781F805F8259
S31500004C701A8861F34E321A801A8867F3C7121A80AF
S31500004C80227A012A00F084803AB9198841F48071A9
S31500004C901980198A62F30D211982D88994F803C004
S31500004CA0A188E279A7796CF34200D881A1F5004189
S31500004CB0D889B1FA81F1490961F3CF30D881A2F1DF
S31500004CC02002D989B2FA82F2520962F34511D981DA
S31500004CD008A81F7300F016FC9DF82C30C3F34002A1
S31500004CE0D1B2327319B1217B002900F088805B07AD
S31500004CF054D4737A012B00F09080024B0022C6E94F
S31500004D000A3254E643444152109F0000A803FE1F96
S31500004D10C4A4000000E100E018063FF55FAE40E6DF
S31500004D20082544E6E378032B3FF4CAAE002B3FF494
S31500004D30C7AE36E6258940F201139D423FF463AEC5
S31500004D402FE6E378022B7FF6BBAE2AE62369002B1B
S31500004D503FF40AAF10F1210F7FF409AF02A800F06B
S31500004D60F9FD0B2523E610F1210F3FF4F1AEC1E664
S31500004D70374902F00F0211440B76CCF80060E5E6E5
S31500004D80334902F00F0211440B76CEF800601AE7A1
S31500004D901A8A092161F30D221A827EE7F36996F8D1
S31500004DA0321093F8E12161F3420283F8E12193F88E
S31500004DB0E12142F0100283F8E1210121962000F062
S31500004DC039FDF36996F8330093F8E12196F832102D
S31500004DD060F3000283F8E12193F8E1216FF3C30247
S31500004DE083F8E12129B193F8E12142F0080283F822
S31500004DF0E121012140F2DC5000F01CFD79E730464C
S31500004E00FFF7F4FB074668B102A800F0A3FD3146A0
S31500004E10F0693D46FFF70EFCC9E521463046FFF72F
S31500004E203DFC6AE796F9300000F034FD96F9303023
S31500004E30002B09DB5A09603203F01F0301210548E4
S31500004E4001FA03F340F822309DF82C304FE700BFFB
S31500004E50FCEC00E000E100E0002800F00E810029F3
S31500004E6000F00B81B74B826A9A4240F004812DE92B
S31500004E70F041C66986B0002E00F001810B68044639
S31500004E800D46002B00F00081AF4A018852F8212020
S31500004E9042F04052D243134240F0F68031886868AF
S31500004EA0C1F34131012900F0F480002840F0EC8084
S31500004EB0002302A8CDE90233CDE9043300F022FB3A
S31500004EC09DF80820970700F1EA80D5E9003111F036
S31500004ED0405F40F0D98013F040510BD03088000677
S31500004EE000F1D280520700F15D8196F87A20002AFF
S31500004EF040F0CA80327BE968520700F004816A6894
S31500004F001A4331EA020240F0BF80002900F0BC805B
S31500004F102A7C002A40F064816A689FB290B2B7800A
S31500004F20B082180C13438FB2120C090C13F0405FB9
S31500004F303781F080F28271815DD00DF1180800236F
S31500004F4002A848F8143DCDE90233CDE9043300F058
S31500004F50D9FA7E4B9DF810009B6941469847019906
S31500004F607B4B994240F28F802B68002840F08C8062
S31500004F707848039AA0FB0101890C774802FB01F7E8
S31500004F80A0FB0727BF09FA1FF82A7DD8D90000F130
S31500004F90CA806A68D20015D5FAB286F8DE20A27AEF
S31500004FA0012A00F09E80728A6FF308227282728A4A
S31500004FB042F480627282EA68718AC2F3007262F316
S31500004FC00001718213F0005340F0A1806A689100DD
S31500004FD011D5FFB286F8DF70728A63F349227282B6
S31500004FE0738A43F400637382EB68728AC3F3407377
S31500004FF063F3410272822B7C6A7C2989E7692079F6
S315000050005B0203F4C063134348F201029142A6F81F
S31500005010663046D00228A6F880105FD0B7F8008028
S31500005020C8F34138B8F1010F00F09A8094F93000C6
S3150000503010F1210F13D000F02DFC94F93020002A36
S315000050400DDB53099B0003F1604303F5614302F056
S315000050501F02012101FA02F2C3F880211A60298990
S315000050602B6848F20102914236D148F20102A6F8B5
S315000050708020002009E007207047012070470120AA
S3150000508006B0BDE8F0812B680320E36206B0BDE8F8
S31500005090F0810028F8D01A430242F5D108E72B68C0
S315000050A019E7022800F0EE803B88C3F34133012B59
S315000050B0BCD13A8A94F9310042F03F0210F1210F37
S315000050C03A8204D0002880F2BD8000F0E3FB3B88E2
S315000050D06FF386133B80A9E70020D6E72B680020F4
S315000050E0D3E71E4800232222CDE90133CDE903335D
S315000050F0059302A9C3688DF8042040469847002806
S315000051005DD02B68C1E700293FF402AFBCE7FFB2D0
S3150000511086F8DF70738A43F400737382738A6FF3C1
S31500005120CB23738260E7FAB286F8DE20A27A012AE0
S31500005130D7D0728A42F480727282728A6FF38A22A0
S31500005140728238E743444152A803FE1F789F00004D
S315000051503F420F0083DE1B43D34D6210109F0000B9
S3150000516094F9310010F1210F12D000F093FB94F95D
S315000051703130002B0CDB5A09920002F1604202F535
S31500005180614203F01F0308FA03F3C2F8803113608B
S315000051903B8843F040033B803B8A0A2262F30503C7
S315000051A03B8243E7B1F1405F3FF46EAF33F07042AC
S315000051B07FF46AAF2279002A3FF49CAE64E740464A
S315000051C000F01EFB22692B68117841F080011170F6
S315000051D01178D80041F0100111707FF5E4AEA8E710
S315000051E0002302A8CDE90233CDE9043300F08AF9A1
S315000051F09DF80830DB077FF546AF297C2B68072929
S315000052003FF642AF6A7C032A7FF63EAF37886A686C
S31500005210C7F34137012F01EA020C01EA03002CD043
S3150000522081427FF431AF31880F0608D4BCF1000FFC
S3150000523003D0298900297FF427AFE9686DE60028A5
S31500005240F4D021E74209203200F01F01DFF838C010
S3150000525003FA01F14CF82210BFF34F8FBFF36F8FA3
S3150000526094F931000028FFF630AF4209603200F0B1
S315000052701F018B404CF8223027E78142D3D061458D
S31500005280D1D001E72B68F0E600E100E010B584B06C
S31500005290EFF3058001F0FCFFEFF30383104A103BA8
S315000052A012685BB252F833301C68EFF30383A3F144
S315000052B0100040B2019300F0EDFA5CB12188236A38
S315000052C0A269ADF8041000218DF8061002920BB108
S315000052D001A89847EFF3058001F0D8FF04B010BD90
S315000052E0C4A4000068B1084AB2F8001192F800316F
S315000052F0C1F300016FF300030170002082F8003152
S3150000530070470120704700BF00C00140104991F866
S31500005310043143F0010381F80431B1F80431DB07AD
S315000053200AD54FF0FF3300E07BB1B1F80421D20774
S3150000533003F1FF33F8D443B1054A92F8003160F324
S31500005340000382F80031002070471420704700BF28
S3150000535000C0014070B5274D82B02B6898470021E8
S31500005360AE680320B0470121234AEC698DF801108D
S31500005370032301928DF800300320A047B0F5C97FC2
S31500005380FAD169460520B04728B140F291139842F8
S3150000539001D000BEEC69194A92F8003143F00103CE
S315000053A082F800310520A047B0F5C97FFAD1012364
S315000053B002228DF806308DF800308DF803308DF816
S315000053C0043069468DF801208DF802208DF80520FD
S315000053D02B690520984700B100BE2B6E0420984724
S315000053E0AB6A01209847EB6A9847AB6D984702B0C5
S315000053F070BD00BF789F00000000A04100C00140C2
S3150000540000B583B002A9002341F8043D034B0620F2
S315000054109B699847019803B05DF804FB789F0000EC
S31500005420037803BB41682F4A914230B42ED82E4AE6
S315000054302E4CF1201071107A63F382001072107AEC
S3150000544063F3C3001072107AF02563F34100A142A2
S315000054501072157141D82649264A0B7092F81C31F4
S31500005460002030BC7047012B0ED1224A204992F809
S315000054701C31097803F00703994205D092F81C31D4
S3150000548061F3020382F81C3100207047164B1A485C
S31500005490F1221A711A7A42F004021A721A7A42F04A
S315000054A008021A721A7AF02442F0020281421A7233
S315000054B01C7112D90E4A022313700E4991F81C2151
S315000054C002F007029A42CBD291F81C2163F3020242
S315000054D0002081F81C2130BC7047054A0123137057
S315000054E0EBE700BF0087930300200040005A6202EA
S315000054F0B003FE1F00C0014000B4C40400230370C3
S31500005500704700BF037B027843F0010341F2360186
S3150000551002F0F00203F0FD0310B44160022442F0F1
S315000055201B024FF47A616FF382038460027041803C
S3150000553003735DF8044B7047037843F0030303706D
S31500005540704700BF014B0360704700BF40A00000DA
S31500005550044B002103F1300243F8041B9342FBD1B4
S31500005560704700BFB403FE1F024B43F82010002013
S31500005570704700BFB403FE1F08B56F4BB3F8403148
S31500005580D90700F1CB806C4BB3F840319A0700F194
S31500005590B880694BB3F840315B0700F1A580664BD4
S315000055A0B3F84031180700F19280634BB3F84031ED
S315000055B0D9067FD4604BB3F84001C0F380100028B1
S315000055C06CD15D4BB3F840311A065AD45A4BB3F836
S315000055D04031DB0548D4584BB3F84031980536D4F2
S315000055E0554BB3F84031590524D4534BB3F84031E9
S315000055F01A0512D4504BB3F84031DB0400D408BD71
S315000056004E4BDB6A0BB10B2098474B4AB2F8303150
S3150000561043F48053A2F8303108BD484B9B6A0BB166
S315000056200A209847444AB2F8303143F40063A2F89E
S315000056303031DFE7414B5B6A0BB1092098473E4AA0
S31500005640B2F8303143F48063A2F83031CDE73B4BFA
S315000056501B6A0BB108209847374AB2F8303143F439
S315000056600073A2F83031BBE7344BDB690BB107207E
S315000056709847314AB2F8303143F48073A2F830319A
S31500005680A9E72E4B1B680BB1002098472A4AB2F8AF
S31500005690303143F08003A2F8303197E7274B5B683F
S315000056A003B19847244AB2F8303143F04003A2F8D8
S315000056B0303186E7214B9B690BB1062098471E4A7D
S315000056C0B2F8303143F01003A2F8303172E71B4BC9
S315000056D05B690BB105209847174AB2F8303143F0A1
S315000056E00803A2F8303160E7144B1B690BB10420A4
S315000056F09847114AB2F8303143F00403A2F830312A
S315000057004DE70E4B9B680BB1022098470A4AB2F848
S31500005710303143F00203A2F830313AE7074BDB6839
S315000057200BB103209847044AB2F8303143F0010325
S31500005730A2F8303127E700BF00600040B403FE1F27
S31500005740114B01785A5C02F01F03920630B444886C
S3150000575045780DD501222B2902FA03F00ED0332904
S3150000576004D1012D04BF013305FA03F030BC7047A4
S315000057702C441B1B0120984030BC7047072CF5D9E0
S31500005780013302FA03F0F1E76CA400000378452B1D
S315000057901CD870B5164CE55CFF2D26D014460E4677
S315000057A0FFF7CEFF134BAA0953F8223086B1AA069B
S315000057B000D5D4B1EFF31082012181F31088196866
S315000057C00843186082F31088002070BD01207047DE
S315000057D0EFF31082012181F31088196821EA000095
S315000057E0186082F31088304670BD032070BD00BF7C
S315000057F06CA40000B4A4000000220121FFF7C6BF7C
S3150000580000221146FFF7C2BF034638B1054A92E8A7
S315000058100300002283E80300104670470122104669
S31500005820704700BFDCA40000A0F101000028FBD1F6
S31500005830704700BF2DE9D04301FB00F4FFF7E0FD00
S315000058404FF47A71A4FB018900274FF0FF364F45CC
S3150000585008BF46450E4BB3FBF0F007D3B8FBF0F09C
S31500005860800890B1BDE8D043FFF7DEBF8000B4FBEF
